S02800002E2E2F48414E636F6465725F453430375F5454415F54656D706C6174655F44532E7372656375
S3150800400014D30020191E020800000000000000005A
S315080040100000000000000000000000000000000092
S31508004020000000000000000000000000B9E80108D8
S31508004030000000000000000055E90108A5E9010894
S315080040400000000000000000000000000000000062
S315080040500000000000000000000000000000000052
S315080040600000000011F80108000000000000000030
S315080040700000000000000000000000000000000032
S31508004080000000000000000000000000E1DC01085C
S3150800409099DC0108BDDC010805DD01080000000007
S315080040A0FDF70108E9F70108D5F70108C5F7010882
S315080040B0B1F701089DF7010889F70108000000001B
S315080040C000000000000000000000000000000000E2
S315080040D000000000E90302080104020819040208A6
S315080040E00000000000000000E104020800000000D3
S315080040F075F7010861F7010851F70108000000008B
S31508004100000000004904020800000000000000004A
S315080041100000000000000000000000000000000091
S315080041200000000000000000000000004D04020826
S315080041300000000041F801080000000071DD0108D8
S3150800414029DD01084DDD010895DD01081105020884
S315080041500000000000000000000000003104020812
S315080041600000000000000000000000000000000041
S315080041700000000000000000000000000000000031
S311080041800000000000000000EE11AA5527
S3150800C0000000000000005A400000000000007540D3
S3150800C0100000000000A074400000000000005B4023
S3150800C0200000000000406A4000000000000059407F
S3150800C0300000000000A073400000000000C06A4035
S3150800C0400000000000E0734000000000002074407B
S3150800C050000000000060744000000000000000407E
S3150800C0600000000000001040000000000000F0BFC3
S3150800C0700000000000001040000000000000F03F33
S3150800C080000000000000F03F000000000000F03F44
S3150800C090000000000000F0BF000000000000104093
S3150800C0A0000000000000E03F0000000000005A40C9
S3150800C0B00000000000A07A400000000000A07440C4
S3150800C0C000000000004075400000000000E07440D9
S3150800C0D00000000000005B400000000000C06A404D
S3150800C0E000000000000059400000000000E0734016
S3150800C0F00000000000406B40000000000020744073
S3150800C1000000000000805C400000000000607A40EB
S3150800C1100000000000005A40000000000080744043
S3150800C1200000000000407B400000000000C07A408C
S3150800C1300000000000007B400000000000807B40FB
S3150800C1400000000000C07B400000000000007C40AA
S3150800C1500000000000407C400000000000005B403A
S3150800C1600000000000005C4000000000000059408C
S3150800C1700000000000806A400000000000006B40DC
S3150800C1800000000000806B400000000000007440C2
S3150800C190000000000040744000000000000000405D
S3150800C1A00000000000000000000000000100000080
S3150800C1B0010000000100000000000000010000006E
S3150800C1C00100000000000000200000002000000020
S3150800C1D02000000020000000000000001F000000F2
S3150800C1E01F0000001F0000001F00000000000000E4
S3150800C1F0000001000100000001000000000000002E
S3150800C200010000000100000000000000000000001E
S3150800C210000000000000000000000100000000000F
S3150800C2200D0000000D0000000D0000000D000000CC
S3150800C23000000000000000000C0000000C000000D8
S3150800C2400C0000000C0000000000000000000000C8
S3150800C2500B0000000B0000000B0000000B000000A4
S3150800C26000000000010000000100000000000000BE
S3150800C27001000000010000000000000000000000AE
S3150800C28000000000000036400000000000004640A4
S3150800C2900000000000003740000000000000474092
S3150800C2A00000000000003840000000000000484080
S3150800C2B0000000000080504000000000004051408F
S3150800C2C00000000000005240000000000000364058
S3150800C2D00000000000004640000000000000374053
S3150800C2E00000000000004740000000000000384041
S3150800C2F00000000000004840000000000080504098
S3150800C30000000000004051400000000000005240BC
S3150800C3100000000000000000000000000000594076
S3150800C3200000000000005A400000000000805A404B
S3150800C3300000000000005B400000000000805B4039
S3150800C3400000000000005C400000000000806A4019
S3150800C3500000000000006B400000000000806B40F9
S3150800C3600000000000007440000000000020744037
S3150800C3700000000000407440000000000080744087
S3150800C3800000000000C07A400000000000007B406A
S3150800C3900000000000407B400000000000807B4059
S3150800C3A00000000000C07B400000000000007C4048
S3150800C3B00000000000000000000000000000F03F40
S3150800C3C0000000000000F03F000000000000F03F01
S3150800C3D0000000000000F03F000000000000F03FF1
S3150800C3E00000000000000000000000000000F03F10
S3150800C3F0000000000000F03F000000000000000000
S3150800C400000000000000F03F000000000000F03FC0
S3150800C410000000000000F03F0000000000000000DF
S3150800C420000000000000F03F000000000000F03FA0
S3150800C430000000000000F03F000000000000F03F90
S3150800C440000000000000F03F000000000000F03F80
S3150800C4500000000000000000000000000000594035
S3150800C4600000000000005A400000000000805A400A
S3150800C4700000000000805B400000000000406A40A9
S3150800C4800000000000C06A400000000000A07340E1
S3150800C4900000000000E07340000000000020744027
S3150800C4A00000000000607440000000000080744036
S3150800C4B00000000000C074400000000000000000FA
S3150800C4C0000000000000F03F000000000000F03F00
S3150800C4D0000000000000F03F00000000000000001F
S3150800C4E0000000000000F03F00000000000000000F
S3150800C4F0000000000000F03F000000000000F03FD0
S3150800C500000000000000F03F000000000000F03FBF
S3150800C510000000000000F03F000000000000F03FAF
S3150800C5200000000000000000000000000000594064
S3150800C5300000000000005A400000000000805A4039
S3150800C5400000000000805B400000000000805C40A6
S3150800C5500000000000C06A400000000000406B4078
S3150800C5600000000000E07340000000000020744056
S3150800C5700000000000607A4000000000006074407F
S3150800C5800000000000A074400000000000C07440D5
S3150800C59000000000000075400000000000000000D8
S3150800C5A0000000000000F03F000000000000F03F1F
S3150800C5B0000000000000F03F000000000000F03F0F
S3150800C5C00000000000000000000000000000F03F2E
S3150800C5D00000000000000000000000000000F03F1E
S3150800C5E00000000000000000000000000000F03F0E
S3150800C5F0000000000000F03F000000000000F03FCF
S3150800C600000000000000F03F000000000000F03FBE
S3150800C6100000010101000100010100000001000104
S3150800C6206464640048414E636F6465725F453430E4
S3150800C630375F5454415F54656D706C6174655F442F
S3150800C640535F736F66747761726549445F76315FCD
S3150800C6503036303632335F3134353135310000000B
S3150800C6604170704374726C5461736B0048414E6339
S3150800C6706F6465725F453430375F5454415F546563
S3150800C6806D706C6174655F44532E63002000000072
S3150800C69000140240080009002000000000140240AF
S3150800C6A010000E00200000000014024020000F00B9
S3150800C6B02000000000140240400004002000000092
S3150800C6C0001402408000050020000000001402400B
S3150800C6D000010600200000000014024000020700C6
S3150800C6E020000000001402400004080004000000B6
S3150800C6F00008024001000A00040000000008024089
S3150800C70004000C00414443636F6E76657273696F6B
S3150800C7106E5461736B0000002E2E2F626C6F636B74
S3150800C7207365742F7274772F53544D33322F737287
S3150800C730632F686561705F342E630000546D724321
S3150800C74070754C6F6164000049444C450000000058
S3150800C7502E2E2F626C6F636B7365742F7274772F2E
S3150800C76053544D33322F7372632F7461736B732E68
S3150800C770630000002E2E2F626C6F636B7365742F37
S3150800C7807274772F53544D33322F7372632F746933
S3150800C7906D6572732E630000546D722053766300C4
S3150800C7A043616E4576656E745461736B00000000D4
S3150800C7B043616E5472616E736D69745461736B0074
S3150800C7C02E2E2F626C6F636B7365742F7274772FBE
S3150800C7D053544D33322F7372632F53544D33325F94
S3150800C7E0453430372F63616E2E63000000640040C5
S3150800C7F00000000208000000000C024001000000D2
S3150800C80008000000000C024002000100091314157C
S3150800C8101600000000680040000000040200000046
S3150800C8200004024020000500020000000004024047
S3150800C83040000600093F4041420000000101020194
S3150800C84002020202020302020402020303030403B1
S3150800C8500305030306030305040406040407040486
S3150800C8600804040705050805050806050807050858
S3150800C87007060808060808070808080045764368F2
S3150800C8806E6C3100457643686E6C320045764368B7
S3150800C8906E6C33002E2E2F626C6F636B7365742F6C
S3150800C8A07274772F53544D33322F7372632F535448
S3150800C8B04D33325F453430372F6D61632E63000088
S3150800C8C02E2E2F626C6F636B7365742F7274772FBD
S3150800C8D053544D33322F7372632F53544D33325F93
S3150800C8E0453430372F706F72742E63000000014094
S3150800C8F001000000020100001000000000100240C4
S3150800C90000020900100000000010024000080B0099
S3150800C91000040040020000000102000001000000BF
S3150800C9200000024040000600020000000004024029
S3150800C9302000050000080040040000000102000075
S3150800C94008000000000C024000100C00080000005F
S3150800C950000C024000200D00000401400200000007
S3150800C9600203000004000000000802404000060020
S3150800C9700400000000080240800007000000014093
S3150800C980010000000201190000000040010000003B
S3150800C99001021C00000400400200000001021D0004
S3150800C9A0000800400400000001021E0000040140C7
S3150800C9B00200000002012C000040014000000100B6
S3150800C9C0020118000044014000000200020119009B
S3150800C9D0004801400000040002011A00001C004043
S3150800C9E08000000001022C00002000400001000029
S3150800C9F001022D0010000000001002400002000095
S3150800CA0001000900100000000010024000080001A3
S3150800CA1001000B0010000000001002400020000278
S3150800CA2001000D0010000000001002400040000345
S3150800CA3001000E0001000000000002402000010075
S3150800CA40010005000100000000000240400002004D
S3150800CA500200060002000000000402402000020155
S3150800CA600200050008000000000C02400010030048
S3150800CA7002000C0008000000000C02400020030120
S3150800CA8002000D00040000000008024040000400F7
S3150800CA9003000600040000000008024080000401AC
S3150800CAA003000700100000000010024020000500E7
S3150800CAB003000500100000000010024040000501B8
S3150800CAC00300060020000000001402404000060093
S3150800CAD00300060020000000001402408000070042
S3150800CAE003000700200000000014024000010800AF
S3150800CAF00900080020000000001402400002090096
S3150800CB0009000900040000000008024001000000B6
S3150800CB102000000000140240400000002000000031
S3150800CB2000140240800000002000000000140240AB
S3150800CB30000100002000000000140240000200006E
S3150800CB40200000000014024000040000020000005B
S3150800CB5000040240800000000200000000040240B9
S3150800CB604000000010000000001002400400000011
S3150800CB701000000000100240100000001000000025
S3150800CB8000100240200000001000000000100240C3
S3150800CB90400000004000000000180240800000002D
S3150800CBA0400000000018024000010000400000009C
S3150800CBB00018024000100000400000000018024063
S3150800CBC00080000001000000000002401000000084
S3150800CBD002000000000402402000000001000000DE
S3150800CBE00000024040000000010000000000024072
S3150800CBF02000000008000000000C024001000000B0
S3150800CC0008000000000C02400200000008000000B6
S3150800CC10000C02400400000008000000000C02405E
S3150800CC200800000008000000000C02401000000088
S3150800CC3008000000000C0240200000000800000068
S3150800CC40000C02404000000008000000000C0240F2
S3150800CC508000000008000000000C024000010000EF
S3150800CC6008000000000C0240000200000800000056
S3150800CC70000C02400004000008000000000C0240FE
S3150800CC800008000008000000000C02400010000028
S3150800CC9008000000000C0240002000000800000008
S3150800CCA0000C02400040000008000000000C024092
S3150800CCB00080000010000000001002400100000083
S3150800CCC010000000001002400200000010000000E2
S3150800CCD0001002400800000010000000001002408A
S3150800CCE08000000010000000001002400001000053
S3150800CCF010000000001002400002000010000000B2
S3150800CD00001002400004000010000000001002405D
S3150800CD10000800001000000000100240001000008B
S3150800CD201000000000100240002000001000000063
S3150800CD3000100240004000001000000000100240F1
S3150800CD4000800000200000000014024001000000DE
S3150800CD50200000000014024002000000200000002D
S3150800CD6000140240040000002000000000140240E5
S3150800CD700800000020000000001402401000000017
S3150800CD8020000000001402402000000020000000DF
S3150800CD9000140240000800002000000000140240B1
S3150800CDA000100000200000000014024000200000CF
S3150800CDB0200000000014024000400000200000008F
S3150800CDC000140240008000004000000000180240E5
S3150800CDD001000000400000000018024002000000A8
S3150800CDE04000000000180240040000004000000057
S3150800CDF00018024008000000400000000018024029
S3150800CE00100000004000000000180240200000004A
S3150800CE1040000000001802404000000040000000EA
S3150800CE2000180240000200004000000000180240FE
S3150800CE30000400004000000000180240000800003E
S3150800CE4040000000001802400020000040000000DA
S3150800CE5000180240004000000100000000000240E7
S3150800CE600100000004000000000802400100000064
S3150800CE7020000000001402404000000020000000CE
S3150800CE800014024080000000200000000014024048
S3150800CE90000100002000000000140240000200000B
S3150800CEA020000000001402400004000002000000F8
S3150800CEB00004024080000000020000000004024056
S3150800CEC040000000100000000010024004000000AE
S3150800CED010000000001002401000000010000000C2
S3150800CEE00010024020000000100000000010024060
S3150800CEF040000000400000000018024080000000CA
S3150800CF004000000000180240000100004000000038
S3150800CF1000180240001000004000000000180240FF
S3150800CF200080000001000000000002401000000020
S3150800CF30020000000004024020000000010000007A
S3150800CF40000002404000000001000000000002400E
S3150800CF502000000008000000000C0240010000004C
S3150800CF6008000000000C0240020000000800000053
S3150800CF70000C02400400000008000000000C0240FB
S3150800CF800800000008000000000C02401000000025
S3150800CF9008000000000C0240200000000800000005
S3150800CFA0000C02404000000008000000000C02408F
S3150800CFB08000000008000000000C0240000100008C
S3150800CFC008000000000C02400002000008000000F3
S3150800CFD0000C02400004000008000000000C02409B
S3150800CFE00008000008000000000C024000100000C5
S3150800CFF008000000000C02400020000008000000A5
S3150800D000000C02400040000008000000000C02402E
S3150800D010008000001000000000100240010000001F
S3150800D020100000000010024002000000100000007E
S3150800D0300010024008000000100000000010024026
S3150800D04080000000100000000010024000010000EF
S3150800D050100000000010024000020000100000004E
S3150800D06000100240000400001000000000100240FA
S3150800D0700008000010000000001002400010000028
S3150800D0801000000000100240002000001000000000
S3150800D090001002400040000010000000001002408E
S3150800D0A0008000002000000000140240010000007B
S3150800D0B020000000001402400200000020000000CA
S3150800D0C00014024004000000200000000014024082
S3150800D0D008000000200000000014024010000000B4
S3150800D0E0200000000014024020000000200000007C
S3150800D0F0001402400008000020000000001402404E
S3150800D100001000002000000000140240002000006B
S3150800D110200000000014024000400000200000002B
S3150800D1200014024000800000400000000018024081
S3150800D1300100000040000000001802400200000044
S3150800D14040000000001802400400000040000000F3
S3150800D15000180240080000004000000000180240C5
S3150800D16010000000400000000018024020000000E7
S3150800D1704000000000180240400000004000000087
S3150800D180001802400002000040000000001802409B
S3150800D19000040000400000000018024000080000DB
S3150800D1A04000000000180240002000004000000077
S3150800D1B00018024000400000040000000008024079
S3150800D1C000200000000001400100000002011B00D1
S3150800D1D0000000400100000001021C00000400409D
S3150800D1E00200000001021D000008004004000000C3
S3150800D1F001021E00000401400200000002012E0088
S3150800D20000400140000001000201180000440140EE
S3150800D2100000020002011900004801400000040055
S3150800D22002011A00001C00408000000001022C00C8
S3150800D230002000400001000001022D00100000003F
S3150800D240001002400002000002000200010009006E
S3150800D2501000000000100240000800010400200031
S3150800D26001000B0010000000001002400020000220
S3150800D2700800000201000D00100000000010024026
S3150800D280004000031000002001000E00010000000D
S3150800D2900000024020000100020002000100050013
S3150800D2A001000000000002404000020002000200E7
S3150800D2B002000600020000000004024020000201ED
S3150800D2C0040020000200050008000000000C0240CF
S3150800D2D0001003000200020002000C000800000013
S3150800D2E0000C0240002003010400200002000D008B
S3150800D2F0040000000008024040000400020002008A
S3150800D3000300060004000000000802408000040133
S3150800D310040020000300070010000000001002406F
S3150800D32020000500020002000300050010000000AE
S3150800D330001002404000050104002000030006001A
S3150800D340200000000014024040000600020002000F
S3150800D35003000600200000000014024080000700B9
S3150800D360020002000300070020000000001402402B
S3150800D3700001080002000200090008002000000061
S3150800D3800014024000020900020002000900090018
S3150800D39000100140100000000225000002000000F5
S3150800D3A0000402404000060002000000000402409B
S3150800D3B0800007000700000000440040000002004B
S3150800D3C00126000008000000000C024020000500AD
S3150800D3D008000000000C024040000600070000009C
S3150800D3E00048004000000400012700000800000073
S3150800D3F0000C02400001080008000000000C024072
S3150800D4000002090007000000001401402000000087
S3150800D4100247000004000000000802404000060021
S3150800D4200400000000080240800007000800000011
S3150800D43056435020436F6E66696700005643502076
S3150800D440496E7465726661636500000053544D69E0
S3150800D45063726F656C656374726F6E6963730000DF
S3150800D46053544D3332205669727475616C20436F7C
S3150800D4706D506F727420696E204853206D6F646515
S3150800D4800000000053544D3332205669727475619A
S3150800D4906C20436F6D506F727420696E204653205E
S3150800D4A04D6F646500000000303030303030303069
S3150800D4B03035304200000000303030303030303007
S3150800D4C03035304300000000000001400100000034
S3150800D4D002011B00000000400100000001021C00C0
S3150800D4E0000400400200000001021D000008004080
S3150800D4F00400000001021E000004014002000000B2
S3150800D50002012E000040014000000100020118003F
S3150800D51000440140000002000201190000480140D1
S3150800D5200000040002011A00001C004080000000F0
S3150800D53001022C00002000400001000001022D001D
S3150800D5401000000000100240000200000200020065
S3150800D5500100090010000000001002400008000148
S3150800D5600400200001000B0010000000001002401B
S3150800D570002000020800000201000D001000000053
S3150800D58000100240004000031000002001000E00B9
S3150800D5900100000000000240200001000200020015
S3150800D5A001000500010000000000024040000200E2
S3150800D5B00200020002000600020000000004024009
S3150800D5C020000201040020000200050008000000F7
S3150800D5D0000C0240001003000200020002000C00CA
S3150800D5E008000000000C024000200301040020008F
S3150800D5F002000D000400000000080240400004007C
S3150800D60002000200030006000400000000080240B1
S3150800D6108000040104002000030007001000000039
S3150800D6200010024020000500020002000300050069
S3150800D6301000000000100240400005010400200010
S3150800D6400300060020000000001402404000060007
S3150800D6500200020003000600200000000014024039
S3150800D66080000700020002000300070020000000F7
S3150800D6700014024000010800020002000900080028
S3150800D6802000000000140240000209000200020007
S3150800D690090009002E2E2F626C6F636B7365742F59
S3150800D6A07274772F53544D33322F7372632F7175FB
S3150800D6B06575652E6300000004040400CCD60008D6
S3150800D6C0D4D60008DCD60008070707004576436865
S3150800D6D06E6C3100457643686E6C32004576436859
S3150800D6E06E6C3300505050004FBB610567ACDD3F90
S3150800D6F0182D4454FB21E93F9BF681D20B73EF3F6B
S3150800D700182D4454FB21F93FE2652F227F2B7A3CE2
S3150800D710075C143326A6813CBDCBF07A8807703C9B
S3150800D720075C143326A6913C0000000000000000A8
S3150800D7300000000000000080FB21F93FFB210940A2
S3150800D7407CD91240FB2119407A6A1F407CD92240B5
S3150800D750BBFD2540FB2129403A462C407A6A2F40DA
S3150800D7605C4731407CD932409C6B3440BBFD354028
S3150800D770DB8F3740FB2139401BB43A403A463C40E0
S3150800D7805AD83D407A6A3F404C7E40405C4741400B
S3150800D7906C1042407CD942408CA243409C6B44406A
S3150800D7A0AC344540BBFD4540CBC64640DB8F4740C1
S3150800D7B0EB584840FB21494083F9A200444E6E00CD
S3150800D7C0FC291500D1572700DD34F50062DBC000BF
S3150800D7D03C999500419043006351FE00BBDEAB00C7
S3150800D7E0B761C5003A6E2400D24D42004906E000F2
S3150800D7F009EA2E001C92D100EB1DFE0029B11C007F
S3150800D800E83EA700F535820044BB2E009CE984005B
S3150800D810B4267000417E5F00D691390053833900E3
S3150800D8209CF439008B5F840028F9BD00F81F3B0083
S3150800D830DEFF97000F980500112FEF000A5A8B009C
S3150800D8406D1F6D00CF7E360009CB2700464FB70007
S3150800D8509E663F002DEA5F00BA277500E5EBC70014
S3150800D8603D7BF100F739070092528A00FB6BEA000C
S3150800D8701FB15F00085D8D00300356007BFC460033
S3150800D880F0AB6B0020BCCF0036F49A00E3A91D006C
S3150800D8905E619100081BE60085996500A0145F008B
S3150800D8A08D40680080D8FF0027734D0006063100BA
S3150800D8B0CA561500C9A873007BE260006B8CC000CD
S3150800D8C000000040FB21F93F000000002D44743E93
S3150800D8D0000000809846F83C0000006051CC783B78
S3150800D8E000000080831BF0390000004020257A38AC
S3150800D8F0000000802282E336000000001DF369352F
S3150800D90002000000030000000400000006000000FA
S315080100000B78FF2B00D070474B78002BFBD10BF0F8
S31508010010D3BF00BF08B501200BF006FABDE80840BA
S31508010020024A40F2676100200EF01CB8010001087F
S315080100300BF006B9704700BFF8B504460D469DF8A2
S315080100401800002A35D0264E184616F075F8D6E956
S31508010050002316F0EBF822462B4615F031FF214B0B
S31508010060002215F02DFF089B04460D4618881E4FE1
S3150801007016F062F802460B462046294615F01EFF81
S31508010080002632463B4604460D4616F05FFB18B17C
S31508010090079BC3E90067F8BD144F00263B46204677
S315080100A02946324616F034FB079BA8B1C3E9006717
S315080100B0F8BD0F4E16F040F8D6E9002316F0B6F84B
S315080100C022462B4615F0FCFE064B002215F0F8FEDB
S315080100D0099B04460D46C9E7C3E90045F8BD00BFBB
S315080100E0080000200000084000002E4000002EC035
S315080100F010000020704700BF2DE9F047DDF820A069
S315080101000F461E4604462D4BDAE9000190460022A9
S3150801011015F0D6FEDDE909590123CAE900013B704C
S31508010120D9F800101944264B1960C9F80010366829
S3150801013007EE106AB8EE477AF7EE007AB4EE677AF8
S31508010140F1EE10FA03D11D4B0022C8E900232778E6
S31508010150DFF87880384615F0EFFF1A4BC8E9000139
S315080101601E602F712E60E2796A7194F8019085F804
S31508010170069094F8028085F8078094F803E085F8DC
S3150801018008E094F804C085F809C031466679AE726C
S315080101900D4BA079E8729871DA711F7083F8019096
S315080101A083F8028083F803E083F804C05E710822AD
S315080101B0BDE8F04700200DF0E1BC00BF0000F03FAC
S315080101C058070020600700206C08002068070020F7
S315080101D008B5012100200DF0D5FE0B2100200DF0F8
S315080101E0D1FE0C2100200DF0CDFE0D2100200DF0D1
S315080101F0C9FE162100200DF0C5FE2C2100200DF0A8
S31508010200C1FE422100200DF0BDFE172100200DF090
S31508010210B9FE2E2100200DF0B5FE452100200DF076
S31508010220B1FE182100200DF0ADFE302100200DF0A1
S31508010230A9FE482100200DF0A5FE1F2100200DF082
S31508010240A1FEBDE80840202100200DF09BBE00BF9D
S315080102502DE9F04F2DED108B9FB0CDE914233E9D6E
S31508010260C84A2B68DFF824A3399E1390013313601B
S315080102702B60389B1F68CAF8007007EE107AF8EEF3
S31508010280478AF7EE007AF4EE678AF1EE10FADDE9AD
S315080102903C488B4600F0C284EB79B0EE689A002B95
S315080102A040F0DA81F2EE067AB4EE679AF1EE10FAC8
S315080102B000F0DD81AB79F0EE499A002B40F093818D
S315080102C0F2EE087AF4EE679AF1EE10FA00F09681EA
S315080102D06B79B0EE69AA002B40F05A81F2EE0A7AE0
S315080102E0B4EE67AAF1EE10FA00F05D812B79002BC6
S315080102F040F04481384615F01FFF98ED007B024611
S315080103000B46CDE91023B0EE47CAF0EE67CA53ECA7
S31508010310172B16F0F3F9002840F00F83AB7C002B5E
S3150801032040F024819DED107B8DED027B98ED027BDB
S31508010330DDE90223B0EE47DAF0EE67DA51EC170B86
S3150801034016F0DCF9002840F08B826B7C002B00F05C
S315080103504C829DED027B8DED047B002363736B74E8
S3150801036098ED0C7BDDE90423B0EE47EAF0EE67EA87
S3150801037051EC170B16F0C2F9002840F06783AB7AE7
S31508010380002B00F017829DED047B8DED067B002383
S31508010390A371AB7298ED047BDDE90623B0EE47FA4B
S315080103A0F0EE67FA51EC170B16F0A8F9002840F0A1
S315080103B06B842B7C002B00F0F8819DED067B8DED7F
S315080103C0087B002323732B7498ED067BDDE908234C
S315080103D051EC170B8DED167B16F090F9002840F0BD
S315080103E009826B7B002B00F0FB819DED087B8DED6F
S315080103F00A7B002363726B7398ED0E7BDDE90A2392
S3150801040051EC170B8DED187B16F078F9002840F0A2
S31508010410BF836B7A002B00F0DE819DED0A7B8DEDA3
S315080104200E7B002363716B7298ED087BDDE90E2361
S3150801043051EC170B8DED1A7B16F060F9002840F088
S3150801044071832B7B002B00F0C1819DED0E7B8DED19
S315080104500C7B002323722B7398ED0A7BDDE90C23B1
S3150801046051EC170B8DED1C7B16F048F9002840F06E
S315080104702383EB7A002B00F0A2819DED0C7B0023F0
S31508010480E371EB72B0EE47BAF0EE67BAD8E91089B4
S3150801049053EC1B2B4046494616F030F9002840F02C
S315080104A0AD822B7A13B1002323712B7207EE907A52
S315080104B0B8EE678AF3EE0F7AB4EE678AF1EE10FAB0
S315080104C000F07182EB7BF0EE487A13B10023E372F8
S315080104D0EB739FED2D7AF4EE477AF1EE10FA00F000
S315080104E00582AB7B13B10023A372AB73F7EE007AD7
S315080104F0F4EE678AF1EE10FA40F03D8194F9033083
S3150801050094F8270094F828E094F829C094F82A70FA
S3150801051094F82B5094F82C1094F82D2094F82E402A
S3150801052096F8008007EE908AF8EEE77AB7EE008A29
S31508010530F4EE487AF1EE10FA40F0CE808BB9022239
S3150801054032703A9A01231370337807EE903AF8EE2F
S31508010550E77AB0EE007AF4EE477AF1EE10FA40F057
S31508010560FB801FB0BDEC108BBDE8F08F9DED107BB5
S315080105700023A3738DED027BAB74D7E600232370AA
S315080105802B71B7E6E806002000000042F0060020BD
S31508010590F2EE0A7AB4EE67AA0023F1EE10FA637056
S315080105A06B717FF4A3AEC94F002201230092104656
S315080105B02B710D213B460DF011FD002820700FDD32
S315080105C07B782374BB786374FB78A3743B79E374F3
S315080105D07B792375BB796375FB79A3753B78E373DF
S315080105E0DAF8007086E6F2EE087AF4EE679A0023E6
S315080105F0F1EE10FAA370AB717FF46AAEDFF8DC9204
S3150801060000220123009210466B710C214B460DF016
S31508010610E5FC6070DAF8007007EE907A0028B8EE0B
S3150801062067AA7FF75BAE99F80130237699F802300D
S31508010630637699F80330A37699F80430E37699F846
S315080106400530237799F80630637799F80730A37749
S3150801065099F80030E37541E6F2EE067AB4EE679A48
S315080106600023F1EE10FAE370EB717FF423AEDFF8A5
S3150801067070920022012300921046AB710B214B4662
S315080106800DF0ACFCA070DAF8007007EE907A00283D
S31508010690F8EE679A7FF714AE99F8013084F820309E
S315080106A099F8023084F8213099F8033084F8223019
S315080106B099F8043084F8233099F8053084F8243001
S315080106C099F8063084F8253099F8073084F82630E9
S315080106D099F80030E377F3E5B0EE007AF4EE477A5D
S315080106E0F1EE10FA38D1002B7FF73BAF8BF80620D5
S315080106F03A9A8BF801E001238BF807408BF8000042
S315080107008BF802C08BF803708BF804508BF8051030
S315080107101370159A6E4C137003233370139B6D4A2D
S315080107201B881380149A138015F006FD389BD3EDA8
S31508010730007AF8EE677AC4E90001F4EE487AF1EE38
S3150801074010FA04D1644B3B990022C1E9002333789E
S3150801075007EE903AF8EEE77AF5EE407AF1EE10FAFE
S315080107607FF4FFAE3A9A0123337013701FB0BDECC4
S31508010770108BBDE8F08FF2EE067AB4EE679AF1EEC9
S3150801078010FA40F0B88294F90230E07F94F820E03C
S3150801079094F821C094F8227094F8235094F8241000
S315080107A094F8252094F82640BAE69DED067B8DED52
S315080107B0087B09E69DED047B8DED067BEAE59DED5B
S315080107C00C7BB0EE47BAF0EE67BA5FE69DED0E7B9D
S315080107D08DED0C7B40E69DED0A7B8DED0E7B23E6C8
S315080107E09DED087B8DED0A7B06E69DED027B8DED81
S315080107F0047BB5E5DFF8EC90002201230092104650
S315080108006B732E214B460DF0E9FB0028DAF80070D0
S3150801081060721FDD99F8013084F8583099F8023072
S3150801082084F8593099F8033084F85A3099F8043025
S3150801083084F85B3099F8053084F85C3099F806300D
S3150801084084F85D3099F8073084F85E3099F80030FD
S3150801085084F85730384615F06FFCCDE90A01CBE527
S31508010860DFF8849000220123009210466B742C2134
S315080108704B460DF0B3FB0028DAF8007060731FDDF4
S3150801088099F8013084F8783099F8023084F879308B
S3150801089099F8033084F87A3099F8043084F87B3073
S315080108A099F8053084F87C3099F8063084F87D305B
S315080108B099F8073084F87E3099F8003084F8773053
S315080108C0384615F039FCCDE9040149E58C070020C5
S315080108D008070020FE0600200000F03F84070020DC
S315080108E07C070020CC070020C4070020C34F002244
S315080108F0012300921046AB7320213B460DF06EFB97
S315080109000028A0727FF7F2AD7B7884F86030BB7857
S3150801091084F86130FB7884F862303B7984F8633077
S315080109207B7984F86430BB7984F86530FB7984F87F
S3150801093066303B7884F85F30D8E5DFF8CC92002240
S31508010940012300921046AB7416214B460DF046FB67
S315080109500028DAF80070A0731FDD99F8013084F8D1
S31508010960803099F8023084F8813099F8033084F898
S31508010970823099F8043084F8833099F8053084F880
S31508010980843099F8063084F8853099F8073084F868
S31508010990863099F8003084F87F30384615F0CCFB5C
S315080109A0CDE90201C2E4964F0022012300921046C6
S315080109B0EB731F213B460DF011FBDAED007AE0726D
S315080109C00028F8EE677A7FF784AD7B7884F868307B
S315080109D0BB7884F86930FB7884F86A303B7984F807
S315080109E06B307B7984F86C30BB7984F86D30FB7990
S315080109F084F86E303B7884F867306AE5814F0022C7
S31508010A000123009210462B7248213B460DF0E6FA67
S31508010A100028207117DD7B7884F83030BB7884F89C
S31508010A203130FB7884F832303B7984F833307B797E
S31508010A3084F83430BB7984F83530FB7984F836305C
S31508010A403B7884F82F30DAF800702FE5DFF8BC918F
S31508010A500022012300921046AB7242214B460DF04B
S31508010A60BDFA0028DAF80070A0711FDD99F8013087
S31508010A7084F8403099F8023084F8413099F8033007
S31508010A8084F8423099F8043084F8433099F80530EF
S31508010A9084F8443099F8063084F8453099F80730D7
S31508010AA084F8463099F8003084F83F30384615F016
S31508010AB043FBCDE906016DE4DFF8549100220123D9
S31508010AC000921046EB7230214B460DF087FA00284A
S31508010AD0DAF80070E0711FDD99F8013084F84830C2
S31508010AE099F8023084F8493099F8033084F84A3085
S31508010AF099F8043084F84B3099F8053084F84C306D
S31508010B0099F8063084F84D3099F8073084F84E3054
S31508010B1099F8003084F84730384615F00DFB41EC5A
S31508010B201B0BB3E4DFF8EC90002201230092104678
S31508010B302B7318214B460DF051FA0028DAF800708C
S31508010B4020721FDD99F8013084F8503099F8023087
S31508010B5084F8513099F8033084F8523099F8043002
S31508010B6084F8533099F8053084F8543099F80630EA
S31508010B7084F8553099F8073084F8563099F80030DA
S31508010B8084F84F30384615F0D7FACDE90C0163E4FD
S31508010B90DFF8849000220123009210466B724521EA
S31508010BA04B460DF01BFA0028DAF8007060711FDD5C
S31508010BB099F8013084F8383099F8023084F83930D8
S31508010BC099F8033084F83A3099F8043084F83B30C0
S31508010BD099F8053084F83C3099F8063084F83D30A8
S31508010BE099F8073084F83E3099F8003084F83730A0
S31508010BF0384615F0A1FACDE90E0115E4BC07002027
S31508010C00B4070020EC0700209C070020DC07002021
S31508010C10D4070020AC070020E4070020DFF8709312
S31508010C200022012100924B46E97110460DF0D6F9D2
S31508010C30E070DAF8007007EE907A0028B8EE679A45
S31508010C407FF730AB99F8013084F8283099F80230EB
S31508010C5084F8293099F8033084F82A3099F8043051
S31508010C6084F82B3099F8053084F82C3099F8063039
S31508010C7084F82D3099F8073084F82E3099F8003029
S31508010C8084F82730FFF70EBBDFF80893002201230B
S31508010C90009210462B7417214B460DF09FF9002838
S31508010CA0DAF8007020731FDD99F8013084F8703086
S31508010CB099F8023084F8713099F8033084F8723063
S31508010CC099F8043084F8733099F8053084F874304B
S31508010CD099F8063084F8753099F8073084F8763033
S31508010CE099F8003084F86F30384615F025FACDE9C1
S31508010CF00801FFF769BBF2EE087AF4EE679AF1EE9E
S31508010D0010FA14D0F2EE0A7AB4EE67AAF1EE10FAE6
S31508010D101BD194F90030E07B94F810E094F811C0E7
S31508010D20A77CE57C217D627DA47DFFF7F9BB94F95B
S31508010D300130E07D94F818E094F819C0A77EE57EA5
S31508010D40217F627FA47FFFF7EBBBDDE9100153EC3E
S31508010D501C2B15F0D3FCD0B9DDE9022351EC1D0B90
S31508010D6015F0CCFC38B394F90D3094F8770094F863
S31508010D7078E094F879C094F87A7094F87B5094F8EE
S31508010D807C1094F87D2094F87E40FFF7C9BB94F94E
S31508010D900E3094F87F0094F880E094F881C094F8B6
S31508010DA0827094F8835094F8841094F8852094F806
S31508010DB08640FFF7B5BBDDE9042351EC1E0B15F0A0
S31508010DC09DFC98B194F9063094F83F0094F840E0F8
S31508010DD094F841C094F8427094F8435094F844103A
S31508010DE094F8452094F84640FFF79ABBDDE90623B7
S31508010DF051EC1F0B15F082FC98B194F90C3094F85C
S31508010E006F0094F870E094F871C094F8727094F8D1
S31508010E10735094F8741094F8752094F87640FFF797
S31508010E207FBBDDE90823DDE9160115F067FC98B1FA
S31508010E3094F9093094F8570094F858E094F859C091
S31508010E4094F85A7094F85B5094F85C1094F85D2005
S31508010E5094F85E40FFF764BBDDE90A23DDE9180172
S31508010E6015F04CFC98B194F9053094F8370094F8CC
S31508010E7038E094F839C094F83A7094F83B5094F8ED
S31508010E803C1094F83D2094F83E40FFF749BBDDE954
S31508010E900E23DDE91A0115F031FC98B194F90830F1
S31508010EA094F84F0094F850E094F851C094F85270B1
S31508010EB094F8535094F8541094F8552094F85640E1
S31508010EC0FFF72EBBDDE90C23DDE91C0115F016FC45
S31508010ED098B194F9073094F8470094F848E094F8E3
S31508010EE049C094F84A7094F84B5094F84C1094F809
S31508010EF04D2094F84E40FFF713BB53EC1B2B40468D
S31508010F00494615F0FBFB98B194F9043094F82F0083
S31508010F1094F830E094F831C094F8327094F833506C
S31508010F2094F8341094F8352094F83640FFF7F8BA57
S31508010F30F3EE0F7AB4EE678AF1EE10FA13D194F94B
S31508010F400B3094F8670094F868E094F869C094F84F
S31508010F506A7094F86B5094F86C1094F86D2094F8B4
S31508010F606E40FFF7DDBA94F90A3094F85F0094F8F9
S31508010F7060E094F861C094F8627094F8635094F84C
S31508010F80641094F8652094F86640FFF7C9BA00BF63
S31508010F9094070020A4070020012108B508460CF093
S31508010FA0F1FF0B2101200CF0EDFF0C2101200CF0C3
S31508010FB0E9FF0D2101200CF0E5FF162101200CF0B7
S31508010FC0E1FF2C2101200CF0DDFF422101200CF06C
S31508010FD0D9FF172101200CF0D5FF2E2101200CF095
S31508010FE0D1FF452101200CF0CDFF182101200CF07D
S31508010FF0C9FF302101200CF0C5FF482101200CF062
S31508011000C1FF1F2101200CF0BDFFBDE808402021CA
S3150801101001200CF0B7BF00BF2DE9F04F2DED108B65
S315080110209FB0CDE914233E9DC84A2B68DFF824A357
S31508011030399E1390013313602B60389B1F68CAF8D9
S31508011040007007EE107AF8EE478AF7EE007AF4EEAA
S31508011050678AF1EE10FADDE93C488B4600F0A68472
S31508011060EB79B0EE689A002B40F0D881F2EE067A59
S31508011070B4EE679AF1EE10FA00F0DB81AB79F0EE87
S31508011080499A002B40F09281F2EE087AF4EE679ABB
S31508011090F1EE10FA00F095816B79B0EE69AA002B92
S315080110A040F05A81F2EE0A7AB4EE67AAF1EE10FA26
S315080110B000F05D812B79002B40F04481384615F00C
S315080110C03BF898ED007B02460B46CDE91023B0EEBE
S315080110D047CAF0EE67CA53EC172B15F00FFB002829
S315080110E040F00A83AB7C002B40F024819DED107BF8
S315080110F08DED027B98ED027BDDE90223B0EE47DA3E
S31508011100F0EE67DA51EC170B15F0F8FA002840F003
S3150801111087826B7C002B00F049829DED027B8DED69
S31508011120047B002363736B7498ED0C7BDDE9042360
S31508011130B0EE47EAF0EE67EA51EC170B15F0DEFA66
S31508011140002840F05F83AB7A002B00F014829DEDF6
S31508011150047B8DED067B0023A371AB7298ED047BAE
S31508011160DDE90623B0EE47FAF0EE67FA51EC170B04
S3150801117015F0C4FA002840F061842B7C002B00F09E
S31508011180F5819DED067B8DED087B002323732B747A
S3150801119098ED067BDDE9082351EC170B8DED167BDF
S315080111A015F0ACFA002840F006826B7B002B00F0A4
S315080111B0F8819DED087B8DED0A7B002363726B73C5
S315080111C098ED0E7BDDE90A2351EC170B8DED187BA3
S315080111D015F094FA002840F0B4836B7A002B00F0DE
S315080111E0DB819DED0A7B8DED0E7B002363716B72AE
S315080111F098ED087BDDE90E2351EC170B8DED1A7B73
S3150801120015F07CFA002840F067832B7B002B00F051
S31508011210BE819DED0E7B8DED0C7B002323722B7316
S3150801122098ED0A7BDDE90C2351EC170B8DED1C7B40
S3150801123015F064FA002840F01A83EB7A002B00F0C7
S315080112409F819DED0C7B0023E371EB72B0EE47BAEB
S31508011250F0EE67BAD8E9108953EC1B2B404649468C
S3150801126015F04CFA002840F0A6822B7A13B1002318
S3150801127023712B7207EE907AB8EE678AF3EE0F7A2E
S31508011280B4EE678AF1EE10FA00F06B82EB7BF0EEB2
S31508011290487A13B10023E372EB739FED2D7AF4EECE
S315080112A0477AF1EE10FA00F00182AB7B13B1002305
S315080112B0A372AB73F7EE007AF4EE678AF1EE10FAD1
S315080112C040F03A8194F9033094F8270094F828E01D
S315080112D094F829C094F82A7094F82B5094F82C1095
S315080112E094F82D2094F82E4096F8008007EE908AFF
S315080112F0F8EEE77AB7EE008AF4EE487AF1EE10FADC
S3150801130040F0CB808BB9022232703A9A01231370CE
S31508011310337807EE903AF8EEE77AB0EE007AF4EE13
S31508011320477AF1EE10FA40F0F8801FB0BDEC108B49
S31508011330BDE8F08F9DED107B0023A3738DED027B35
S31508011340AB74D7E6002323702B71B7E6EC060020B1
S3150801135000000042F4060020F2EE0A7AB4EE67AA0B
S315080113600023F1EE10FA63706B717FF4A3AEC74FD9
S315080113700120002228713B4600920D210CF02EFE19
S31508011380002820700FDD7B782374BB786374FB78A3
S31508011390A3743B79E3747B792375BB796375FB7910
S315080113A0A3753B78E373DAF8007087E6F2EE087AFC
S315080113B0F4EE679A0023F1EE10FAA370AB717FF48D
S315080113C06BAEDFF8D8920120002268714B46009275
S315080113D00C210CF003FE6070DAF8007007EE907AC3
S315080113E00028B8EE67AA7FF75DAE99F80130237633
S315080113F099F80230637699F80330A37699F80430A0
S31508011400E37699F80530237799F80630637799F8E2
S315080114100730A37799F80030E37543E6F2EE067ACA
S31508011420B4EE679A0023F1EE10FAE370EB717FF4DC
S3150801143025AEDFF86C9201200022A8714B46009276
S315080114400B210CF0CBFDA070DAF8007007EE907A4C
S315080114500028F8EE679A7FF717AE99F8013084F8F5
S31508011460203099F8023084F8213099F8033084F84D
S31508011470223099F8043084F8233099F8053084F835
S31508011480243099F8063084F8253099F8073084F81D
S31508011490263099F80030E377F6E5B0EE007AF4EEF7
S315080114A0477AF1EE10FA38D1002B7FF73EAF8BF869
S315080114B006203A9A8BF801E001238BF807408BF84E
S315080114C000008BF802C08BF803708BF804508BF878
S315080114D005101370159A6E4C137003233370139B02
S315080114E06C4A1B881380149A138014F025FE389BC6
S315080114F0D3ED007AF8EE677AC4E90001F4EE487A8A
S31508011500F1EE10FA04D1644B3B990022C1E900239C
S31508011510337807EE903AF8EEE77AF5EE407AF1EE8F
S3150801152010FA7FF402AF3A9A0123337013701FB091
S31508011530BDEC108BBDE8F08FF2EE067AB4EE679A31
S31508011540F1EE10FA40F0B08294F90230E07F94F897
S3150801155020E094F821C094F8227094F8235094F866
S31508011560241094F8252094F82640BDE69DED067BC7
S315080115708DED087B0CE69DED047B8DED067BEDE597
S315080115809DED0C7BB0EE47BAF0EE67BA62E69DEDCB
S315080115900E7B8DED0C7B43E69DED0A7B8DED0E7B77
S315080115A026E69DED087B8DED0A7B09E69DED027B1E
S315080115B08DED047BB8E5DFF8EC9001200022687315
S315080115C04B4600922E210CF009FD0028DAF800702E
S315080115D060721FDD99F8013084F8583099F80230A5
S315080115E084F8593099F8033084F85A3099F8043058
S315080115F084F85B3099F8053084F85C3099F8063040
S3150801160084F85D3099F8073084F85E3099F800302F
S3150801161084F85730384614F08FFDCDE90A01CFE535
S31508011620DFF884900120002268744B4600922C2131
S315080116300CF0D4FC0028DAF8007060731FDD99F805
S31508011640013084F8783099F8023084F8793099F8BD
S31508011650033084F87A3099F8043084F87B3099F8A5
S31508011660053084F87C3099F8063084F87D3099F88D
S31508011670073084F87E3099F8003084F87730384698
S3150801168014F05AFDCDE904014EE500BF0408002017
S3150801169010070020000700200000F03FFC0700208B
S315080116A0F4070020440800203C080020DA4F0120F6
S315080116B00022A8733B46009220210CF08FFC0028DB
S315080116C0A0727FF7F7AD7B7884F86030BB7884F831
S315080116D06130FB7884F862303B7984F863307B7932
S315080116E084F86430BB7984F86530FB7984F8663010
S315080116F03B7884F85F30DDE5DFF828930120002286
S31508011700A8744B46009216210CF068FC0028DAF8FA
S315080117100070A0731FDD99F8013084F8803099F8BC
S31508011720023084F8813099F8033084F8823099F8C8
S31508011730043084F8833099F8053084F8843099F8B0
S31508011740063084F8853099F8073084F8863099F898
S31508011750003084F87F30384614F0EEFCCDE90201FA
S31508011760C8E4AE4F01200022E8733B4600921F21D0
S315080117700CF034FCDAED007AE0720028F8EE677AAC
S315080117807FF78BAD7B7884F86830BB7884F869304D
S31508011790FB7884F86A303B7984F86B307B7984F876
S315080117A06C30BB7984F86D30FB7984F86E303B7800
S315080117B084F8673071E59A4F0120002228723B466A
S315080117C0009248210CF00AFC0028207117DD7B786D
S315080117D084F83030BB7884F83130FB7884F83230BD
S315080117E03B7984F833307B7984F83430BB7984F8D3
S315080117F03530FB7984F836303B7884F82F30DAF8BF
S31508011800007037E5DFF8209201200022A8724B46C6
S31508011810009242210CF0E2FB0028DAF80070A07170
S315080118201FDD99F8013084F8403099F8023084F8C0
S31508011830413099F8033084F8423099F8043084F835
S31508011840433099F8053084F8443099F8063084F81D
S31508011850453099F8073084F8463099F8003084F80D
S315080118603F30384614F068FCCDE9060176E4DFF826
S31508011870BC9101200022E8724B46009230210CF0FF
S31508011880ADFB0028DAF80070E0711FDD99F8013028
S3150801189084F8483099F8023084F8493099F80330C9
S315080118A084F84A3099F8043084F84B3099F80530B1
S315080118B084F84C3099F8063084F84D3099F8073099
S315080118C084F84E3099F8003084F84730384614F0D9
S315080118D033FC41EC1B0BBDE4DFF8549101200022D7
S315080118E028734B46009218210CF078FB0028DAF889
S315080118F0007020721FDD99F8013084F8503099F88C
S31508011900023084F8513099F8033084F8523099F846
S31508011910043084F8533099F8053084F8543099F82E
S31508011920063084F8553099F8073084F8563099F816
S31508011930003084F84F30384614F0FEFBCDE90C012F
S315080119406EE4DFF8F0900120002268724B4600929F
S3150801195045210CF043FB0028DAF8007060711FDDA1
S3150801196099F8013084F8383099F8023084F839301A
S3150801197099F8033084F83A3099F8043084F83B3002
S3150801198099F8053084F83C3099F8063084F83D30EA
S3150801199099F8073084F83E3099F8003084F83730E2
S315080119A0384614F0C9FBCDE90E0121E4DFF8889029
S315080119B001210022E9714B46009208460CF00EFB04
S315080119C0E070DAF8007007EE907A0028B8EE679AA8
S315080119D07FF74CAB99F8013084F8283099F8023032
S315080119E084F8293099F8033084F82A3099F80430B4
S315080119F084F82B3099F8053084F82C3099F806309C
S31508011A0084F82D3099F8073084F82E3099F800308B
S31508011A1084F82730FFF72ABB340800202C08002059
S31508011A206408002014080020540800204C080020EF
S31508011A30240800205C0800200C080020DFF8009329
S31508011A400120002228744B46009217210CF0C6FA91
S31508011A500028DAF8007020731FDD99F8013084F840
S31508011A60703099F8023084F8713099F8033084F8A7
S31508011A70723099F8043084F8733099F8053084F88F
S31508011A80743099F8063084F8753099F8073084F877
S31508011A90763099F8003084F86F30384614F04CFBEC
S31508011AA0CDE90801FFF774BBF2EE087AF4EE679AFE
S31508011AB0F1EE10FA13D0F2EE0A7AB4EE67AAF1EE55
S31508011AC010FA1AD194F90030E07B94F810E094F8F2
S31508011AD011C0A77CE57C217D627DA47D04E494F98F
S31508011AE00130E07D94F818E094F819C0A77EE57EE8
S31508011AF0217F627FA47FFFF7F7BBDDE9100153EC75
S31508011B001C2B14F0FBFDD0B9DDE9022351EC1D0BAA
S31508011B1014F0F4FD38B394F90D3094F8770094F87D
S31508011B2078E094F879C094F87A7094F87B5094F830
S31508011B307C1094F87D2094F87E40FFF7D5BB94F984
S31508011B400E3094F87F0094F880E094F881C094F8F8
S31508011B50827094F8835094F8841094F8852094F848
S31508011B608640FFF7C1BBDDE9042351EC1E0B14F0D7
S31508011B70C5FD98B194F9063094F83F0094F840E011
S31508011B8094F841C094F8427094F8435094F844107C
S31508011B9094F8452094F84640FFF7A6BBDDE90623ED
S31508011BA051EC1F0B14F0AAFD98B194F90C3094F876
S31508011BB06F0094F870E094F871C094F8727094F814
S31508011BC0735094F8741094F8752094F87640FFF7DA
S31508011BD08BBBDDE90823DDE9160114F08FFD98B109
S31508011BE094F9093094F8570094F858E094F859C0D4
S31508011BF094F85A7094F85B5094F85C1094F85D2048
S31508011C0094F85E40FFF770BBDDE90A23DDE91801A8
S31508011C1014F074FD98B194F9053094F8370094F8E6
S31508011C2038E094F839C094F83A7094F83B5094F82F
S31508011C303C1094F83D2094F83E40FFF755BBDDE98A
S31508011C400E23DDE91A0114F059FD98B194F908300B
S31508011C5094F84F0094F850E094F851C094F85270F3
S31508011C6094F8535094F8541094F8552094F8564023
S31508011C70FFF73ABBDDE90C23DDE91C0114F03EFD53
S31508011C8098B194F9073094F8470094F848E094F825
S31508011C9049C094F84A7094F84B5094F84C1094F84B
S31508011CA04D2094F84E40FFF71FBB53EC1B2B4046C3
S31508011CB0494614F023FD98B194F9043094F82F009D
S31508011CC094F830E094F831C094F8327094F83350AF
S31508011CD094F8341094F8352094F83640FFF704BB8D
S31508011CE0F3EE0F7AB4EE678AF1EE10FA13D194F98E
S31508011CF00B3094F8670094F868E094F869C094F892
S31508011D006A7094F86B5094F86C1094F86D2094F8F6
S31508011D106E40FFF7E9BA94F90A3094F85F0094F82F
S31508011D2060E094F861C094F8627094F8635094F88E
S31508011D30641094F8652094F86640FFF7D5BA00BF99
S31508011D401C0800202DE9F047DDF820A00F461E46A5
S31508011D5004462D4BDAE900019046002214F0B0F84A
S31508011D60DDE909590123CAE900013B70D9F80010D8
S31508011D701944264B1960C9F80010366807EE106A2F
S31508011D80B8EE477AF7EE007AB4EE677AF1EE10FA12
S31508011D9003D11D4B0022C8E900232778DFF8788094
S31508011DA0384614F0C9F91A4BC8E900011E602F71AB
S31508011DB02E60E2796A7194F8019085F8069094F894
S31508011DC0028085F8078094F803E085F808E094F81E
S31508011DD004C085F809C031466679AE720D4BA07903
S31508011DE0E8729871DA711F7083F8019083F802809E
S31508011DF083F803E083F804C05E710822BDE8F04762
S31508011E0001200BF0BBBE00BF0000F03F5C070020BD
S31508011E10640700206C080020700700202DE9F84FA0
S31508011E2014461D460022002306460F46204629462B
S31508011E3014F064FC0022002350B13046394614F0F0
S31508011E405DFCB0B1A246AB4650465946BDE8F88F8F
S31508011E503046394614F052FC88B10020002122464A
S31508011E602B4614F00DFB82468B4650465946BDE873
S31508011E70F88FB246BB4650465946BDE8F88F22460A
S31508011E802B463046394612F007FC002200238246CB
S31508011E908B4614F033FC002852D12046294612F00D
S31508011EA007FB02460B462046294614F04FFCF0B9BB
S31508011EB0304639460022002314F02AFC0022061E69
S31508011EC04FF000032046294618BF012614F020FCCE
S31508011ED00038F6B218BF01208642C6D05046594688
S31508011EE022462B4613F0ECFF82468B46BDE7224677
S31508011EF02B463046394614F0C3FA21F00049144BF3
S31508011F0000224946804613F0DBFF12F0D1FA024659
S31508011F100B464046494613F0D1FF02460B4640465A
S31508011F204946904623F0004900220A4B14F07EF9EF
S31508011F3002460B464046494614F0F4FB0028B7D042
S31508011F404FF0000A4FF0000B50465946BDE8F88F8E
S31508011F500000E03F0000B03C2DE9F04F2DED028B6B
S31508011F6083B0179F199E00283ED01D460123337062
S31508011F700F9BB3F800B05846144614F0EDF8224604
S31508011F802B468046894614F0B9FB10B1189B1B7A7B
S31508011F903B7022462B464046494614F0D7FB00289B
S31508011FA035D01499854BD1E90001002214F0BAFB0A
S31508011FB0002833D1B378002B00F095800023BB703D
S31508011FC0B3704046494622462B4614F0BFFB00280B
S31508011FD040F08980737813B100237B70737003B066
S31508011FE0BDEC028BBDE8F08F3378002BF7D0B378C0
S31508011FF00BB1B870B070737813B100237B7073702E
S315080120000023337003B0BDEC028BBDE8F08FB378C3
S31508012010002BD6D00023BB70B370D2E70122684BE0
S31508012020B270D3E900232046294613F049FFDFF8A9
S315080120309CA180465846894614F07EF8614B0022D9
S3150801204013F03EFF9AED007B42464B46B0EE478AB7
S31508012050F0EE678A13F032FF53EC182BFFF7DEFE1A
S315080120600022002314F04AFB38B3169B1878C001E6
S31508012070C3B27B710193149BD3E9000114F0AEFB43
S3150801208000010E9B5FFA80FB87F806B0D3E90001D1
S3150801209014F0A4FB019B109A1844109B834483F8FF
S315080120A000B03B7853709370D37013715371937169
S315080120B0D371189B129A5B6813600F9B188814F0EA
S315080120C03BF842464B46DAE9008913F0F7FE4246E9
S315080120D04B46FFF7A3FE0022002314F00FFB00383E
S315080120E018BF0120B8701599344BD1E900010022B7
S315080120F014F018FB00283FF46DAF01237370324BBF
S31508012100DFF8CCA0D3E900232046294613F0D8FEF0
S315080121100F9B044618880D4614F00EF8DAE9008973
S31508012120284B002213F0CCFE22462B4613F0C6FE9E
S3150801213042464B46FFF772FE0022002314F0DEFAF0
S3150801214020B3169B1E78159BF601F6B2FE70D3E9ED
S31508012150000114F043FB00010E9B5FFA80F887F833
S315080121600480D3E9000114F039FB119B119A40440C
S3150801217006441E703B7853709370D3701371537174
S315080121809371D371189B139A1B6813600F9BDAE935
S315080121900089188813F0D0FF22462B4613F08EFECD
S315080121A042464B46FFF73AFE0022002314F0A6FAF0
S315080121B0003818BF0120787011E700BF00001C40E5
S315080121C0180000200000F03F200000200800002031
S315080121D0100000202DE9F04F2DED048B83B08846C1
S315080121E09DF8541000919DF858109DF840B09DF83F
S315080121F044A09DF848709DF84C609DF85050DDF854
S3150801220078C0019158B99CF800301BB11C9B187015
S315080122108CF8000003B0BDEC048BBDE8F08F1046C6
S3150801222019460122374B8CF80020D3E9002313F015
S3150801223047FE024640468946904613F07DFF324CDA
S3150801224002460B4643EC182B304B002213F038FE9E
S3150801225049EC198B42464B46D4E9008913F02EFE08
S3150801226042464B46FFF7DAFD0022002314F046FAF0
S3150801227068B31B9B93F800801C9B4FEAC8185FFA4A
S3150801228088F983F801901A9BD3E9000114F0A6FA9C
S315080122901C9B00015FFA80F883F80280179BD3E93B
S315080122A0000114F09BFA189B009A9A71C844019A86
S315080122B083F801B0804483F8008083F802A0DF70B8
S315080122C0DA711E715D711D9B199A1B6813600E4C9C
S315080122D0D4E9004553EC192B51EC180B13F0EEFD1C
S315080122E022462B46FFF79AFD0022002314F006FA30
S315080122F01C9B003818BF0120187003B0BDEC048B75
S31508012300BDE8F08F18000020080000200000F03F0B
S315080123102DE9F04F2DED048B83B088469DF85410B6
S3150801232000919DF858109DF840B09DF844A09DF87D
S3150801233048709DF84C609DF85050DDF878C00191C1
S3150801234058B99CF800301BB11C9B18708CF800001A
S3150801235003B0BDEC048BBDE8F08F10461946012287
S31508012360374B8CF80020D3E9002313F0A9FD024668
S3150801237040468946904613F0DFFE324C02460B462C
S3150801238043EC182B304B002213F09AFD49EC198BBC
S3150801239042464B46D4E9008913F090FD42464B4626
S315080123A0FFF73CFD0022002314F0A8F968B31B9B34
S315080123B093F800801C9B4FEAC8185FFA88F983F8DE
S315080123C001901A9BD3E9000114F008FA1C9B00013D
S315080123D05FFA80F883F80280179BD3E9000114F0AD
S315080123E0FDF9189B009A9A71C844019A83F801B0BD
S315080123F0804483F8008083F802A0DF70DA711E71C9
S315080124005D711D9B199A1B6813600E4CD4E9004532
S3150801241053EC192B51EC180B13F050FD22462B46A1
S31508012420FFF7FCFC0022002314F068F91C9B003816
S3150801243018BF0120187003B0BDEC048BBDE8F08FFE
S3150801244020000020100000200000F03F2DE9F04F89
S3150801245091B0249C269D002876D09B464FF0010911
S315080124601B9B85F80090B3F800804046924613F00E
S3150801247073FE52465B4606460F4614F067F9002876
S3150801248073D13046394652465B4614F037F900286F
S3150801249000F08A801E9B1A78259B22701B78637030
S315080124A00027A370E37023716371A3711946184657
S315080124B09C469E4699463E46CDE90139239B0B9398
S315080124C0219B0A931F9B09931C9B08931A9B0793AD
S315080124D0AB1C0E93259B009208330D9304F10A0356
S315080124E0CDE905010C934146304652465B46CDE996
S315080124F003ECFFF76FFE1A9B0793239B0B93259B10
S315080125001B991D98013504330E950D93229D098853
S315080125100A95209D08900995A579069565790595E9
S3150801252025790495E5780395A57802956578019549
S3150801253025780095073452465B4638460C94FFF7D2
S31508012540E7FE11B0BDE8F08F2B78002BF9D0AB78F8
S315080125500BB1A072A8706B7813B10023E3716B708D
S3150801256000232B7011B0BDE8F08F2199154BD1E9E5
S315080125700001002214F0D6F82299124B061E4FF0DC
S315080125800002D1E9000118BF012614F0CBF860B1A9
S315080125904F462278637894F8029094F803E094F809
S315080125A004C06079A17987E706462278637894F8AA
S315080125B0029094F803E094F804C06079A1790027A1
S315080125C07AE700BF00001C402DE9F04F85B0CDE940
S315080125D00023DDE9114200284DD00D788E7991F856
S315080125E001B091F802A091F8039091F804804F790F
S315080125F003964FF0010C05FA0CF3DBB2580907EE06
S31508012600100AB8EEC77AF7EE007AB4EEE77AF1EE79
S3150801261010FACE7982F800C0A372207309DD109BE7
S315080126200022D3E900011D4B13F04AFC109BC3E9B4
S3150801263000012B01DBB2E8091D0963726073E572BB
S3150801264013F08AFD02460B46DDE9000114F056F83F
S31508012650C8B9039A2072002384F800B084F801A04F
S3150801266084F8029084F8038027716271A671E37178
S3150801267005B0BDE8F08F1378002BF9D020721070E1
S3150801268005B0BDE8F08F284613F066FDDDE90E2397
S3150801269014F034F8003818BF0120DAE70000F03FDB
S315080126A02DE9F04F85B0CDE90023DDE91142002877
S315080126B04DD00D788E7991F801B091F802A091F874
S315080126C0039091F804804F7903964FF0010C05FAAF
S315080126D00CF3DBB2580907EE100AB8EEC77AF7EE23
S315080126E0007AB4EEE77AF1EE10FACE7982F800C0F4
S315080126F0A372207309DD109B0022D3E900011D4B4B
S3150801270013F0DEFB109BC3E900012B01DBB2E809DC
S315080127101D0963726073E57213F01EFD02460B46CE
S31508012720DDE9000113F0EAFFC8B9039A2072002314
S3150801273084F800B084F801A084F8029084F8038034
S3150801274027716271A671E37105B0BDE8F08F137840
S31508012750002BF9D02072107005B0BDE8F08F28461D
S3150801276013F0FAFCDDE90E2313F0C8FF003818BF91
S315080127700120DAE70000F03F2DE9F84FDDF828A03F
S315080127800E9EDDE91248002800F0B2801F4601239B
S315080127900D46914688F80030002900F0BF8088F878
S315080127A0023097F800B00BFA03F3DBB223765B0924
S315080127B007EE103AB8EEC77AF7EE007AB4EEE77A82
S315080127C0F1EE10FAA37609DD109B0022D3E9000188
S315080127D0684B13F075FB109BC3E900017B782372E4
S315080127E0BB786372FB78A3723B79E3727B792373B7
S315080127F0BB7963734FEA0B10C0B2FB79E075000928
S31508012800A373607613F0A8FCDDE90C2313F076FFB9
S31508012810051E18BF01254FEADB1B002384F81BB0F0
S315080128206574E373B9F1000F00F08280012388F81B
S3150801283001309AF8007007FA03F3DBB2E3745B0917
S3150801284007EE103AB8EEC77AF7EE007AB4EEE77AF1
S31508012850F1EE10FA637509DD109B0022D3E9000138
S31508012860444B13F02DFB109BC3E900019AF8013084
S3150801287023709AF8023063709AF80330A3709AF8B5
S315080128800430E3709AF8053023719AF806306371BB
S315080128903801C0B29AF80730A0740009A3712075EF
S315080128A013F05AFCDDE90C2313F028FF003818BF92
S315080128B00120FF0900232074A775E371002D41D07B
S315080128C0E37B3370237A7370637AB370A37AF370F8
S315080128D0E37A3371237B7371637BB371A37BF371E2
S315080128E0012311990B700F9B01221A70BDE8F88F0D
S315080128F098F80030002BF9D098F8023013B16074BB
S3150801290088F8020098F801301BB10023237488F86F
S315080129100130002388F80030BDE8F88F98F80230B6
S315080129202BB3617488F80210B9F1000F7FF47EAFFA
S3150801293098F80130002BC1D084F8109088F80190DE
S31508012940002DBDD1E3793370237873706378B37042
S31508012950A378F370E3783371237973716379B3716B
S31508012960A379F371237C003B18BF0123B9E7657C82
S3150801297058E700BF0000F03F2DE9F04F2DED048B1D
S3150801298083B088469DF85C1000919DF860109DF80B
S3150801299048B09DF84CA09DF850709DF854609DF87C
S315080129A05850DDF87CC0019158B99CF800301BB12C
S315080129B01E9B18708CF8000003B0BDEC048BBDE8B3
S315080129C0F08F104619460122384B8CF80020D3E9BE
S315080129D0002313F075FA024640468946904613F0DD
S315080129E0ABFB334C02460B4643EC182B314B00220A
S315080129F013F066FA49EC198B42464B46D4E900892D
S31508012A0013F05CFA42464B46FFF708FA0022002308
S31508012A1013F074FE78B31D9B93F800801E9B4FEA52
S31508012A20C8185FFA88F983F801901C9BD3E900015D
S31508012A3013F0D4FE1E9B00015FFA80F883F802802A
S31508012A40199BD3E9000113F0C9FE1A9B009A9A71E2
S31508012A50C844019A83F801B0804483F8008083F85A
S31508012A6002A0DF701E715D71DA71DDE9100113F0E4
S31508012A70B5FE1B9B18600E4CD4E9004553EC192B87
S31508012A8051EC180B13F01AFA22462B46FFF7C6F932
S31508012A900022002313F032FE1E9B003818BF0120C6
S31508012AA0187003B0BDEC048BBDE8F08F1800002048
S31508012AB0080000200000F03F2DE9F04F2DED048BB2
S31508012AC083B088469DF85C1000919DF860109DF8CA
S31508012AD048B09DF84CA09DF850709DF854609DF83B
S31508012AE05850DDF87CC0019158B99CF800301BB1EB
S31508012AF01E9B18708CF8000003B0BDEC048BBDE872
S31508012B00F08F104619460122384B8CF80020D3E97C
S31508012B10002313F0D5F9024640468946904613F03C
S31508012B200BFB334C02460B4643EC182B314B002268
S31508012B3013F0C6F949EC198B42464B46D4E900898C
S31508012B4013F0BCF942464B46FFF768F90022002309
S31508012B5013F0D4FD78B31D9B93F800801E9B4FEAB2
S31508012B60C8185FFA88F983F801901C9BD3E900011C
S31508012B7013F034FE1E9B00015FFA80F883F8028089
S31508012B80199BD3E9000113F029FE1A9B009A9A7141
S31508012B90C844019A83F801B0804483F8008083F819
S31508012BA002A0DF701E715D71DA71DDE9100113F0A3
S31508012BB015FE1B9B18600E4CD4E9004553EC192BE6
S31508012BC051EC180B13F07AF922462B46FFF726F932
S31508012BD00022002313F092FD1E9B003818BF012026
S31508012BE0187003B0BDEC048BBDE8F08F20000020FF
S31508012BF0100000200000F03F0B791BB10023C371C0
S31508012C0003720B714B7843B1CB7813B100238370F0
S31508012C10CB708B7823B900234B7000230B70704758
S31508012C20002343708B70F6E72DE9F04F2DED028BEB
S31508012C3093B099461E9B02931F9B0193209B0C936D
S31508012C40219B0393229B0493239B0A93249B0B9317
S31508012C509046DDE925320D92279A0E92289A0F920F
S31508012C60299A10922A9A05922B9A06922C9A0792D9
S31508012C702D9A08922E9A09922F9A329C1192DDE981
S31508012C80305A00BB237823B913B0BDEC028BBDE8DB
S31508012C90F08F237913B1E8712872207163785BB1DB
S31508012CA0E37813B10023AB70E370A37813B1002363
S31508012CB06B70A370002363700023237013B0BDECFF
S31508012CC0028BBDE8F08F4FF0010B84F800B0D3E911
S31508012CD0006700224A4B3946304613F00FFD00289B
S31508012CE008BF83465FFA8BF308EE103A3046444B29
S31508012CF03946002213F002FD8346002849D10123F3
S31508012D002371019B188813F027FA06460F46404699
S31508012D10494632463B4613F0F1FC28B30E9ADAF8D7
S31508012D200C3013600D9ADAF8103013600B9A9AF882
S31508012D3016301370109A9AF8143013700A9A9AF882
S31508012D40173013700F9A9AF8153013700C9A019B65
S31508012D50C2F800B0C2F804B0119A82F800B0188817
S31508012D6013F0FAF906460F4632463B4640464946AF
S31508012D7013F0CEFC002833D00A9B1B78002B3CD1DC
S31508012D800123EB710B9B1B78002B33D101232B728B
S31508012D9005E023791BB10023EB712B722371099B83
S31508012DA02693089B2593079B2493069B2393059BB0
S31508012DB02293049B2193039B0299209318EE100AF0
S31508012DC0019B1F93013442464B46CDE9275A299464
S31508012DD01E9113B0BDEC028BBDE8F04FFFF7BCB8EE
S31508012DE00021E97132463B464046494613F090FCBC
S31508012DF00028C7D100232B72D1E70023EB71C1E765
S31508012E000000F03F2DE9F04F85B0CDE90023DDE95B
S31508012E100F4200284DD00D788E7991F801B091F8BE
S31508012E2002A091F8039091F804804F7903964FF028
S31508012E30010C05FA0CF3DBB2580907EE100AB8EED5
S31508012E40C77AF7EE007AB4EEE77AF1EE10FACE79A0
S31508012E5082F800C0A372207309DD0E9B0022D3E914
S31508012E600001184B13F02CF80E9BC3E90001039BD4
S31508012E706371E80984F800B084F801A084F8029027
S31508012E8084F803802771A671607313F065F9DDE98B
S31508012E90002313F033FC2D01EDB2003818BF0120D1
S31508012EA02A09002320726572E272E37105B0BDE852
S31508012EB0F08F1378002BF9D02072107005B0BDE899
S31508012EC0F08F00BF0000F03F2DE9F04F85B0CDE946
S31508012ED00023DDE90F4200284DD00D788E7991F84F
S31508012EE001B091F802A091F8039091F804804F7906
S31508012EF003964FF0010C05FA0CF3DBB2580907EEFD
S31508012F00100AB8EEC77AF7EE007AB4EEE77AF1EE70
S31508012F1010FACE7982F800C0A372207309DD0E9BE0
S31508012F200022D3E90001184B12F0CAFF0E9BC3E930
S31508012F300001039B6371E80984F800B084F801A0D5
S31508012F4084F8029084F803802771A671607313F0E0
S31508012F5003F9DDE9002313F0D1FB2D01EDB20038A9
S31508012F6018BF01202A09002320726572E272E371F3
S31508012F7005B0BDE8F08F1378002BF9D020721070D8
S31508012F8005B0BDE8F08F00BF0000F03F2DE9F04124
S31508012F900126884682F85A6207460021022015460C
S31508012FA00CF072FE98F86C3287F8F431002107208C
S31508012FB008F0BCFC2B460024C5E90C662C7043F8C6
S31508012FC0384F6E60EB622E8198F8FC3187F83631FE
S31508012FD031460C200CF058FE31460D200CF054FEFB
S31508012FE0214603200CF0CAFA98F8B83187F8AD30B3
S31508012FF0FDF7EEF8FDF7D0FF214620460CF044FE1A
S31508013000214630460CF040FE214610200CF03CFECD
S31508013010214604200CF038FE214612200CF034FE1D
S31508013020214613200CF030FE21460E200CF02CFE12
S3150801303021460F200CF028FE21460320BDE8F04169
S315080130400CF022BE000000002DE9F04F2DED0A8B91
S31508013050ADF5797DCDE91721DDF890A419939AF894
S315080130605932DDF888B41A90002B0CBF01230023CE
S315080130704FF001018AF859328AF8A1124FF002007D
S315080130808BF8563018BF00210CF030FE9AF85A32E8
S31508013090002B00F0F582DDF8483401268AF89D6296
S315080130A01B78002B00F03787189BD3E900450022CF
S315080130B04FF080432046294613F020FB002800F0F4
S315080130C032874FF001089AF86F32002B00F07A87A1
S315080130D001238AF89E32002E40F07A87DDF87414AF
S315080130E0A44BD1E90001002213F008FBA8B1DDF8D1
S315080130F08C34179AB3F8A0311380DDF88C341999FA
S3150801310093F8A7318AF85232189BD3E90023C1E90B
S315080131100023994B0022CAE95C23DDF84824964925
S3150801312000231370DDF84C24002013700026CBE928
S31508013130040100278AF85A328AF86F328E4B3046D4
S315080131403946002212F0BCFECAE980018B4B0022E7
S315080131502046294613F0D2FA68B9894B002220463F
S31508013160294613F0CBFA30B9864B00222046294668
S3150801317013F0C4FA28B17F4BDDF874140022C1E9B3
S315080131800023B8F1000F05D07B4BDDF8741400223B
S31508013190C1E900237C4B00222046294613F0AEFAEA
S315080131A0002843F01484794B00222046294613F05F
S315080131B0A5FA002843F00B84754B204629460022C0
S315080131C013F09CFA002843F00284DDF87434D3E93D
S315080131D0002317999FED6F7A098807EE901AF8EE82
S315080131E0E77A6D49F4EE477AF1EE10FAC1E9002360
S315080131F016D1179A002313809AF85242204612F0E4
S31508013200ABFFDDF88C34D3E9662313F081FA002885
S3150801321001F0F0820134E4B2604B8AF852421C7024
S315080132209AF85A32002B00F048829AF87032002B2D
S3150801323041F0AE859BF83F409BF83D20002C01F0FC
S315080132406A829AF83C32DF064FF0010401F16D8279
S3150801325043F010038AF83C32002A41F06982DBB256
S315080132601E0701F17D829AF83C3243F008038AF879
S315080132703C32002C41F07782DBB29AF85A22002AB6
S3150801328041F098829BF84020002A02F08B8058076B
S3150801329041F19382DDF85C340193DDF854340093EF
S315080132A0DDF88C34DDF8341403F520730593DDF865
S315080132B06C340393DDF860340293DDF84C341798C7
S315080132C00AF53B7206920BF503720492DDF83C246B
S315080132D0FDF7A2FE9AF83C329D0705D49AF83C32CE
S315080132E043F002038AF83C329BF83E30002B41F04A
S315080132F03785DDF860341B78002B01F0D0849AF805
S315080133006032B3FA83F35B098AF86032DDF8603418
S31508013310012100208AF8A31218709AF860328BF8F6
S315080133205830002B42F04980194618460CF0DEFC4D
S315080133309AF85B32002B01F0BE849AF861320120BB
S31508013340002B4FF000010CBF012300238AF85B1202
S3150801335008BF01468AF8A2028AF8613208BF084600
S315080133608BF857300CF0C2FC9AF85C32002B01F04E
S31508013370AE8415E0000008400000F03F000026403A
S315080133800000284000002A400000144000001840B0
S3150801339000001C400000E243500700207907002086
S315080133A09AF86332002B0CBF012300234FF0010268
S315080133B04FF000018AF85C128AF863328AF89F2274
S315080133C008BF11468BF8543010200CF08FFC9AF880
S315080133D06232002B0CBF012300234FF001018AF84A
S315080133E0A0128AF8623218BF00218BF855300420E2
S315080133F00CF07CFCDDF8643400240025D3E90001D7
S3150801340022462B4613F07AF9002841F09F849AF850
S315080134105632002B0CBF012300234FF001018AF815
S3150801342056328AF89C128BF85330DDF8643418BF8B
S315080134300146C3E9004512200CF058FCDDF8683452
S3150801344000240025D3E9000122462B4613F056F93C
S31508013450002841F071849AF85532002B0CBF0123DC
S3150801346000234FF001018AF855328AF89B128BF82E
S315080134705230DDF8683418BF0146C3E90045132008
S315080134800CF034FCDDF86C3400240025D3E9000186
S3150801349022462B4613F032F9002841F043849AF864
S315080134A05832002B0CBF012300234FF001018AF883
S315080134B058328AF89A128BF85130DDF86C3418BFF5
S315080134C00146C3E900450E200CF010FCDDF8703406
S315080134D000240025D3E9000122462B4613F00EF9F4
S315080134E0002841F015849AF85732002B0CBF0123A6
S315080134F000234FF001018AF857328AF899128BF89E
S315080135005030DDF8703418BF0146C3E900450F2075
S315080135100CF0ECFB9AF86432002B01F09F839AF8C1
S31508013520523207EE903AF8EEE77AF5EE407AF1EE86
S3150801353010FA41F00B8714236EAACAE98B3348495E
S3150801354018921046A02213F06FF996AB45491993C4
S31508013550A022184613F068F9179B1B88184608EE2F
S31508013560103A12F0F9FD189BD3E9008942464B46F9
S3150801357006460F4613F0EAF8002804F0D286CDF87D
S3150801358090A4394DDDF860A00024374B002220466F
S31508013590294612F095FC0D46044613F0F7F80AEB96
S315080135A0C00050E902893946304642464B4613F077
S315080135B0CDF80028E9D12C4BDDF890A4002220464D
S315080135C0294612F07BFC13F0E1F80138199B03EB4D
S315080135D0C003C4000022D3E90001002313F08EF8CA
S315080135E0002841F03B8118EE100A12F0A5FD0246AB
S315080135F00B46404649469046994612F05FFC1B4BDE
S315080136000D46002221F00041044613F081F898B1D5
S31508013610174B00222046294613F08EF80646002845
S3150801362004F0DE85124B20462946002212F048FC9A
S3150801363010F03EFF04460D460E4B00222046294651
S3150801364013F066F8002843F0A08103A3D3E9002309
S315080136504FF6FE7601F0D7BA00000000C0FFEF4032
S3150801366010C30008B0C300080000F03F0000304353
S315080136700000E03F0000F0400000E2430000DA43AA
S315080136809AF89D225AB19AF89E222AB10020002161
S31508013690CBE904018AF89E3200238AF89D32179BEA
S315080136A01FED0B7A1B8807EE903AF8EEE77AF4EEEF
S315080136B0477AF1EE10FA3FF49CAD01238AF870328D
S315080136C0189BD3E9004500224FF08043204629463E
S315080136D013F014F8002800F0ED849AF8523208EE37
S315080136E0903AF8EEE88A0126F5EE408AF1EE10FAEC
S315080136F08AF8716241F06C86179B8AF88F62B3F873
S3150801370000801FED229A07EE908AB8EEE78A4746AF
S31508013710B4EEC98AF1EE10FAC0F2A280404612F060
S315080137201BFDDDF88C34D3E94E2312F0F1FF002896
S3150801373000F09680B4EE498AF1EE10FA40F09080D6
S31508013740BF4B20462946002212F0D8FF002846F032
S31508013750F9809AF86732002B06F0A1821C90189915
S31508013760B84BD1E90001002212F0C8FF0027002852
S3150801377007F009849AF86632002B46F0FC80DAE9EC
S315080137807001B14B002212F09BFBCAE970014FF0A0
S3150801379001099AF85D62002E46F00E83199BD3E95A
S315080137A000450022A94B2046294612F0A7FF00280A
S315080137B006F0AE861899A54BD1E90001002212F050
S315080137C09DFF002806F05F811E9620961C9B002B04
S315080137D046F0018157EA090303D11E9B002B06F027
S315080137E0F4820123DAE97A018AF85B32984BC3E954
S315080137F00001CAE97A01002F06F0DA82DAE97C01CA
S31508013800914B002212F05CFB924BCAE97C01C3E999
S315080138100001B9F1000F06F0C782DAE97E018A4B89
S31508013820002212F04DFB8C4BCAE97E01C3E9000167
S3150801383086B9189B1999D3E90023D1E9000112F039
S315080138405DFF38B9DAE972017F4B002212F038FBC5
S31508013850CAE97201DDF8602401231370179B1F88DA
S31508013860DFED7E9A07EE907AB8EEE79A3C46B4EE1B
S31508013870E99AF1EE10FAC0F20281384612F06CFCB0
S31508013880DDF88C34D3E9502312F042FF002800F00A
S31508013890F680B4EE699AF1EE10FA40F0F080DAE9B2
S315080138A05067DAE952453046394622462B4612F028
S315080138B043FF002846F0A68345EC1A4B9AED547B44
S315080138C053EC1A2BB0EE479AF0EE679A51EC170BA8
S315080138D0B0EE47BAF0EE67BA12F038FF18B1B0EE9B
S315080138E049AAF0EE69AA51EC1A0B0022002312F03C
S315080138F005FF9AF8533209EE103AB8EEC99AF2EE74
S31508013900067A0038B4EE679A18BF0120F1EE10FA6C
S315080139108AF86D02394630464FF0000206F08B836D
S31508013920002312F0CDFAF2EE087AB4EE679AF1EEB8
S3150801393010FA06460F46204629464FF0000246F081
S315080139406883414B12F0BCFA41EC1A0B00220023A2
S3150801395051EC1B0B12F0B4FA55EC1A4B41EC190B4E
S315080139601AEE102A2B463046394612F0E5FE08B102
S3150801397034463D4651EC190B22462B4612F0E6FE1B
S3150801398008B155EC194B22462B463046394612F0FA
S3150801399095FA0022002312F0B1FE002846F05C8356
S315080139A09DF98C700DF18C09064622462B4651EC81
S315080139B01A0B89F8007012F081FA0022002312F01E
S315080139C09DFE22462B46002806F0FF82012409F8AF
S315080139D0064051EC190B12F071FA00220023264415
S315080139E012F08CFE18B1022309F806300136012EB1
S315080139F099F90000CAF828620BD099F90130984262
S31508013A00C8BF0120032E04D199F902308342B8BFF9
S31508013A10012012F0A1FB0C4B002212F051FA199C5D
S31508013A2002460B46C4E90023189BD3E9002312F08A
S31508013A3065FE0022002846F0E9824FF0804311E036
S31508013A4000002640000028400000F03F00002A4000
S31508013A502807002030070020380700200000DC4333
