S02B00002E2E2F48414E636F6465725F453430375F5454415F54656D706C6174655F44535F56362E7372656387
S3150800400084D30020E9250208000000000000000013
S315080040100000000000000000000000000000000092
S31508004020000000000000000000000000E9EE0108A2
S31508004030000000000000000085EF0108D5EF010828
S315080040400000000000000000000000000000000062
S315080040500000000000000000000000000000000052
S315080040600000000041FE01080000000000000000FA
S315080040700000000000000000000000000000000032
S3150800408000000000000000000000000011E3010825
S31508004090C9E20108EDE2010835E301080000000065
S315080040A02DFE010819FE010805FE0108F5FD0108A7
S315080040B0E1FD0108CDFD0108B9FD01080000000079
S315080040C000000000000000000000000000000000E2
S315080040D000000000B90B0208D10B0208E90B020820
S315080040E00000000000000000B10C020800000000FB
S315080040F0A5FD010891FD010881FD010800000000E9
S3150800410000000000190C0208000000000000000072
S315080041100000000000000000000000000000000091
S315080041200000000000000000000000001D0C02084E
S315080041300000000071FE010800000000A1E301086C
S3150800414059E301087DE30108C5E30108E10C02080B
S31508004150000000000000000000000000010C02083A
S315080041600000000000000000000000000000000041
S315080041700000000000000000000000000000000031
S311080041800000000000000000EE11AA5527
S3150800C0000000000000005F400000000000207840AB
S3150800C01000000000000060400000000000406F4083
S3150800C0200000000000005E4000000000006077404D
S3150800C0300000000000C06F400000000000A077402C
S3150800C0400000000000B07740000000E00B2E113E13
S3150800C0500000000000002840000000000000F0BFBB
S3150800C0600000000000002840000000E00B2E213EE2
S3150800C070000000000000F03F000000E00B2E113E1B
S3150800C080000000000000F0BF00000000000028408B
S3150800C090000000E00B2E213E0000000000005F407B
S3150800C0A00000000000A07F4000000000006078400B
S3150800C0B00000000000A0784000000000000060407A
S3150800C0C00000000000C06F400000000000005E4055
S3150800C0D00000000000A0774000000000002070402B
S3150800C0E00000000000E077400000000000C060404B
S3150800C0F00000000000607F400000000000005F4074
S3150800C1000000000000407840000000000020804049
S3150800C1100000000000C07F400000000000008040D2
S3150800C12000000000004080400000000000608040E1
S3150800C13000000000008080400000000000A0804051
S3150800C1400000000000006040000000000080604021
S3150800C1500000000000005E400000000000806F4004
S3150800C1600000000000007040000000000040704021
S3150800C1700000000000C07740000000000000784082
S3150800C1800000000000000040000000000000000160
S3150800C190010000000100000001000000010000008D
S3150800C1A00000000020000000200000002000000021
S3150800C1B020000000000000001F0000001F00000013
S3150800C1C01F0000001F000000000000000100000022
S3150800C1D0010000000100000001000000000000004E
S3150800C1E00000000000000000000000000D00000034
S3150800C1F00D0000000D0000000D000000000000000A
S3150800C2000C0000000C0000000C0000000C000000F0
S3150800C210000000000B0000000B0000000B000000EF
S3150800C2200B000000000000000100000001000000F3
S3150800C23001000000010000000000000000000000EE
S3150800C240000000000000364000000000008050405A
S3150800C2500000000000003740000000000040514088
S3150800C26000000000000038400000000000005240B6
S3150800C27000000000000046400000000000004740A3
S3150800C28000000000000048400000000000003640A2
S3150800C2900000000000805040000000000000374009
S3150800C2A00000000000405140000000000000384037
S3150800C2B00000000000005240000000000000464058
S3150800C2C00000000000004740000000000000484051
S3150800C2D000000000000000000000000000005E40B2
S3150800C2E00000000000005F400000000000805F4082
S3150800C2F000000000000060400000000000406040B0
S3150800C30000000000008060400000000000806F40D0
S3150800C310000000000000704000000000004070406F
S3150800C3200000000000C077400000000000E07740F1
S3150800C330000000000000784000000000004078403F
S3150800C3400000000000C07F400000000000008040A0
S3150800C35000000000002080400000000000408040EF
S3150800C360000000000060804000000000008080405F
S3150800C3700000000000000000000000000000F03F80
S3150800C380000000000000F03F000000000000F03F41
S3150800C390000000000000F03F000000000000F03F31
S3150800C3A00000000000000000000000000000F03F50
S3150800C3B0000000000000F03F000000000000000040
S3150800C3C0000000000000F03F000000000000F03F01
S3150800C3D0000000000000F03F000000000000000020
S3150800C3E0000000000000F03F000000000000F03FE1
S3150800C3F0000000000000F03F000000000000F03FD1
S3150800C400000000000000F03F000000000000F03FC0
S3150800C41000000000000000000000000000005E4070
S3150800C4200000000000005F400000000000805F4040
S3150800C43000000000004060400000000000406F401F
S3150800C4400000000000C06F40000000000060774058
S3150800C4500000000000A077400000000000E07740E0
S3150800C4600000000000007840000000000000000006
S3150800C470000000000000F03F000000000000F03F50
S3150800C480000000000000F03F00000000000000006F
S3150800C490000000000000F03F00000000000000005F
S3150800C4A0000000000000F03F000000000000F03F20
S3150800C4B0000000000000F03F000000000000F03F10
S3150800C4C000000000000000000000000000005E40C0
S3150800C4D00000000000005F400000000000805F4090
S3150800C4E000000000004060400000000000C06040FE
S3150800C4F00000000000C06F400000000000207040EF
S3150800C5000000000000A077400000000000E077402F
S3150800C5100000000000607F40000000000020784016
S3150800C52000000000006078400000000000807840AD
S3150800C5300000000000C07840000000000000000075
S3150800C540000000000000F03F000000000000F03F7F
S3150800C550000000000000F03F000000000000F03F6F
S3150800C5600000000000000000000000000000F03F8E
S3150800C5700000000000000000000000000000F03F7E
S3150800C5800000000000000000000000000000F03F6E
S3150800C590000000000000F03F000000000000F03F2F
S3150800C5A0000000000000F03F000000000000F03F1F
S3150800C5B00000010101000100010100000001000165
S3150800C5C06464640048414E636F6465725F45343045
S3150800C5D0375F5454415F54656D706C6174655F4490
S3150800C5E0535F56365F736F66747761726549445F49
S3150800C5F076315F3230303632335F31363435323861
S3150800C6004170704374726C5461736B0048414E6399
S3150800C6106F6465725F453430375F5454415F5465C3
S3150800C6206D706C6174655F44535F56362E63000007
S3150800C6302000000000140240080009002000000045
S3150800C6400014024010000E002000000000140240F2
S3150800C65020000F00200000000014024040000400E3
S3150800C66020000000001402408000050020000000A1
S3150800C67000140240000106002000000000140240D9
S3150800C6800002070020000000001402400004080011
S3150800C690040000000008024001000A00040000002F
S3150800C6A00008024004000C00414443636F6E76653F
S3150800C6B07273696F6E5461736B0000002E2E2F62C1
S3150800C6C06C6F636B7365742F7274772F53544D3385
S3150800C6D0322F7372632F686561705F342E630000B2
S3150800C6E0546D724370754C6F6164000049444C4543
S3150800C6F0000000002E2E2F626C6F636B7365742F1B
S3150800C7007274772F53544D33322F7372632F7461BB
S3150800C710736B732E630000002E2E2F626C6F636B93
S3150800C7207365742F7274772F53544D33322F737287
S3150800C730632F74696D6572732E630000546D7220E1
S3150800C7405376630043616E4576656E745461736B08
S3150800C7500000000043616E5472616E736D69745413
S3150800C76061736B002E2E2F626C6F636B7365742F6B
S3150800C7707274772F53544D33322F7372632F535479
S3150800C7804D33325F453430372F63616E2E630000B8
S3150800C790006400400000000208000000000C02408F
S3150800C7A00100000008000000000C02400200010021
S3150800C7B00913141516000000006800400000000464
S3150800C7C002000000000402402000050002000000EC
S3150800C7D00004024040000600093F404142000000B4
S3150800C7E0010102010202020202030202040202031A
S3150800C7F003030403030503030603030504040604ED
S3150800C80004070404080404070505080505080605C1
S3150800C810080705080706080806080807080808009C
S3150800C820457643686E6C3100457643686E6C320017
S3150800C830457643686E6C33002E2E2F626C6F636BE1
S3150800C8407365742F7274772F53544D33322F737266
S3150800C850632F53544D33325F453430372F6D616340
S3150800C8602E6300002E2E2F626C6F636B7365742F18
S3150800C8707274772F53544D33322F7372632F535478
S3150800C8804D33325F453430372F706F72742E630024
S3150800C8900000014001000000020100001000000035
S3150800C8A000100240000209001000000000100240BB
S3150800C8B000080B000004004002000000010200000E
S3150800C8C001000000000002404000060002000000CF
S3150800C8D00004024020000500000800400400000093
S3150800C8E00102000008000000000C024000100C00C5
S3150800C8F008000000000C024000200D000004014062
S3150800C90002000000020300000400000000080240C4
S3150800C91040000600040000000008024080000700EE
S3150800C920100000000010024000010000010008008D
S3150800C93010000000001002400004000101000A0077
S3150800C94010000000001002400010000201000C0058
S3150800C950000001400100000002011900000000402B
S3150800C9600100000001021C00000400400200000053
S3150800C97001021D00000800400400000001021E001C
S3150800C980000401400200000002012C0000400140A2
S3150800C99000000100020118000044014000000200E6
S3150800C9A002011900004801400000040002011A00B3
S3150800C9B0001C00408000000001022C0000200040FE
S3150800C9C00001000001022D001000000000100240C6
S3150800C9D000020000010009001000000000100240DB
S3150800C9E00008000101000B001000000000100240C2
S3150800C9F00020000201000D00100000000010024097
S3150800CA000040000301000E00010000000000024083
S3150800CA10200001000100050001000000000002409E
S3150800CA204000020002000600020000000004024066
S3150800CA30200002010200050008000000000C024068
S3150800CA400010030002000C0008000000000C024061
S3150800CA500020030102000D00040000000008024047
S3150800CA60400004000300060004000000000802401D
S3150800CA7080000401030007001000000000100240B7
S3150800CA802000050003000500100000000010024009
S3150800CA9040000501030006002000000000140240C3
S3150800CAA040000600030006002000000000140240B3
S3150800CAB08000070003000700200000000014024061
S3150800CAC000010800090008002000000000140240C8
S3150800CAD000020900090009000400000000080240DD
S3150800CAE00100000020000000001402404000000081
S3150800CAF02000000000140240800000002000000012
S3150800CB00001402400001000020000000001402404A
S3150800CB10000200002000000000140240000400008B
S3150800CB20020000000004024080000000020000002D
S3150800CB3000040240400000001000000000100240FF
S3150800CB400400000010000000001002401000000061
S3150800CB501000000000100240200000001000000035
S3150800CB60001002404000000040000000001802408B
S3150800CB70800000004000000000180240000100008C
S3150800CB8040000000001802400010000040000000AD
S3150800CB90001802400080000001000000000002406A
S3150800CBA010000000020000000004024020000000FF
S3150800CBB001000000000002404000000001000000E3
S3150800CBC0000002402000000008000000000C02409F
S3150800CBD00100000008000000000C024002000000EE
S3150800CBE008000000000C02400400000008000000D5
S3150800CBF0000C02400800000008000000000C02407B
S3150800CC001000000008000000000C02402000000090
S3150800CC1008000000000C0240400000000800000068
S3150800CC20000C02408000000008000000000C0240D2
S3150800CC300001000008000000000C0240000200008D
S3150800CC4008000000000C0240000400000800000074
S3150800CC50000C02400008000008000000000C02401A
S3150800CC600010000008000000000C02400020000030
S3150800CC7008000000000C0240004000000800000008
S3150800CC80000C024000800000100000000010024066
S3150800CC900100000010000000001002400200000021
S3150800CCA010000000001002400800000010000000FC
S3150800CCB00010024080000000100000000010024032
S3150800CCC000010000100000000010024000020000F1
S3150800CCD010000000001002400004000010000000D0
S3150800CCE0001002400008000010000000001002407A
S3150800CCF00010000010000000001002400020000094
S3150800CD001000000000100240004000001000000063
S3150800CD1000100240008000002000000000140240BD
S3150800CD20010000002000000000140240020000007C
S3150800CD30200000000014024004000000200000004B
S3150800CD400014024008000000200000000014024001
S3150800CD50100000002000000000140240200000001F
S3150800CD602000000000140240000800002000000017
S3150800CD7000140240001000002000000000140240C9
S3150800CD8000200000200000000014024000400000BF
S3150800CD90200000000014024000800000400000004F
S3150800CDA00018024001000000400000000018024080
S3150800CDB002000000400000000018024004000000C5
S3150800CDC04000000000180240080000004000000073
S3150800CDD00018024010000000400000000018024041
S3150800CDE0200000004000000000180240400000003B
S3150800CDF04000000000180240000200004000000049
S3150800CE00001802400004000040000000001802401C
S3150800CE100008000040000000001802400020000042
S3150800CE204000000000180240004000000100000019
S3150800CE300000024001000000040000000008024053
S3150800CE40010000002000000000140240400000001D
S3150800CE5020000000001402408000000020000000AE
S3150800CE6000140240000100002000000000140240E7
S3150800CE700002000020000000001402400004000028
S3150800CE8002000000000402408000000002000000CA
S3150800CE90000402404000000010000000001002409C
S3150800CEA004000000100000000010024010000000FE
S3150800CEB010000000001002402000000010000000D2
S3150800CEC00010024040000000400000000018024028
S3150800CED08000000040000000001802400001000029
S3150800CEE0400000000018024000100000400000004A
S3150800CEF00018024000800000010000000000024007
S3150800CF00100000000200000000040240200000009B
S3150800CF10010000000000024040000000010000007F
S3150800CF20000002402000000008000000000C02403B
S3150800CF300100000008000000000C0240020000008A
S3150800CF4008000000000C0240040000000800000071
S3150800CF50000C02400800000008000000000C024017
S3150800CF601000000008000000000C0240200000002D
S3150800CF7008000000000C0240400000000800000005
S3150800CF80000C02408000000008000000000C02406F
S3150800CF900001000008000000000C0240000200002A
S3150800CFA008000000000C0240000400000800000011
S3150800CFB0000C02400008000008000000000C0240B7
S3150800CFC00010000008000000000C024000200000CD
S3150800CFD008000000000C02400040000008000000A5
S3150800CFE0000C024000800000100000000010024003
S3150800CFF001000000100000000010024002000000BE
S3150800D0001000000000100240080000001000000098
S3150800D01000100240800000001000000000100240CE
S3150800D020000100001000000000100240000200008D
S3150800D030100000000010024000040000100000006C
S3150800D0400010024000080000100000000010024016
S3150800D0500010000010000000001002400020000030
S3150800D0601000000000100240004000001000000000
S3150800D070001002400080000020000000001402405A
S3150800D0800100000020000000001402400200000019
S3150800D09020000000001402400400000020000000E8
S3150800D0A0001402400800000020000000001402409E
S3150800D0B010000000200000000014024020000000BC
S3150800D0C020000000001402400008000020000000B4
S3150800D0D00014024000100000200000000014024066
S3150800D0E0002000002000000000140240004000005C
S3150800D0F020000000001402400080000040000000EC
S3150800D100001802400100000040000000001802401C
S3150800D1100200000040000000001802400400000061
S3150800D120400000000018024008000000400000000F
S3150800D13000180240100000004000000000180240DD
S3150800D14020000000400000000018024040000000D7
S3150800D15040000000001802400002000040000000E5
S3150800D16000180240000400004000000000180240B9
S3150800D17000080000400000000018024000200000DF
S3150800D18040000000001802400040000004000000B3
S3150800D19000080240002000000000014001000000D5
S3150800D1A002011B00000000400100000001021C00F3
S3150800D1B0000400400200000001021D0000080040B3
S3150800D1C00400000001021E000004014002000000E5
S3150800D1D002012E0000400140000001000201180073
S3150800D1E00044014000000200020119000048014005
S3150800D1F00000040002011A00001C00408000000024
S3150800D20001022C00002000400001000001022D0050
S3150800D2101000000000100240000200000200020098
S3150800D220010009001000000000100240000800017B
S3150800D2300400200001000B0010000000001002404E
S3150800D240002000020800000201000D001000000086
S3150800D25000100240004000031000002001000E00EC
S3150800D2600100000000000240200001000200020048
S3150800D2700100050001000000000002404000020015
S3150800D280020002000200060002000000000402403C
S3150800D290200002010400200002000500080000002A
S3150800D2A0000C0240001003000200020002000C00FD
S3150800D2B008000000000C02400020030104002000C2
S3150800D2C002000D00040000000008024040000400AF
S3150800D2D002000200030006000400000000080240E5
S3150800D2E0800004010400200003000700100000006D
S3150800D2F0001002402000050002000200030005009D
S3150800D3001000000000100240400005010400200043
S3150800D310030006002000000000140240400006003A
S3150800D320020002000300060020000000001402406C
S3150800D330800007000200020003000700200000002A
S3150800D340001402400001080002000200090008005B
S3150800D350200000000014024000020900020002003A
S3150800D3600900090000100140100000000225000015
S3150800D370020000000004024040000600020000000F
S3150800D3800004024080000700070000000044004037
S3150800D390000002000126000008000000000C024000
S3150800D3A02000050008000000000C024040000600AE
S3150800D3B007000000004800400000040001270000A4
S3150800D3C008000000000C02400001080008000000E8
S3150800D3D0000C02400002090007000000001401408A
S3150800D3E02000000002470000040000000008024078
S3150800D3F04000060004000000000802408000070004
S3150800D4000800000056435020436F6E6669670000A7
S3150800D41056435020496E7465726661636500000064
S3150800D42053544D6963726F656C656374726F6E6988
S3150800D4306373000053544D33322056697274756114
S3150800D4406C20436F6D506F727420696E20485320AC
S3150800D4506D6F64650000000053544D3332205669E1
S3150800D460727475616C20436F6D506F727420696EAB
S3150800D470204653204D6F6465000000003030303080
S3150800D4803030303030353042000000003030303037
S3150800D49030303030303530430000000000000140A5
S3150800D4A00100000002011B0000000040010000000E
S3150800D4B001021C00000400400200000001021D00D9
S3150800D4C0000800400400000001021E00000401409C
S3150800D4D00200000002012E00004001400000010089
S3150800D4E00201180000440140000002000201190070
S3150800D4F0004801400000040002011A00001C004018
S3150800D5008000000001022C000020004000010000FD
S3150800D51001022D0010000000001002400002000069
S3150800D520020002000100090010000000001002407D
S3150800D530000800010400200001000B001000000094
S3150800D54000100240002000020800000201000D0041
S3150800D55010000000001002400040000310000020E8
S3150800D56001000E000100000000000240200001003A
S3150800D5700200020001000500010000000000024050
S3150800D580400002000200020002000600020000003D
S3150800D59000040240200002010400200002000500E9
S3150800D5A008000000000C0240001003000200020000
S3150800D5B002000C0008000000000C024000200301D5
S3150800D5C00400200002000D000400000000080240CC
S3150800D5D040000400020002000300060004000000E8
S3150800D5E00008024080000401040020000300070030
S3150800D5F01000000000100240200005000200020092
S3150800D600030005001000000000100240400005015C
S3150800D6100400200003000600200000000014024059
S3150800D6204000060002000200030006002000000079
S3150800D63000140240800007000200020003000700F1
S3150800D6402000000000140240000108000200020049
S3150800D650090008002000000000140240000209002A
S3150800D66002000200090009002E2E2F626C6F636B00
S3150800D6707365742F7274772F53544D33322F737228
S3150800D680632F71756575652E630000000404040038
S3150800D690A0D60008A8D60008B0D6000807070700D5
S3150800D6A0457643686E6C3100457643686E6C320089
S3150800D6B0457643686E6C33005050500000000000F9
S3150800D6C04FBB610567ACDD3F182D4454FB21E93F8C
S3150800D6D09BF681D20B73EF3F182D4454FB21F93F7B
S3150800D6E0E2652F227F2B7A3C075C143326A6813C01
S3150800D6F0BDCBF07A8807703C075C143326A6913CAC
S3150800D700000000000000000000000000000000808B
S3150800D710FB21F93FFB2109407CD91240FB21194026
S3150800D7207A6A1F407CD92240BBFD2540FB2129404F
S3150800D7303A462C407A6A2F405C4731407CD93240C1
S3150800D7409C6B3440BBFD3540DB8F3740FB213940AD
S3150800D7501BB43A403A463C405AD83D407A6A3F4064
S3150800D7604C7E40405C4741406C1042407CD9424068
S3150800D7708CA243409C6B4440AC344540BBFD4540BD
S3150800D780CBC64640DB8F4740EB584840FB21494013
S3150800D79083F9A200444E6E00FC291500D1572700D4
S3150800D7A0DD34F50062DBC0003C99950041904300EA
S3150800D7B06351FE00BBDEAB00B761C5003A6E2400BC
S3150800D7C0D24D42004906E00009EA2E001C92D1001B
S3150800D7D0EB1DFE0029B11C00E83EA700F5358200C6
S3150800D7E044BB2E009CE98400B4267000417E5F008D
S3150800D7F0D6913900538339009CF439008B5F840035
S3150800D80028F9BD00F81F3B00DEFF97000F980500BA
S3150800D810112FEF000A5A8B006D1F6D00CF7E360060
S3150800D82009CB2700464FB7009E663F002DEA5F00EA
S3150800D830BA277500E5EBC7003D7BF100F73907000D
S3150800D84092528A00FB6BEA001FB15F00085D8D00EB
S3150800D850300356007BFC4600F0AB6B0020BCCF00C3
S3150800D86036F49A00E3A91D005E619100081BE600E4
S3150800D87085996500A0145F008D40680080D8FF0078
S3150800D88027734D0006063100CA561500C9A873004D
S3150800D8907BE260006B8CC00000000040FB21F93F72
S3150800D8A0000000002D44743E000000809846F83CB5
S3150800D8B00000006051CC783B00000080831BF039E3
S3150800D8C00000004020257A38000000802282E336D6
S3150800D8D0000000001DF36935020000000300000087
S30D0800D8E0040000000600000028
S315080100000B78FF2B00D070474B78002BFBD10CF0F7
S31508010010EBBA00BF08B501200BF0D2FCBDE80840D9
S31508010020024A40F2676100200EF034BB0100010864
S315080100300BF096B9704700BFF8B504460D469DF812
S315080100401800002A35D0264E184616F05DFCD6E96A
S31508010050002316F0D3FC22462B4616F019FB214B3A
S31508010060002216F015FB089B04460D4618881E4FFC
S3150801007016F04AFC02460B462046294616F006FBB0
S31508010080002632463B4604460D4616F047FF18B190
S31508010090079BC3E90067F8BD144F00263B46204677
S315080100A02946324616F01CFF079BA8B1C3E900672B
S315080100B0F8BD0F4E16F028FCD6E9002316F09EFC73
S315080100C022462B4616F0E4FA064B002216F0E0FA11
S315080100D0099B04460D46C9E7C3E90045F8BD00BFBB
S315080100E0080000200000084000002E4000002EC035
S315080100F010000020704700BF2DE9F04181EAE17C3C
S3150801010080EAE074A4EBE074ACEBE17C1FFA84FEB0
S315080101104FEA1C47250C1FFA8CFC07FB0EF40CFB57
S315080101200EF60CFB05FC4FEA044E1EEB060E4FEAD3
S315080101300C484FEA1C4C2CBF012600260CEB144434
S3150801014018EB0E0E28BF013607FB0544F04634446A
S3150801015080B179B10028D4BF002001200029D4BF7D
S3150801016000210121884205D0CEF10008BEF1000F19
S3150801017005D0E4431460C3F80080BDE8F081644209
S31508010180F8E700BF2DE9F047DDF820A00F461E4627
S3150801019004462D4BDAE900019046002216F078FA5A
S315080101A0DDE909590123CAE900013B70D9F80010B4
S315080101B01944264B1960C9F80010366807EE106A0B
S315080101C0B8EE477AF7EE007AB4EE677AF1EE10FAEE
S315080101D003D11D4B0022C8E900232778DFF8788070
S315080101E0384616F091FB1A4BC8E900011E602F71BB
S315080101F02E60E2796A7194F8019085F8069094F870
S31508010200028085F8078094F803E085F808E094F8F9
S3150801021004C085F809C031466679AE720D4BA079DE
S31508010220E8729871DA711F7083F8019083F8028079
S3150801023083F803E083F804C05E710822BDE8F0473D
S3150801024000200DF0B3BF00BF0000F03F9807002063
S31508010250A0070020AC080020A807002008B5012146
S3150801026000200EF0A7F90B2100200EF0A3F90C21AE
S3150801027000200EF09FF90D2100200EF09BF91621A2
S3150801028000200EF097F92C2100200EF093F9422157
S3150801029000200EF08FF9172100200EF08BF92E2180
S315080102A000200EF087F9452100200EF083F9182168
S315080102B000200EF07FF9302100200EF07BF948214D
S315080102C000200EF077F91F2100200EF073F9BDE822
S315080102D00840202100200EF06DB900BF2DE9F04F2E
S315080102E02DED108B9FB0CDE914233E9D254A2B6831
S315080102F0DFF894A0399E1390013313602B60389B65
S315080103001F68CAF8007007EE107AF8EE478AF7EE0A
S31508010310007AF4EE678AF1EE10FADDE93C488B467D
S3150801032000F0A885EB79B0EE689A002B40F0AB8215
S31508010330F2EE067AB4EE679AF1EE10FA00F0BE8292
S31508010340AB79F0EE499A002B40F05582F2EE087A25
S31508010350F4EE679AF1EE10FA00F067826B79B0EE67
S3150801036069AA002B40F01482F2EE0A7AB4EE67AA63
S31508010370F1EE10FA00F01F822B79002B40F0FC8178
S3150801038006E000BF2C0700203407002000000042C9
S31508010390384616F0B9FA98ED007B02460B46CDE9C8
S315080103A01023B0EE47CAF0EE67CA53EC172B16F0C6
S315080103B08DFD002840F0E983AB7C002B40F0C48119
S315080103C09DED107B8DED027B98ED0C7BDDE902231B
S315080103D0B0EE47DAF0EE67DA51EC170B16F076FD58
S315080103E0002840F064836B7C002B00F025839DED8B
S315080103F0027B8DED047B0023637384F8773084F8E0
S31508010400783084F8793084F87A3084F87B3084F847
S315080104107C3084F87D3084F87E306B7498ED027BED
S31508010420DDE90423B0EE47EAF0EE67EA51EC170B73
S3150801043016F04CFD002840F032842B7C002B00F08E
S31508010440E0829DED047B8DED067B0023237384F802
S315080104506F3084F8703084F8713084F8723084F81B
S31508010460733084F8743084F8753084F876302B74D8
S3150801047098ED047BDDE90623B0EE47FAF0EE67FA5C
S3150801048051EC170B16F022FD002840F02985EB7B6D
S31508010490002B00F0B1829DED067B8DED087B0023D4
S315080104A0E37284F8673084F8683084F8693084F830
S315080104B06A3084F86B3084F86C3084F86D3084F8CF
S315080104C06E30EB7398ED0E7BDDE9082351EC170BC3
S315080104D08DED167B16F0FAFC002840F0B282AB7B54
S315080104E0002B00F0A4829DED087B8DED0A7B00238D
S315080104F0A37284F85F3084F8603084F8613084F838
S31508010500623084F8633084F8643084F8653084F89E
S315080105106630AB7398ED067BDDE90A2351EC170BC0
S315080105208DED187B16F0D2FC002840F05C846B7BBD
S31508010530002B00F077829DED0A7B8DED0E7B002363
S31508010540637284F8573084F8583084F8593084F83F
S315080105505A3084F85B3084F85C3084F85D3084F86E
S315080105605E306B7398ED087BDDE90E2351EC170BB2
S315080105708DED1A7B16F0AAFC002840F0FD836B7AF4
S31508010580002B00F04A829DED0E7B8DED0C7B00233E
S31508010590637184F8373084F8383084F8393084F850
S315080105A03A3084F83B3084F83C3084F83D3084F89E
S315080105B03E306B7298ED107BDDE90C2351EC170B7D
S315080105C08DED1C7B16F082FC002840F09F83AB7AE8
S315080105D0002B00F01B829DED0C7B0023A37184F890
S315080105E03F3084F8403084F8413084F8423084F84A
S315080105F0433084F8443084F8453084F84630AB7289
S31508010600B0EE47BAF0EE67BAD8E90A8953EC1B2B64
S315080106104046494616F05AFC002840F018832B7AC2
S3150801062093B10023237184F82F3084F8303084F88D
S31508010630313084F8323084F8333084F8343084F831
S31508010640353084F836302B7207EE907AB8EE678A21
S31508010650F3EE0F7AB4EE678AF1EE10FA00F0CC8267
S315080106602B7BF0EE487A93B10023237284F84F303E
S3150801067084F8503084F8513084F8523084F8533075
S3150801068084F8543084F8553084F856302B731FEDAE
S31508010690C17AF4EE477AF1EE10FA00F04F82EB7A5E
S315080106A093B10023E37184F8473084F8483084F81D
S315080106B0493084F84A3084F84B3084F84C3084F851
S315080106C04D3084F84E30EB72F7EE007AF4EE678A15
S315080106D0F1EE10FA40F0768194F9033094F8270088
S315080106E094F828E094F829C094F82A7094F82B50C5
S315080106F094F82C1094F82D2094F82E4096F8008042
S3150801070007EE908AF8EEE77AB7EE008AF4EE487AB1
S31508010710F1EE10FA40F007818BB9022232703A9A4B
S3150801072001231370337807EE903AF8EEE77AB0EEC4
S31508010730007AF4EE477AF1EE10FA40F034811FB0F0
S31508010740BDEC108BBDE8F08F9DED107B0023A373E4
S3150801075084F87F3084F8803084F8813084F88230D8
S3150801076084F8833084F8843084F8853084F88630B8
S315080107708DED027BAB7427E600232370E3732374A4
S315080107806374A374E37423756375A3752B71FFE50D
S31508010790F2EE0A7AB4EE67AA0023F1EE10FA637054
S315080107A0E37523766376A376E37623776377A37770
S315080107B06B717FF4E1ADD94F0022012300921046F7
S315080107C02B710D213B460DF021FF002820700FDD0E
S315080107D07B782374BB786374FB78A3743B79E374E1
S315080107E07B792375BB796375FB79A3753B78E373CD
S315080107F0DAF80070CCE5F2EE087AF4EE679A00238F
S31508010800F1EE10FAA370E37784F8203084F82130EA
S3150801081084F8223084F8233084F8243084F825308B
S3150801082084F82630AB717FF499ADDFF80093002286
S315080108300123009210466B710C214B460DF0E6FE22
S315080108406070DAF8007007EE907A0028B8EE67AAA9
S315080108507FF78AAD99F80130237699F802306376E5
S3150801086099F80330A37699F80430E37699F80530B8
S31508010870237799F80630637799F80730A37799F8BB
S315080108800030E37570E5F2EE067AB4EE679A002356
S31508010890F1EE10FAE37084F8273084F8283084F8EA
S315080108A0293084F82A3084F82B3084F82C3084F8DF
S315080108B02D3084F82E30EB717FF442ADDFF870925B
S315080108C00022012300921046AB710B214B460DF015
S315080108D09DFEA070DAF8007007EE907A0028F8EE0F
S315080108E0679A7FF733AD99F8013084F8203099F883
S315080108F0023084F8213099F8033084F8223099F8C7
S31508010900043084F8233099F8053084F8243099F8AE
S31508010910063084F8253099F8073084F8263099F896
S315080109200030E37712E5B0EE007AF4EE477AF1EE9D
S3150801093010FA38D1002B7FF702AF8BF806203A9AC6
S315080109408BF801E001238BF807408BF800008BF840
S3150801095002C08BF803708BF804508BF805101370DE
S31508010960159A6F4C137003233370139B6D4A1B88BA
S315080109701380149A138015F0C7FF389BD3ED007ABC
S31508010980F8EE677AC4E90001F4EE487AF1EE10FA56
S3150801099004D1654B3B990022C1E90023337807EE60
S315080109A0903AF8EEE77AF5EE407AF1EE10FA7FF42E
S315080109B0C6AE3A9A0123337013701FB0BDEC108B83
S315080109C0BDE8F08FF2EE067AB4EE679AF1EE10FA08
S315080109D040F0BD8294F90230E07F94F820E094F863
S315080109E021C094F8227094F8235094F8241094F8AE
S315080109F0252094F8264081E69DED067B8DED087B42
S31508010A0060E59DED047B8DED067B31E59DED0C7B67
S31508010A10B0EE47BAF0EE67BAF6E59DED0E7B8DEDC1
S31508010A200C7BC7E59DED0A7B8DED0E7B9AE59DED69
S31508010A30087B8DED0A7B6DE59DED027B8DED047BD3
S31508010A40ECE4DFF8F0900022012300921046AB7324
S31508010A502E214B460DF0DAFD0028DAF80070A07257
S31508010A601FDD99F8013084F8603099F8023084F86E
S31508010A70613099F8033084F8623099F8043084F8C3
S31508010A80633099F8053084F8643099F8063084F8AB
S31508010A90653099F8073084F8663099F8003084F89B
S31508010AA05F30384615F030FFCDE90A0132E5DFF847
S31508010AB0889000220123009210466B742C214B4624
S31508010AC00DF0A4FD0028DAF8007060731FDD99F8AF
S31508010AD0013084F8783099F8023084F8793099F839
S31508010AE0033084F87A3099F8043084F87B3099F821
S31508010AF0053084F87C3099F8063084F87D3099F809
S31508010B00073084F87E3099F8003084F87730384613
S31508010B1015F0FAFECDE9040180E400BFCC070020F8
S31508010B2048070020420700200000F03FC4070020C4
S31508010B30BC0700200C08002004080020C54F00222D
S31508010B40012300921046EB7220213B460DF05EFD13
S31508010B500028E0717FF7B8AD7B7884F84830BB7818
S31508010B6084F84930FB7884F84A303B7984F84B306D
S31508010B707B7984F84C30BB7984F84D30FB7984F85D
S31508010B804E303B7884F847309EE5DFF8D492002250
S31508010B90012300921046AB7416214B460DF036FD23
S31508010BA00028DAF80070A0731FDD99F8013084F87F
S31508010BB0803099F8023084F8813099F8033084F846
S31508010BC0823099F8043084F8833099F8053084F82E
S31508010BD0843099F8063084F8853099F8073084F816
S31508010BE0863099F8003084F87F30384615F08CFE47
S31508010BF0CDE90201FFF7E8BB974F002201230092D6
S31508010C0010462B731F213B460DF000FDDAED007AE5
S31508010C1020720028F8EE677A7FF739AD7B7884F879
S31508010C205030BB7884F85130FB7884F852303B79E0
S31508010C3084F853307B7984F85430BB7984F855307D
S31508010C40FB7984F856303B7884F84F301FE5834F9B
S31508010C5000220123009210462B7248213B460DF0D3
S31508010C60D5FC0028207117DD7B7884F83030BB78F5
S31508010C7084F83130FB7884F832303B7984F83330A4
S31508010C807B7984F83430BB7984F83530FB7984F87C
S31508010C9036303B7884F82F30DAF80070D4E4DFF880
S31508010CA0C49100220123009210462B7442214B461F
S31508010CB00DF0ACFC0028DAF8007020731FDD99F8F6
S31508010CC0013084F8703099F8023084F8713099F857
S31508010CD0033084F8723099F8043084F8733099F83F
S31508010CE0053084F8743099F8063084F8753099F827
S31508010CF0073084F8763099F8003084F86F30384632
S31508010D0015F002FECDE90601FFF7B2BBDFF85891EF
S31508010D100022012300921046AB7230214B460DF09A
S31508010D2075FC0028DAF80070A0711FDD99F801300A
S31508010D3084F8403099F8023084F8413099F8033044
S31508010D4084F8423099F8043084F8433099F805302C
S31508010D5084F8443099F8063084F8453099F8073014
S31508010D6084F8463099F8003084F83F30384615F053
S31508010D70CBFD41EC1B0B47E4DFF8F0900022012381
S31508010D80009210466B7218214B460DF03FFC002865
S31508010D90DAF8007060711FDD99F8013084F838308F
S31508010DA099F8023084F8393099F8033084F83A30E2
S31508010DB099F8043084F83B3099F8053084F83C30CA
S31508010DC099F8063084F83D3099F8073084F83E30B2
S31508010DD099F8003084F83730384615F095FDCDE995
S31508010DE00C01FFF7E7BBDFF8889000220123009288
S31508010DF010466B7345214B460DF008FC0028DAF8BE
S31508010E00007060721FDD99F8013084F8583099F83E
S31508010E10023084F8593099F8033084F85A3099F831
S31508010E20043084F85B3099F8053084F85C3099F819
S31508010E30063084F85D3099F8073084F85E3099F801
S31508010E40003084F85730384615F05EFDCDE90E01BD
S31508010E50FFF788BBFC070020F40700202C080020B8
S31508010E60DC0700201C08002014080020EC070020DD
S31508010E7024080020DFF870930022012100924B46D6
S31508010E80E97110460DF0C2FBE070DAF8007007EE62
S31508010E90907A0028B8EE679A7FF74AAA99F801303E
S31508010EA084F8283099F8023084F8293099F8033003
S31508010EB084F82A3099F8043084F82B3099F80530EB
S31508010EC084F82C3099F8063084F82D3099F80730D3
S31508010ED084F82E3099F8003084F82730FFF728BABD
S31508010EE0DFF808930022012300921046EB731721BD
S31508010EF04B460DF08BFB0028DAF80070E0721FDD17
S31508010F0099F8013084F8683099F8023084F8693024
S31508010F1099F8033084F86A3099F8043084F86B300C
S31508010F2099F8053084F86C3099F8063084F86D30F4
S31508010F3099F8073084F86E3099F8003084F86730EC
S31508010F40384615F0E1FCCDE90801FFF7BBBAF2EE28
S31508010F50087AF4EE679AF1EE10FA14D0F2EE0A7AEC
S31508010F60B4EE67AAF1EE10FA1BD194F90030E07BD2
S31508010F7094F810E094F811C0A77CE57C217D627D88
S31508010F80A47DFFF7BBBB94F90130E07D94F818E026
S31508010F9094F819C0A77EE57E217F627FA47FFFF7BB
S31508010FA0ADBBDDE9100153EC1C2B15F08FFFD0B951
S31508010FB0DDE9022351EC1D0B15F088FF38B394F9CE
S31508010FC00D3094F8770094F878E094F879C094F89D
S31508010FD07A7094F87B5094F87C1094F87D2094F8F4
S31508010FE07E40FFF78BBB94F90E3094F87F0094F896
S31508010FF080E094F881C094F8827094F8835094F84C
S31508011000841094F8852094F88640FFF777BBDDE9CC
S31508011010042351EC1E0B15F059FF98B194F90C30C5
S3150801102094F86F0094F870E094F871C094F87270AF
S3150801103094F8735094F8741094F8752094F87640DF
S31508011040FFF75CBBDDE9062351EC1F0B15F03EFFEC
S3150801105098B194F90B3094F8670094F868E094F81D
S3150801106069C094F86A7094F86B5094F86C1094F807
S315080110706D2094F86E40FFF741BBDDE90823DDE9F1
S31508011080160115F023FF98B194F90A3094F85F0018
S3150801109094F860E094F861C094F8627094F863502B
S315080110A094F8641094F8652094F86640FFF726BB17
S315080110B0DDE90A23DDE9180115F008FF98B194F96D
S315080110C0093094F8570094F858E094F859C094F800
S315080110D05A7094F85B5094F85C1094F85D2094F873
S315080110E05E40FFF70BBBDDE90E23DDE91A0115F0BA
S315080110F0EDFE98B194F9053094F8370094F838E084
S3150801110094F839C094F83A7094F83B5094F83C1026
S3150801111094F83D2094F83E40FFF7F0BADDE90C2338
S31508011120DDE91C0115F0D2FE98B194F9063094F860
S315080111303F0094F840E094F841C094F8427094F85E
S31508011140435094F8441094F8452094F84640FFF724
S31508011150D5BA53EC1B2B4046494615F0B7FE98B154
S3150801116094F9043094F82F0094F830E094F831C0DB
S3150801117094F8327094F8335094F8341094F8352072
S3150801118094F83640FFF7BABAF3EE0F7AB4EE678AE7
S31508011190F1EE10FA13D194F9083094F84F0094F847
S315080111A050E094F851C094F8527094F8535094F85A
S315080111B0541094F8552094F85640FFF79FBA94F9BD
S315080111C0073094F8470094F848E094F849C094F831
S315080111D04A7094F84B5094F84C1094F84D2094F8B2
S315080111E04E40FFF78BBA00BFD4070020E407002062
S315080111F0012108B508460DF0DDF90B2101200DF096
S31508011200D9F90C2101200DF0D5F90D2101200DF098
S31508011210D1F9162101200DF0CDF92C2101200DF06F
S31508011220C9F9422101200DF0C5F9172101200DF058
S31508011230C1F92E2101200DF0BDF9452101200DF03E
S31508011240B9F9182101200DF0B5F9302101200DF069
S31508011250B1F9482101200DF0ADF91F2101200DF04A
S31508011260A9F9BDE80840202101200DF0A3B900BF66
S315080112702DE9F04F2DED108B9FB0CDE914233E9D3E
S31508011280254A2B68DFF894A0399E13900133136021
S315080112902B60389B1F68CAF8007007EE107AF8EEC3
S315080112A0478AF7EE007AF4EE678AF1EE10FADDE97D
S315080112B03C488B4600F08A85EB79B0EE689A002B9C
S315080112C040F0A982F2EE067AB4EE679AF1EE10FAC8
S315080112D000F0BC82AB79F0EE499A002B40F05482BB
S315080112E0F2EE087AF4EE679AF1EE10FA00F06682E9
S315080112F06B79B0EE69AA002B40F01482F2EE0A7AF5
S31508011300B4EE67AAF1EE10FA00F01F822B79002BD2
S3150801131040F0FC8106E000BF3007002038070020B6
S3150801132000000042384615F0EFFA98ED007B0246B8
S315080113300B46CDE91023B0EE47CAF0EE67CA53EC67
S31508011340172B15F0C3FD002840F0E283AB7C002B78
S3150801135040F0C4819DED107B8DED027B98ED0C7BF1
S31508011360DDE90223B0EE47DAF0EE67DA51EC170B46
S3150801137015F0ACFD002840F060836B7C002B00F073
S3150801138022839DED027B8DED047B0023637384F834
S31508011390773084F8783084F8793084F87A3084F8AC
S315080113A07B3084F87C3084F87D3084F87E306B7429
S315080113B098ED027BDDE90423B0EE47EAF0EE67EA31
S315080113C051EC170B15F082FD002840F028842B7C80
S315080113D0002B00F0DD829DED047B8DED067B00235D
S315080113E0237384F86F3084F8703084F8713084F888
S315080113F0723084F8733084F8743084F8753084F860
S3150801140076302B7498ED047BDDE90623B0EE47FAB6
S31508011410F0EE67FA51EC170B15F058FD002840F06D
S315080114201D85EB7B002B00F0AE829DED067B8DEDD5
S31508011430087B0023E37284F8673084F8683084F8FF
S31508011440693084F86A3084F86B3084F86C3084F833
S315080114506D3084F86E30EB7398ED0E7BDDE9082369
S3150801146051EC170B8DED167B15F030FD002840F079
S31508011470AF82AB7B002B00F0A1829DED087B8DED41
S315080114800A7B0023A37284F85F3084F8603084F8FD
S31508011490613084F8623084F8633084F8643084F803
S315080114A0653084F86630AB7398ED067BDDE90A236F
S315080114B051EC170B8DED187B15F008FD002840F04F
S315080114C04F846B7B002B00F074829DED0A7B8DEDBA
S315080114D00E7B0023637284F8573084F8583084F8F9
S315080114E0593084F85A3084F85B3084F85C3084F8D3
S315080114F05D3084F85E306B7398ED087BDDE90E2369
S3150801150051EC170B8DED1A7B15F0E0FC002840F025
S31508011510F1836B7A002B00F047829DED0E7B8DEDF2
S315080115200C7B0023637184F8373084F8383084F8EB
S31508011530393084F83A3084F83B3084F83C3084F802
S315080115403D3084F83E306B7298ED107BDDE90C2353
S3150801155051EC170B8DED1C7B15F0B8FC002840F0FB
S315080115609483AB7A002B00F018829DED0C7B002347
S31508011570A37184F83F3084F8403084F8413084F808
S31508011580423084F8433084F8443084F8453084F88E
S315080115904630AB72B0EE47BAF0EE67BAD8E90A89B7
S315080115A053EC1B2B4046494615F090FC002840F0A9
S315080115B00F832B7A93B10023237184F82F3084F893
S315080115C0303084F8313084F8323084F8333084F896
S315080115D0343084F8353084F836302B7207EE907A39
S315080115E0B8EE678AF3EE0F7AB4EE678AF1EE10FA6F
S315080115F000F0C4822B7BF0EE487A93B10023237264
S3150801160084F84F3084F8503084F8513084F85230D9
S3150801161084F8533084F8543084F8553084F85630B9
S315080116202B731FEDC17AF4EE477AF1EE10FA00F04A
S315080116304982EB7A93B10023E37184F8473084F841
S31508011640483084F8493084F84A3084F84B3084F8B5
S315080116504C3084F84D3084F84E30EB72F7EE007A50
S31508011660F4EE678AF1EE10FA40F0738194F90330CB
S3150801167094F8270094F828E094F829C094F82A7079
S3150801168094F82B5094F82C1094F82D2094F82E40A9
S3150801169096F8008007EE908AF8EEE77AB7EE008AA8
S315080116A0F4EE487AF1EE10FA40F004818BB9022281
S315080116B032703A9A01231370337807EE903AF8EEAE
S315080116C0E77AB0EE007AF4EE477AF1EE10FA40F0D6
S315080116D031811FB0BDEC108BBDE8F08F9DED107BFD
S315080116E00023A37384F87F3084F8803084F881302E
S315080116F084F8823084F8833084F8843084F885301D
S3150801170084F886308DED027BAB7427E600232370BF
S31508011710E37323746374A374E37423756375A37500
S315080117202B71FFE5F2EE0A7AB4EE67AA0023F1EE11
S3150801173010FA6370E37523766376A376E3762377E7
S315080117406377A3776B717FF4E1ADD64F0120002251
S3150801175028713B4600920D210CF058FF0028207095
S315080117600FDD7B782374BB786374FB78A3743B79AC
S31508011770E3747B792375BB796375FB79A3753B782C
S31508011780E373DAF80070CDE5F2EE087AF4EE679ABB
S315080117900023F1EE10FAA370E37784F8203084F879
S315080117A0213084F8223084F8233084F8243084F8F0
S315080117B0253084F82630AB717FF49AADDFF8F492C0
S315080117C00120002268714B4600920C210CF01EFF85
S315080117D06070DAF8007007EE907A0028B8EE67AA0A
S315080117E07FF78CAD99F80130237699F80230637644
S315080117F099F80330A37699F80430E37699F8053019
S31508011800237799F80630637799F80730A37799F81B
S315080118100030E37572E5F2EE067AB4EE679A0023B4
S31508011820F1EE10FAE37084F8273084F8283084F84A
S31508011830293084F82A3084F82B3084F82C3084F83F
S315080118402D3084F82E30EB717FF444ADDFF86892C1
S3150801185001200022A8714B4600920B210CF0D6FEFE
S31508011860A070DAF8007007EE907A0028F8EE679A09
S315080118707FF736AD99F8013084F8203099F80230AF
S3150801188084F8213099F8033084F8223099F8043025
S3150801189084F8233099F8053084F8243099F806300D
S315080118A084F8253099F8073084F8263099F80030FD
S315080118B0E37715E5B0EE007AF4EE477AF1EE10FA21
S315080118C038D1002B7FF705AF8BF806203A9A8BF8AB
S315080118D001E001238BF807408BF800008BF802C062
S315080118E08BF803708BF804508BF805101370159A52
S315080118F06D4C137003233370139B6C4A1B8813803A
S31508011900149A138015F000F8389BD3ED007AF8EE97
S31508011910677AC4E90001F4EE487AF1EE10FA04D1C7
S31508011920634B3B990022C1E90023337807EE903ACD
S31508011930F8EEE77AF5EE407AF1EE10FA7FF4C9AEE1
S315080119403A9A0123337013701FB0BDEC108BBDE8B2
S31508011950F08FF2EE067AB4EE679AF1EE10FA40F0DD
S31508011960B38294F90230E07F94F820E094F821C01C
S3150801197094F8227094F8235094F8241094F82520AA
S3150801198094F8264084E69DED067B8DED087B63E59C
S315080119909DED047B8DED067B34E59DED0C7BB0EE6C
S315080119A047BAF0EE67BAF9E59DED0E7B8DED0C7B36
S315080119B0CAE59DED0A7B8DED0E7B9DE59DED087BC8
S315080119C08DED0A7B70E59DED027B8DED047BEFE4E1
S315080119D0DFF8E89001200022A8734B4600922E21D9
S315080119E00CF014FE0028DAF80070A0721FDD99F8D1
S315080119F0013084F8603099F8023084F8613099F83A
S31508011A00033084F8623099F8043084F8633099F821
S31508011A10053084F8643099F8063084F8653099F809
S31508011A20073084F8663099F8003084F85F30384614
S31508011A3014F06AFFCDE90A0136E5DFF88490012042
S31508011A40002268744B4600922C210CF0DFFD002819
S31508011A50DAF8007060731FDD99F8013084F8783080
S31508011A6099F8023084F8793099F8033084F87A3095
S31508011A7099F8043084F87B3099F8053084F87C307D
S31508011A8099F8063084F87D3099F8073084F87E3065
S31508011A9099F8003084F87730384614F035FFCDE9E7
S31508011AA0040185E44408002050070020440700206B
S31508011AB00000F03F3C08002034080020840800207C
S31508011AC07C080020DC4F01200022E8723B46009288
S31508011AD020210CF09BFD0028E0717FF7BFAD7B78D4
S31508011AE084F84830BB7884F84930FB7884F84A3062
S31508011AF03B7984F84B307B7984F84C30BB7984F890
S31508011B004D30FB7984F84E303B7884F84730A5E5AB
S31508011B10DFF8309301200022A8744B460092162163
S31508011B200CF074FD0028DAF80070A0731FDD99F82F
S31508011B30013084F8803099F8023084F8813099F8B8
S31508011B40033084F8823099F8043084F8833099F8A0
S31508011B50053084F8843099F8063084F8853099F888
S31508011B60073084F8863099F8003084F87F30384693
S31508011B7014F0CAFECDE90201FFF7F0BBAF4F012011
S31508011B80002228733B4600921F210CF03FFDDAED37
S31508011B90007A20720028F8EE677A7FF742AD7B78E3
S31508011BA084F85030BB7884F85130FB7884F8523089
S31508011BB03B7984F853307B7984F85430BB7984F8BF
S31508011BC05530FB7984F856303B7884F84F3028E550
S31508011BD09B4F0120002228723B46009248210CF0B7
S31508011BE015FD0028207117DD7B7884F83030BB7825
S31508011BF084F83130FB7884F832303B7984F8333015
S31508011C007B7984F83430BB7984F83530FB7984F8EC
S31508011C1036303B7884F82F30DAF80070DEE4DFF8E6
S31508011C2028920120002228744B46009242210CF08A
S31508011C30EDFC0028DAF8007020731FDD99F80130F1
S31508011C4084F8703099F8023084F8713099F80330C5
S31508011C5084F8723099F8043084F8733099F80530AD
S31508011C6084F8743099F8063084F8753099F8073095
S31508011C7084F8763099F8003084F86F30384614F0D5
S31508011C8043FECDE90601FFF7BDBBDFF8C091012090
S31508011C900022A8724B46009230210CF0B7FC0028AE
S31508011CA0DAF80070A0711FDD99F8013084F8403028
S31508011CB099F8023084F8413099F8033084F84230B3
S31508011CC099F8043084F8433099F8053084F844309B
S31508011CD099F8063084F8453099F8073084F8463083
S31508011CE099F8003084F83F30384614F00DFE41EC7F
S31508011CF01B0B53E4DFF858910120002268724B460A
S31508011D00009218210CF082FC0028DAF80070607144
S31508011D101FDD99F8013084F8383099F8023084F8D3
S31508011D20393099F8033084F83A3099F8043084F850
S31508011D303B3099F8053084F83C3099F8063084F838
S31508011D403D3099F8073084F83E3099F8003084F828
S31508011D503730384614F0D8FDCDE90C01FFF7F4BB4E
S31508011D60DFF8F0900120002268734B460092452166
S31508011D700CF04CFC0028DAF8007060721FDD99F847
S31508011D80013084F8583099F8023084F8593099F8B6
S31508011D90033084F85A3099F8043084F85B3099F89E
S31508011DA0053084F85C3099F8063084F85D3099F886
S31508011DB0073084F85E3099F8003084F85730384691
S31508011DC014F0A2FDCDE90E01FFF796BBDFF8889066
S31508011DD001210022E9714B46009208460CF016FCD7
S31508011DE0E070DAF8007007EE907A0028B8EE679A84
S31508011DF07FF768AA99F8013084F8283099F80230F3
S31508011E0084F8293099F8033084F82A3099F804308F
S31508011E1084F82B3099F8053084F82C3099F8063077
S31508011E2084F82D3099F8073084F82E3099F8003067
S31508011E3084F82730FFF746BA740800206C0800209A
S31508011E40A408002054080020940800208C080020CB
S31508011E50640800209C0800204C080020DFF8009345
S31508011E6001200022E8734B46009217210CF0CEFBA5
S31508011E700028DAF80070E0721FDD99F8013084F85D
S31508011E80683099F8023084F8693099F8033084F893
S31508011E906A3099F8043084F86B3099F8053084F87B
S31508011EA06C3099F8063084F86D3099F8073084F863
S31508011EB06E3099F8003084F86730384614F024FDFE
S31508011EC0CDE90801FFF7C8BAF2EE087AF4EE679A87
S31508011ED0F1EE10FA14D0F2EE0A7AB4EE67AAF1EE30
S31508011EE010FA1BD194F90030E07B94F810E094F8CD
S31508011EF011C0A77CE57C217D627DA47DFFF7C8BB67
S31508011F0094F90130E07D94F818E094F819C0A77E99
S31508011F10E57E217F627FA47FFFF7BABBDDE9100169
S31508011F2053EC1C2B14F0D2FFD0B9DDE9022351EC96
S31508011F301D0B14F0CBFF38B394F90D3094F87700E4
S31508011F4094F878E094F879C094F87A7094F87B500C
S31508011F5094F87C1094F87D2094F87E40FFF798BB9E
S31508011F6094F90E3094F87F0094F880E094F881C0D3
S31508011F7094F8827094F8835094F8841094F8852024
S31508011F8094F88640FFF784BBDDE9042351EC1E0B68
S31508011F9014F09CFF98B194F90C3094F86F0094F8FA
S31508011FA070E094F871C094F8727094F8735094F8CC
S31508011FB0741094F8752094F87640FFF769BBDDE94B
S31508011FC0062351EC1F0B14F081FF98B194F90B30DD
S31508011FD094F8670094F868E094F869C094F86A7010
S31508011FE094F86B5094F86C1094F86D2094F86E4040
S31508011FF0FFF74EBBDDE90823DDE9160114F066FF9C
S3150801200098B194F90A3094F85F0094F860E094F86E
S3150801201061C094F8627094F8635094F8641094F867
S31508012020652094F86640FFF733BBDDE90A23DDE94D
S31508012030180114F04BFF98B194F9093094F8570038
S3150801204094F858E094F859C094F85A7094F85B508B
S3150801205094F85C1094F85D2094F85E40FFF718BB7D
S31508012060DDE90E23DDE91A0114F030FF98B194F980
S31508012070053094F8370094F838E094F839C094F8A4
S315080120803A7094F83B5094F83C1094F83D2094F833
S315080120903E40FFF7FDBADDE90C23DDE91C0114F02A
S315080120A015FF98B194F9063094F83F0094F840E08A
S315080120B094F841C094F8427094F8435094F8441047
S315080120C094F8452094F84640FFF7E2BA53EC1B2BE7
S315080120D04046494614F0FAFE98B194F9043094F84A
S315080120E02F0094F830E094F831C094F8327094F8DF
S315080120F0335094F8341094F8352094F83640FFF7A5
S31508012100C7BAF3EE0F7AB4EE678AF1EE10FA13D175
S3150801211094F9083094F84F0094F850E094F851C0B7
S3150801212094F8527094F8535094F8541094F8552032
S3150801213094F85640FFF7ACBA94F9073094F847007B
S3150801214094F848E094F849C094F84A7094F84B50CA
S3150801215094F84C1094F84D2094F84E40FFF798BA2D
S315080121605C0800202DE9F047DDF820A00F461E4641
S3150801217004462D4BDAE900019046002214F088FA4C
S31508012180DDE909590123CAE900013B70D9F80010B4
S315080121901944264B1960C9F80010366807EE106A0B
S315080121A0B8EE477AF7EE007AB4EE677AF1EE10FAEE
S315080121B003D11D4B0022C8E900232778DFF8788070
S315080121C0384614F0A1FB1A4BC8E900011E602F71AD
S315080121D02E60E2796A7194F8019085F8069094F870
S315080121E0028085F8078094F803E085F808E094F8FA
S315080121F004C085F809C031466679AE720D4BA079DF
S31508012200E8729871DA711F7083F8019083F8028079
S3150801221083F803E083F804C05E710822BDE8F0473D
S3150801222001200BF0C3BF00BF0000F03F9C07002050
S31508012230A4070020AC080020B00700202DE9F84FBC
S3150801224014461D460022002306460F462046294607
S3150801225014F03CFE0022002350B13046394614F0F2
S3150801226035FEB0B1A246AB4650465946BDE8F88F91
S315080122703046394614F02AFE88B10020002122464C
S315080122802B4614F0E5FC82468B4650465946BDE876
S31508012290F88FB246BB4650465946BDE8F88F2246E6
S315080122A02B463046394612F0DFFD002200238246CE
S315080122B08B4614F00BFE002852D12046294612F00F
S315080122C0DFFC02460B462046294614F027FEF0B9E4
S315080122D0304639460022002314F002FE0022061E6B
S315080122E04FF000032046294618BF012614F0F8FDD1
S315080122F00038F6B218BF01208642C6D05046594664
S3150801230022462B4614F0C4F982468B46BDE722467F
S315080123102B463046394614F09BFC21F00049144BF4
S3150801232000224946804614F0B3F912F0A9FC024688
S315080123300B464046494614F0A9F902460B46404663
S315080123404946904623F0004900220A4B14F056FBF1
S3150801235002460B464046494614F0CCFD0028B7D044
S315080123604FF0000A4FF0000B50465946BDE8F88F6A
S315080123700000E03F0000B03C2DE9F04F2DED028B47
S3150801238083B0179F199E00283DD01D46012333703F
S315080123900F9BB3F800B05846144614F0C5FA224606
S315080123A02B468046894614F091FD08B100233B70FF
S315080123B022462B464046494614F0B0FD002835D042
S315080123C01499854BD1E90001002214F093FD0028E8
S315080123D033D1B378002B00F095800023BB70B3701E
S315080123E04046494622462B4614F098FD002840F0FF
S315080123F08980737813B100237B70737003B0BDECC9
S31508012400028BBDE8F08F3378002BF7D0B37803B190
S31508012410B07073780BB1002373700023BB707B70A7
S31508012420337003B0BDEC028BBDE8F08FB378002B97
S31508012430D6D00023BB70B370D2E70122674BB270C6
S31508012440D3E900232046294614F022F9DFF898A19A
S3150801245080465846894614F057FA614B002214F013
S3150801246017F99AED007B42464B46B0EE478AF0EEE5
S31508012470678A14F00BF953EC182BFFF7DFFE0022DD
S31508012480002314F023FD38B3169B1878C001C3B294
S315080124907B710193149BD3E9000114F087FD0001B8
S315080124A00E9B5FFA80FB87F806B0D3E9000114F0AA
S315080124B07DFD019B109A1844109B834483F800B054
S315080124C03B7853709370D370137153719371D371B1
S315080124D0189B129A5B6813600F9B188814F014FAFC
S315080124E042464B46DAE9008914F0D0F842464B4693
S315080124F0FFF7A4FE0022002314F0E8FC003818BFF9
S315080125000120B8701599344BD1E90001002214F065
S31508012510F1FC00283FF46DAF01237370314BDFF8EE
S31508012520CCA0D3E900232046294614F0B1F80F9B25
S31508012530044618880D4614F0E7F9DAE90089284BAC
S31508012540002214F0A5F822462B4614F09FF84246BD
S315080125504B46FFF773FE0022002314F0B7FC20B3A5
S31508012560169B1E78159BF601F6B2FE70D3E900019B
S3150801257014F01CFD00010E9B5FFA80F887F80480B1
S31508012580D3E9000114F012FD119B119A4044064447
S315080125901E703B7853709370D37013715371937196
S315080125A0D371189B139A1B6813600F9BDAE900898C
S315080125B0188814F0A9F922462B4614F067F8424602
S315080125C04B46FFF73BFE0022002314F07FFC003840
S315080125D018BF0120787011E700001C401800002080
S315080125E00000F03F20000020080000201000002015
S315080125F02DE9F04F2DED028B83B0189F1A9E002806
S3150801260040D01D46012333700F9BB3F800B05846DE
S31508012610144614F089F922462B468046894614F059
S3150801262055FC20B100233B70129B1B787B70224618
S315080126302B464046494614F071FC002835D01599B9
S31508012640864BD1E90001002214F054FC002833D14D
S31508012650B378002B00F096800023FB70B3704046D8
S31508012660494622462B4614F059FC002840F08A8038
S31508012670737813B10023BB70737003B0BDEC028B82
S31508012680BDE8F08F3378002BF7D0B37803B1B0707B
S3150801269073780BB1002373700023FB70BB70337022
S315080126A003B0BDEC028BBDE8F08FB378002BD6D012
S315080126B00023FB70B370D2E70122694BB270D3E9EC
S315080126C000232046294613F0E3FFDFF8A0A1804640
S315080126D05846894614F018F9624B002213F0D8FFC0
S315080126E09AED007B42464B46B0EE478AF0EE678A82
S315080126F013F0CCFF53EC182BFFF7A0FD00220023A3
S3150801270014F0E4FB40B3179B1878C001C3B2BB7140
S315080127100193159BD3E9000114F048FC00010E9BB7
S315080127205FFA80FB87F807B0D3E9000114F03EFC95
S31508012730019B109A1844109B834483F800B07B7858
S3150801274053703B789370D370137153719371D3712E
S31508012750199B139A5B6813600F9B188814F0D4F8B9
S3150801276042464B46DAE9008913F090FF42464B464A
S31508012770FFF764FD0022002314F0A8FB003818BFF8
S315080127800120F8701699354BD1E90001002214F0A1
S31508012790B1FB00283FF46CAF01237370324BDFF8AD
S315080127A0D0A0D3E900232046294613F071FF0F9BD9
S315080127B0044618880D4614F0A7F8DAE90089294B6A
S315080127C0002213F065FF22462B4613F05FFF4246AF
S315080127D04B46FFF733FD0022002314F077FB28B39D
S315080127E0179B1E78169BF601F6B23E71D3E90001D6
S315080127F014F0DCFB00010E9B5FFA80F887F8058070
S31508012800D3E9000114F0D2FB119B119A4044064406
S315080128101E707B7853703B789370D3701371537124
S315080128209371D371199B149A1B6813600F9BDAE98C
S315080128300089188814F068F822462B4613F026FFFB
S3150801284042464B46FFF7FAFC0022002314F03EFBF2
S31508012850003818BF0120B8700FE700BF00001C4000
S31508012860180000200000F03F20000020080000208A
S31508012870100000202DE9F04F85B0CDE90023DDE9F0
S31508012880114200284DD00D788E7991F801B091F852
S3150801289002A091F8039091F804804F7903964FF0BE
S315080128A0010C05FA0CF3DBB2580907EE100AB8EE6B
S315080128B0C77AF7EE007AB4EEE77AF1EE10FACE7936
S315080128C082F800C0A372207309DD109B0022D3E9A8
S315080128D000011D4B13F0DCFE109BC3E900012B011F
S315080128E0DBB2E8091D0963726073E57214F01CF81E
S315080128F002460B46DDE9000114F0E8FAC8B9039A65
S315080129002072002384F800B084F801A084F80290AC
S3150801291084F8038027716271A671E37105B0BDE879
S31508012920F08F1378002BF9D02072107005B0BDE82E
S31508012930F08F284613F0F8FFDDE90E2314F0C6FAE6
S31508012940003818BF0120DAE70000F03F2DE9F04F03
S3150801295085B0CDE90023DDE9114200284DD00D7877
S315080129608E7991F801B091F802A091F8039091F847
S3150801297004804F7903964FF0010C05FA0CF3DBB28C
S31508012980580907EE100AB8EEC77AF7EE007AB4EEE0
S31508012990E77AF1EE10FACE7982F800C0A3722073B5
S315080129A009DD109B0022D3E900011D4B13F070FECF
S315080129B0109BC3E900012B01DBB2E8091D0963720B
S315080129C06073E57213F0B0FF02460B46DDE90001BC
S315080129D014F07CFAC8B9039A2072002384F800B06F
S315080129E084F801A084F8029084F803802771627143
S315080129F0A671E37105B0BDE8F08F1378002BF9D005
S31508012A002072107005B0BDE8F08F284613F08CFFD0
S31508012A10DDE90E2314F05AFA003818BF0120DAE767
S31508012A200000F03F2DE9F84FDDF828A00E9EDDE9FC
S31508012A301248002800F0B2801F4601230D46914630
S31508012A4088F80030002900F0BF8088F8023097F82E
S31508012A5000B00BFA03F3DBB223765B0907EE103AF3
S31508012A60B8EEC77AF7EE007AB4EEE77AF1EE10FA25
S31508012A70A37609DD109B0022D3E90001684B13F008
S31508012A8007FE109BC3E900017B782372BB7863724A
S31508012A90FB78A3723B79E3727B792373BB79637302
S31508012AA04FEA0B10FB79A373C0B20023E075000946
S31508012AB0E373607613F038FFDDE90C2314F006FAA8
S31508012AC0051E18BF01254FEADB1B84F81BB0657488
S31508012AD0B9F1000F00F08280012388F801309AF8D5
S31508012AE0007007FA03F3DBB2E3745B0907EE103AE9
S31508012AF0B8EEC77AF7EE007AB4EEE77AF1EE10FA95
S31508012B00637509DD109B0022D3E90001444B13F0DC
S31508012B10BFFD109BC3E900019AF8013023709AF8AA
S31508012B20023063709AF80330A3709AF80430E370A0
S31508012B309AF8053023719AF80630637138019AF8C4
S31508012B400730A371C0B20023A0740009E371207590
S31508012B5013F0EAFEDDE90C2314F0B8F9003818BFC2
S31508012B600120FF092074A775002D41D0E37B33703E
S31508012B70237A7370637AB370A37AF370E37A337145
S31508012B80237B7371637BB371A37BF3710123119962
S31508012B900B700F9B01221A70BDE8F88F98F8003068
S31508012BA0002BF9D098F8023013B1607488F8020046
S31508012BB098F801301BB10023237488F801300023EB
S31508012BC088F80030BDE8F88F98F802302BB36174A5
S31508012BD088F80210B9F1000F7FF47EAF98F801303A
S31508012BE0002BC1D084F8109088F80190002DBDD132
S31508012BF0E3793370237873706378B370A378F370CD
S31508012C00E3783371237973716379B371A379F371B6
S31508012C10237C003B18BF0123B9E7657C58E700BF51
S31508012C200000F03F2DE9F84F2DED028B179E9DF818
S31508012C3038A09DF83C509DF8404040B9337813B10F
S31508012C40169B18703070BDEC028BBDE8F88F0F46E5
S31508012C50104619460122354B3270D3E9002313F089
S31508012C6017FD0246384616460F4613F04DFEDFF8A5
S31508012C70C4B002460B4643EC182B2D4B002213F029
S31508012C8007FDDBE9008932463B4613F0FFFC424665
S31508012C904B46FFF7D3FA0022002314F017F960B365
S31508012CA0159B93F80080169B4FEAC8185FFA88F9B6
S31508012CB083F80190149BD3E9000114F077F9169B68
S31508012CC000015FFA80F883F80280119BD3E90001BD
S31508012CD014F06CF9C844129B804483F8008083F889
S31508012CE001A09D70DC701C715C719C71DC71DDE961
S31508012CF00C0114F05BF9139B1860DBE9004551ECF4
S31508012D00180B32463B4613F0C1FC22462B46FFF709
S31508012D1095FA0023002214F0D9F8169B003818BF3B
S31508012D2001201870BDEC028BBDE8F88F1800002051
S31508012D300000F03F080000202DE9F84F2DED028B29
S31508012D40179E9DF838A09DF83C509DF8404040B923
S31508012D50337813B1169B18703070BDEC028BBDE841
S31508012D60F88F0F46104619460122354B3270D3E9C2
S31508012D70002313F08DFC0246384616460F4613F01B
S31508012D80C3FDDFF8C4B002460B4643EC182B2D4BA6
S31508012D90002213F07DFCDBE9008932463B4613F03D
S31508012DA075FC42464B46FFF749FA0022002314F008
S31508012DB08DF860B3159B93F80080169B4FEAC818E7
S31508012DC05FFA88F983F80190149BD3E9000114F09E
S31508012DD0EDF8169B00015FFA80F883F80280119BD3
S31508012DE0D3E9000114F0E2F8C844129B804483F841
S31508012DF0008083F801A09D70DC701C715C719C7168
S31508012E00DC71DDE90C0114F0D1F8139B1860DBE9DC
S31508012E10004551EC180B32463B4613F037FC224667
S31508012E202B46FFF70BFA0023002214F04FF8169BE6
S31508012E30003818BF01201870BDEC028BBDE8F88F69
S31508012E40200000200000F03F100000200B791BB184
S31508012E500023C37103720B714B783BB1CB780BB16D
S31508012E600023CB708B7843B900234B700023837002
S31508012E70C371437003720B70704700238B70F3E7BD
S31508012E802DE9F04F2DED028B93B099461E9B0293C7
S31508012E901F9B0193209B0C93219B0393229B0493D5
S31508012EA0239B0A93249B0B939046DDE925320D92C9
S31508012EB0279A0E92289A0F92299A10922A9A05927F
S31508012EC02B9A06922C9A07922D9A08922E9A099273
S31508012ED02F9A329C1192DDE9305A10BB237823B917
S31508012EE013B0BDEC028BBDE8F08F237913B1E871FD
S31508012EF02872207163784BB1E3780BB10023E37034
S31508012F00A3780BB10023A370002363700023AB7071
S31508012F10EB716B702B72237013B0BDEC028BBDE89D
S31508012F20F08F4FF0010B84F800B0D3E90067002257
S31508012F304A4B3946304613F0C9FF002808BF834675
S31508012F405FFA8BF308EE103A3046444B39460022B5
S31508012F5013F0BCFF8346002849D101232371019B45
S31508012F60188813F0E1FC06460F46404649463246A4
S31508012F703B4613F0ABFF28B30E9ADAF80830136014
S31508012F800D9ADAF80C3013600B9A9AF8123013700E
S31508012F90109A9AF8103013700A9A9AF81330137027
S31508012FA00F9A9AF8113013700C9A019BC2F800B067
S31508012FB0C2F804B0119A82F800B0188813F0B4FC6C
S31508012FC006460F4632463B464046494613F088FFB9
S31508012FD0002833D00A9B1B78002B3CD10123EB71C7
S31508012FE00B9B1B78002B33D101232B7205E0237928
S31508012FF01BB10023EB712B722371099B2693089B46
S315080130002593079B2493069B2393059B2293049B55
S315080130102193039B0299209318EE100A019B1F9393
S31508013020013442464B46CDE9275A29941E9113B0DD
S31508013030BDEC028BBDE8F04FFFF79EB90021E9719F
S3150801304032463B464046494613F04AFF0028C7D157
S3150801305000232B72D1E70023EB71C1E70000F03F93
S315080130602DE9F04F85B0CDE90023DDE90F420028AF
S315080130704DD00D788E7991F801B091F802A091F8AA
S31508013080039091F804804F7903964FF0010C05FAE5
S315080130900CF3DBB2580907EE100AB8EEC77AF7EE59
S315080130A0007AB4EEE77AF1EE10FACE7982F800C02A
S315080130B0A372207309DD0E9B0022D3E90001184B88
S315080130C013F0E6FA0E9BC3E90001039B6371E80955
S315080130D00023E37184F800B084F801A084F8029013
S315080130E084F803802771A671607313F01DFCDDE96E
S315080130F0002313F0EBFE2D01EDB2003818BF0120B5
S315080131002B0920726572E37205B0BDE8F08F13785A
S31508013110002BF9D02072107005B0BDE8F08F00BF02
S315080131200000F03F2DE9F04F85B0CDE90023DDE938
S315080131300F4200284DD00D788E7991F801B091F89B
S3150801314002A091F8039091F804804F7903964FF005
S31508013150010C05FA0CF3DBB2580907EE100AB8EEB2
S31508013160C77AF7EE007AB4EEE77AF1EE10FACE797D
S3150801317082F800C0A372207309DD0E9B0022D3E9F1
S315080131800001184B13F084FA0E9BC3E90001039B57
S315080131906371E8090023E37184F800B084F801A09B
S315080131A084F8029084F803802771A671607313F07E
S315080131B0BBFBDDE9002313F089FE2D01EDB20038D2
S315080131C018BF01202B0920726572E37205B0BDE8AC
S315080131D0F08F1378002BF9D02072107005B0BDE876
S315080131E0F08F00BF0000F03F2DE9F84F2DED028B5F
S315080131F0169E9DF830A09DF834509DF8384040B988
S31508013200337813B1149B18703070BDEC028BBDE88E
S31508013210F88F0F46104619460122344B3270D3E90E
S31508013220002313F035FA0246384616460F4613F0C0
S315080132306BFBDFF8C0B002460B4643EC182B2C4B50
S31508013240002213F025FADBE9008932463B4613F0E2
S315080132501DFA42464B46FEF7F1FF0022002313F002
S3150801326035FE48B3129BD3E9000113F09FFE139B69
S3150801327093F800800F9B4FEA880800F0030008F0D6
S315080132800C0840EA0808D3E9000113F08FFE4FEA5B
S315080132900818109B119A83F801A000F00F0048EA5C
S315080132A000089D7083F80080DC701C715C719C714C
S315080132B0DC71159B1B681360DBE9004551EC180BA3
S315080132C032463B4613F0E2F922462B46FEF7B6FF95
S315080132D00023002213F0FAFD149B003818BF0120C1
S315080132E01870BDEC028BBDE8F88F00BF18000020EE
S315080132F00000F03F080000202DE9F84F2DED028B64
S31508013300169E9DF830A09DF834509DF8384040B976
S31508013310337813B1149B18703070BDEC028BBDE87D
S31508013320F88F0F46104619460122344B3270D3E9FD
S31508013330002313F0ADF90246384616460F4613F038
S31508013340E3FADFF8C0B002460B4643EC182B2C4BC8
S31508013350002213F09DF9DBE9008932463B4613F05A
S3150801336095F942464B46FEF769FF0022002313F002
S31508013370ADFD48B3129BD3E9000113F017FE139B69
S3150801338093F800800F9B4FEA880800F0030008F0C5
S315080133900C0840EA0808D3E9000113F007FE4FEAD2
S315080133A00818109B119A83F801A000F00F0048EA4B
S315080133B000089D7083F80080DC701C715C719C713B
S315080133C0DC71159B1B681360DBE9004551EC180B92
S315080133D032463B4613F05AF922462B46FEF72EFF94
S315080133E00023002213F072FD149B003818BF012038
S315080133F01870BDEC028BBDE8F88F00BF20000020D5
S315080134000000F03F1000002070B505460126002196
S3150801341002200DF021F80021072085F8316208F015
S315080134209DFD2B460024C5E90C662C7043F8384FE0
S315080134306E60EB622E81FCF711FFFDF7D9FE21467E
S3150801344020460DF009F8214630460DF005F82146CB
S3150801345010200DF001F8214604200CF0FDFF21464D
S3150801346012200CF0F9FF214613200CF0F5FF214636
S315080134700E200CF0F1FF21460F200CF0EDFF21463E
S315080134800320BDE870400CF0E7BF00BF0000000054
S315080134902DE9F04F2DED0C8BADF5717DCDE9182198
S315080134A0DDF87CA416939AF83032DDF874B41790D7
S315080134B0002B0CBF012300234FF001018AF830329B
S315080134C08AF877124FF002008BF8653018BF002191
S315080134D00CF0F4FF9AF83132002B00F00B86DDF878
S315080134E0343401268AF873621B78002B01F0508266
S315080134F0179BD3E900450022B54B2046294613F010
S31508013500E5FC002801F04C824FF001089AF8433295
S31508013510002B01F0958201238AF87432002E41F0BE
S315080135209582DDF81824DDF87834AA49B3F888318C
S315080135300020C2E90001169A1380DDF8783493F861
S315080135408B318AF82A32A34B0022CAE95623DDF8C1
S315080135503424A04900231370DDF8382400201370A1
S315080135600026CBE9040100278AF831328AF843326A
S31508013570984B30463946002213F08AF8CAE9780191
S31508013580944B00222046294613F0A0FC70B900226C
S315080135904FF080432046294613F098FC30B98E4BEC
S315080135A000222046294613F091FC28B18A4BDDF802
S315080135B060140022C1E90023B8F1000F05D0854B3C
S315080135C0DDF860140022C1E90023844B002220465D
S315080135D0294613F07BFC002843F0A883804B002280
S315080135E02046294613F072FC002843F09F837D4B41
S315080135F020462946002213F069FC002843F09683E9
S31508013600DDF86034D3E9002316999FED777A0988A6
S3150801361007EE901AF8EEE77A7449F4EE477AF1EE76
S3150801362010FAC1E9002316D1169A002313809AF8D5
S315080136302A42204613F078F9DDF87834D3E9602375
S3150801364013F04EFC002801F0B6850134E4B2684B4C
S315080136508AF82A421C709AF83142002C00F06785D4
S315080136609AF84432002B01F095869AF84532002BD8
S3150801367000F0E9829AF86532002B00F029819AF860
S315080136806932C3B19AF86A3293B19AF8A73223B16B
S3150801369000238BF890318AF8A7329AF8A63223B11B
S315080136A000238BF882318AF8A63200238AF86A3217
S315080136B000238AF869329AF86832C3B19AF8A332B4
S315080136C093B19AF8A53223B100238BF86F318AF8A2
S315080136D0A5329AF8A43223B100238BF86E318AF801
S315080136E0A43200238AF8A33200238AF868329AF8AA
S315080136F06732C3B19AF8A03293B19AF8A23223B1CC
S3150801370000238BF853318AF8A2329AF8A13223B1F1
S3150801371000238BF852318AF8A13200238AF8A032A5
S3150801372000238AF867329AF86632C3B19AF89D324D
S3150801373093B19AF89F3223B100238BF837318AF86F
S315080137409F329AF89E3223B100238BF836318AF8D4
S315080137509E3200238AF89D3200238AF866329AF847
S315080137606E3233B39AF8B73233B100238BF8BB31D3
S315080137708BF8BC318AF8B7329AF8B43273B19AF831
S31508013780B63213B100238AF8B6329AF8B53213B1B4
S3150801379000238AF8B53200238AF8B43200238BF85D
S315080137A0B6318BF8BB318BF8B5318BF8BC318AF859
S315080137B06E329AF86D32B3B39AF8B332D3B10023A5
S315080137C08BF8B2318BF8B3318AF8B33212E000BF05
S315080137D0000010400000F03F0000084000001C40B7
S315080137E00000204000002240000005449007002008
S315080137F0B90700209AF8B03273B19AF8B23213B108
S3150801380000238AF8B2329AF8B13213B100238AF842
S31508013810B13200238AF8B0320023ABF8AC31ABF8E9
S31508013820B2318AF86D329AF86C3213B39AF8AF321C
S3150801383033B100238BF8A8318BF8A9318AF8AF3256
S315080138409AF8AC3273B19AF8AE3213B100238AF8FA
S31508013850AE329AF8AD3213B100238AF8AD3200239D
S315080138608AF8AC320023ABF8A231ABF8A8318AF852
S315080138706C329AF86B3213B39AF8AB3233B1002330
S315080138808BF89E318BF89F318AF8AB329AF8A832B9
S3150801389073B19AF8AA3213B100238AF8AA329AF8B0
S315080138A0A93213B100238AF8A93200238AF8A8326B
S315080138B00023ABF89831ABF89E318AF86B320023B6
S315080138C08BF85B30ABF85C308BF85E308AF8653282
S315080138D09AF85532002B00F0FC809AF85D32C3B194
S315080138E09AF85E3293B19AF88E3223B100238BF897
S315080138F0FF308AF88E329AF88D3223B100238BF87D
S31508013900F1308AF88D3200238AF85E3200238AF86C
S315080139105D329AF85C3213B100238AF85C329AF860
S315080139205A32C3B19AF85B3293B19AF88C3223B101
S3150801393000238BF8E3308AF88C329AF88B3223B15C
S3150801394000238BF8D5308AF88B3200238AF85B324C
S3150801395000238AF85A329AF85832C3B19AF859327A
S3150801396093B19AF88A3223B100238BF8C7308AF8C3
S315080139708A329AF8893223B100238BF8B9308AF84A
S31508013980893200238AF8593200238AF858329AF87C
S315080139905632C3B19AF8573293B19AF8883223B19D
S315080139A000238BF8AB308AF888329AF8873223B12C
S315080139B000238BF89D308AF8873200238AF857321C
S315080139C000238AF856329AF8633223B39AF89C325E
S315080139D033B100238BF824318BF825318AF89C32D0
S315080139E09AF8643273B19AF89B3213B100238AF8B4
S315080139F09B329AF89A3213B100238AF89A32002335
S31508013A008AF8643200238BF821318BF81E31ABF822
S31508013A1024318AF863329AF8613223B39AF89932D3
S31508013A2033B100238BF81C318BF81D318AF8993292
S31508013A309AF8623273B19AF8983213B100238AF868
S31508013A4098329AF8973213B100238AF897320023ED
S31508013A508AF8623200238BF819318BF81631ABF8E4
S31508013A601C318AF861329AF85F3223B39AF8963292
S31508013A7033B100238BF814318BF815318AF8963255
