S02B00002E2E2F48414E636F6465725F453430375F5454415F54656D706C6174655F44535F5635322E737265B9
S3150800400014D30020811E02080000000000000000F2
S315080040100000000000000000000000000000000092
S3150800402000000000000000000000000081E7010811
S3150800403000000000000000001DE801086DE8010806
S315080040400000000000000000000000000000000062
S315080040500000000000000000000000000000000052
S3150800406000000000D9F6010800000000000000006A
S315080040700000000000000000000000000000000032
S31508004080000000000000000000000000A9DB010895
S3150800409061DB010885DB0108CDDB010800000000B3
S315080040A0C5F60108B1F601089DF601088DF6010866
S315080040B079F6010865F6010851F6010800000000C6
S315080040C000000000000000000000000000000000E2
S315080040D0000000005104020869040208810402086D
S315080040E0000000000000000049050208000000006A
S315080040F03DF6010829F6010819F601080000000036
S3150800410000000000B10402080000000000000000E2
S315080041100000000000000000000000000000000091
S31508004120000000000000000000000000B5040208BE
S315080041300000000009F701080000000039DC01084A
S31508004140F1DB010815DC01085DDC010879050208C8
S3150800415000000000000000000000000099040208AA
S315080041600000000000000000000000000000000041
S315080041700000000000000000000000000000000031
S311080041800000000000000000EE11AA5527
S3150800C00000000000000055400000000000B070402D
S3150800C0100000000000005640000000000040654097
S3150800C02000000000000054400000000000C06F40FF
S3150800C0300000000000C065400000000000207040BD
S3150800C0400000000000307040000000E00B2E113E9A
S3150800C0500000000000002840000000000000F0BFBB
S3150800C0600000000000002840000000E00B2E213EE2
S3150800C070000000000000F03F000000E00B2E113E1B
S3150800C080000000000000F0BF00000000000028408B
S3150800C090000000E00B2E213E000000000000554085
S3150800C0A00000000000A075400000000000E070409D
S3150800C0B0000000000020714000000000000056400B
S3150800C0C00000000000C06540000000000000544069
S3150800C0D0000000000020704000000000004066409C
S3150800C0E0000000000060704000000000008057401B
S3150800C0F00000000000607540000000000000554088
S3150800C1000000000000C070400000000000407640BB
S3150800C1100000000000C075400000000000007640E6
S3150800C12000000000008076400000000000C0764055
S3150800C1300000000000007740000000000040774043
S3150800C14000000000000056400000000000005740B4
S3150800C1500000000000005440000000000080654018
S3150800C16000000000000066400000000000806640F5
S3150800C1700000000000407040000000000080704091
S3150800C1800000000000000040000000000000000160
S3150800C190010000000100000001000000010000008D
S3150800C1A00000000020000000200000002000000021
S3150800C1B020000000000000001F0000001F00000013
S3150800C1C01F0000001F000000000000000100000022
S3150800C1D0010000000100000001000000000000004E
S3150800C1E00000000000000000000000000D00000034
S3150800C1F00D0000000D0000000D000000000000000A
S3150800C2000C0000000C0000000C0000000C000000F0
S3150800C210000000000B0000000B0000000B000000EF
S3150800C2200B000000000000000100000001000000F3
S3150800C23001000000010000000000000000000000EE
S3150800C240000000000000364000000000008050405A
S3150800C2500000000000003740000000000040514088
S3150800C26000000000000038400000000000005240B6
S3150800C270000000000000364000000000008050402A
S3150800C2800000000000003740000000000040514058
S3150800C2900000000000003840000000000000524086
S3150800C2A000000000000000000000000000005440EC
S3150800C2B000000000000055400000000000805540C6
S3150800C2C000000000000056400000000000805640B4
S3150800C2D00000000000005740000000000080654094
S3150800C2E00000000000006640000000000080664074
S3150800C2F00000000000407040000000000060704030
S3150800C30000000000008070400000000000C070407F
S3150800C3100000000000C075400000000000007640E4
S3150800C32000000000004076400000000000807640D3
S3150800C3300000000000C076400000000000007740C2
S3150800C3400000000000000000000000000000F03FB0
S3150800C350000000000000F03F000000000000F03F71
S3150800C360000000000000F03F000000000000F03F61
S3150800C3700000000000000000000000000000F03F80
S3150800C380000000000000F03F000000000000000070
S3150800C390000000000000F03F000000000000F03F31
S3150800C3A0000000000000F03F000000000000000050
S3150800C3B0000000000000F03F000000000000F03F11
S3150800C3C0000000000000F03F000000000000F03F01
S3150800C3D0000000000000F03F000000000000F03FF1
S3150800C3E000000000000000000000000000005440AB
S3150800C3F00000000000005540000000000080554085
S3150800C4000000000000805640000000000040654023
S3150800C4100000000000C065400000000000C06F403A
S3150800C420000000000020704000000000003070404E
S3150800C430000000000070704000000000009070408E
S3150800C4400000000000000000000000000000F03FAF
S3150800C450000000000000F03F000000000000F03F70
S3150800C4600000000000000000000000000000F03F8F
S3150800C4700000000000000000000000000000F03F7F
S3150800C480000000000000F03F000000000000F03F40
S3150800C490000000000000F03F000000000000F03F30
S3150800C4A000000000000000000000000000005440EA
S3150800C4B000000000000055400000000000805540C4
S3150800C4C00000000000805640000000000080574031
S3150800C4D00000000000C06540000000000040664003
S3150800C4E0000000000020704000000000006070405E
S3150800C4F000000000006075400000000000A07040C9
S3150800C5000000000000E070400000000000007140DC
S3150800C510000000000040714000000000000000001C
S3150800C520000000000000F03F000000000000F03F9F
S3150800C530000000000000F03F000000000000F03F8F
S3150800C5400000000000000000000000000000F03FAE
S3150800C5500000000000000000000000000000F03F9E
S3150800C5600000000000000000000000000000F03F8E
S3150800C570000000000000F03F000000000000F03F4F
S3150800C580000000000000F03F000000000000F03F3F
S3150800C5900000010101000100010100000001000185
S3150800C5A06464640048414E636F6465725F45343065
S3150800C5B0375F5454415F54656D706C6174655F44B0
S3150800C5C0535F5635325F736F667477617265494497
S3150800C5D05F76315F3230303632335F313633383456
S3150800C5E0300000004170704374726C5461736B00C4
S3150800C5F048414E636F6465725F453430375F545403
S3150800C600415F54656D706C6174655F44535F563560
S3150800C610322E6300200000000014024008000900C2
S3150800C620200000000014024010000E002000000048
S3150800C6300014024020000F002000000000140240F1
S3150800C640400004002000000000140240800005009D
S3150800C650200000000014024000010600200000002F
S3150800C66000140240000207002000000000140240E7
S3150800C67000040800040000000008024001000A0047
S3150800C680040000000008024004000C004144436313
S3150800C6906F6E76657273696F6E5461736B00000016
S3150800C6A02E2E2F626C6F636B7365742F7274772FDF
S3150800C6B053544D33322F7372632F686561705F343C
S3150800C6C02E630000546D724370754C6F61640000F0
S3150800C6D049444C45000000002E2E2F626C6F636B98
S3150800C6E07365742F7274772F53544D33322F7372C8
S3150800C6F0632F7461736B732E630000002E2E2F62F6
S3150800C7006C6F636B7365742F7274772F53544D3344
S3150800C710322F7372632F74696D6572732E6300000E
S3150800C720546D72205376630043616E4576656E7468
S3150800C7305461736B0000000043616E5472616E733E
S3150800C7406D69745461736B002E2E2F626C6F636B68
S3150800C7507365742F7274772F53544D33322F737257
S3150800C760632F53544D33325F453430372F63616E30
S3150800C7702E6300000064004000000002080000006C
S3150800C780000C02400100000008000000000C0240F6
S3150800C7900200010009131415160000000068004085
S3150800C7A0000000040200000000040240200005000A
S3150800C7B0020000000004024040000600093F404114
S3150800C7C04200000001010201020202020203020203
S3150800C7D00402020303030403030503030603030514
S3150800C7E004040604040704040804040705050805E8
S3150800C7F005080605080705080706080806080807BD
S3150800C80008080800457643686E6C3100457643682B
S3150800C8106E6C3200457643686E6C33002E2E2F629E
S3150800C8206C6F636B7365742F7274772F53544D3323
S3150800C830322F7372632F53544D33325F453430377A
S3150800C8402F6D61632E6300002E2E2F626C6F636B53
S3150800C8507365742F7274772F53544D33322F737256
S3150800C860632F53544D33325F453430372F706F7210
S3150800C870742E630000000140010000000201000060
S3150800C880100000000010024000020900100000001D
S3150800C8900010024000080B000004004002000000DF
S3150800C8A001020000010000000000024040000600EE
S3150800C8B002000000000402402000050000080040B5
S3150800C8C0040000000102000008000000000C0240FD
S3150800C8D000100C0008000000000C024000200D00AB
S3150800C8E000040140020000000203000004000000EA
S3150800C8F0000802404000060004000000000802404C
S3150800C900800007001000000000100240000100002F
S3150800C9100100080010000000001002400004000199
S3150800C92001000A001000000000100240001000027A
S3150800C93001000C000000014001000000020119007E
S3150800C940000000400100000001021C000004004035
S3150800C9500200000001021D0000080040040000005B
S3150800C96001021E00000401400200000002012C0022
S3150800C9700040014000000100020118000044014087
S3150800C98000000200020119000048014000000400EE
S3150800C99002011A00001C00408000000001022C0061
S3150800C9A0002000400001000001022D0010000000D8
S3150800C9B000100240000200000100090010000000FB
S3150800C9C0001002400008000101000B0010000000E2
S3150800C9D0001002400020000201000D0010000000B7
S3150800C9E0001002400040000301000E000100000094
S3150800C9F000000240200001000100050001000000BF
S3150800CA00000002404000020002000600020000008A
S3150800CA100004024020000201020005000800000090
S3150800CA20000C02400010030002000C000800000081
S3150800CA30000C02400020030102000D000400000063
S3150800CA40000802404000040003000600040000003D
S3150800CA5000080240800004010300070010000000DF
S3150800CA600010024020000500030005001000000029
S3150800CA7000100240400005010300060020000000E7
S3150800CA8000140240400006000300060020000000D3
S3150800CA900014024080000700030007002000000081
S3150800CAA000140240000108000900080020000000E8
S3150800CAB000140240000209000900090004000000F1
S3150800CAC00008024001000000200000000014024097
S3150800CAD04000000020000000001402408000000012
S3150800CAE020000000001402400001000020000000A1
S3150800CAF0001402400002000020000000001402405A
S3150800CB00000400000200000000040240800000004B
S3150800CB10020000000004024040000000100000006F
S3150800CB20001002400400000010000000001002403F
S3150800CB301000000010000000001002402000000055
S3150800CB4010000000001002404000000040000000F5
S3150800CB500018024080000000400000000018024053
S3150800CB60000100004000000000180240001000000C
S3150800CB70400000000018024000800000010000008C
S3150800CB8000000240100000000200000000040240FD
S3150800CB9020000000010000000000024040000000E4
S3150800CBA0010000000000024020000000080000000C
S3150800CBB0000C02400100000008000000000C0240C2
S3150800CBC00200000008000000000C024004000000FB
S3150800CBD008000000000C02400800000008000000E1
S3150800CBE0000C02401000000008000000000C024083
S3150800CBF02000000008000000000C02404000000071
S3150800CC0008000000000C0240800000000800000038
S3150800CC10000C02400001000008000000000C024061
S3150800CC200002000008000000000C0240000400009A
S3150800CC3008000000000C0240000800000800000080
S3150800CC40000C02400010000008000000000C024022
S3150800CC500020000008000000000C02400040000010
S3150800CC6008000000000C02400080000010000000D0
S3150800CC7000100240010000001000000000100240F1
S3150800CC80020000001000000000100240080000002A
S3150800CC901000000000100240800000001000000094
S3150800CCA000100240000100001000000000100240C1
S3150800CCB000020000100000000010024000040000FE
S3150800CCC010000000001002400008000010000000DC
S3150800CCD00010024000100000100000000010024082
S3150800CCE00020000010000000001002400040000074
S3150800CCF01000000000100240008000002000000024
S3150800CD000014024001000000200000000014024048
S3150800CD100200000020000000001402400400000089
S3150800CD202000000000140240080000002000000057
S3150800CD300014024010000000200000000014024009
S3150800CD402000000020000000001402400008000037
S3150800CD50200000000014024000100000200000001F
S3150800CD6000140240002000002000000000140240C9
S3150800CD70004000002000000000140240008000006F
S3150800CD8040000000001802400100000040000000BA
S3150800CD90001802400200000040000000001802408F
S3150800CDA004000000400000000018024008000000CF
S3150800CDB0400000000018024010000000400000007B
S3150800CDC00018024020000000400000000018024041
S3150800CDD04000000040000000001802400002000069
S3150800CDE04000000000180240000400004000000057
S3150800CDF00018024000080000400000000018024029
S3150800CE00002000004000000000180240004000001A
S3150800CE1001000000000002400100000004000000BC
S3150800CE200008024001000000200000000014024033
S3150800CE3040000000200000000014024080000000AE
S3150800CE40200000000014024000010000200000003D
S3150800CE5000140240000200002000000000140240F6
S3150800CE6000040000020000000004024080000000E8
S3150800CE70020000000004024040000000100000000C
S3150800CE8000100240040000001000000000100240DC
S3150800CE9010000000100000000010024020000000F2
S3150800CEA01000000000100240400000004000000092
S3150800CEB000180240800000004000000000180240F0
S3150800CEC000010000400000000018024000100000A9
S3150800CED04000000000180240008000000100000029
S3150800CEE0000002401000000002000000000402409A
S3150800CEF02000000001000000000002404000000081
S3150800CF0001000000000002402000000008000000A8
S3150800CF10000C02400100000008000000000C02405E
S3150800CF200200000008000000000C02400400000097
S3150800CF3008000000000C024008000000080000007D
S3150800CF40000C02401000000008000000000C02401F
S3150800CF502000000008000000000C0240400000000D
S3150800CF6008000000000C02408000000008000000D5
S3150800CF70000C02400001000008000000000C0240FE
S3150800CF800002000008000000000C02400004000037
S3150800CF9008000000000C024000080000080000001D
S3150800CFA0000C02400010000008000000000C0240BF
S3150800CFB00020000008000000000C024000400000AD
S3150800CFC008000000000C024000800000100000006D
S3150800CFD0001002400100000010000000001002408E
S3150800CFE002000000100000000010024008000000C7
S3150800CFF01000000000100240800000001000000031
S3150800D000001002400001000010000000001002405D
S3150800D010000200001000000000100240000400009A
S3150800D0201000000000100240000800001000000078
S3150800D030001002400010000010000000001002401E
S3150800D0400020000010000000001002400040000010
S3150800D05010000000001002400080000020000000C0
S3150800D06000140240010000002000000000140240E5
S3150800D0700200000020000000001402400400000026
S3150800D08020000000001402400800000020000000F4
S3150800D09000140240100000002000000000140240A6
S3150800D0A020000000200000000014024000080000D4
S3150800D0B020000000001402400010000020000000BC
S3150800D0C00014024000200000200000000014024066
S3150800D0D0004000002000000000140240008000000C
S3150800D0E04000000000180240010000004000000057
S3150800D0F0001802400200000040000000001802402C
S3150800D100040000004000000000180240080000006B
S3150800D1104000000000180240100000004000000017
S3150800D12000180240200000004000000000180240DD
S3150800D1304000000040000000001802400002000005
S3150800D14040000000001802400004000040000000F3
S3150800D15000180240000800004000000000180240C5
S3150800D16000200000400000000018024000400000B7
S3150800D17004000000000802400020000000000140F2
S3150800D1800100000002011B00000000400100000031
S3150800D19001021C00000400400200000001021D00FC
S3150800D1A0000800400400000001021E0000040140BF
S3150800D1B00200000002012E000040014000000100AC
S3150800D1C00201180000440140000002000201190093
S3150800D1D0004801400000040002011A00001C00403B
S3150800D1E08000000001022C00002000400001000021
S3150800D1F001022D001000000000100240000200008D
S3150800D20002000200010009001000000000100240A0
S3150800D210000800010400200001000B0010000000B7
S3150800D22000100240002000020800000201000D0064
S3150800D230100000000010024000400003100000200B
S3150800D24001000E000100000000000240200001005D
S3150800D2500200020001000500010000000000024073
S3150800D2604000020002000200020006000200000060
S3150800D270000402402000020104002000020005000C
S3150800D28008000000000C0240001003000200020023
S3150800D29002000C0008000000000C024000200301F8
S3150800D2A00400200002000D000400000000080240EF
S3150800D2B0400004000200020003000600040000000B
S3150800D2C00008024080000401040020000300070053
S3150800D2D010000000001002402000050002000200B5
S3150800D2E00300050010000000001002404000050180
S3150800D2F0040020000300060020000000001402407D
S3150800D300400006000200020003000600200000009C
S3150800D3100014024080000700020002000300070014
S3150800D320200000000014024000010800020002006C
S3150800D330090008002000000000140240000209004D
S3150800D3400200020009000900001001401000000058
S3150800D350022500000200000000040240400006000A
S3150800D36002000000000402408000070007000000D9
S3150800D37000440040000002000126000008000000EA
S3150800D380000C02402000050008000000000C0240C6
S3150800D39040000600070000000048004000000400A6
S3150800D3A00127000008000000000C024000010800E8
S3150800D3B008000000000C02400002090007000000F7
S3150800D3C0001401402000000002470000040000008D
S3150800D3D00008024040000600040000000008024061
S3150800D3E0800007000800000056435020436F6E6611
S3150800D3F06967000056435020496E7465726661631A
S3150800D4006500000053544D6963726F656C656374FB
S3150800D410726F6E696373000053544D333220566938
S3150800D420727475616C20436F6D506F727420696EEB
S3150800D430204853206D6F64650000000053544D3337
S3150800D44032205669727475616C20436F6D506F7225
S3150800D4507420696E204653204D6F646500000000F5
S3150800D4603030303030303030303530420000000057
S3150800D4703030303030303030303530430000000046
S3150800D480000001400100000002011B0000000040EE
S3150800D4900100000001021C00000400400200000018
S3150800D4A001021D00000800400400000001021E00E1
S3150800D4B0000401400200000002012E000040014065
S3150800D4C000000100020118000044014000000200AB
S3150800D4D002011900004801400000040002011A0078
S3150800D4E0001C00408000000001022C0000200040C3
S3150800D4F00001000001022D0010000000001002408B
S3150800D50000020000020002000100090010000000ED
S3150800D51000100240000800010400200001000B0072
S3150800D520100000000010024000200002080000025F
S3150800D53001000D001000000000100240004000032A
S3150800D5401000002001000E0001000000000002404B
S3150800D5502000010002000200010005000100000091
S3150800D560000002404000020002000200020006001D
S3150800D570020000000004024020000201040020000E
S3150800D5800200050008000000000C0240001003001D
S3150800D5900200020002000C0008000000000C024015
S3150800D5A0002003010400200002000D000400000012
S3150800D5B000080240400004000200020003000600C2
S3150800D5C00400000000080240800004010400200056
S3150800D5D003000700100000000010024020000500AC
S3150800D5E002000200030005001000000000100240BF
S3150800D5F0400005010400200003000600200000008A
S3150800D6000014024040000600020002000300060063
S3150800D61020000000001402408000070002000200FB
S3150800D6200300070020000000001402400001080063
S3150800D6300200020009000800200000000014024051
S3150800D6400002090002000200090009002E2E2F62BE
S3150800D6506C6F636B7365742F7274772F53544D33E5
S3150800D660322F7372632F71756575652E630000001E
S3150800D6700404040084D600088CD6000894D6000852
S3150800D68007070700457643686E6C310045764368A0
S3150800D6906E6C3200457643686E6C3300505050000D
S3150800D6A04FBB610567ACDD3F182D4454FB21E93FAC
S3150800D6B09BF681D20B73EF3F182D4454FB21F93F9B
S3150800D6C0E2652F227F2B7A3C075C143326A6813C21
S3150800D6D0BDCBF07A8807703C075C143326A6913CCC
S3150800D6E000000000000000000000000000000080AC
S3150800D6F0FB21F93FFB2109407CD91240FB21194047
S3150800D7007A6A1F407CD92240BBFD2540FB2129406F
S3150800D7103A462C407A6A2F405C4731407CD93240E1
S3150800D7209C6B3440BBFD3540DB8F3740FB213940CD
S3150800D7301BB43A403A463C405AD83D407A6A3F4084
S3150800D7404C7E40405C4741406C1042407CD9424088
S3150800D7508CA243409C6B4440AC344540BBFD4540DD
S3150800D760CBC64640DB8F4740EB584840FB21494033
S3150800D77083F9A200444E6E00FC291500D1572700F4
S3150800D780DD34F50062DBC0003C999500419043000A
S3150800D7906351FE00BBDEAB00B761C5003A6E2400DC
S3150800D7A0D24D42004906E00009EA2E001C92D1003B
S3150800D7B0EB1DFE0029B11C00E83EA700F5358200E6
S3150800D7C044BB2E009CE98400B4267000417E5F00AD
S3150800D7D0D6913900538339009CF439008B5F840055
S3150800D7E028F9BD00F81F3B00DEFF97000F980500DB
S3150800D7F0112FEF000A5A8B006D1F6D00CF7E360081
S3150800D80009CB2700464FB7009E663F002DEA5F000A
S3150800D810BA277500E5EBC7003D7BF100F73907002D
S3150800D82092528A00FB6BEA001FB15F00085D8D000B
S3150800D830300356007BFC4600F0AB6B0020BCCF00E3
S3150800D84036F49A00E3A91D005E619100081BE60004
S3150800D85085996500A0145F008D40680080D8FF0098
S3150800D86027734D0006063100CA561500C9A873006D
S3150800D8707BE260006B8CC00000000040FB21F93F92
S3150800D880000000002D44743E000000809846F83CD5
S3150800D8900000006051CC783B00000080831BF03903
S3150800D8A00000004020257A38000000802282E336F6
S3150800D8B0000000001DF369350200000003000000A7
S30D0800D8C0040000000600000048
S315080100000B78FF2B00D070474B78002BFBD10BF0F8
S3150801001037BF00BF08B501200BF01EF9BDE808403F
S31508010020024A40F2676100200DF080BF0100010815
S315080100300AF0E2BD704700BFF8B504460D469DF8C3
S315080100401800002A35D0264E184616F0A9F8D6E922
S31508010050002316F01FF922462B4615F065FF214BA2
S31508010060002215F061FF089B04460D4618881E4FAD
S3150801007016F096F802460B462046294615F052FF19
S31508010080002632463B4604460D4616F093FB18B148
S31508010090079BC3E90067F8BD144F00263B46204677
S315080100A02946324616F068FB079BA8B1C3E90067E3
S315080100B0F8BD0F4E16F074F8D6E9002316F0EAF8E3
S315080100C022462B4615F030FF064B002215F02CFF71
S315080100D0099B04460D46C9E7C3E90045F8BD00BFBB
S315080100E0080000200000084000002E4000002EC035
S315080100F010000020704700BF2DE9F04181EAE17C3C
S3150801010080EAE074A4EBE074ACEBE17C1FFA84FEB0
S315080101104FEA1C47250C1FFA8CFC07FB0EF40CFB57
S315080101200EF60CFB05FC4FEA044E1EEB060E4FEAD3
S315080101300C484FEA1C4C2CBF012600260CEB144434
S3150801014018EB0E0E28BF013607FB0544F04634446A
S3150801015080B179B10028D4BF002001200029D4BF7D
S3150801016000210121884205D0CEF10008BEF1000F19
S3150801017005D0E4431460C3F80080BDE8F081644209
S31508010180F8E700BF2DE9F047DDF820A00F461E4627
S3150801019004462D4BDAE900019046002215F0C4FE0B
S315080101A0DDE909590123CAE900013B70D9F80010B4
S315080101B01944264B1960C9F80010366807EE106A0B
S315080101C0B8EE477AF7EE007AB4EE677AF1EE10FAEE
S315080101D003D11D4B0022C8E900232778DFF8788070
S315080101E0384615F0DDFF1A4BC8E900011E602F716C
S315080101F02E60E2796A7194F8019085F8069094F870
S31508010200028085F8078094F803E085F808E094F8F9
S3150801021004C085F809C031466679AE720D4BA079DE
S31508010220E8729871DA711F7083F8019083F8028079
S3150801023083F803E083F804C05E710822BDE8F0473D
S3150801024000200DF0FFBB00BF0000F03F980700201B
S31508010250A00700207C080020A807002008B5012176
S3150801026000200DF0F3FD0B2100200DF0EFFD0C2110
S3150801027000200DF0EBFD0D2100200DF0E7FD162104
S3150801028000200DF0E3FD422100200DF0DFFD1721CE
S3150801029000200DF0DBFD452100200DF0D7FD1821CA
S315080102A000200DF0D3FD482100200DF0CFFD1F21C0
S315080102B000200DF0CBFDBDE80840202100200DF0FF
S315080102C0C5BD00BF2DE9F04F2DED108B93B0CDE9DB
S315080102D00E23329DD64A2B68DFF85CA32D9E0D901E
S315080102E0013313602B602C9B1F68CAF8007007EE58
S315080102F0107AF8EE478AF7EE007AF4EE678AF1EE9D
S3150801030010FADDE930488B4600F09884EB79B0EEB7
S31508010310689A002B40F02E82F2EE067AB4EE679ABE
S31508010320F1EE10FA00F04182AB79F0EE499A002B12
S3150801033040F0DB81F2EE087AF4EE679AF1EE10FAF4
S3150801034000F0EA816B79B0EE69AA002B40F09A8138
S31508010350F2EE0A7AB4EE67AAF1EE10FA00F0A58178
S315080103602B79002B40F08281384615F019FF98ED5C
S31508010370007B02460B46CDE90A23B0EE47CAF0EEEA
S3150801038067CA53EC172B16F0EDF9002840F097834E
S31508010390EB7B002B40F052819DED0A7B8DED027BB4
S315080103A098ED027BDDE90223B0EE47DAF0EE67DA73
S315080103B051EC170B16F0D6F9002840F02383AB7BD6
S315080103C0002B00F098829DED027B8DED047B0023C6
S315080103D0A37284F85C3084F85D3084F85E3084F862
S315080103E05F3084F8603084F8613084F8623084F8CC
S315080103F06330AB7398ED047BDDE90423B0EE47EA7D
S31508010400F0EE67EA51EC170B16F0ACF9002840F04C
S315080104107C826B7B002B00F073829DED047B8DED56
S31508010420067B0023637284F8543084F8553084F8C7
S31508010430563084F8573084F8583084F8593084F89F
S315080104405A3084F85B306B7398ED067BDDE9062339
S31508010450B0EE47FAF0EE67FA51EC170B16F082F98F
S31508010460002840F0B583AB7A002B00F038829DED69
S31508010470067B8DED087B0023A37184F83C3084F854
S315080104803D3084F83E3084F83F3084F8403084F8B3
S31508010490413084F8423084F84330AB7298ED087BDA
S315080104A0DDE9082351EC170B8DED107B16F05AF98F
S315080104B0002840F060826B7A002B00F015829DEDD2
S315080104C0087B0023637184F8343084F8353084F866
S315080104D0363084F8373084F8383084F8393084F87F
S315080104E03A3084F83B306B72B0EE47BAF0EE67BA31
S315080104F0D8E90A8953EC1B2B4046494616F032F9CE
S31508010500002840F03D832B7A93B10023237184F8A8
S315080105102C3084F82D3084F82E3084F82F3084F866
S31508010520303084F8313084F8323084F833302B7225
S3150801053007EE907AB8EE678AF3EE0F7AB4EE678A19
S31508010540F1EE10FA00F0F1822B7BF0EE487A93B1C6
S315080105500023237284F84C3084F84D3084F84E30E9
S3150801056084F84F3084F8503084F8513084F852308A
S3150801057084F853302B739FED2F7AF4EE477AF1EE18
S3150801058010FA00F07582EB7A93B10023E37184F8CF
S31508010590443084F8453084F8463084F8473084F886
S315080105A0483084F8493084F84A3084F84B30EB7285
S315080105B0F7EE007AF4EE678AF1EE10FA40F07681EA
S315080105C094F9033094F8240094F825E094F826C0A9
S315080105D094F8277094F8285094F8291094F82A204A
S315080105E094F82B4096F8008007EE908AF8EEE77AA1
S315080105F0B7EE008AF4EE487AF1EE10FA40F0078178
S315080106008BB9022232702E9A01231370337807EEC2
S31508010610903AF8EEE77AB0EE007AF4EE477AF1EE20
S3150801062010FA40F0348113B0BDEC108BBDE8F08FA1
S315080106302C07002000000042340700209DED0A7BAC
S315080106400023E37284F8643084F8653084F86630F0
S3150801065084F8673084F8683084F8693084F86A3039
S3150801066084F86B308DED027BEB7399E600232370DA
S3150801067023736373A373E37323746374A374E374B7
S315080106802B7171E6F2EE0A7AB4EE67AA0023F1EE4F
S3150801069010FA637023756375A375E375237663761C
S315080106A0A376E3766B717FF45BAECE4F002201230E
S315080106B0009210462B710D213B460DF0F3FB0028E5
S315080106C020700FDD7B786373BB78A373FB78E373C4
S315080106D03B7923747B796374BB79A374FB79E374DF
S315080106E03B782373DAF800703EE6F2EE087AF4EE08
S315080106F0679A0023F1EE10FAA37023776377A3773D
S31508010700E37784F8203084F8213084F8223084F89D
S315080107102330AB717FF416AEDFF8D892002201239D
S31508010720009210466B710C214B460DF0BBFB6070B5
S31508010730DAF8007007EE907A0028B8EE67AA7FF714
S3150801074007AE99F80130637599F80230A37599F8DF
S315080107500330E37599F80430237699F80530637602
S3150801076099F80630A37699F80730E37699F80030B8
S315080107702375EDE5F2EE067AB4EE679A0023F1EEFB
S3150801078010FAE37084F8243084F8253084F826308A
S3150801079084F8273084F8283084F8293084F82A30F8
S315080107A084F82B30EB717FF4BFADDFF84C92002251
S315080107B0012300921046AB710B214B460DF072FBDB
S315080107C0A070DAF8007007EE907A0028F8EE679ABA
S315080107D07FF7B0AD99F80130637799F80230A377BE
S315080107E099F80330E37799F8043084F8203099F8BA
S315080107F0053084F8213099F8063084F8223099F8C2
S31508010800073084F8233099F80030237792E5B0EE63
S31508010810007AF4EE477AF1EE10FA38D1002B7FF719
S3150801082002AF8BF806202E9A8BF801E001238BF88C
S3150801083007408BF800008BF802C08BF803708BF821
S3150801084004508BF8051013700F9A674C1370032325
S3150801085033700D9B654A1B8813800E9A138015F019
S315080108609FFC2C9BD3ED007AF8EE677AC4E9000168
S31508010870F4EE487AF1EE10FA04D15D4B2F99002275
S31508010880C1E90023337807EE903AF8EEE77AF5EEF8
S31508010890407AF1EE10FA7FF4C6AE2E9A0123337030
S315080108A0137013B0BDEC108BBDE8F08FF2EE067A2B
S315080108B0B4EE679AF1EE10FA40F0F68194F9023037
S315080108C0207F94F81DE094F81EC0E77F94F8205025
S315080108D094F8211094F8222094F8234082E69DED9D
S315080108E0067B8DED087BD9E59DED087BB0EE47BA11
S315080108F0F0EE67BAFCE59DED027B8DED047B79E5AB
S315080109009DED047B8DED067B9EE5DFF8F0900022D8
S315080109100123009210466B7317214B460DF0C2FA5C
S315080109200028DAF8007060721FDD99F8013084F842
S31508010930553099F8023084F8563099F8033084F81E
S31508010940573099F8043084F8583099F8053084F806
S31508010950593099F8063084F85A3099F8073084F8EE
S315080109605B3099F8003084F85430384615F018FC95
S31508010970CDE9060168E5DFF8889000220123009297
S3150801098010466B7218214B460DF08CFA0028DAF8DE
S31508010990007060711FDD99F8013084F8353099F8D7
S315080109A0023084F8363099F8033084F8373099F8EC
S315080109B0043084F8383099F8053084F8393099F8D4
S315080109C0063084F83A3099F8073084F83B3099F8BC
S315080109D0003084F83430384615F0E2FB41EC1B0B45
S315080109E086E500BFCC070020480700204207002003
S315080109F00000F03FC4070020BC070020E4070020E0
S31508010A00EC070020DFF89893002201230092104694
S31508010A10AB7342214B460DF045FA0028DAF800700F
S31508010A20A0721FDD99F8013084F85D3099F802301B
S31508010A3084F85E3099F8033084F85F3099F8043009
S31508010A4084F8603099F8053084F8613099F80630F1
S31508010A5084F8623099F8073084F8633099F80030E1
S31508010A6084F85C30384615F09BFBCDE90401C1E4F6
S31508010A70C84F0022012300921046EB7220213B4603
S31508010A800DF010FA0028E0717FF792AD7B7884F8B3
S31508010A904530BB7884F84630FB7884F847303B7993
S31508010AA084F848307B7984F84930BB7984F84A3030
S31508010AB0FB7984F84B303B7884F8443078E5DFF8E5
S31508010AC0E4920022012300921046EB7316214B464D
S31508010AD00DF0E8F90028DAF80070E0721FDD99F8E0
S31508010AE0013084F8653099F8023084F8663099F84F
S31508010AF0033084F8673099F8043084F8683099F837
S31508010B00053084F8693099F8063084F86A3099F81E
S31508010B10073084F86B3099F8003084F86430384629
S31508010B2015F03EFBCDE902013AE49B4F0022012371
S31508010B30009210462B731F213B460DF0B3F9DAEDEF
S31508010B40007A20720028F8EE677A7FF714AD7B7871
S31508010B5084F84D30BB7884F84E30FB7884F84F30F2
S31508010B603B7984F850307B7984F85130BB7984F825
S31508010B705230FB7984F853303B7884F84C30FAE4E8
S31508010B80864F00220123009210462B7248213B46CC
S31508010B900DF088F90028207117DD7B7884F82D304F
S31508010BA0BB7884F82E30FB7884F82F303B7984F8AB
S31508010BB030307B7984F83130BB7984F83230FB796F
S31508010BC084F833303B7884F82C30DAF80070AFE4D7
S31508010BD0DFF8D4910022012300921046AB72452119
S31508010BE04B460DF05FF90028DAF80070A0711FDD99
S31508010BF099F8013084F83D3099F8023084F83E308E
S31508010C0099F8033084F83F3099F8043084F8403075
S31508010C1099F8053084F8413099F8063084F842305D
S31508010C2099F8073084F8433099F8003084F83C3055
S31508010C30384615F0B5FACDE908012FE4DFF86C91CD
S31508010C400022012100924B46E97110460DF02AF95E
S31508010C50E070DAF8007007EE907A0028B8EE679A25
S31508010C607FF75AAB99F8013084F8253099F80230A4
S31508010C7084F8263099F8033084F8273099F8043037
S31508010C8084F8283099F8053084F8293099F806301F
S31508010C9084F82A3099F8073084F82B3099F800300F
S31508010CA084F82430FFF738BBF2EE087AF4EE679A37
S31508010CB0F1EE10FA13D0F2EE0A7AB4EE67AAF1EE63
S31508010CC010FA19D194F90030207B94F80DE094F8C4
S31508010CD00EC0E77B257C617CA27CE47C82E494F9E6
S31508010CE00130207D94F815E094F816C0E77D257E3D
S31508010CF0617EA27EE47E75E4DDE90A0153EC1C2BD4
S31508010D0015F030FDC8B9DDE9022351EC1D0B15F0CC
S31508010D1029FD28B394F90A3094F85C0094F85DE04B
S31508010D2094F85EC094F85F7094F8605094F8611076
S31508010D3094F8622094F8634054E494F90B3094F8DB
S31508010D40640094F865E094F866C094F8677094F8BE
S31508010D50685094F8691094F86A2094F86B4041E455
S31508010D60DDE9042351EC1E0B15F0FCFC00B394F9E4
S31508010D70093094F8540094F855E094F856C094F85C
S31508010D80577094F8585094F8591094F85A2094F8D2
S31508010D905B4027E4FC070020F40700201408002024
S31508010DA004080020DC0700200C080020D4070020D6
S31508010DB0DDE9062351EC1F0B15F0D4FC98B194F923
S31508010DC0063094F83C0094F83DE094F83EC094F857
S31508010DD03F7094F8405094F8411094F8422094F8E2
S31508010DE04340FFF7FFBBDDE90823DDE9100115F0F4
S31508010DF0B9FC98B194F9053094F8340094F835E0C3
S31508010E0094F836C094F8377094F8385094F8391035
S31508010E1094F83A2094F83B40FFF7E4BB53EC1B2BBC
S31508010E204046494615F09EFC98B194F9043094F869
S31508010E302C0094F82DE094F82EC094F82F7094F8AD
S31508010E40305094F8311094F8322094F83340FFF773
S31508010E50C9BBF3EE0F7AB4EE678AF1EE10FA13D135
S31508010E6094F9083094F84C0094F84DE094F84EC083
S31508010E7094F84F7094F8505094F8511094F8522001
S31508010E8094F85340FFF7AEBB94F9073094F8440041
S31508010E9094F845E094F846C094F8477094F8485099
S31508010EA094F8491094F84A2094F84B40FFF79ABBF6
S31508010EB0012108B508460CF0C9FF0B2101200CF0E9
S31508010EC0C5FF0C2101200CF0C1FF0D2101200CF0FA
S31508010ED0BDFF162101200CF0B9FF422101200CF0BB
S31508010EE0B5FF172101200CF0B1FF452101200CF0B7
S31508010EF0ADFF182101200CF0A9FF482101200CF0B3
S31508010F00A5FF1F2101200CF0A1FFBDE80840202103
S31508010F1001200CF09BBF00BF2DE9F04F2DED108B82
S31508010F2093B0CDE90E23329DD64A2B68DFF85CA330
S31508010F302D9E0D90013313602B602C9B1F68CAF8F8
S31508010F40007007EE107AF8EE478AF7EE007AF4EEAB
S31508010F50678AF1EE10FADDE930488B4600F08C8499
S31508010F60EB79B0EE689A002B40F02C82F2EE067A05
S31508010F70B4EE679AF1EE10FA00F03F82AB79F0EE23
S31508010F80499A002B40F0DA81F2EE087AF4EE679A74
S31508010F90F1EE10FA00F0E9816B79B0EE69AA002B3F
S31508010FA040F09A81F2EE0A7AB4EE67AAF1EE10FAE7
S31508010FB000F0A5812B79002B40F08281384615F087
S31508010FC0EFF898ED007B02460B46CDE90A23B0EE11
S31508010FD047CAF0EE67CA53EC172B15F0C3FB002876
S31508010FE040F08F83EB7B002B40F052819DED0A7B0D
S31508010FF08DED027B98ED027BDDE90223B0EE47DA3F
S31508011000F0EE67DA51EC170B15F0ACFB002840F04F
S315080110101D83AB7B002B00F095829DED027B8DED48
S31508011020047B0023A37284F85C3084F85D3084F86D
S315080110305E3084F85F3084F8603084F8613084F873
S31508011040623084F86330AB7398ED047BDDE90423E1
S31508011050B0EE47EAF0EE67EA51EC170B15F082FBA2
S31508011060002840F079826B7B002B00F070829DEDA1
S31508011070047B8DED067B0023637284F8543084F873
S31508011080553084F8563084F8573084F8583084F847
S31508011090593084F85A3084F85B306B7398ED067BC7
S315080110A0DDE90623B0EE47FAF0EE67FA51EC170BC5
S315080110B015F058FB002840F0AA83AB7A002B00F004
S315080110C035829DED067B8DED087B0023A37184F89F
S315080110D03C3084F83D3084F83E3084F83F3084F85B
S315080110E0403084F8413084F8423084F84330AB729A
S315080110F098ED087BDDE9082351EC170B8DED107B84
S3150801110015F030FB002840F05C826B7A002B00F06A
S3150801111012829DED087B0023637184F8343084F8CC
S31508011120353084F8363084F8373084F8383084F826
S31508011130393084F83A3084F83B306B72B0EE47BAEE
S31508011140F0EE67BAD8E90A8953EC1B2B40464946A3
S3150801115015F008FB002840F033832B7A93B100235E
S31508011160237184F82C3084F82D3084F82E3084F8D5
S315080111702F3084F8303084F8313084F8323084F8EE
S3150801118033302B7207EE907AB8EE678AF3EE0F7A50
S31508011190B4EE678AF1EE10FA00F0E8822B7BF0EEE6
S315080111A0487A93B10023237284F84C3084F84D3081
S315080111B084F84E3084F84F3084F8503084F8513032
S315080111C084F8523084F853302B739FED2F7AF4EE5E
S315080111D0477AF1EE10FA00F06E82EB7A93B10023AA
S315080111E0E37184F8443084F8453084F8463084F84D
S315080111F0473084F8483084F8493084F84A3084F80E
S315080112004B30EB72F7EE007AF4EE678AF1EE10FADC
S3150801121040F0738194F9033094F8240094F825E09A
S3150801122094F826C094F8277094F8285094F8291051
S3150801123094F82A2094F82B4096F8008007EE908AB5
S31508011240F8EEE77AB7EE008AF4EE487AF1EE10FA8C
S3150801125040F004818BB9022232702E9A0123137051
S31508011260337807EE903AF8EEE77AB0EE007AF4EEC4
S31508011270477AF1EE10FA40F0318113B0BDEC108BCC
S31508011280BDE8F08F30070020000000423807002033
S315080112909DED0A7B0023E37284F8643084F8653097
S315080112A084F8663084F8673084F8683084F86930E1
S315080112B084F86A3084F86B308DED027BEB7399E61E
S315080112C00023237023736373A373E3732374637413
S315080112D0A374E3742B7171E6F2EE0A7AB4EE67AA87
S315080112E00023F1EE10FA637023756375A375E37530
S315080112F023766376A376E3766B717FF45BAECB4F89
S315080113000120002228713B4600920D210CF0CAFDEE
S31508011310002820700FDD7B786373BB78A373FB7895
S31508011320E3733B7923747B796374BB79A374FB7983
S31508011330E3743B782373DAF800703FE6F2EE087A35
S31508011340F4EE679A0023F1EE10FAA3702377637718
S31508011350A377E37784F8203084F8213084F82230A3
S3150801136084F82330AB717FF417AEDFF8D0920120F1
S31508011370002268714B4600920C210CF093FD6070B7
S31508011380DAF8007007EE907A0028B8EE67AA7FF7B8
S3150801139009AE99F80130637599F80230A37599F881
S315080113A00330E37599F80430237699F805306376A6
S315080113B099F80630A37699F80730E37699F800305C
S315080113C02375EFE5F2EE067AB4EE679A0023F1EE9D
S315080113D010FAE37084F8243084F8253084F826302E
S315080113E084F8273084F8283084F8293084F82A309C
S315080113F084F82B30EB717FF4C1ADDFF844920120FC
S315080114000022A8714B4600920B210CF04BFDA070EF
S31508011410DAF8007007EE907A0028F8EE679A7FF7F7
S31508011420B3AD99F80130637799F80230A37799F843
S315080114300330E37799F8043084F8203099F80530B9
S3150801144084F8213099F8063084F8223099F8073063
S3150801145084F8233099F80030237795E5B0EE007AC1
S31508011460F4EE477AF1EE10FA38D1002B7FF705AF83
S315080114708BF806202E9A8BF801E001238BF807409A
S315080114808BF800008BF802C08BF803708BF80450B8
S315080114908BF8051013700F9A654C1370032333707C
S315080114A00D9B644A1B8813800E9A138014F078FEEC
S315080114B02C9BD3ED007AF8EE677AC4E90001F4EEC5
S315080114C0487AF1EE10FA04D15B4B2F990022C1E953
S315080114D00023337807EE903AF8EEE77AF5EE407A8C
S315080114E0F1EE10FA7FF4C9AE2E9A01233370137008
S315080114F013B0BDEC108BBDE8F08FF2EE067AB4EEB0
S31508011500679AF1EE10FA40F0ED8194F90230207FE6
S3150801151094F81DE094F81EC0E77F94F8205094F8DB
S31508011520211094F8222094F8234085E69DED067B48
S315080115308DED087BDCE59DED087BB0EE47BAF0EE54
S3150801154067BAFFE59DED027B8DED047B7CE59DED9C
S31508011550047B8DED067BA1E5DFF8E89001200022EA
S3150801156068734B46009217210CF09CFC0028DAF8A8
S31508011570007060721FDD99F8013084F8553099F8CA
S31508011580023084F8563099F8033084F8573099F8C0
S31508011590043084F8583099F8053084F8593099F8A8
S315080115A0063084F85A3099F8073084F85B3099F890
S315080115B0003084F85430384614F0F2FDCDE90601BE
S315080115C06CE5DFF884900120002268724B46009290
S315080115D018210CF067FC0028DAF8007060711FDD2D
S315080115E099F8013084F8353099F8023084F83630A4
S315080115F099F8033084F8373099F8043084F838308C
S3150801160099F8053084F8393099F8063084F83A3073
S3150801161099F8073084F83B3099F8003084F834306B
S31508011620384614F0BDFD41EC1B0B8BE52C08002058
S3150801163050070020440700200000F03F240800203E
S315080116401C080020440800204C080020DFF88C9371
S3150801165001200022A8734B46009242210CF022FC7D
S315080116600028DAF80070A0721FDD99F8013084F8B5
S315080116705D3099F8023084F85E3099F8033084F8C1
S315080116805F3099F8043084F8603099F8053084F8A9
S31508011690613099F8063084F8623099F8073084F891
S315080116A0633099F8003084F85C30384614F078FDD8
S315080116B0CDE90401C8E4C64F01200022E8723B4681
S315080116C0009220210CF0EEFB0028E0717FF79AAD1D
S315080116D07B7884F84530BB7884F84630FB7884F803
S315080116E047303B7984F848307B7984F84930BB79AF
S315080116F084F84A30FB7984F84B303B7884F84430D7
S3150801170080E5DFF8DC9201200022E8734B4600925F
S3150801171016210CF0C7FB0028DAF80070E0721FDD0D
S3150801172099F8013084F8653099F8023084F8663002
S3150801173099F8033084F8673099F8043084F86830EA
S3150801174099F8053084F8693099F8063084F86A30D2
S3150801175099F8073084F86B3099F8003084F86430CA
S31508011760384614F01DFDCDE9020143E4994F0120E5
S31508011770002228733B4600921F210CF093FBDAEDF9
S31508011780007A20720028F8EE677A7FF71EAD7B781B
S3150801179084F84D30BB7884F84E30FB7884F84F30A6
S315080117A03B7984F850307B7984F85130BB7984F8D9
S315080117B05230FB7984F853303B7884F84C3004E591
S315080117C0854F0120002228723B46009248210CF0E1
S315080117D069FB0028207117DD7B7884F82D30BB78EA
S315080117E084F82E30FB7884F82F303B7984F8303032
S315080117F07B7984F83130BB7984F83230FB7984F807
S3150801180033303B7884F82C30DAF80070BAE4DFF824
S31508011810D49101200022A8724B46009245210CF072
S3150801182041FB0028DAF80070A0711FDD99F8013034
S3150801183084F83D3099F8023084F83E3099F803303F
S3150801184084F83F3099F8043084F8403099F8053027
S3150801185084F8413099F8063084F8423099F807300F
S3150801186084F8433099F8003084F83C30384614F04F
S3150801187097FCCDE908013BE4DFF86C9101210022D0
S31508011880E9714B46009208460CF00CFBE070DAF859
S31508011890007007EE907A0028B8EE679A7FF766AB74
S315080118A099F8013084F8253099F8023084F8263001
S315080118B099F8033084F8273099F8043084F82830E9
S315080118C099F8053084F8293099F8063084F82A30D1
S315080118D099F8073084F82B3099F8003084F82430C9
S315080118E0FFF744BBF2EE087AF4EE679AF1EE10FAC6
S315080118F013D0F2EE0A7AB4EE67AAF1EE10FA19D10C
S3150801190094F90030207B94F80DE094F80EC0E77B3B
S31508011910257C617CA27CE47C8EE494F90130207DEF
S3150801192094F815E094F816C0E77D257E617EA27EBF
S31508011930E47E81E4DDE90A0153EC1C2B14F012FF65
S31508011940C8B9DDE9022351EC1D0B14F00BFF28B3CE
S3150801195094F90A3094F85C0094F85DE094F85EC056
S3150801196094F85F7094F8605094F8611094F86220C6
S3150801197094F8634060E494F90B3094F8640094F8A1
S3150801198065E094F866C094F8677094F8685094F81E
S31508011990691094F86A2094F86B404DE4DDE9042354
S315080119A051EC1E0B14F0DEFE00B394F9093094F8DD
S315080119B0540094F855E094F856C094F8577094F882
S315080119C0585094F8591094F85A2094F85B4033E427
S315080119D05C080020540800207408002064080020D0
S315080119E03C0800206C08002034080020DDE90623A5
S315080119F051EC1F0B14F0B6FE90B194F9063094F829
S31508011A003C0094F83DE094F83EC094F83F7094F891
S31508011A10405094F8411094F8422094F843400BE45E
S31508011A20DDE90823DDE9100114F09CFE98B194F96B
S31508011A30053094F8340094F835E094F836C094F8F3
S31508011A40377094F8385094F8391094F83A2094F885
S31508011A503B40FFF7F1BB53EC1B2B4046494614F0BC
S31508011A6081FE98B194F9043094F82C0094F82DE08D
S31508011A7094F82EC094F82F7094F8305094F83110D9
S31508011A8094F8322094F83340FFF7D6BBF3EE0F7A79
S31508011A90B4EE678AF1EE10FA13D194F9083094F886
S31508011AA04C0094F84DE094F84EC094F84F7094F8B1
S31508011AB0505094F8511094F8522094F85340FFF777
S31508011AC0BBBB94F9073094F8440094F845E094F8C0
S31508011AD046C094F8477094F8485094F8491094F819
S31508011AE04A2094F84B40FFF7A7BB00BF2DE9F04702
S31508011AF0DDF820A00F461E4604462D4BDAE9000103
S31508011B009046002214F010FADDE909590123CAE9C1
S31508011B1000013B70D9F800101944264B1960C9F821
S31508011B200010366807EE106AB8EE477AF7EE007AC3
S31508011B30B4EE677AF1EE10FA03D11D4B0022C8E91B
S31508011B4000232778DFF87880384614F029FB1A4BEA
S31508011B50C8E900011E602F712E60E2796A7194F856
S31508011B60019085F8069094F8028085F8078094F824
S31508011B7003E085F808E094F804C085F809C0314601
S31508011B806679AE720D4BA079E8729871DA711F7099
S31508011B9083F8019083F8028083F803E083F804C090
S31508011BA05E710822BDE8F04701200BF04BBF00BF6C
S31508011BB00000F03F9C070020A40700207C080020B5
S31508011BC0B00700202DE9F84F14461D4600220023D0
S31508011BD006460F462046294614F0C4FD0022002376
S31508011BE050B13046394614F0BDFDB0B1A246AB46F8
S31508011BF050465946BDE8F88F3046394614F0B2FDCD
S31508011C0088B10020002122462B4614F06DFC82463D
S31508011C108B4650465946BDE8F88FB246BB465046F4
S31508011C205946BDE8F88F22462B463046394612F00A
S31508011C3067FD0022002382468B4614F093FD002897
S31508011C4052D12046294612F067FC02460B46204629
S31508011C50294614F0AFFDF0B9304639460022002373
S31508011C6014F08AFD0022061E4FF00003204629467D
S31508011C7018BF012614F080FD0038F6B218BF0120FE
S31508011C808642C6D05046594622462B4614F04CF990
S31508011C9082468B46BDE722462B463046394614F026
S31508011CA023FC21F00049144B00224946804614F0D2
S31508011CB03BF912F031FC02460B464046494614F000
S31508011CC031F902460B4640464946904623F00049FB
S31508011CD000220A4B14F0DEFA02460B4640464946F4
S31508011CE014F054FD0028B7D04FF0000A4FF0000B4E
S31508011CF050465946BDE8F88F0000E03F0000B03C69
S31508011D002DE9F04F2DED028B83B0179F199E002800
S31508011D103DD01D46012333700F9BB3F800B05846DA
S31508011D20144614F04DFA22462B468046894614F08D
S31508011D3019FD08B100233B7022462B464046494609
S31508011D4014F038FD002835D01499854BD1E90001E6
S31508011D50002214F01BFD002833D1B378002B00F0C4
S31508011D6095800023BB70B3704046494622462B46F0
S31508011D7014F020FD002840F08980737813B1002300
S31508011D807B70737003B0BDEC028BBDE8F08F3378BE
S31508011D90002BF7D0B37803B1B07073780BB1002379
S31508011DA073700023BB707B70337003B0BDEC028B7C
S31508011DB0BDE8F08FB378002BD6D00023BB70B37083
S31508011DC0D2E70122674BB270D3E9002320462946A0
S31508011DD014F0AAF8DFF898A180465846894614F007
S31508011DE0DFF9614B002214F09FF89AED007B424619
S31508011DF04B46B0EE478AF0EE678A14F093F853EC37
S31508011E00182BFFF7DFFE0022002314F0ABFC38B3D2
S31508011E10169B1878C001C3B27B710193149BD3E951
S31508011E20000114F00FFD00010E9B5FFA80FB87F895
S31508011E3006B0D3E9000114F005FD019B109A184478
S31508011E40109B834483F800B03B7853709370D3702A
S31508011E50137153719371D371189B129A5B6813604E
S31508011E600F9B188814F09CF942464B46DAE900891B
S31508011E7014F058F842464B46FFF7A4FE0022002309
S31508011E8014F070FC003818BF0120B8701599344B4E
S31508011E90D1E90001002214F079FC00283FF46DAF66
S31508011EA001237370314BDFF8CCA0D3E90023204618
S31508011EB0294614F039F80F9B044618880D4614F084
S31508011EC06FF9DAE90089284B002214F02DF8224629
S31508011ED02B4614F027F842464B46FFF773FE0022BD
S31508011EE0002314F03FFC20B3169B1E78159BF601C0
S31508011EF0F6B2FE70D3E9000114F0A4FC00010E9BB2
S31508011F005FFA80F887F80480D3E9000114F09AFC97
S31508011F10119B119A404406441E703B785370937086
S31508011F20D370137153719371D371189B139A1B68EC
S31508011F3013600F9BDAE90089188814F031F92246F3
S31508011F402B4613F0EFFF42464B46FFF73BFE0022B6
S31508011F50002314F007FC003818BF0120787011E738
S31508011F6000001C40180000200000F03F200000205F
S31508011F7008000020100000202DE9F04F2DED028BFE
S31508011F8083B0189F1A9E002840D01D46012333703E
S31508011F900F9BB3F800B05846144614F011F92246BF
S31508011FA02B468046894614F0DDFB20B100233B70A1
S31508011FB0129B1B787B7022462B464046494614F0F5
S31508011FC0F9FB002835D01599864BD1E90001002285
S31508011FD014F0DCFB002833D1B378002B00F096808F
S31508011FE00023FB70B3704046494622462B4614F03F
S31508011FF0E1FB002840F08A80737813B10023BB7097
S31508012000737003B0BDEC028BBDE8F08F3378002BFB
S31508012010F7D0B37803B1B07073780BB1002373703E
S315080120200023FB70BB70337003B0BDEC028BBDE8B7
S31508012030F08FB378002BD6D00023FB70B370D2E7AC
S315080120400122694BB270D3E900232046294613F0D1
S315080120506BFFDFF8A0A180465846894614F0A0F820
S31508012060624B002213F060FF9AED007B42464B4615
S31508012070B0EE478AF0EE678A13F054FF53EC182B3B
S31508012080FFF7A0FD0022002314F06CFB40B3179B59
S315080120901878C001C3B2BB710193159BD3E900013E
S315080120A014F0D0FB00010E9B5FFA80FB87F807B09E
S315080120B0D3E9000114F0C6FB019B109A1844109B42
S315080120C0834483F800B07B7853703B789370D37060
S315080120D0137153719371D371199B139A5B681360CA
S315080120E00F9B188814F05CF842464B46DAE90089DA
S315080120F013F018FF42464B46FFF764FD0022002302
S3150801210014F030FB003818BF0120F8701699354BCA
S31508012110D1E90001002214F039FB00283FF46CAF25
S3150801212001237370324BDFF8D0A0D3E90023204690
S31508012130294613F0F9FE0F9B044618880D4614F03C
S315080121402FF8DAE90089294B002213F0EDFE224621
S315080121502B4613F0E7FE42464B46FFF733FD0022B6
S31508012160002314F0FFFA28B3179B1E78169BF60175
S31508012170F6B23E71D3E9000114F064FB00010E9B2F
S315080121805FFA80F887F80580D3E9000114F05AFB55
S31508012190119B119A404406441E707B7853703B7814
S315080121A09370D370137153719371D371199B149AE8
S315080121B01B6813600F9BDAE90089188813F0F0FF92
S315080121C022462B4613F0AEFE42464B46FFF7FAFC73
S315080121D00022002314F0C6FA003818BF0120B8708F
S315080121E00FE700BF00001C40180000200000F03F68
S315080121F02000002008000020100000202DE9F04FE3
S3150801220085B0CDE90023DDE9114200284DD00D78CE
S315080122108E7991F801B091F802A091F8039091F89E
S3150801222004804F7903964FF0010C05FA0CF3DBB2E3
S31508012230580907EE100AB8EEC77AF7EE007AB4EE37
S31508012240E77AF1EE10FACE7982F800C0A37220730C
S3150801225009DD109B0022D3E900011D4B13F064FE32
S31508012260109BC3E900012B01DBB2E8091D09637262
S315080122706073E57213F0A4FF02460B46DDE900011F
S3150801228014F070FAC8B9039A2072002384F800B0D2
S3150801229084F801A084F8029084F80380277162719A
S315080122A0A671E37105B0BDE8F08F1378002BF9D05C
S315080122B02072107005B0BDE8F08F284613F080FF34
S315080122C0DDE90E2314F04EFA003818BF0120DAE7CB
S315080122D00000F03F2DE9F04F85B0CDE90023DDE997
S315080122E0114200284DD00D788E7991F801B091F8F8
S315080122F002A091F8039091F804804F7903964FF064
S31508012300010C05FA0CF3DBB2580907EE100AB8EE10
S31508012310C77AF7EE007AB4EEE77AF1EE10FACE79DB
S3150801232082F800C0A372207309DD109B0022D3E94D
S3150801233000011D4B13F0F8FD109BC3E900012B01A9
S31508012340DBB2E8091D0963726073E57213F038FFA1
S3150801235002460B46DDE9000114F004FAC8B9039AEE
S315080123602072002384F800B084F801A084F8029052
S3150801237084F8038027716271A671E37105B0BDE81F
S31508012380F08F1378002BF9D02072107005B0BDE8D4
S31508012390F08F284613F014FFDDE90E2314F0E2F955
S315080123A0003818BF0120DAE70000F03F2DE9F84FA1
S315080123B0DDF828A00E9EDDE91248002800F0B2805B
S315080123C01F4601230D46914688F80030002900F082
S315080123D0BF8088F8023097F800B00BFA03F3DBB236
S315080123E023765B0907EE103AB8EEC77AF7EE007A5C
S315080123F0B4EEE77AF1EE10FAA37609DD109B002216
S31508012400D3E90001684B13F08FFD109BC3E9000166
S315080124107B782372BB786372FB78A3723B79E3728C
S315080124207B792373BB7963734FEA0B10FB79A3732B
S31508012430C0B20023E0750009E373607613F0C0FEAD
S31508012440DDE90C2314F08EF9051E18BF01254FEAA4
S31508012450DB1B84F81BB06574B9F1000F00F08280AC
S31508012460012388F801309AF8007007FA03F3DBB202
S31508012470E3745B0907EE103AB8EEC77AF7EE007A0D
S31508012480B4EEE77AF1EE10FA637509DD109B0022C6
S31508012490D3E90001444B13F047FD109BC3E9000142
S315080124A09AF8013023709AF8023063709AF803306B
S315080124B0A3709AF80430E3709AF8053023719AF8F4
S315080124C00630637138019AF80730A371C0B2002348
S315080124D0A0740009E371207513F072FEDDE90C237F
S315080124E014F040F9003818BF0120FF092074A775B8
S315080124F0002D41D0E37B3370237A7370637AB3700E
S31508012500A37AF370E37A3371237B7371637BB371B7
S31508012510A37BF371012311990B700F9B01221A708A
S31508012520BDE8F88F98F80030002BF9D098F80230FA
S3150801253013B1607488F8020098F801301BB10023C2
S31508012540237488F80130002388F80030BDE8F88F35
S3150801255098F802302BB3617488F80210B9F1000FAC
S315080125607FF47EAF98F80130002BC1D084F8109023
S3150801257088F80190002DBDD1E37933702378737003
S315080125806378B370A378F370E37833712379737141
S315080125906379B371A379F371237C003B18BF0123D7
S315080125A0B9E7657C58E700BF0000F03F2DE9F84F11
S315080125B02DED028B179E9DF838A09DF83C509DF88D
S315080125C0404040B9337813B1169B18703070BDEC92
S315080125D0028BBDE8F88F0F46104619460122354B86
S315080125E03270D3E9002313F09FFC0246384616469B
S315080125F00F4613F0D5FDDFF8C4B002460B4643EC8F
S31508012600182B2D4B002213F08FFCDBE9008932468B
S315080126103B4613F087FC42464B46FFF7D3FA0022A6
S31508012620002314F09FF860B3159B93F80080169B5E
S315080126304FEAC8185FFA88F983F80190149BD3E921
S31508012640000114F0FFF8169B00015FFA80F883F881
S315080126500280119BD3E9000114F0F4F8C844129BD7
S31508012660804483F8008083F801A09D70DC701C719A
S315080126705C719C71DC71DDE90C0114F0E3F8139BC4
S315080126801860DBE9004551EC180B32463B4613F05E
S3150801269049FC22462B46FFF795FA0023002214F03F
S315080126A061F8169B003818BF01201870BDEC028B23
S315080126B0BDE8F88F180000200000F03F0800002050
S315080126C02DE9F84F2DED028B179E9DF838A09DF840
S315080126D03C509DF8404040B9337813B1169B1870A9
S315080126E03070BDEC028BBDE8F88F0F4610461946CF
S315080126F00122354B3270D3E9002313F015FC02464B
S31508012700384616460F4613F04BFDDFF8C4B00246AD
S315080127100B4643EC182B2D4B002213F005FCDBE985
S31508012720008932463B4613F0FDFB42464B46FFF70E
S3150801273049FA0022002314F015F860B3159B93F8A3
S315080127400080169B4FEAC8185FFA88F983F801904A
S31508012750149BD3E9000114F075F8169B00015FFA82
S3150801276080F883F80280119BD3E9000114F06AF816
S31508012770C844129B804483F8008083F801A09D70A9
S31508012780DC701C715C719C71DC71DDE90C0114F063
S3150801279059F8139B1860DBE9004551EC180B3246D2
S315080127A03B4613F0BFFB22462B46FFF70BFA0023E5
S315080127B0002213F0D7FF169B003818BF01201870A6
S315080127C0BDEC028BBDE8F88F200000200000F03F29
S315080127D0100000200B791BB10023C37103720B7122
S315080127E04B783BB1CB780BB10023CB708B7843B9CF
S315080127F000234B7000238370C371437003720B70FF
S31508012800704700238B70F3E72DE9F04F2DED028B0E
S3150801281093B099461E9B02931F9B0193209B0C9391
S31508012820219B0393229B0493239B0A93249B0B933B
S315080128309046DDE925320D92279A0E92289A0F9233
S31508012840299A10922A9A05922B9A06922C9A0792FD
S315080128502D9A08922E9A09922F9A329C1192DDE9A5
S31508012860305A10BB237823B913B0BDEC028BBDE8EF
S31508012870F08F237913B1E8712872207163784BB10F
S31508012880E3780BB10023E370A3780BB10023A3709F
S31508012890002363700023AB70EB716B702B7223708E
S315080128A013B0BDEC028BBDE8F08F4FF0010B84F835
S315080128B000B0D3E9006700224A4B3946304613F087
S315080128C051FF002808BF83465FFA8BF308EE103ADA
S315080128D03046444B3946002213F044FF834600280C
S315080128E049D101232371019B188813F069FC064617
S315080128F00F464046494632463B4613F033FF28B356
S315080129000E9ADAF8083013600D9ADAF80C3013606B
S315080129100B9A9AF812301370109A9AF810301370AD
S315080129200A9A9AF8133013700F9A9AF8113013709D
S315080129300C9A019BC2F800B0C2F804B0119A82F849
S3150801294000B0188813F03CFC06460F4632463B4653
S315080129504046494613F010FF002833D00A9B1B78DE
S31508012960002B3CD10123EB710B9B1B78002B33D138
S3150801297001232B7205E023791BB10023EB712B721E
S315080129802371099B2693089B2593079B2493069BF2
S315080129902393059B2293049B2193039B02992093DE
S315080129A018EE100A019B1F93013442464B46CDE9A6
S315080129B0275A29941E9113B0BDEC028BBDE8F04F3E
S315080129C0FFF79EB90021E97132463B464046494622
S315080129D013F0D2FE0028C7D100232B72D1E70023BA
S315080129E0EB71C1E70000F03F2DE9F04F85B0CDE965
S315080129F00023DDE90F4200284DD00D788E7991F834
S31508012A0001B091F802A091F8039091F804804F79EA
S31508012A1003964FF0010C05FA0CF3DBB2580907EEE1
S31508012A20100AB8EEC77AF7EE007AB4EEE77AF1EE55
S31508012A3010FACE7982F800C0A372207309DD0E9BC5
S31508012A400022D3E90001184B13F06EFA0E9BC3E975
S31508012A500001039B6371E8090023E37184F800B060
S31508012A6084F801A084F8029084F803802771A6717E
S31508012A70607313F0A5FBDDE9002313F073FE2D0146
S31508012A80EDB2003818BF01202B0920726572E37276
S31508012A9005B0BDE8F08F1378002BF9D020721070BD
S31508012AA005B0BDE8F08F00BF0000F03F2DE9F04FFB
S31508012AB085B0CDE90023DDE90F4200284DD00D7818
S31508012AC08E7991F801B091F802A091F8039091F8E6
S31508012AD004804F7903964FF0010C05FA0CF3DBB22B
S31508012AE0580907EE100AB8EEC77AF7EE007AB4EE7F
S31508012AF0E77AF1EE10FACE7982F800C0A372207354
S31508012B0009DD0E9B0022D3E90001184B13F00CFADC
S31508012B100E9BC3E90001039B6371E8090023E37176
S31508012B2084F800B084F801A084F8029084F8038040
S31508012B302771A671607313F043FBDDE9002313F0D7
S31508012B4011FE2D01EDB2003818BF01202B092072A4
S31508012B506572E37205B0BDE8F08F1378002BF9D0E2
S31508012B602072107005B0BDE8F08F00BF0000F03F7D
S31508012B702DE9F84F2DED028B169E9DF830A09DF894
S31508012B8034509DF8384040B9337813B1149B187006
S31508012B903070BDEC028BBDE8F88F0F46104619461A
S31508012BA00122344B3270D3E9002313F0BDF90246F2
S31508012BB0384616460F4613F0F3FADFF8C0B0024658
S31508012BC00B4643EC182B2C4B002213F0ADF9DBE92D
S31508012BD0008932463B4613F0A5F942464B46FEF7B5
S31508012BE0F1FF0022002313F0BDFD48B3129BD3E980
S31508012BF0000113F027FE139B93F800800F9B4FEA01
S31508012C00880800F0030008F00C0840EA0808D3E930
S31508012C10000113F017FE4FEA0818109B119A83F862
S31508012C2001A000F00F0048EA00089D7083F80080B3
S31508012C30DC701C715C719C71DC71159B1B681360DF
S31508012C40DBE9004551EC180B32463B4613F06AF9AD
S31508012C5022462B46FEF7B6FF0023002213F082FD1B
S31508012C60149B003818BF01201870BDEC028BBDE813
S31508012C70F88F00BF180000200000F03F0800002070
S31508012C802DE9F84F2DED028B169E9DF830A09DF883
S31508012C9034509DF8384040B9337813B1149B1870F5
S31508012CA03070BDEC028BBDE8F88F0F461046194609
S31508012CB00122344B3270D3E9002313F035F9024669
S31508012CC0384616460F4613F06BFADFF8C0B00246CF
S31508012CD00B4643EC182B2C4B002213F025F9DBE9A4
S31508012CE0008932463B4613F01DF942464B46FEF72C
S31508012CF069FF0022002313F035FD48B3129BD3E97F
S31508012D00000113F09FFD139B93F800800F9B4FEA78
S31508012D10880800F0030008F00C0840EA0808D3E91F
S31508012D20000113F08FFD4FEA0818109B119A83F8DA
S31508012D3001A000F00F0048EA00089D7083F80080A2
S31508012D40DC701C715C719C71DC71159B1B681360CE
S31508012D50DBE9004551EC180B32463B4613F0E2F825
S31508012D6022462B46FEF72EFF0023002213F0FAFC1B
S31508012D70149B003818BF01201870BDEC028BBDE802
S31508012D80F88F00BF200000200000F03F100000204F
S31508012D9070B505460126002102200CF0A9FF002185
S31508012DA0072085F8316208F025FD2B460024C5E980
S31508012DB00C662C7043F8384F6E60EB622E81FDF776
S31508012DC04DFAFEF775F8214620460CF091FF21468B
S31508012DD030460CF08DFF214610200CF089FF214664
S31508012DE004200CF085FF214612200CF081FF2146B4
S31508012DF013200CF07DFF21460E200CF079FF2146A9
S31508012E000F200CF075FF21460320BDE870400CF039
S31508012E106FBF00BF000000002DE9F04F2DED0C8BB0
S31508012E20ADF5717DCDE91821DDF87CA416939AF8E4
S31508012E303032DDF874B41790002B0CBF0123002340
S31508012E404FF001018AF830328AF877124FF0020002
S31508012E508BF8653018BF00210CF07CFF9AF83132E7
S31508012E60002B00F00B86DDF8343401268AF87362EC
S31508012E701B78002B01F05082179BD3E900450022ED
S31508012E80B54B2046294613F06DFC002801F04C820B
S31508012E904FF001089AF84332002B01F0958201237D
S31508012EA08AF87432002E41F09582DDF81824DDF88F
S31508012EB07834AA49B3F888310020C2E90001169A84
S31508012EC01380DDF8783493F88B318AF82A32A34BCC
S31508012ED00022CAE95623DDF83424A04900231370D9
S31508012EE0DDF83824002013700026CBE904010027F9
S31508012EF08AF831328AF84332984B304639460022ED
S31508012F0013F012F8CAE97801944B002220462946A3
S31508012F1013F028FC70B900224FF080432046294659
S31508012F2013F020FC30B98E4B00222046294613F0B7
S31508012F3019FC28B18A4BDDF860140022C1E9002387
S31508012F40B8F1000F05D0854BDDF860140022C1E900
S31508012F500023844B00222046294613F003FC00284F
S31508012F6043F00483804B00222046294613F0FAFBDE
S31508012F70002843F0FB827D4B20462946002213F0A8
S31508012F80F1FB002843F0F282DDF86034D3E900232F
S31508012F9016999FED777A098807EE901AF8EEE77A7F
S31508012FA07449F4EE477AF1EE10FAC1E9002316D115
S31508012FB0169A002313809AF82A42204613F000F93C
S31508012FC0DDF87834D3E9602313F0D6FB002801F045
S31508012FD095850134E4B2684B8AF82A421C709AF83E
S31508012FE03142002C00F067859AF84432002B01F033
S31508012FF074869AF84532002B00F0E9829AF8653210
S31508013000002B00F029819AF86932C3B19AF86A321D
S3150801301093B19AF8A73223B100238BF890318AF835
S31508013020A7329AF8A63223B100238BF882318AF89F
S31508013030A63200238AF86A3200238AF869329AF896
S315080130406832C3B19AF8A33293B19AF8A53223B17B
S3150801305000238BF86F318AF8A5329AF8A43223B186
S3150801306000238BF86E318AF8A43200238AF8A3323A
S3150801307000238AF868329AF86732C3B19AF8A032FF
S3150801308093B19AF8A23223B100238BF853318AF807
S31508013090A2329AF8A13223B100238BF852318AF869
S315080130A0A13200238AF8A03200238AF867329AF8F7
S315080130B06632C3B19AF89D3293B19AF89F3223B119
S315080130C000238BF837318AF89F329AF89E3223B15A
S315080130D000238BF836318AF89E3200238AF89D320E
S315080130E000238AF866329AF86E3233B39AF8B73201
S315080130F033B100238BF8BB318BF8BC318AF8B73270
S315080131009AF8B43273B19AF8B63213B100238AF831
S31508013110B6329AF8B53213B100238AF8B5320023CC
S315080131208AF8B43200238BF8B6318BF8BB318BF8A9
S31508013130B5318BF8BC318AF86E329AF86D32B3B371
S315080131409AF8B332D3B100238BF8B2318BF8B33185
S315080131508AF8B33212E000BF000010400000F03FC9
S315080131600000084000001C400000204000002240EA
S315080131700000BA4390070020B90700209AF8B03238
S3150801318073B19AF8B23213B100238AF8B2329AF8B7
S31508013190B13213B100238AF8B13200238AF8B0326A
S315080131A00023ABF8AC31ABF8B2318AF86D329AF834
S315080131B06C3213B39AF8AF3233B100238BF8A831C6
S315080131C08BF8A9318AF8AF329AF8AC3273B19AF80A
S315080131D0AE3213B100238AF8AE329AF8AD3213B182
S315080131E000238AF8AD3200238AF8AC320023ABF803
S315080131F0A231ABF8A8318AF86C329AF86B3213B35C
S315080132009AF8AB3233B100238BF89E318BF89F3194
S315080132108AF8AB329AF8A83273B19AF8AA3213B17E
S3150801322000238AF8AA329AF8A93213B100238AF838
S31508013230A93200238AF8A8320023ABF89831ABF8F3
S315080132409E318AF86B3200238BF85B30ABF85C3021
S315080132508BF85E308AF865329AF85532002B00F001
S31508013260FC809AF85D32C3B19AF85E3293B19AF846
S315080132708E3223B100238BF8FF308AF88E329AF802
S315080132808D3223B100238BF8F1308AF88D32002371
S315080132908AF85E3200238AF85D329AF85C3213B1F5
S315080132A000238AF85C329AF85A32C3B19AF85B322B
S315080132B093B19AF88C3223B100238BF8E3308AF85C
S315080132C08C329AF88B3223B100238BF8D5308AF8E1
S315080132D08B3200238AF85B3200238AF85A329AF82D
S315080132E05832C3B19AF8593293B19AF88A3223B14E
S315080132F000238BF8C7308AF88A329AF8893223B1C3
S3150801330000238BF8B9308AF8893200238AF85932B2
S3150801331000238AF858329AF85632C3B19AF85732C6
S3150801332093B19AF8883223B100238BF8AB308AF827
S3150801333088329AF8873223B100238BF89D308AF8B0
S31508013340873200238AF8573200238AF856329AF8C8
S31508013350633223B39AF89C3233B100238BF82431B4
S315080133608BF825318AF89C329AF8643273B19AF847
S315080133709B3213B100238AF89B329AF89A3213B119
S3150801338000238AF89A3200238AF8643200238BF8DC
S3150801339021318BF81E31ABF824318AF863329AF859
S315080133A0613223B39AF8993233B100238BF81C3171
S315080133B08BF81D318AF899329AF8623273B19AF804
S315080133C0983213B100238AF898329AF8973213B1D2
S315080133D000238AF8973200238AF8623200238BF891
S315080133E019318BF81631ABF81C318AF861329AF823
S315080133F05F3223B39AF8963233B100238BF814312E
S315080134008BF815318AF896329AF8603273B19AF8C0
S31508013410953213B100238AF895329AF8943213B18A
S3150801342000238AF8943200238AF8603200238BF845
S3150801343011318BF80E31ABF814318AF85F329AF8EC
S315080134408F32002B45F0358400238BF85730ABF8C3
S3150801345058308BF85A308AF855329AF84632002B8A
S3150801346000F0B2809AF84D32C3B19AF84E3293B150
S315080134709AF8503223B100238BF856308AF8503225
S315080134809AF84F3223B100238BF855308AF84F3218
S3150801349000238AF84E3200238AF84D329AF84932C7
S315080134A0C3B19AF84A3293B19AF84C3223B1002340
S315080134B08BF854308AF84C329AF84B3223B10023F0
S315080134C08BF853308AF84B3200238AF84A320023A4
S315080134D08AF849329AF84732C3B19AF8483293B111
S315080134E09AF87B3223B100238BF87E308AF87B3237
S315080134F09AF87A3223B100238BF870308AF87A3237
S3150801350000238AF8483200238AF847329AF8533258
S3150801351023B39AF8863233B100238BF893308BF8AC
S3150801352094308AF886329AF8543273B19AF8853209
S3150801353013B100238AF885329AF8843213B100232D
S315080135408AF8843200238AF8543200238BF89130A2
S31508013550ABF892308BF894308AF853329AF8513294
S3150801356023B39AF8833233B100238BF88F308BF863
S3150801357090308AF883329AF8523273B19AF88232C5
S3150801358013B100238AF882329AF8813213B10023E3
S315080135908AF8813200238AF8523200238BF88D305B
S315080135A0ABF88E308BF890308AF851329AF87C3223
S315080135B0002B45F0558300238BF84F30ABF850307C
S315080135C08BF852308AF8463200238AF845320023AE
S315080135D08BF84B30ABF84C308BF84E308AF84432C6
S315080135E09AF81432003C18BF0124DA0642F15185D3
S315080135F01F0701F101839AF8143243F008038AF888
S315080136001432002C41F0FB82DBB29AF83122002AEF
S3150801361041F0D2829BF84E20002A01F0B6835C075E
S3150801362041F1CD82DDF848340193DDF84034009349
S31508013630DDF87834DDF8201403F510730593DDF809
S3150801364058340393DDF84C340293DDF83834169870
S315080136500AF5307206920BF5E6720492DDF8282413
S31508013660FDF75AFC9AF814329E0705D49AF81432D3
S3150801367043F002038AF814329BF84C30002B41F0D0
S315080136801783DDF84C341B78002B01F0F0829AF889
S315080136903732B3FA83F35B098AF83732DDF84C34EB
S315080136A0012100208AF8791218709AF837328BF8B6
S315080136B06730002B41F07483194618460CF04AFB13
S315080136C09AF83232002B01F0DE829AF8383201205C
S315080136D0002B4FF000010CBF012300238AF8321298
S315080136E008BF01468AF878028AF8383208BF0846C0
S315080136F08BF866300CF02EFB9AF83332002B01F06A
S31508013700CE829AF83A32002B0CBF012300234FF0E0
S3150801371001024FF000018AF833128AF83A328AF820
S31508013720752208BF11468BF8633010200CF012FB86
S315080137309AF83932002B0CBF012300234FF00101FF
S315080137408AF876128AF8393218BF00218BF8643064
S3150801375004200CF0FFFADDF8503400240025D3E9E3
S31508013760000122462B4612F0FDFF002841F0758222
S315080137709AF82D32002B0CBF012300234FF00101CB
S315080137808AF82D328AF872128BF86230DDF85034D5
S3150801379018BF0146C3E9004512200CF0DBFADDF833
S315080137A0543400240025D3E9000122462B4612F0A1
S315080137B0D9FF002841F047829AF82C32002B0CBF1A
S315080137C0012300234FF001018AF82C328AF871127D
S315080137D08BF86130DDF8543418BF0146C3E900455A
S315080137E013200CF0B7FADDF8583400240025D3E984
S315080137F0000122462B4612F0B5FF002841F0B98197
S315080138009AF82F32002B0CBF012300234FF0010138
S315080138108AF82F328AF870128BF86030DDF858343E
S3150801382018BF0146C3E900450E200CF093FADDF8EE
S315080138305C3400240025D3E9000122462B4612F008
S3150801384091FF002841F08B819AF82E32002B0CBF8C
S31508013850012300234FF001018AF82E328AF86F12EC
S315080138608BF85F30DDF85C3418BF0146C3E90045C3
S315080138700F200CF06FFA9AF83B32002B00F0C88043
S315080138809AF82A3207EE903AF8EEE77AF5EE407A98
S31508013890F1EE10FA41F04D82142366AACAE9813382
S315080138A06F4917921046A02212F0F2FF8EAB6D49AE
S315080138B01893A022184612F0EBFF169B1B88184690
S315080138C008EE103A12F07CFC179BD3E90067804694
S315080138D0894602460B463046394612F04DFF002806
S315080138E004F0F081CDF87CA45F4DDDF85CA00024DE
S315080138F05D4B00222046294612F016FB0D4604466A
S3150801390012F078FF0AEBC00050E9026742464B46BF
S315080139103046394612F030FF0028E9D1524BDDF81E
S315080139207CA400222046294612F0FCFA12F062FF16
S315080139300138189B03EBC003C4000022D3E9000138
S31508013940002312F00FFF002841F0348218EE100A06
S3150801395012F026FC8046894642464B463046394691
S3150801396012F0E0FA414B0D46002221F000410446CF
S3150801397012F002FF98B13E4B00222046294612F06A
S315080139800FFF0646002804F08881394B2046294650
S31508013990002212F0C9FA10F0BFFD04460D46354B58
S315080139A000222046294612F0E7FE002842F0BC858F
S315080139B029A3D3E900234FF6FE76DAE958452046CE
S315080139C0294612F0EDFE002802F0D985304612F09C
S315080139D0E7FB06460F4622462B463046394612F085
S315080139E0A1FA002200230D46044612F0E3FE003830
S315080139F018BF01204B468AF83B02424630463946F3
S31508013A0012F092FA12F01EFF169B1880CAE9584561
S31508013A109AF81432DD0701F1B6809AF8B822002A1D
S31508013A200CBF0122002243F001034FF001018AF87D
S31508013A3014328AF8B9128AF8B8228BF8BF2101F034
S31508013A40B180002103200CF085F90DF5717DBDECDF
S31508013A500C8BBDE8F08F00BF00000000C0FFEF40EF
S31508013A60A0C2000840C300080000F03F0000304330
S31508013A700000E03F0000F0400000BA439AF87322C4
S31508013A805AB19AF874222AB100200021CBE904011F
S31508013A908AF8743200238AF87332169B1FED0A7A64
