S01D00002E2E2F48414E636F6465725F4F6C696D6578696E6F2E7372656385
S3150800400014480020158E000800000000000000007B
S315080040100000000000000000000000000000000092
S31508004020000000000000000000000000C169000850
S315080040300000000000000000616A00089D6A000890
S315080040400000000000000000000000000000000062
S315080040500000000000000000000000000000000052
S315080040600000000000000000000000000000000042
S315080040700000000000000000000000000000000032
S31508004080000000000000000000000000BD8B0008D2
S3150800409025730008598A0008A58C0008000000004E
S315080040A000000000117300080000000001730008FA
S315080040B0ED720008D9720008C572000800000000F9
S315080040C000000000000000000000000000000000E2
S315080040D000000000CD8D0008E58D0008FD8D000864
S315080040E000000000000000000000000000000000C2
S315080040F000000000000000000000000000000000B2
S3150800410000000000000000000000000000000000A1
S315080041100000000000000000000000000000000091
S315080041200000000000000000000000000000000081
S315080041300000000000000000000000000000000071
S315080041400000000000000000000000000000000061
S31508004150EE11AA550B78FF2B00D070474B78002B31
S31508004160FBD100F0F1BE00BF08B5012000F056FBF8
S31508004170BDE8084040F267610020014A00F088BDAA
S3150800418055410008002000F087B900BF704700BFFE
S315080041902DE9F04F87B0CDE90432119B0446002B78
S315080041A0039104DD002110989A0007F03FFC039B59
S315080041B0002B5CDD4FF0000B231F0193109B043B83
S315080041C00093119B049AA3EB0B039342A8BF1346D3
S315080041D01A460199029351F8043F002A4FEA134EF2
S315080041E01FFA83FC0191134644DD059A009E151FAC
S315080041F0002205EB830A55F8040F56F8043F9B186E
S3150800420082B202FB0EF702FB0CF22CBF4FF001083C
S315080042104FF000089B184FEA07422CBF4FF00109E0
S315080042204FF000099B182CBF01240024000C00FB4A
S315080042300CF10A0C02EB174200FB0E220904424459
S315080042405B184A4444EB020255453360D3D1029BBE
S315080042505B4411990BF1010B9942C4BF109941F8BF
S315080042602320009B04330093039B5B45A9D107B029
S31508004270BDE8F08F5B460022EBE700BF2DE9F84367
S3150800428001F18043013B50F823301446002B1EDB16
S3150800429000294FF000064FF0000714DD051F02EB5A
S315080042A0411855F8040F07F023FA224606F004FFD2
S315080042B002460B463046394607F0DEF820344445B8
S315080042C006460F46EDD130463946BDE8F883002943
S315080042D023DD012300260027051F02EB411855F8A8
S315080042E0040FC043C0182CBF4FF001094FF0000956
S315080042F007F0FEF9224606F0DFFE0B46024639466F
S31508004300304607F0B7F82034A0454B4606460F4618
S31508004310E5D130463946BDE8F88300260027D2E7BE
S315080043202DE9F04F6FF040478DB0CE1906931F4424
S3150800433050F82630089252F827200593DB0F0A9387
S31508004340D30F0B93179B0D46002B044617464FEACF
S31508004350860604DD002116989A0007F067FB002DF3
S315080043607BDDA3190793231F0293012309930023D7
S31508004370BB460193169B043B0393029A52F8043FEB
S315080043800292059A002A07DA09994A1ED31A8B421D
S315080043902CBF0022012209920199179A4FEA134865
S315080043A0521A06991FFA83FE8A42A8BF0A46002AAD
S315080043B0134604926BDD01214FF00009089A039E0B
S315080043C0151F05EB830ABBF1000F55F8042F04DA15
S315080043D0D2438A182CBF0121002156F8043F97B210
S315080043E013EB09032CBF4FF001094FF0000907FB37
S315080043F008F007FB0EF74FEA004CDB192CBF012724
S315080044000027120C13EB0C0302FB0EF402FB0892B6
S315080044102CBF4FF001094FF0000902EB10422004AF
S315080044201B1802EB1444336004EB070349EB03093A
S31508004430AA45C8D1049B019A1344179A9A42C4BF45
S31508004440169A42F82390019B029A01330193039B23
S3150800445004330393079B93428FD1DDE90A329342D3
S3150800446012D0179B002B0FDD0122169B191F179BD5
S3150800447001EB830051F8043FDB439B182CBF012254
S31508004480002281420B60F5D10DB0BDE8F08F4FF0E8
S315080044900009019BD1E700BF2DE9F04F00258BB03D
S315080044A02946022000F09CFB4CF69433022103FBBC
S315080044B000F00123B84ADFF8E4B2B94FCDF800B0EE
S315080044C010600191B74819460395FFF761FE7B789E
S315080044D0002B40F04B81002002F0B0FF4FF002099C
S315080044E00123B149B14C0DF12008CDF80080CDF873
S315080044F0049008602169DFF8B8C2AE4A411ACCF8C0
S3150800450000100692079107AA1946064606A8FFF75D
S3150800451007FF494640460022FFF7B0FE0022A64B99
S3150800452006F07AFE21F0004A894600225146A34B3E
S31508004530804607F0B7F9A8B1494600224046A04B85
S3150800454007F0C4F98246494640460022BAF1000FF0
S3150800455000F003819A4B06F08FFF06F031FD804686
S3150800456021F0004A42465346DFF858A2DBF800001D
S31508004570CAE9002307F0BCF80023002206F07CFFF6
S315080045808046DBF80400894607F0B2F8202206F0D8
S3150800459093FD02460B464046494606F06DFF00224B
S315080045A04FF0735306F038FEDAE9002306F062FF8F
S315080045B080468946DFF810C2844BCCE90089D3E9E6
S315080045C0002306F029FED4E9002306F055FF02462B
S315080045D00B46CDE904236CA3D3E9002307F080F941
S315080045E08246002840F0A980DDE904010022002364
S315080045F007F058F928B9DDE9040107F07BF91FFA35
S3150800460080FA4946724BDFF8CC91D3E9002340463D
S31508004610A9F800A006F000FE002382468B46D4E9DE
S315080046200201002207F03EF9003818BF0120DFF822
S31508004630A881787098F80130002B40F08180227D9F
S3150800464098F80230551CEDB2022D28BF00253BB95B
S31508004650637D3B700133DBB2022B28BF0023039333
S315080046601F20049200F06EFB5C4B1B780343DBB201
S31508004670002B7FD0049A5A4B003A18BF01221A70B1
S31508004680584B0022D3E90001002307F001F9B0FADC
S3150800469080F0554F4009387000F058FC534B18709D
S315080046A000F05AFC524B1860524800F057FC524B27
S315080046B0B9F800101860052003F088F834A3D3E988
S315080046C0002350465946266106F0A6FD0B460246CB
S315080046D0D4E9000106F0D0FEC4E90001002000215B
S315080046E098F80130C4E902013BB93D4B1978002915
S315080046F03AD1132000F076FB257598F802300BB9ED
S31508004700039B6375397801B10121082000F06AFB23
S3150800471098F801300133DBB2092B88BF002388F8EB
S31508004720013098F802300133DBB2132B88BF00231F
S3150800473088F802300BB0BDE8F08F40F2FF3A60E728
S3150800474098F80230002B9BD1637D3B700133DBB2B6
S31508004750022B28BF0023039392E7284B07F0C0F8E3
S3150800476000284DD0D046FDE60121C2E7284602F0D2
S3150800477075FEB0E63B781A4A003B18BF0123137052
S315080047807EE700BFAFF300800000000000F88F400E
S3150800479000000040E17A843F4C0600201006002005
S315080047A02C06002000E001081C0600203006002028
S315080047B0280600200000D07A0000793F0000304328
S315080047C00000E03F20060020F80500202000002019
S315080047D018000020020600204806002010000020CD
S315080047E00006002008000020180600200406002005
S315080047F00C06002038E00108080600200000E0BF8B
S3150800480040460022044B494606F034FE06F05CFB9F
S31508004810804621F0004AA5E60000E03F08B50021E1
S31508004820022000F00DF90121002002F083FD01218C
S31508004830132000F0A3FA02211F2000F04BFA0121F1
S31508004840082000F09BFA4FF4007000F06BF842F273
S31508004850107000F05BF84FF47A7000F0EBF9002264
S3150800486041F29E31012002F065FE0120064902F060
S31508004870F5FF00220520114602F0CEFE00F08CFC62
S31508004880BDE8084000F092BC8D41000800B583B031
S3150800489001F0AAFB02AC054D44F8040DFFF772FCC3
S315080048A02968204601F0D4FCF8E700BF280000205C
S315080048B010B584B0002403F00BFA03F07DF8FFF777
S315080048C053FC00F0DBF9052223460092CDE90244A9
S315080048D0019480220849094801F044FA0621084B48
S315080048E003941A8807480091CDE9014423460649EE
S315080048F001F038FA04B010BD44E001084D4C000838
S315080049002C0000208D48000838E00108034A044BB3
S31508004910A2FB002040091860704700BF1F85EB51B5
S315080049202800002080087F2803D88022024B1A809E
S315080049307047014B188070472C0000202DE9F04382
S31508004940384A91B01378012B06D00121364802F077
S31508004950BFFA11B0BDE8F0830021344E0F46334646
S31508004960117002E00137102F59D05A78FDB2023380
S31508004970002AF7D12E4802F0FDFA4FF48062202370
S315080049804FF0800C4FF480704FF4805100240C9245
S315080049900D93284A284BCDE90AC00E91244805A94B
S315080049A005920693CDE9074709940F9402F07AFB1E
S315080049B001211F4802F096FB1B4802F007FA012264
S315080049C04FF460236946184800948DF8054003940F
S315080049D08DF810508DF80420029302F02DFAADB12F
S315080049E02346DFF85880104F16F813205C1C02EB9C
S315080049F0420208EB82025FFA84F9917A04234A4656
S31508004A00384602F06FFA4D452346EDD8012106488F
S31508004A1002F040FA0121044802F032FA95E73D46D1
S31508004A20A8E700BF340000200024014050060020FB
S31508004A30080002404C2401407006002058E0010896
S31508004A402DE9F0410F2890B0054600F2AB805C4B8B
S31508004A501C78002C68D101215A4E5B4A1970B31E86
S31508004A6006F11E0123F8024F8B42547002F102022E
S31508004A70F8D14FF4004002F0EBFB0121084602F0A2
S31508004A80F1FB01214FF4007002F0F8FB4F4802F0E9
S31508004A9071FA4FF480634FF0800C4FF48070202138
S31508004AA04FF4805210270C93494BCDE90AC00D915B
S31508004AB0464805A90E920593CDE9066409940F9414
S31508004AC0089702F0EFFA0121404802F00BFB414833
S31508004AD002F07CF901264FF4602369463D480293AB
S31508004AE000948DF8054003948DF810708DF80460D5
S31508004AF002F0A2F93146374802F0CCF9314635487A
S31508004B0002F0BEF9334802F0CFF9324C204602F0E3
S31508004B10D1F90028FAD12F4802F0D0F92D4C2046B9
S31508004B2002F0D2F90028FAD1274C2746234604F189
S31508004B30200102E002338B4208D05A78012AF9D1C3
S31508004B401A78AA42F6D110B0BDE8F081224A05EBE0
S31508004B5045039B00D05C012102EB0308002602F006
S31508004B608DFB0323B8F80820D8F8040005A9ADF88A
S31508004B7014208DF816308DF8176002F0BFFA02E09F
S31508004B800136102E15D063780234002BF8D1012394
S31508004B90124A07EB460107F816504B70137010B00F
S31508004BA0BDE8F081012214214FF4005002F026FFDF
S31508004BB04DE70122142142F2010002F01FFFE6E749
S31508004BC0350000207006002050060020080002402C
S31508004BD04C2401400024014058E00108340000201C
S31508004BE00F2810B5044618D80F4B1B78012B01D097
S31508004BF0002010BD0D480023024602E00133102BA9
S31508004C00F6D0517802320129F8D110F81310A142D2
S31508004C10F4D1074A32F8130010BD012214214FF4CB
S31508004C20005002F0EBFEDFE73500002050060020BA
S31508004C3070060020034A044BA2FB002040091860B6
S31508004C40704700BF1F85EB513000002000B583B0C8
S31508004C5001F0CAF902AC074E074D44F8040D03E00B
S31508004C602968204601F0F4FA3378012BF8D1FFF7CA
S31508004C7065FEF5E73500002030000020034B1B7861
S31508004C80012B00D07047FFF759BE00BF3500002042
S31508004C9070B50C200E46154601F0DEFF044678B1C5
S31508004CA000210B4B26601A68C4E901510AB905E0D0
S31508004CB01A469368002BFBD1946070BD1C6070BDCA
S31508004CC00122142142F2022002F098FEE8E700BF12
S31508004CD0900600202DE9F0411F2882B00746884635
S31508004CE026D87E00164DF3199B00E85C0121EC18C6
S31508004CF002F0C4FA032223898DF80620ADF80430A1
S31508004D00B8F1000F10D0B8F1010F0CBF48232823C3
S31508004D108DF807303E4405EB8605686801A902F060
S31508004D20EDF902B0BDE8F08104238DF80730F1E70C
S31508004D30012214214FF40C5002F060FED1E700BFA7
S31508004D4018E101081F2810B504460ED80A4B04EBD3
S31508004D50440403EB84042189606802F02DFAA0F16B
S31508004D600100B0FA80F0400910BD012214214FF469
S31508004D700C5002F043FEE9E718E101082DE9F0417D
S31508004D801A2882B00746884622D87E00144DF319A1
S31508004D909B00E85C0121EC1802F070FA03222389D3
S31508004DA08DF80620ADF80430B8F1000F0CD01023AA
S31508004DB08DF807303E4405EB8605686801A902F0C0
S31508004DC09DF902B0BDE8F08114238DF80730F1E7AC
S31508004DD0012214214FF4105002F010FED5E700BF4F
S31508004DE098E201081A2838B504460D460FD8A5F1E9
S31508004DF00102B2FA82F2094B04EB440403EB840481
S31508004E00218960685209BDE8384002F0DFB90122FD
S31508004E1014214FF4105002F0F1FDE8E798E201087A
S31508004E2064230C4910B44A680B4CC2F5C332A0324D
S31508004E3003FB02F35B09A4FB03230848C3F3C71368
S31508004E400278074C9A42237038BF0370002310BCBF
S31508004E504B6070479C060020C55A7C0A95060020C0
S31508004E609406002070B50D46064606F031FE044647
S31508004E70284606F02DFE844201D0002070BD6CB194
S31508004E8032782B789A42F8D1002303E0F15CEA5C89
S31508004E909142F2D10133DBB29C42F7D8012070BDB2
S31508004EA0002400B51C4D1D4A1D4883B000922346B8
S31508004EB004602C706C602C72012242F21071194841
S31508004EC001F00CFC184D2860F0B104460025174A7D
S31508004ED0174B15701D7001F087F8009502462B4692
S31508004EE02046294601F020FC012805D0012214217C
S31508004EF04FF4805002F082FD00220E4B1A60FFF735
S31508004F00D7FC01F031F8FEE7012214214FF4805056
S31508004F1002F074FD2C68D9E79C060020214E000893
S31508004F20A8060020DCE30108980600209406002065
S31508004F309506002038000020704700BF704700BF64
S31508004F4001F05ABD01F07EBD02F0C4BE014B1878CF
S31508004F50704700BF9406002001F032BF70B50546C1
S31508004F6001F04AFD0D4B06461C6814B912E0246987
S31508004F707CB12946A068FFF775FF0128F7D1646858
S31508004F80304601F05FFD204614B101F0AFFA80000B
S31508004F9070BD304601F056FD204670BDA8060020BB
S31508004FA02DE9F041804614200F46144601F054FEC0
S31508004FB0054628B30023C5E90187C5E9034301F07F
S31508004FC01BFD074601F018FD114E024634680CB960
S31508004FD00DE01C462369002BFBD1104601F032FD7B
S31508004FE0256138462C60BDE8F04101F02BBD01F083
S31508004FF029FD2C6035603846BDE8F04101F022BD38
S31508005000012214214FF4805002F0F8FCD2E700BFC9
S31508005010A8060020074A138801339BB2092B138080
S3150800502005D90023044913800B6801330B6002F08D
S3150800503027BA00BF3C0000203800002001221421B6
S315080050404FF4805002F0DABC054B1A78012A00D0DA
S3150800505070471A7A002AFBD15A6801325A6070479B
S315080050609C06002008B501F0C7FC01210022034B6D
S3150800507019701A72BDE8084001F0E4BC9C060020CD
S315080050800022014B1A7070479C06002000294ED05A
S315080050902DE9F8434D1E264E264FDFF8B080DFF87F
S315080050A0B0900544441E0DE0511E1F29224807D81A
S315080050B00121027089F800303B7088F800303170A1
S315080050C0AC4221D0337814F8012F002BECD098F895
S315080050D000301948012B397818D099F8003000EBC0
S315080050E0030C8CF8012002780133DBB29A4289F866
S315080050F0003008BF012394F800C008BF88F80030C4
S315080051006144AC423970DDD1BDE8F8830023914291
S31508005110337088F80030D3D12022084908480A702D
S315080051200849027008480B7000F06CFAC8E7704727
S3150800513040000020AC060020BC06002048000020E5
S31508005140490000203F000020BD060020E20600209E
S31508005150DE06002070B5054600240C4E56F82430AD
S31508005160E0B2AB4204F1010405D0032CF6D1336852
S31508005170AB4203D070BD00F0B9F9F6E7044A054B17
S3150800518011881B780B44138070BD00BFB006002041
S31508005190E006002004E0010808B503F0C7F8BDE8FA
S315080051A00840014803F01CB98D500008494B1A788D
S315080051B0012A79D0F0B5012783B01F7000F028FDC9
S315080051C06421454E454B3278454D01FB02F1A3FB60
S315080051D001313A46490900950023424801F07EFA12
S315080051E0414C2060002867D0642172783B4B01FB54
S315080051F002F1A3FB013100954909002301223B482E
S3150800520001F06CFA606000285DD06421B278334BF7
S3150800521001FB02F1A3FB0131009549090023012294
S31508005220334801F05BFAA06000283ED0256800F0FC
S31508005230DBFE0023024600932846194601F074FA5D
S3150800524001282AD1656800F0CFFE002302460093A4
S315080052502846194601F068FA012817D1A46800F013
S31508005260C3FE0023024600932046194601F05CFA65
S31508005270012804D100221F4B1A8003B0F0BD012279
S3150800528014214FF4185002F0B9FBF3E70122142158
S315080052904FF4185002F0B2FBE0E7012214214FF454
S315080052A0185002F0ABFBCDE77047012214214FF4EA
S315080052B0185002F0A3FBB9E73A4614214FF41850E8
S315080052C002F09CFB90E7012214214FF4185002F0DB
S315080052D095FB9AE73E00002004E001081F85EB5184
S315080052E055510008E8E30108B0060020F0E301087C
S315080052F0F8E30108E0060020014B1878704700BF64
S3150800530048000020014B1878704700BF490000206C
S3150800531030B5194B83B01B780D46012B23D0411E9F
S31508005320C9B21F298DF806001BD800226818691E05
S3150800533011F8014F22448842D2B2F9D101210DF168
S3150800534006008DF8072003F029F828469DF8061070
S3150800535003F024F801210DF1070003F01FF800F00F
S3150800536055FC03B030BD054902462B4609680020A6
S3150800537003F070FA03B030BD3F000020440000205F
S3150800538008467047014B1888704700BFE0060020A2
S3150800539010B5447882B0012C1ED00ED3022C03D04F
S315080053A00324204602B010BD02F086FC002814BF74
S315080053B001240324204602B010BD01A800F036FCE3
S315080053C0012402F031FC019B0522C3F801002046A6
S315080053D083F8002102B010BD807802F029FC20462F
S315080053E002B010BD00231748194690F8012180F82D
S315080053F0063922F0400280F8012180F8073980F842
S31508005400083980F8093980F80A39A0F80E39A0F861
S315080054101039A0F81239A0F81439A0F81639A0F8EE
S31508005420183900F6061200F5837303F8011B934238
S31508005430FBD1FF2380F80B3980F80C3980F80D3939
S31508005440704700BFE407002010B41348B0F80749B6
S31508005450B0F80919A40001EB810290F80639224434
S315080054600332C3EBC3031A4492B2B2F5006F10D2EB
S31508005470034403F2091323F003031C4404EB8101DC
S31508005480C0F81249C0F81619C0F80E3910BC002029
S315080054907047302010BC7047E4070020002210B483
S315080054A0114CC0EBC00094F80639204480F80A2154
S315080054B08BB194F80A21500613D45A1ED2B2C2EB05
S315080054C0C2022244234604E093F811110733490621
S315080054D007D49342F8D194F8013123F0400384F8B5
S315080054E0013110BC704700BFE40700202DE9F04FDA
S315080054F0424C83B094F801315D0672D5022870D803
S31508005500204490F80B5994F80639AB4269D9C5EB93
S31508005510C503234493F80A21510662D593F80C2152
S31508005520013AD2B283F80C21002A5AD1B3F808817D
S31508005530B3F8062193F80B11424583F80C1150D3A2
S315080055402F4E9946019509E001F080FA08F1010805
S31508005550B9F806311FFA88F8434546D301F064FACC
S31508005560B9F8083199F80A219DF80400A8EB030157
S31508005570D2067070317001D5434538D00225D4F86B
S315080055800E39D4F816C903EB880318881CF800707E
S31508005590002FD9D0B3F802E03544704518D8D4F8AE
S315080055A012A92B46791EC9B25AF82020013129447E
S315080055B0013A12F801BF03F801BB8B42F9D1013059
S315080055C080B286453D4403D31CF80070002FE8D10D
S315080055D0AD1BEDB228460A4986F8FF50FFF798FE3C
S315080055E0B2E7002003B0BDE8F08F0120FAE7FFF725
S315080055F0C9FEFFF7C7FE04257080C0E7E407002050
S31508005600E4060020F8B50378BB4CFF2B94F801613B
S315080056103BD0B50638D50122FF2184F80021217038
S3150800562002780546D33A2B2A00F27B82DFE812F08D
S315080056305B007A009900DA00A3007902C600DF0051
S315080056407902EE00F7000A012B014201700196016A
S315080056507902790279027902790279027902790264
S31508005660790279027902BB017902D401F201790241
S315080056707902FC01220242027902790279024B027E
S3150800568062026B0271024F00F8BD012236062370D2
S3150800569084F8002118D542F2080240F20113A4F852
S315080056A00021E380FFF728FEE070FFF72BFE80233A
S315080056B00422A37094F80031A08062701846BDE8F1
S315080056C0F8408D49FFF724BEFFF78CFEE3E794F810
S315080056D0063913B1002284F80A2126F0600384F8FB
S315080056E001310123EAE7438894F80629DBB29A4296
S315080056F00BD9C3EBC3032344B3F80821B3F8063127
S3150800570001799B1A8B4280F24B8222200223FE22C9
S3150800571084F80031607022701846BDE8F840764972
S31508005720FFF7F6BD438894F80629DBB29A42ECD90E
S31508005730B4F80929EAB90279B4F80719C3EBC3031F
S315080057400A4492B22344501EA3F80601A3F808118E
S31508005750A4F80729FFF778FE0028D7D194F8003176
S31508005760ACE7B4F8073923B9B4F80939002B00F0C7
S31508005770F9812920CAE74388DBB2022BC5D8072757
S31508005780012600255D4A5E49D25CC95C1209627130
S315080057905C485D4AC05C6170D15C5C4AE07021710E
S315080057A0FF2052F8231084F80071A670A571FFF740
S315080057B0E7FD94F80031C4F802017FE708230125C4
S315080057C084F800316570E570FFF79CFD0238A0701B
S315080057D0FFF798FD522302386371E580207194F82B
S315080057E000316BE7FFF7FEFD94F8003166E700220B
S315080057F00823032540205321A27194F8062984F82A
S315080058000031A580E0716170628057E7082384F84B
S315080058100031FFF7B7FD94F8003160604EE7437832
S3150800582094F80629022B00F08181012B00F0A38150
S3150800583012B1002284F80A2126F0400384F80131C7
S3150800584001233BE7408894F80639C0B283427FF6C5
S315080058505CAF6D786B1E012B00F26581C200111AD0
S315080058602144012D91F80A3100F0AA8143F0010381
S3150800587081F80A310223121A224484F80031B2F858
S31508005880082162701AE7428894F80639D2B2934220
S315080058907FF63BAF00210823C2EBC202224492F8EE
S315080058A00A0192F80B216070A27184F80031A18078
S315080058B0E17103E7438894F80629DBB29A427FF63A
S315080058C024AF8288D2B2022A3FF61FAFC1790029D7
S315080058D07FF41BAF81792244002908BF012182F891
S315080058E00B394278C3EBC3031C4484F80B1184F8C4
S315080058F00A210123E2E600BFE4070020CCE90108FB
S31508005900A0E90108B0E9010804E00108A4E90108D2
S315080059108678002E3FF4F9AEFFF7F4FC831EDBB25F
S315080059209E423FF6F2AE012384F80031A978D4F8F6
S315080059301629B4F81A39D1546968E878B4F81A6996
S31508005940D4F81259FFF71CFD45F82600B4F81A29B1
S3150800595094F800310132A4F81A29AFE6438894F87E
S315080059600629DBB29A427FF6D0AEC3EBC3032344C3
S31508005970B3F80821B3F8063101799B1A8B42FFF672
S31508005980C4AE5318D4F80E299BB202EB83031A88C7
S315080059905B8841799B1A8B42FFF6B7AE0A44A4F896
S315080059A01A2901238AE6FFF7A7FC012805F1010554
S315080059B03FF4D4AE821ED2B20132D4F802312A4460
S315080059C015F8011B1970D4F80231AA4203F1010334
S315080059D0C4F80231F4D1C1E64678FFF78DFC831E80
S315080059E0DBB2B342FFF491AE0235002E3FF4B6AEF9
S315080059F0721ED2B20132D4F802312A4415F8011BBC
S31508005A001970D4F80231954203F10103C4F8023142
S31508005A10F4D1A3E6FFF7BCFC02283FF435AE032811
S31508005A207FF49CAE212071E64678FFF765FC431E9D
S31508005A30DBB29E423FF669AE6968E878FFF7A0FCDC
S31508005A406B78C4F8020183B15A1ED2B202326C4B8B
S31508005A502244017803F8011BD4F80201934200F1AD
S31508005A600100C4F80201F4D16B780133DBB284F883
S31508005A70003123E64578FFF73FFC431EDBB2AB4215
S31508005A80FFF443AE8DB1691EC9B20231D4F80231B2
S31508005A905B4A21441B7802F8013BD4F802318A425A
S31508005AA003F10103C4F80231F4D16B1CDBB284F8AC
S31508005AB0003103E64168C078FFF762FC94F80031CC
S31508005AC0C4F80201FAE500220823627084F800315E
S31508005AD062604278012A7FF4F1AD4A4B4A49B3F92C
S31508005AE00030FF206360FFF74BFC94F80031C4F8E0
S31508005AF00201E3E5082300214FF0A05284F80031A3
S31508005B00A1706260DAE50223FE2284F80031228061
S31508005B10D4E500220623667084F80031A270A280BC
S31508005B20CCE52020F2E5FFF7B9FC17E6002A65D098
S31508005B30002506E0013594F80639EDB2AB427FF64A
S31508005B400DAEC5EBC506264496F80A31D807F1D539
S31508005B502846FFF7A3FC96F80A3123F0010386F8D6
S31508005B600A31E7E7438884F80639FFF76DFC002811
S31508005B707FF4CCADF2E5002A3FF4A0AD94F80A21F3
S31508005B80D1077FF59BAD22F0010242F0400246F0B4
S31508005B90400684F80A2184F8016184F80C318DE501
S31508005BA0B4F80739002B3FF4E4AD4679B4F809593F
S31508005BB0C6F57F40FF30ABB283420CD93020A5E54D
S31508005BC043F0410346F0400681F80A3184F8016142
S31508005BD081F80C514EE6D4F80E0933449BB20A44B8
S31508005BE05E1E00EB820120F82250A4F809394E8087
S31508005BF0FFF72AFC00283FF4B1AD87E501235DE5F0
S31508005C00E50700200000002008E001080020704792
S31508005C1005480022034600F61C1103F8012B8B42A7
S31508005C20FBD180F801217047E4070020014B03608F
S31508005C30704700BFE407002008B5034C2368012B12
S31508005C40FDD900F0CDFEF9E7081100200D4B0E4AEC
S31508005C5019681268486082420DD810B504460B4A86
S31508005C6010681968043103F027F9094B1A68A2422B
S31508005C7088BF1C6010BD074A10681968043103F014
S31508005C801BB900BF4C000020740000200011002042
S31508005C90680000200411002000222C4B2DE9F04159
S31508005CA0DFF8BC802A4E1A60D8F8002033689A427A
S31508005CB048D0D8F80020D8F8003012681B6B9A42F2
S31508005CC034D9244C244D236803EB830355F8233039
S31508005CD09BB9224F08E02368013B2360236803EB46
S31508005CE0830355F8233043B92368002BF3D140F2D8
S31508005CF052713846FFF7A2F9EDE7236803EB8303F1
S31508005D009B00E9184A68083352681D44AA424A604B
S31508005D1008BF5268336808BF4A60D268C8F80020CE
S31508005D20D8F800209A4209D0BDE8F081D8F80000DA
S31508005D30D8F80010343102F071FDC2E7BDE8F04131
S31508005D40FFF790B9FFF79CF9B3E700BF780000208A
S31508005D5064000020600000200811002008E4010803
S31508005D604C0000202DE9F84FDDF830B08A46DDE911
S31508005D700A57914698460646002800F0A7800D2D3A
S31508005D8000F28780482000F067FF0446002800F0EC
S31508005D908C804FEA8909BBF1000F00F09D80C0F89E
S31508005DA030B04A46A521584605F040FE236BA9F1B6
S31508005DB00409994429F007090AF1FF330AF10F018A
S31508005DC004F1330201E08B4207D013F9010F02F800
S31508005DD0010F93F900000028F5D10D2D4FF00003AF
S31508005DE0AB4628BF4FF00D0B04F1040A84F8433084
S31508005DF05046C4F82CB0C4F844B003F04BF804F18C
S31508005E00180003F047F8CBF10E03A361246164621E
S31508005E1042463146484600F0C1FD206007B13C6065
S31508005E2000F002FE434A444E136801331360336898
S31508005E30002B3ED0414F3B681BB3DFF82481404816
S31508005E40E26A036804F13401013303602046FFF770
S31508005E50A7F83C4BE06A1A685146904288BF18601A
S31508005E6000EB800008EB800003F018F800F0EEFD68
S31508005E703B681BB13368DB6AAB4222D30120BDE81D
S31508005E80F88F3368DFF8D880DB6AAB4298BF346096
S31508005E90D5E740F2ED112C48FFF7D0F8482000F07E
S31508005EA0DBFE044600287FF474AF4FF0FF30BDE8F0
S31508005EB0F88F34601368DFF8A880012B1AD01F4FBB
S31508005EC0BDE700F08DFD0120BDE8F88F4FF4F671AF
S31508005ED01D48FFF7B3F852E7484600F0BDFE834673
S31508005EE0206300287FF45DAF204600F025FF4FF0C1
S31508005EF0FF30C4E7474608F58C793846143702F070
S31508005F00BDFF4F45F9D1114FDFF85890384602F0DA
S31508005F10B5FF484602F0B2FF0D4802F0AFFF0D4844
S31508005F2002F0ACFF0C4A0D4B1760044FC3F8009003
S31508005F3085E700BF500000204C00002070000020BC
S31508005F405C0000206000002008E401082012002000
S31508005F50481200205C1200200011002004110020C5
S31508005F60081100203412002030B50024144A85B0E8
S31508005F700192CDE902440094234680221149124831
S31508005F80FFF7F0FE01280BD005460DB105B030BD70
S31508005F9040F21F510D4805B0BDE83040FFF74EB836
S31508005FA000F078FB01280546EFD100F025FD084AE8
S31508005FB0084B15601C6005B0BDE8304000F0A4BD74
S31508005FC06400002000E40108395C000808E40108C0
S31508005FD07000002074000020024A13680133136021
S31508005FE0704700BF5800002010B500F01DFD034B98
S31508005FF01C6800F02BFD204610BD00BF7400002071
S315080060002DE9F04F4C4B83B01B68002B7AD14B4BD4
S315080060101A6801321A601F680FB3494B0193019B36
S3150800602000251B68BB4236D9DFF83081DFF830918E
S31508006030D9F80030434ADB6A126803EB830358F841
S315080060402330022B28BF0125002A60D03E4B1B684F
S31508006050002B0CBF2846012003B0BDE8F08F3B4E4D
S3150800606033681B68002B60D1394B31681868394A88
S315080060703060196013680133136033681B68002B9E
S3150800608048D14FF0FF332E4A002501921360019B39
S315080060901B68BB42C8D82D4EDFF8C080DFF8C09019
S315080060A0DFF8C0A025E03368DB68DC68636804F1C4
S315080060B0040B9F4236D3584602F018FFA36A04F130
S315080060C018000BB102F012FFE36ADAF8002003EBBE
S315080060D083009342594608EB800088BFCAF800300F
S315080060E002F0DCFED9F80030E26ADB6A9A4228BF81
S315080060F0012533681B68002BD5D14FF0FF33019A71
S31508006100136095E700250F4A136801331360FEF7FD
S3150800611081FF9BE733680A4ADB680192DB685B68A4
S3150800612013607CE7019A136082E740F25B610A48D4
S31508006130FEF784FF98E700BF58000020740000208F
S31508006140680000205400002078000020001100207C
S31508006150041100206C00002008E401080811002042
S315080061604C000020600000202DE9F0472F4C2368E2
S31508006170002B51D000F058FC2368013B23602368AC
S31508006180002B43D12A4B1B68002B3FD0DFF8B4A065
S31508006190284E294FDFF8B090DFF8B0801EE0F3688C
S315080061A0DC68251D04F1180002F0A0FE284602F05E
S315080061B09DFEE36A3A6803EB83009342294609EB9E
S315080061C0800088BF3B6002F069FED8F80030E26ABA
S315080061D0DB6A9A4224BF0123CAF800303368002BD1
S315080061E0DDD1164C23686BB123685BB10125FFF737
S315080061F007FF08B1CAF800502368013B23602368EB
S31508006200002BF4D1DAF80040012C0BD0002400F062
S315080062101DFC2046BDE8F08740F25A510848FEF7B3
S315080062200DFFA7E700F0DCFBF1E700BF58000020F0
S315080062305000002048120020600000205400002072
S3150800624008E4010878000020081100204C0000200E
S3150800625038B50C460546002836D03CB31F492048B9
S315080062600A682B6801320A6001681C192CBF0120D4
S3150800627000208B4222460DD860B32C60194B186853
S31508006280043002F033FE2046FFF7E0FCFFF76CFF10
S3150800629040B138BDB0B1A1422C60EFD3FFF764FF1F
S315080062A00028F6D1BDE8384000F09ABB40F2BF217D
S315080062B00D48FEF7C3FE094909480B682A680133E9
S315080062C00B6003682A60E1E740F2BE210648FEF744
S315080062D0B5FEC2E7A142D0D3F4E700BF58000020BC
S315080062E0740000204C00002008E40108044B1B68D9
S315080062F00BB9FFF7D1BC0122024B1A60704700BFE9
S31508006300580000207800002070B50E460546C8B132
S315080063100F4C28462168183102F0CEFD206804305B
S3150800632002F0E4FD731C06D00A4B18683044BDE839
S315080063307040FFF78BBC216807480431BDE8704000
S3150800634002F0ACBD40F265710448FEF777FEDFE760
S315080063504C000020740000205C12002008E40108AC
S3150800636070B50E46054680B10B4C28462168183193
S3150800637002F094FD2068043002F0B8FD074B186857
S315080063803044BDE87040FFF761BC40F29B71044899
S31508006390FEF754FEE8E700BF4C000020740000201A
S315080063A008E4010838B5C368DC685CB304F118056D
S315080063B0284602F09BFD164B1B68E3B9251D2846A7
S315080063C002F094FD134AE36A116813488B4288BFAA
S315080063D0136003EB8303294600EB830002F05EFD9E
S315080063E00E4BE26A1B68DB6A9A4209D301230C4A00
S315080063F01846136038BD29460A4802F04FFDEFE7F4
S31508006400002038BD40F2D1710748FEF717FECDE7E8
S315080064105800002060000020081100204C000020D1
S31508006420780000204812002008E4010810B5044648
S3150800643030B1064A064B12681B68C4E9002310BD32
S3150800644040F2F7710348FEF7F9FDF2E76C00002009
S315080064507400002008E40108F8B50D46044658B350
S315080064608DB300F0E1FA2B681A4A581C11681ED041
S31508006470D4E90060DFF864C0DCF80070BE4201D0E1
S3150800648081420FD20F1ABB420CD95B1A03442B6008
S315080064900025DCF800101268C4E9001200F0D6FAEC
S315080064A02846F8BD012500F0D1FA2846F8BD002592
S315080064B000F0CCFA2846F8BD40F601010648FEF77A
S315080064C0BDFD002DCDD140F602010348FEF7B6FD0D
S315080064D0C7E700BF7400002008E401086C0000202C
S315080064E00122014B1A6070477800002060B1036BE7
S315080064F000201A78A52A0ED113F8012F0130A52AF3
S3150800650080B2F9D080087047034B1868036B0020E7
S315080065101A78A52AF0D070474C000020014B18685D
S31508006520704700BF4C000020044B186828B1044B84
S315080065301B68002B0CBF012002207047700000204A
S3150800654058000020B8B1F8B5164DC36A2A68D26A51
S3150800655093420FD22A68144ED26A03EB8303416929
S3150800656006EB8303C2F10E029942826104D02B68BE
S31508006570DB6AC362F8BD70470446071D384602F059
S31508006580B5FC2A68094BD06A1A68E062904200D9BD
S31508006590186000EB800006EB80003946BDE8F8403D
S315080065A002F07CBC4C00002008110020600000208E
S315080065B0F0B138B5C26A436C9A4218D00446051D34
S315080065C0284602F093FC0B4A636C1168C3F10E006F
S315080065D08B42A0610848E36288BF136003EB83031C
S315080065E0294600EB8300BDE8384002F057BC38BDA9
S315080065F0704700BF6000002008110020F8B50F4C56
S3150800660000F012FA25681DB1BDE8F84000F01EBA80
S315080066100B4F0C4E384602F031FC304602F02EFC89
S3150800662009490A4B0F602A460C2106201E6002F013
S3150800663037FD2060BDE8F84000F008BA8000002069
S31508006640781200208C12002070120020741200208C
S31508006650914208B50061416005D88169D21A8A421B
S315080066600CD3012008BD9A4201D29942F9D2074BB0
S31508006670011D186802F020FC002008BD044B011D0E
S31508006680186802F019FC002008BD00BF701200202F
S315080066907412002000B585B0FFF7B0FF0B4B1B68DE
S315080066A05BB100230222CDE90233CDE90023084974
S315080066B080220848FFF756FB20B90748E021FEF775
S315080066C0BDFC002005B05DF804FB00BF800000207B
S315080066D050E40108016800082CE401082DE9F0419E
S315080066E00D46B1B18046282017461E4600F0B4FA7A
S315080066F0044658B1FFF782FF069BC4F80080C4E938
S31508006700065726626362201D02F0C4FB2046BDE8D8
S31508006710F0812C464FF484710248FEF78FFC204620
S31508006720BDE8F0812CE4010870B5134E84B03468D6
S3150800673064B11D46CDE90112039053B11A462046AD
S31508006740002301A902F06CFD04B070BD204604B018
S3150800675070BDFFF7E9FE012807D030682B462A46A8
S3150800676001A902F0C3FC04B070BD2B463068089A34
S3150800677001A902F0BBFCE7E7800000202DE9F04301
S315080067801C4E83B04FF00009DFF870800CE0DB6820
S31508006790DC681F68251D284602F0A8FB636A2046A8
S315080067A09847E369012B0AD033681A68002AEED1A4
S315080067B0114A11681360316003B0BDE8F083A3691C
S315080067C03B449F4206D2636024612946306802F042
S315080067D073FBE9E70023CDF800903A4620461946B0
S315080067E0FFF7A2FF0028DFD140F282214046FEF7DC
S315080067F025FCD9E770120020741200202CE4010849
S315080068002DE9F04F4FF0000BDFF870A15A4FDFF873
S315080068107081DFF8709187B0DAF800301D68002DB6
S315080068206DD0DB681D68FFF7D7FBFFF7DDFB3B681C
S31508006830044683426BD88542386073D9291BD8F839
S31508006840000002F05BFEFFF78FFC002867D00023EC
S3150800685003A91A46D8F8000002F046FD0028DBD046
S31508006860059C636913B1201D02F040FBFFF7BCFBD2
S315080068703B680546984227D3039E3D60022E29D0E1
S31508006880032E31D0002EE2D1049BA1692A46194471
S315080068902046FFF7DDFE0128D9D1636A20469847CE
S315080068A0E369012BD3D1A369049A20461A440096BA
S315080068B033463146FFF738FF0028C8D140F22F216A
S315080068C04846FEF7BBFBC2E7FFF758FF039E3D604D
S315080068D0022ED5D10499A16151B1294420462B46EF
S315080068E02A46FFF7B5FEB2E7204600F025FAAEE7DE
S315080068F04FF40F714846FEF7A1FBA169EDE7FFF7D4
S315080069006BFBFFF771FB3B680446984205D2FFF71D
S3150800691035FF3C60FFF728FC99E73C608EE700F0FE
S315080069205FF894E7FFF720FCDAF80030DB68DE68EA
S31508006930301D02F0DBFAF369012B03D0736A304687
S31508006940984784E7B169224629442B463046FFF723
S315080069507FFE0128F2D10023CDF800B02A46194659
S315080069603046FFF7E1FE0028E8D14FF4AD714846FE
S31508006970FEF764FBE2E700BF7C00002070120020EF
S31508006980800000202CE4010803480068006880F3B2
S31508006990088862B600DF00BF08ED00E010B44FF0CB
S315080069A08074064B40F8044C40F8081C40F8202C2C
S315080069B040F80C3C10BC4038704700BF096A000814
S315080069C0064B19680868B0E8F00F80F309884FF09D
S315080069D0000080F311884EF00D0E70474C00002021
S315080069E04FF08052034B1A60BFF34F8FBFF36F8F80
S315080069F0704700BF04ED00E0EFF311804FF0BF01D0
S31508006A0081F311887047002008B5054B1B680133D0
S31508006A1003D0E4210348FEF711FBFFF7EDFFFEE77D
S31508006A208C00002058E4010808B5FFF7E5FF044A82
S31508006A30136801331360BFF34F8FBFF36F8F08BD21
S31508006A408C00002080F31188704700BF034B18683C
S31508006A500138186000B17047FFF7F4BF8C000020BA
S31508006A60EFF309800C4B1A6820E9F00F10602DE946
S31508006A7008404FF0BF0080F31188FFF737FC4FF04E
S31508006A80000080F31188BDE8084019680868B0E876
S31508006A90F00F80F3098870474C00002008B5FFF70F
S31508006AA0ABFFFEF7D1FAFEF747FA0F4A1388013310
S31508006AB09BB2092B07D81380FEF740FABDE80840B9
S31508006AC00020FFF7BFBF00231380FFF799FA0028BD
S31508006AD0F2D04FF08052054B1A60FEF72FFABDE848
S31508006AE008400020FFF7AEBF8400002004ED00E058
S31508006AF040F2CF2007220249024B08601A6070470D
S31508006B0014E000E010E000E030B5FF250724204B34
S31508006B1083B01A781F49D2B201921D701B781E489D
S31508006B20DBB28DF803309DF803309DF8032003F09F
S31508006B30BF03120604600B7011D5062200E00A4650
S31508006B409DF80330511E5B00DBB28DF803309DF8CB
S31508006B5003301B06F3D4130203F4E06301E04FF499
S31508006B60E06301990A4C0D4AC9B2036021701368A3
S31508006B7043F47F031360136843F07F431360FFF702
S31508006B80B7FF0022064B1A60FFF7FEFEFFF73CFF31
S31508006B9000E400E0860000208800002020ED00E0E8
S31508006BA08C00002008B5EFF305830F2B05D90E4995
S31508006BB00E4A5B5C12789A420FD80D4B0D4A1B6839
S31508006BC0126803F4E063934200D808BD40F2D1216D
S31508006BD0BDE808400848FEF731BA40F2C121064828
S31508006BE0FEF72CFAE9E700BFF0E300E08600002094
S31508006BF00CED00E08800002058E4010810B4144A9F
S31508006C0000E01A4613688342FBD351685418A04221
S31508006C1009D041684418A3420CD09042036010BCC6
S31508006C2018BF106070474468104621444418A342B0
S31508006C305160F2D1074C2468A342EED018CB90429B
S31508006C402144C0E9003110BC18BF1060704700BF6E
S31508006C50A0320020900000202DE9F8430746FFF7F0
S31508006C60BBF930480368002B37D02F4BD3F8009078
S31508006C7017EA090F50D15FB307F108014B071CBF8C
S31508006C8021F007010831002946D0DFF8A880D8F896
S31508006C9000608E4240D3254D2C6803E0226822B15D
S31508006CA02546144663688B42F8D30268A24233D05D
S31508006CB02F6820685A1A102A07F10807286024D86E
S31508006CC00022F61A43EA0903C4E90023C8F800605B
S31508006CD0FFF74AFA3846BDE8F88341F6F0744FF0F4
S31508006CE00045134A134E22F0070211194B60116032
S31508006CF0135154600D4C0160316822600A4A083904
S31508006D00A946316063601560B2E760184260616049
S31508006D10FFF774FF6368D3E70027FFF725FA3846BD
S31508006D20BDE8F8839000002094000020A0320020DF
S31508006D30A81200209800002000283AD038B51D4D2A
S31508006D4050F8043C2A680446134210D050F8081C30
S31508006D50D9B14FF486711848FEF770F92A6854F8C5
S31508006D60043C134202D054F8081C71B138BD40F2F5
S31508006D700B111148FEF762F954F8083C002BE8D1CC
S31508006D802A6854F8043C1342F0D023EA020344F874
S31508006D90043CFFF721F9094A54F8043C1168A4F1A8
S31508006DA008000B441360FFF729FFBDE83840FFF7DA
S31508006DB0DBB97047940000208CE401089800002095
S31508006DC0014B1868704700BF9800002008B5174B9C
S31508006DD0984206D0164B98421BD0164B98420CD0B8
S31508006DE008BD01214FF4007000F060FABDE80840C4
S31508006DF000214FF4007000F059BA01214FF4004009
S31508006E0000F054FABDE8084000214FF4004000F0B5
S31508006E104DBA01214FF4806000F048FABDE80840F9
S31508006E2000214FF4806000F041BA00BF0024014001
S31508006E3000280140003C0140436830B423F4702325
S31508006E400C790A6823F4807343EA042313434360E6
S31508006E5085680A4AD1E902432A4023434C791343F9
S31508006E6043EA440383600A7CC36A013AD2B223F434
S31508006E70700343EA0253C36230BC7047FDF7F1FF63
S31508006E80836819B923F001038360704743F001034F
S31508006E9083607047836819B923F4807383607047E9
S31508006EA043F4807383607047836843F00803836004
S31508006EB0704700BF8068C0F3C0007047836843F01E
S31508006EC004038360704700BF8068C0F38000704782
S31508006ED0836819B923F4A0038360704743F4A003B9
S31508006EE083607047092970B41DD90726A1F10A04E1
S31508006EF004EB4404C568A640A34025EA06042343D8
S31508006F00062AC3604FF01F041BD90C2A25D90D3A4F
S31508006F1002EB8202C36A9440914023EA04021143B9
S31508006F20C16270BC7047072501EB41060469B5408C
S31508006F3024EA0504B3402343062A03614FF01F04DD
S31508006F40E3D8013A02EB8202436B9440914023EA6C
S31508006F5004021143416370BC7047073A02EB820290
S31508006F60036B9440914023EA04021143016370BC09
S31508006F70704700BF10B44FF6FE74002302683B4901
S31508006F80224088420260036043608360C36026D063
S31508006F90374B984237D0374B984227D0364B9842D2
S31508006FA038D0364B98423CD0354B984225D0354B95
S31508006FB0984242D0344B984245D0344B984248D0F8
S31508006FC0334B984233D0334B984248D0324B984291
S31508006FD00AD1324A536843F47023536004E0304AB6
S31508006FE0536843F00F03536010BC70472C4A10BC1B
S31508006FF0536843F4706353607047294A536843F4EF
S3150800700070035360F0E7264A10BC536843F0F00358
S3150800701053607047224A10BC536843F47043536068
S3150800702070471F4A536843F470235360DCE71B4AD2
S31508007030536843F470635360D6E7194A536843F0BC
S3150800704070635360D0E7154A536843F00F035360E3
S31508007050CAE7124A536843F0F0035360C4E70F4A7D
S31508007060536843F470435360BEE700BF080002400C
S315080070701C00024030000240440002405800024012
S315080070806C00024080000240080402401C040240D2
S3150800709030040240440402405804024000040240FE
S315080070A0000002408B6830B40C6A0A6923434C69B5
S315080070B013438A692343CC694D6A13430268234301
S315080070C08C6A2B4322F4FF42CD68234322F07002D8
S315080070D01343D1E90041036045608460C16030BC58
S315080070E0704700BF29B94FF6FE7203681340036064
S315080070F07047036843F00103036070472DE9F041C8
S31508007100CD78EB0648BF8B78098805F00F0748BF8E
S315080071101F4311F0FF0F21D000234FF0010C4FF051
S315080071200F08066802E00133082B16D00CFA03F2A2
S3150800713032EA0104F7D19C0008FA04FE26EA0E0694
S3150800714007FA04F4282D46EA040632D0482D03F13E
S31508007150010308BF0261082BE8D10660FF2924D97C
S3150800716008234FF0010C4FF00F08466802E0013380
S31508007170102B19D00CFA03F434EA0102F7D103F103
S315080071808042083A920008FA02FE26EA0E0607FA34
S3150800719002F2282D46EA020609D0482D03F101031A
S315080071A008BF0461102BE5D14660BDE8F081446153
S315080071B0DDE74261B7E700BF8368194214BF0120C3
S315080071C00020704701617047416170470AB9416103
S315080071D070470161704700BF0028194B00F4401240
S315080071E0B4BFDB695B68B2F5401F30B484B21ED009
S315080071F0C20213D50322C0F30345AA4023EA0203B9
S3150800720043F0706319B1420D1201944023430C4AAE
S315080072100028B4BFD361536030BC7047420D1201D9
S3150800722004FA02F223EA020343F07063EAE7044D24
S3150800723023F070636A6822F070626A60E2E700BF52
S3150800724000000140014B1860704700BFD800424259
S31508007250034A536823F4404318435060704700BFFD
S3150800726000100240044A536919B923EA0000506124
S31508007270704718435061704700100240044A9369EA
S3150800728019B923EA00009061704718439061704766
S3150800729000100240044AD36919B923EA0000D061F4
S315080072A070471843D061704700100240044AD368FB
S315080072B019B923EA0000D06070471843D0607047B8
S315080072C00010024008B500F0DDFF00F007FBBDE83E
S315080072D0084001F05BBA00BF08B500F097FF00F060
S315080072E0EDFABDE8084001F013BA00BF08B500F092
S315080072F04FFF00F0D5FABDE8084001F0BDB900BF60
S3150800730008B500F019FFBDE8084001F095B900BFBF
S3150800731008B500F001FF00F0B3FABDE8084001F037
S315080073206DB900BF08B501F0DDF8BDE8084001F009
S31508007330E1BA00BF2DE9F043032885B004460F469D
S3150800734067D8A600DFF8F080351908EBC505286967
S315080073500121FFF793FFE8690121FFF78FFF01215C
S315080073600846FFF78BFF03238DF80230002F49D11B
S3150800737004238DF80330351908EBC5052B8B04AFAC
S3150800738027F8103D68693946FFF7B8FEAB8C286ABE
S315080073903946ADF80030FFF7B1FEE86800283FD15E
S315080073A0331908EBC303197A586801293CD001211F
S315080073B0FFF764FF00274FF6FF79264458F8365042
S315080073C001A92846CDE9017902F0BEFA3B463A46BC
S315080073D02846032102F030FC4946284602F07CFC88
S315080073E0284647F6FF7102F075FC2846012102F08F
S315080073F0FFFB01220E490F4B41F824701A5505B0C0
S31508007400BDE8F083012F0CBF482328238DF80330ED
S31508007410B1E7012214214FF4205000F0EFFA90E76B
S315080074200121FFF7D9FEBBE7FFF734FFC2E700BF2C
S31508007430A83200209C000020B0E40108032810B5FB
S31508007440044605D9012214214FF4205000F0D6FA3B
S31508007450014B53F8240010BDA8320020032810B5AC
S31508007460044605D9012214214FF4205000F0C6FA2B
S315080074700022024B43F8242010BD00BFA83200208A
S315080074802DE9F84F002447F6FF79194DDFF8688093
S31508007490184F15F8013B012B04D00134042CF8D100
S315080074A0BDE8F88F4FEA840A0AEB040358F833B0AC
S315080074B0584602F01DFC064647F6FF71584602F08C
S315080074C009FC33040AD44E45E7D05AF80730A9EB2D
S315080074D00606B6B29E1B4AF80760DEE7A6F5FF4623
S315080074E057F824307F3EB6B21E4447F82460D4E7E6
S315080074F09C000020A8320020B0E401080A4B1B5C5F
S3150800750003B9704710B50446084B00EB800253F8E0
S315080075102200012100F0B6FC054B53F8243013B1C4
S31508007520BDE81040184710BDA000002074E501080A
S31508007530B83200202DE9F043032885B00446884672
S31508007540164659D84FF0000CA5002F4F2B1907EBFC
S315080075508303197A2D4A0129586842F824C048D06D
S315080075600121FFF78BFE0F214FF0000901222B198D
S3150800757007EB83031B7C68468DF801108DF80030F5
S315080075808DF802908DF8032002F05EF8204B4FEA42
S315080075908828196840F2FF33B1FBF8F101398DF8F4
S315080075A00C90ADF80410029306B32023ADF806300C
S315080075B0254457F8255001A9284602F0C5F928465A
S315080075C0012102F057FB2846012102F011FB28464B
S315080075D0012102F019FB01222846114602F022FB7E
S315080075E001220C4B1A5505B0BDE8F083ADF80660CC
S315080075F0DEE7FFF74FFEB6E7012214214FF41C50D1
S3150800760000F0FCF99EE700BF74E50108B8320020D7
S31508007610D4000020A00000202DE9F04F0F2887B0E5
S3150800762007468A46934600F28D8001217C00DFF8E2
S315080076309891E519AD0019F8050009EB0508084306
S31508007640FFF71CFE03221823B8F80810D8F8040020
S31508007650ADF8041001A98DF806208DF80730FFF75C
S315080076604DFDBBF1010F98F80A6041D0514B06EB6E
S31508007670860603EB8606F068002835D14E4B029342
S315080076800023ADF80C300023ADF80E30BAF1000F28
S3150800769012D13C4409EB8404E37ACDE904AAA3B1E8
S315080076A0012B69D0022B54D0032B74D00122434BF3
S315080076B0DA5507B0BDE8F08F414A3C4409EB84042B
S315080076C0CDE90423E37A002BEAD1A37A394A03EBFE
S315080076D0830352F8234002A9204602F08BF920467C
S315080076E0082102F0D3FAE1E70121FFF775FDC5E7A6
S315080076F0B6B998F80B30022B12D8324B59465E1998
S31508007700585DFFF7BBFD338901A97068ADF80430F1
S31508007710FFF7F4FC284B02930423ADF80C30B2E7CC
S31508007720244B06EB860203EB8203D86800BB224B88
S315080077300293002EA4D1E31909EB8303DB7A022B0B
S315080077409ED8E9E70122142142F2017000F056F9A9
S315080077506BE7A37A174A03EB830352F8234002A97F
S31508007760204602F0CDF92046082102F0A1FA9DE74D
S315080077700121FFF731FDDAE7A37A0E4A03EB83030B
S3150800778052F8234002A9204602F078F9204608213B
S3150800779002F084FA8AE7A37A064A03EB830352F8CF
S315080077A0234002A9204602F0EDF92046082102F0FE
S315080077B087FA7BE774E5010860000100A400002051
S315080077C00200080050E50108C4E501080F2838B58D
S315080077D004460D4625D81E4B1B5DCBB140F2FF3241
S315080077E01C4B04EB440403EB8404E37A954228BF5C
S315080077F0154673B1012B23D0022B19D0032B07D1C1
S31508007800A37A154A03EB830352F82330A3F84050B2
S3150800781038BDA37A104A03EB830352F823309D86BA
S3150800782038BD0122142142F2017000F0E7F8D2E7D0
S31508007830A37A094A03EB830352F823309D8738BDA0
S31508007840A37A054A03EB830352F823301D8738BD14
S31508007850A4000020C4E5010874E50108032838B52A
S3150800786004460D4605D9012214214FF41C5000F098
S31508007870C5F8024B43F8245038BD00BFB832002083
S3150800788008B50121054802F035FA012800D008BDDF
S315080078900020BDE80840FFF731BE00BF002C0140BC
S315080078A008B501214FF0804002F024FA012800D0E3
S315080078B008BDBDE80840FFF721BE00BF08B5012195
S315080078C0054802F017FA012800D008BD0220BDE8D5
S315080078D00840FFF713BE00BF0004004008B50121A9
S315080078E0054802F007FA012800D008BD0320BDE8C4
S315080078F00840FFF703BE00BF00080040F0B585B09A
S315080079000F466D465030040104F11006A0B200F08F
S3150800791029FA0434B44245F8040BF7D10C4A029B01
S31508007920934202D0002005B0F0BDDDE90010039CAB
S315080079300A1813449C42F5D147B1786001200A0C15
S315080079400B0AF9703A80BB7005B0F0BD0120EAE772
S31508007950AA55EE11F0B587B00F4669461546044696
S31508007960FFF7CCFF012814BF01219DF803104FEA49
S31508007970052504BF0131C9B245EA07450D430295FD
S31508007980FEF732FB0B4A503483182B44CDE9042307
S315080079902401039004F1100703AEA0B2294604346B
S315080079A000F0F4F9A74202D056F8045BF5E707B0F1
S315080079B0F0BD00BFAA55EE11002210B50C4B03F519
S315080079C0C0711A809A70DA705A6008338B42F8D1FF
S315080079D0084B094C1A702270002003E02078013009
S315080079E0C0B220700021FFF789FF0128F6D010BD2C
S315080079F0C83200204834002049340020F0B500235E
S31508007A0085B006460F462A4D01E0302B12D035F8D0
S31508007A103300D900B04203F10103F6D16C18A178FE
S31508007A20B942F2D1E3780133E370FEF7DDFA60601C
S31508007A3005B0F0BD1F490B782F2BF9D8012025F882
S31508007A40336005EBC305AF700344E87001920B7011
S31508007A50FEF7CAFA019A6860002AE9D0164D287816
S31508007A60E8B1002403E02878DCB2844215D202A9E2
S31508007A702046FFF743FF012804F10103F3D1BDF8BF
S31508007A800820B242EFD19DF80A20BA42EBD13A4615
S31508007A9031462046FFF75EFFCAE72F28C8D83A4680
S31508007AA03146FFF757FF2B7801332B70C0E700BF2D
S31508007AB0C8320020483400204934002008B54FF465
S31508007AC040714FF4A06000F027F90022014B1A70AC
S31508007AD008BD00BF493400200022064B03F5C071DB
S31508007AE01A809A70DA705A6008338B42F8D1024BC2
S31508007AF01A707047C832002048340020024B1878A4
S31508007B00302828BF3020704749340020024B1878A7
S31508007B10302828BF30207047483400202DE9F0432C
S31508007B202F2983B00D460446914630D878B3A94428
S31508007B304D4533DA05F101085FFA88F8002608F1A1
S31508007B40FF3814E02F2DDDB21DD8019BBDF800E0EB
S31508007B509DF802C09DF803004945A4F800E084F8A2
S31508007B6002C0E0706360D7B204F108040BDA694614
S31508007B702846FFF7C3FEF7B201367A1C6B1C08EBE2
S31508007B8006010028DED1384603B0BDE8F08301229D
S31508007B9014214FF41450FFF731FFC8E70027F2E726
S31508007BA02F29F8B50F460446154632D888B305EB93
S31508007BB0070EBE453B4633DD1A4A02EBC701CD78B0
S31508007BC075B32F2F2CD8C7F12F0C5FFA8CFC791CB4
S31508007BD00CF1010CC9B204EBCC0C02EBC10604E0B3
S31508007BE0F5780836A5B1644512D032F8330002EBB1
S31508007BF0C30320809878E570A0705B68C81B714540
S31508007C006360C0B20B4604F1080401F10101E7DB29
S31508007C10F8BD012214214FF41450FFF7EFFEC6E712
S31508007C200020F8BDC8320020004870474C340020B8
S31508007C30012310B51E4C6380032816D8DFE800F030
S31508007C4002201B16FFF762FF132823D913220021EF
S31508007C501848FFF7A5FF4FF6FE73A4F8A030FEF705
S31508007C60C3F91423C4F8A400636010BDFFF726FF08
S31508007C700023636010BDFFF72FFF0023636010BD6C
S31508007C80FFF73CFF13280CD9132200210948FFF7F8
S31508007C9045FFE0E7142200210648FFF781FF6060F0
S31508007CA010BD142200210348FFF738FF606010BD9D
S31508007CB04C340020543400200122044B9878DA70A2
S31508007CC0904206BF00229A70002070474C3400206C
S31508007CD000F00EB80449054BCA6802F4E062134383
S31508007CE0CB60BFF34F8FFEE700ED00E00400FA0516
S31508007CF0074BC3F1006101F5EC3103F500605A5CEE
S31508007D0003F8012B8342FAD10022024B1A707047FE
S31508007D10F8340020F4340020C1F50063013398429A
S31508007D2017DA0144884214DAF0B40025FF27DFF891
S31508007D3030C00A4C9CF80060225C431CFF2A02D023
S31508007D4001252E46275498B28842F5DB15B9F0BCB2
S31508007D50704770478CF80060F9E700BFF8340020D8
S31508007D60F434002040F2FC73984210B502D900247E
S31508007D70204610BD0446FDF7E3F8034B1C59FDF7F2
S31508007D80E1F8204610BD00BFF8340020F8B540F2EF
S31508007D90FC73984200D9F8BD04460D46084EFDF717
S31508007DA0CFF83759FDF7CEF8BD42F4D0FDF7C8F83D
S31508007DB03551FDF7C7F80122024B1A70F8BD00BF0E
S31508007DC0F8340020F4340020254B1B5C002B37D0F8
S31508007DD02DE9F04F00248500224A291852F821205F
S31508007DE0214902F1047210325201146031F8102050
S31508007DF0DFF884C001321D4F2346A64692B21C4CBA
S31508007E001C4EDFF87890DFF8788021F810200CEB0C
S31508007E10050007EB050CE91834F81120C7180132DC
S31508007E2092B224F8112036F8112092B21AB1C25C27
S31508007E30D2B2012A05D00133042BECD1BDE8F08F6C
S31508007E40704734F811A036F811B0D345F3D80CF8BA
S31508007E50032087F800E049F821E028F811E0EAE76E
S31508007E60B400002084E60108E83D0020D03E00204A
S31508007E70803E0020E03E0020F83C0020F03D002037
S31508007E80883D002000F104701030CA074FEA401000
S31508007E901FD48B0720D44A0722D40B0724D4CA063A
S31508007EA024D48B0624D44A0624D40B0624D4CA0523
S31508007EB024D48B0524D44A0524D40B0524D4CA0417
S31508007EC024D48B0426D44A0422D40B044CBF3C3059
S31508007ED08030002303607047002304300360704736
S31508007EE000230830036070470C30F2E71030F0E7E3
S31508007EF01430EEE71830ECE71C30EAE72030E8E704
S31508007F002430E6E72830E4E72C30E2E73030E0E7D3
S31508007F103830DEE73430DCE72DE9F0476C4E4FEABF
S31508007F20001806EB0802977A6A4BBC00D57A2344F8
S31508007F305B5D0BB9BDE8F087674BE11953F821A0E3
S31508007F4091895046FFF79EFF644A611952F821301D
S31508007F50013342F82130002D59D0012D00F08880D8
S31508007F60022D00F0AA80032D00F0AC8000215C4BA6
S31508007F705C4A2344595532F817305B4809EB0343EA
S31508007F80621940F822304644F389BAF820000342C1
S31508007F901FD101265548564920444655BAF82000AF
S31508007FA021440343AAF820304B5D002B34D14E55AB
S31508007FB0504851490022631920F8132021F81390DC
S31508007FC04E4B2C4453F82430002BB3D0BDE8F04771
S31508007FD01847464E464826447155BAF82060011996
S31508007FE026EA0303AAF820304B5D012BE8D1424B61
S31508007FF0404933F812304B4546D2A9EB030331F812
S3150800800012903F4903EB094341F82230D8E750461E
S3150800801001F064FE8146A9E73749364831F812303F
S315080080204B452AD3C3F57F4330F81220FF334B4420
S31508008030013A03EB0243334A314FB2FBF3F2DFF85E
S31508008040D0C0661957F826704CF826202E4A974253
S3150800805028D96422DFF8BCC002FB07F2ACFB037325
S315080080605B09B2FBF3F3294A9BB222F81630A1E763
S31508008070504601F035FE814678E730F81220A9EB24
S31508008080030303EB0243D6E731F81210C3F57F4327
S31508008090FF334B4401F1FF39194903EB094341F812
S315080080A022308DE742F2107202FB07F2B2FBF3F3BD
S315080080B0164A9BB222F816307CE7504601F012FEAB
S315080080C0814653E7504601F00FFE81464EE700BF52
S315080080D0D4E60108A03E002084E60108A83D002059
S315080080E0D03E0020E83D0020303E0020703E0020B3
S315080080F0F83C0020803E0020B03E0020083D0020CD
S31508008100483D002000366E01B78D0600883D0020E8
S31508008110F03D00201F85EB5108B50121054801F007
S31508008120E9FD012800D008BD0020BDE80840FFF79A
S315080081304BBE00BF002C014008B50221134801F0D0
S31508008140D9FD012817D00421104801F0D3FD0128D4
S315080081500DD008210D4801F0CDFD012810D01021C1
S315080081600A4801F0C7FD012800D008BD0320BDE874
S315080081700840FFF7D1BE0020BDE80840FFF7CCBE97
S315080081800220BDE80840FFF7C7BE00BF002C01402B
S3150800819008B501214FF0804001F0ACFD012821D03F
S315080081A002214FF0804001F0A5FD012815D00421D9
S315080081B04FF0804001F09EFD01281CD008214FF0A9
S315080081C0804001F097FD01281AD010214FF0804019
S315080081D001F090FD012809D008BD0420BDE808403B
S315080081E0FFF79ABEBDE80840FFF7EEBD0720BDE8D9
S315080081F00840FFF791BE0520BDE80840FFF78CBE92
S315080082000620BDE80840FFF787BE00BF08B5012174
S315080082101B4801F06FFD01281DD00221184801F006
S3150800822069FD012812D00421154801F063FD0128D3
S315080082301BD00821124801F05DFD01281AD0102133
S315080082400F4801F057FD01280AD008BD0820BDE8EF
S315080082500840FFF761BE0220BDE80840FFF7B4BD3D
S315080082600B20BDE80840FFF757BE0920BDE80840C7
S31508008270FFF752BE0A20BDE80840FFF74DBE00BF13
S315080082800004004008B501211B4801F033FD012810
S315080082901DD00221184801F02DFD012812D0042115
S315080082A0154801F027FD01281BD00821124801F0C6
S315080082B021FD01281AD010210F4801F01BFD0128C5
S315080082C00AD008BD0C20BDE80840FFF725BE0320EC
S315080082D0BDE80840FFF778BD0F20BDE80840FFF766
S315080082E01BBE0D20BDE80840FFF716BE0E20BDE8F0
S315080082F00840FFF711BE00BF0008004030B4002553
S31508008300013AD2B28C1C04EB4204020F092AD3B2FA
S3150800831003F130028ABF37330A700B704D70023191
S315080083208C424FEA0010F0D130BC704730B50024BB
S31508008330174B83B0012110201C604FF48055FEF7BF
S315080083409DFF03221423694612488DF802208DF8F2
S315080083500330ADF80050FEF7D1FE2046FEF772FF57
S3150800836001214FF40000FEF795FF012540F614732E
S3150800837001A8ADF804308DF806408DF8075001F0D5
S3150800838063F9054B1D7001F007FD03B030BD00BF52
S31508008390C800002000100140CC000020F8B50E46A9
S315080083A00446FCF7CDFD96B14FF0000C26440A4D65
S315080083B00A4F013E621E296812F8014F4B1CB3F59D
S315080083C0007F08BF6346B2427C542B60F3D1BDE8F8
S315080083D0F840FCF7B7BD00BFBC000020B83F00203E
S315080083E0014B1860704700BFC8000020024B1B688D
S315080083F003B11847704700BFC8000020F8B51E4DE6
S315080084002B78012B2BD01D4A1D4913680968B3F533
S31508008410007F1FD08B4220D01A4C98B2204429D90D
S31508008420194EC3F500713160402919D940244033EB
S3150800843040391360316001262246C0212E7001F0B2
S31508008440C7FC3046214601F0C9FD3046BDE8F84074
S3150800845001F02ABD0023136041B900232B70F8BD33
S3150800846000270B4413608CB23760E4E70548064ED4
S315080084703160D9E7C91AFAE7C4000020C000002015
S31508008480BC000020B83F0020B800002001284FF4A7
S315080084908051034801D0FEF795BEFEF795BE00BF92
S315080084A0001001400A490B4A0B4B086810B51468BE
S315080084B01B68C01800D110BD08220849FFF71EFF27
S315080084C02046BDE8104004220549FFF717BF00BF44
S315080084D0E8F7FF1FECF7FF1FF0F7FF1FDA00002091
S315080084E0EA000020034B1B78012B00D0704701F0EF
S315080084F0BBBD00BFCC00002070B43B4C0001221865
S31508008500957A3A4BD17AAA0013445B5C002B46D085
S31508008510374B154453F82530002936D19E8EB6B20E
S315080085200444A08903F104731033C4074FEA4313C4
S315080085301FD4850735D4440738D405073BD4C40669
S315080085403BD485063BD444063BD405063BD4C40538
S315080085503BD485053BD444053BD405053BD4C4042C
S315080085603DD4850439D444043BD400044CBF3C3381
S31508008570803300241F480A4450F822101E481C6005
S3150800858020F8126059B170BC084701290BD002299E
S315080085900ED0032904BFB3F84060B6B2C0E770BC7A
S315080085A070470433E5E71E8FB6B2B9E70833E0E74C
S315080085B09E8FB6B2B4E70C33DBE71033D9E7143332
S315080085C0D7E71833D5E71C33D3E72033D1E724336D
S315080085D0CFE72833CDE72C33CBE73433C9E730333D
S315080085E0C7E73833C5E700BF24E80108703F002015
S315080085F0D4E70108003F0020503F002010B50121B4
S31508008600094801F077FB012800D010BD074B1B78FD
S31508008610002BFAD00021064B064A1B681160002B76
S31508008620F3D0BDE810401847002C0140D0000020C8
S31508008630403F00200082254208B502210D4801F07E
S3150800864059FB012811D004210A4801F053FB0128DF
S3150800865007D00821074801F04DFB012800D008BDC6
S315080086600220BDE80840FFF747BF0020BDE80840E4
S31508008670FFF742BF002C014010B501214FF08040A2
S3150800868001F038FB01280BD11E4B5B7823B3002180
S315080086901D4B1E4A5B681160F3B1BDE810401847D0
S315080086A002214FF0804001F025FB01281AD0042151
S315080086B04FF0804001F01EFB012818D008214FF02A
S315080086C0804001F017FB012807D010214FF08040A9
S315080086D001F010FB01280FD010BD0520BDE81040A1
S315080086E0FFF70ABF0320BDE81040FFF705BF0420C7
S315080086F0BDE81040FFF700BF0620BDE81040FFF7B1
S31508008700FBBE00BFD0000020403F00200002004210
S3150800871010B50121194801F0EDFA01280BD1184BC3
S315080087209B78D3B10021174B174A9B681160A3B1F8
S31508008730BDE8104018470221104801F0DBFA01286D
S3150800874011D004210D4801F0D5FA012810D00821CE
S315080087500A4801F0CFFA012800D010BD0920BDE86B
S315080087601040FFF7C9BE0720BDE81040FFF7C4BE9A
S315080087700820BDE81040FFF7BFBE00BF0004004058
S31508008780D0000020403F00200082004210B50121A1
S315080087901E4801F0AFFA01280BD11D4BDB7803B355
S315080087A000211C4B1C4ADB681160D3B1BDE81040A0
S315080087B018470221154801F09DFA012817D004210F
S315080087C0124801F097FA012816D008210F4801F03F
S315080087D091FA012806D010210C4801F08BFA0128DD
S315080087E00FD010BD0C20BDE81040FFF785BE0A204B
S315080087F0BDE81040FFF780BE0B20BDE81040FFF72C
S315080088007BBE0D20BDE81040FFF776BE000800408D
S31508008810D0000020403F00200002014200B501219F
S3150800882083B01020FEF72AFD4FF48064032210233C
S3150800883001A907488DF80620ADF804408DF80730E1
S31508008840FEF75CFC214601220148FEF7BFFCFEE765
S315080088500010014030B587B08DF8082001915AB153
S31508008860013AD2B21A440DF10901013B13F8010F7E
S31508008870934201F8010BF9D11A4C206800F030FE3A
S31508008880194B1B88181A012816D8184B1B7853B190
S31508008890FCF756FB0546164800F05AFF04462846DC
S315080088A0FCF750FB94B90122142142F20410FFF799
S315080088B0A5F8002007B030BD206800236A4601A944
S315080088C000F0AEFC28B1012007B030BD002007B08B
S315080088D030BD0122142142F20410FFF78FF801205F
S315080088E007B030BD8C3F0020903F0020803F00201D
S315080088F000640040F0B50024504B8FB01B780194FB
S31508008900012B029401D00FB0F0BDFCF715FB022134
S315080089104B4800F063FF0128034611D00821484858
S3150800892000F05CFF012805466DD0FCF707FB019BAC
S31508008930002BE8D04FF08052424B1A600FB0F0BDC2
S3150800894021463F488DF8203000F0F6FE0446002800
S3150800895041D03D4F3A4E3D4D0CE0039B09939DF89F
S3150800896015303BB3099B43F080430993013C14F04F
S31508008970FF0430D003AA0021304600F091FEFDF72F
S3150800898033FB642303FB00F0A5FB00303B689DF82E
S3150800899016209DF81410C3EB90100D908DF8282022
S315080089A00029DAD0049B43F0004309939DF815305B
S315080089B0002BD7D1002AD9D0013AD2B206AB9818E3
S315080089C00DF117030DF1290213F8011B834202F872
S315080089D0011BF9D1CAE71E4A0023106808A902AA92
S315080089E000F01EFC40B1029B0221012B144808BF6F
S315080089F0019300F063FF98E70122142142F2061062
S31508008A00FEF7FCFFEFE70226114A2346106808A97D
S31508008A1001AA8DF8206000F003FC40B10D49084812
S31508008A2000F0C4FE0821064800F048FF7DE72A4604
S31508008A30142142F20610FEF7E1FFEFE7803F00201F
S31508008A400064004004ED00E0883F0020D34D62102A
S31508008A50843F002010000032F0B50024504B8FB040
S31508008A601B780194012B029401D00FB0F0BDFCF7DE
S31508008A7063FA10214B4800F0B1FE0128034611D0D5
S31508008A804021484800F0AAFE012805466DD0FCF7AB
S31508008A9055FA019B002BE8D04FF08052424B1A60E2
S31508008AA00FB0F0BD01463F488DF8203000F044FE77
S31508008AB00446002841D03D4F3A4E3D4D0CE0039BFD
S31508008AC009939DF815303BB3099B43F080430993FE
S31508008AD0013C14F0FF0430D003AA0121304600F00F
S31508008AE0DFFDFDF781FA642303FB00F0A5FB0030E8
S31508008AF03B689DF816209DF81410C3EB90100D9056
S31508008B008DF828200029DAD0049B43F00043099306
S31508008B109DF81530002BD7D1002AD9D0013AD2B208
S31508008B2006AB98180DF117030DF1290213F8011B6E
S31508008B30834202F8011BF9D1CAE71E4A00231068CE
S31508008B4008A902AA00F06CFB40B1029B1021012B78
S31508008B50144808BF019300F0B1FE98E701221421DA
S31508008B6042F20610FEF74AFFEFE70226114A2346AD
S31508008B70106808A901AA8DF8206000F051FB40B1E1
S31508008B800D49084800F012FE4021064800F096FEFE
S31508008B907DE72A46142142F20610FEF72FFFEFE77B
S31508008BA0803F00200064004004ED00E0883F00207C
S31508008BB0D34D6210843F00201000003430B50025E4
S31508008BC02F4B89B01C780195012C01D009B030BD16
S31508008BD0FCF7B2F921462B4800F000FE01280AD01E
S31508008BE0FCF7ACF9019B002BF0D04FF08052264BD6
S31508008BF01A6009B030BD2549224800F0ADFD0128AC
S31508008C0025D023491F4800F0A7FD012804462AD08D
S31508008C1020491C4800F0A0FD01282AD040F2A631C0
S31508008C201D48FCF70BFA00241C4B1D4A53F8255027
S31508008C301068234601AA02A903958DF8084000F09A
S31508008C40EFFA48B101210F4800F038FEC8E70F498E
S31508008C500C4800F0ABFDE6E70122142142F20610AB
S31508008C60FEF7CCFEEEE70A49064800F09FFD2546CA
S31508008C70D9E70849034800F099FD0225D3E700BF64
S31508008C80803F00200064004004ED00E00100003849
S31508008C90000100380000013804E90108943F00206B
S31508008CA0843F002070B500241A4B88B01B780194C5
S31508008CB0012B01D008B070BDFCF73EF94FF4806176
S31508008CC0154800F08BFD012805460AD0FCF736F951
S31508008CD0019B002BEED04FF08052104B1A6008B063
S31508008CE070BD03260E4A2346106802A901AA8DF80C
S31508008CF0086000F095FA28B14FF48061064800F044
S31508008D00DDFDE3E72A46142142F20610FEF776FE59
S31508008D10F2E700BF803F00200064004004ED00E059
S31508008D20843F0020F0B50026254B00EBC00253F81F
S31508008D30225083B0044640F227712846019601F076
S31508008D4009F801280AD040F22551284601F002F810
S31508008D500128074615D0019803B0F0BD194B01AAA2
S31508008D6053F824000DF1030100F070FB01281FD011
S31508008D702846324640F2277100F0C8FF019803B032
S31508008D80F0BD284600F0E2FF0F4A8DF8030033468F
S31508008D9052F824000DF1030101AA00F041FA002857
S31508008DA0D9D13A46142142F60210FEF727FED2E739
S31508008DB028469DF8031000F0C5FF019803B0F0BDE2
S31508008DC034E90108AC3F0020A03F002008B5002088
S31508008DD0FFF7A8FF18B14FF08052014B1A6008BD83
S31508008DE004ED00E008B50120FFF79CFF18B14FF02D
S31508008DF08052014B1A6008BD04ED00E008B5022058
S31508008E00FFF790FF18B14FF08052014B1A6008BD6A
S31508008E1004ED00E008B516498D46124B124A9342F6
S31508008E200CD2181D0332121A22F003020F4902440B
S31508008E3051F8040B43F8040B9342F9D10D480E4937
S31508008E404FF000028842B8BF40F8042BFADB00F066
S31508008E5073FB4FF4407000F0EDFBBDE80840FCF7EB
S31508008E601FB800BF00000020F805002030BB00082E
S31508008E7014480020F8050020384200204FF0FF3142
S31508008E80002200F108038160C0E90023C0E903332A
S31508008E90704700BF00230361704700BFD0E9002375
S31508008EA010B49C6801328C609C684B606160996064
S31508008EB010BC08610260704730B40D686B1C11D095
S31508008EC000F1080200E01A4653681C68AC42FAD959
S31508008ED004684B60013499608A60516008610460D7
S31508008EE030BC704702695368F2E700BF026910B4E4
S31508008EF0D0E9013154689960816884424B6008BFA3
S31508008F005160002113680161581E106010BC70473B
S31508008F1038B5036C044633B90568002D2DD0A36B0C
S31508008F200133A36338BD15461A467DB9806802F039
S31508008F3007FDA368216C62680B449342A360EED3D5
S31508008F402368A360A36B0133A36338BDC06802F02E
S31508008F50F7FC226CE3685242216813448B42E360B3
S31508008F6002D263681A44E260022DD8D1A36B002BA3
S31508008F70D5D0A36B013BA363D1E74068FDF718FB87
S31508008F806560CCE7036873B130B40C46026CC168FF
S31508008F9045681144A942C16024BFC36019462046EA
S31508008FA030BC02F0CDBC704738B50446FDF73CFD31
S31508008FB0A36C002B14DD636A93B104F1240507E062
S31508008FC0A36C013BA364A36C002B09DD636A3BB168
S31508008FD02846FDF7E7F90028F2D0FDF781FAEFE712
S31508008FE04FF0FF33A364FDF731FDFDF71DFD636CFC
S31508008FF0002B14DD236993B104F1100507E0636CB7
S31508009000013B6364636C002B09DD23693BB1284689
S31508009010FDF7C8F90028F2D0FDF762FAEFE74FF03E
S31508009020FF336364BDE83840FDF710BD70B50D46E3
S31508009030044670B3FDF7F8FCD4E90F324FF0FF3061
S31508009040002603FB02F321689A1A0A440B44A66316
S31508009050E2606064C4E90131A06475B923691BB98B
S31508009060FDF7F4FC012070BD04F11000FDF79AF934
S315080090700128F5D1FDF7B4FCF2E704F11000FFF77B
S31508009080FDFE04F12400FFF7F9FEFDF7DFFC0120E1
S3150800909070BDFA210148FBF7D1FFCBE7D0E90108FB
S315080090A070B5C0B105464C200E46FDF7D5FD044601
S315080090B088B106FB05F00130FDF7CEFD206038B11A
S315080090C0C4E90F5601212046FFF7B0FF204670BDC0
S315080090D02046FDF731FE002440F257110248FBF7FF
S315080090E0ADFF204670BD00BFD0E901082DE9F04369
S315080090F085B0894601921F460446002800F08780FD
S31508009100B9F1000F62D0022F57D00026B04625E0ED
S31508009110FDF79CFCFCF760FFFDF786FC636C0133EA
S3150800912008BFC4F84480A36C013308BFC4F848805C
S31508009130FDF78CFC01A902A8FDF78EF9002854D189
S31508009140FDF772FCA26BE36B9A4218D0FDF77EFC22
S315080091502046FFF729FFFDF707F80126FDF764FC0F
S31508009160A26BE36B9A421BD3022F19D0019D002DE7
S3150800917035D0002ECCD102A8FDF758F9C8E7FDF77F
S3150800918065FC019904F11000FDF7BEF82046FFF7CB
S315080091900BFFFCF7E9FF0028DFD1FDF721FCDCE730
S315080091A03A4649462046FFF7B3FE636A33BBFDF7E6
S315080091B04DFC012005B0BDE8F083E36B012BA4D07C
S315080091C04FF40F711548FBF739FF9EE7236C002B08
S315080091D099D040F23B211148FBF730FF93E7FDF7A2
S315080091E035FC284605B0BDE8F0832046FFF7DCFECF
S315080091F0FCF7BAFF002005B0BDE8F08304F12400AF
S31508009200FDF7D0F80128D2D1FDF7EAFBCFE740F207
S315080092103A210248FBF712FF72E700BFD0E90108BE
S315080092202DE9F0410D4690461E460446002846D0D4
S3150800923065B3022E0FD0FDF7B5FCFDF7DDFBA26B7B
S31508009240E36B07469A420FD300253846FDF7FAFB2B
S315080092502846BDE8F081E36B012B36D1FDF7A2FC69
S31508009260FDF7CAFB0746A36B324629462046FFF799
S315080092704FFEA36C013312D00125A36C38462B444C
S31508009280A364FDF7DFFB2846BDE8F081236C002BBD
S31508009290CFD040F2AD311348FBF7D0FEC9E7636A79
S315080092A00125002BD1D004F12400FDF77BF8002816
S315080092B0CBD0B8F1000FC8D0C8F80050C5E74FF4B6
S315080092C06B710848FBF7BAFEB2E740F2AE310548C3
S315080092D0FBF7B4FEFDF766FCFDF78EFBA36B0746AE
S315080092E0C2E700BFD0E901082DE9F04184B00F4676
S315080092F0019298460446002800F09480002F7ED0FC
S31508009300FDF792FBA56B002D46D1019B002B67D07C
S3150800931002A8FDF78BF804F1240616E0FDF796FB84
S315080093202368002B54D001993046FCF7EDFF204600
S31508009330FFF73AFEFCF718FF002846D0FDF774FB46
S31508009340A36B4BBB019B002B4AD0FDF77FFBFCF7B9
S3150800935043FEFDF769FB636C013308BF6564A36CC4
S31508009360013308BFA564FDF771FB01A902A8FDF743
S3150800937073F800283AD1FDF757FBA36B002BCDD025
S31508009380FDF764FB2046FFF70FFEFCF7EDFEFDF741
S315080093904BFBA36B002BD5D039462046E568FFF773
S315080093A0F1FDB8F1000F34D1A36B2268013BA3632A
S315080093B0002A44D023697BB304F11000FCF7F2FFBE
S315080093C0012829D1FDF70CFB26E0FDF709FBB5E7D7
S315080093D0FDF72AFB6068FDF7B5F8FDF737FBA2E74E
S315080093E0FDF734FB002004B0BDE8F0812046FFF706
S315080093F0DBFDFCF7B9FE002004B0BDE8F081236C64
S31508009400002B3FF47DAF40F21E410F48FBF716FED6
S3150800941076E7636AE5605BB9FDF718FB012004B0DF
S31508009420BDE8F08140F21D410748FBF707FE65E7F6
S3150800943004F12400FCF7B6FF0028EDD0C2E7FDF7DB
S315080094406DF86060B6E700BFD0E90108F8B50D46CB
S315080094501746044648B3FDB1FDF7A4FBFDF7CCFA61
S315080094600646A06B28B905463046FDF7EBFA2846AE
S31508009470F8BD29462046FFF785FDA36B013BA3638C
S31508009480636C013317D00125636C30462B44636443
S31508009490FDF7D8FA2846F8BD236C002BDCD04FF42C
S315080094A097610E48FBF7CAFDD6E740F2B7410B486D
S315080094B0FBF7C4FDCFE723692BB901253046FDF735
S315080094C0C1FA2846F8BD04F11000FCF76BFF002826
S315080094D0F3D0002FF1D001253D60C5E7D0E901089A
S315080094E010B5044608B1A06B10BD40F253510248AE
S315080094F0FBF7A4FDA06B10BDD0E9010838B50446FA
