S02800002E2E2F48414E636F6465725F453430375F5454415F54656D706C6174655F44532E7372656375
S31508004000D4D20020BD140208000000000000000001
S315080040100000000000000000000000000000000092
S3150800402000000000000000000000000085E2010812
S31508004030000000000000000021E3010871E3010808
S315080040400000000000000000000000000000000062
S315080040500000000000000000000000000000000052
S315080040600000000089F001080000000000000000C0
S315080040700000000000000000000000000000000032
S31508004080000000000000000000000000ADD6010896
S3150800409065D6010889D60108D1D6010800000000B6
S315080040A075F0010861F001084DF001083DF00108BE
S315080040B029F0010815F0010801F0010800000000C8
S315080040C000000000000000000000000000000000E2
S315080040D0000000008DFA0108A5FA0108BDFA0108DA
S315080040E0000000000000000085FB01080000000039
S315080040F0EDEF0108D9EF0108C9EF0108000000003B
S3150800410000000000EDFA01080000000000000000B1
S315080041100000000000000000000000000000000091
S31508004120000000000000000000000000F1FA01088D
S3150800413000000000B9F00108000000003DD70108A2
S31508004140F5D6010819D7010861D70108B5FB01089A
S31508004150000000000000000000000000D5FA010879
S315080041600000000000000000000000000000000041
S315080041700000000000000000000000000000000031
S311080041800000000000000000EE11AA5527
S3150800C0000000000000005A400000000000007540D3
S3150800C0100000000000A074400000000000005B4023
S3150800C0200000000000406A4000000000000059407F
S3150800C0300000000000A073400000000000C06A4035
S3150800C0400000000000E0734000000000002074407B
S3150800C05000000000006074400000000000005A4024
S3150800C0600000000000A07A400000000000A0744014
S3150800C07000000000004075400000000000E0744029
S3150800C0800000000000005B400000000000C06A409D
S3150800C09000000000000059400000000000E0734066
S3150800C0A00000000000406B400000000000207440C3
S3150800C0B00000000000805C400000000000607A403C
S3150800C0C00000000000005A40000000000080744094
S3150800C0D00000000000407B400000000000C07A40DD
S3150800C0E00000000000007B400000000000807B404C
S3150800C0F00000000000C07B400000000000007C40FB
S3150800C1000000000000407C400000000000005B408A
S3150800C1100000000000005C400000000000005940DC
S3150800C1200000000000806A400000000000006B402C
S3150800C1300000000000806B40000000000000744012
S3150800C14000000000004074400000000000000040AD
S3150800C15000000000000000000000000001000000D0
S3150800C16001000000010000000000000001000000BE
S3150800C1700100000000000000200000002000000070
S3150800C1802000000020000000000000001F00000042
S3150800C1901F0000001F0000001F0000000000000034
S3150800C1A0000001000100000001000000000000007E
S3150800C1B0010000000100000000000000000000006F
S3150800C1C00000000000000000000001000000000060
S3150800C1D00D0000000D0000000D0000000D0000001D
S3150800C1E000000000000000000C0000000C00000029
S3150800C1F00C0000000C000000000000000000000019
S3150800C2000B0000000B0000000B0000000B000000F4
S3150800C210000000000100000001000000000000000E
S3150800C22001000000010000000000000000000000FE
S3150800C23000000000000036400000000000004640F4
S3150800C24000000000000037400000000000004740E2
S3150800C25000000000000038400000000000004840D0
S3150800C26000000000008050400000000000405140DF
S3150800C27000000000000052400000000000003640A8
S3150800C28000000000000046400000000000003740A3
S3150800C2900000000000004740000000000000384091
S3150800C2A000000000000048400000000000805040E8
S3150800C2B0000000000040514000000000000052400D
S3150800C2C000000000000000000000000000005940C7
S3150800C2D00000000000005A400000000000805A409C
S3150800C2E00000000000005B400000000000805B408A
S3150800C2F00000000000005C400000000000806A406A
S3150800C3000000000000006B400000000000806B4049
S3150800C3100000000000007440000000000020744087
S3150800C32000000000004074400000000000807440D7
S3150800C3300000000000C07A400000000000007B40BA
S3150800C3400000000000407B400000000000807B40A9
S3150800C3500000000000C07B400000000000007C4098
S3150800C3600000000000000000000000000000F03F90
S3150800C370000000000000F03F000000000000F03F51
S3150800C380000000000000F03F000000000000F03F41
S3150800C3900000000000000000000000000000F03F60
S3150800C3A0000000000000F03F000000000000000050
S3150800C3B0000000000000F03F000000000000F03F11
S3150800C3C0000000000000F03F000000000000000030
S3150800C3D0000000000000F03F000000000000F03FF1
S3150800C3E0000000000000F03F000000000000F03FE1
S3150800C3F0000000000000F03F000000000000F03FD1
S3150800C4000000000000000000000000000000594085
S3150800C4100000000000005A400000000000805A405A
S3150800C4200000000000805B400000000000406A40F9
S3150800C4300000000000C06A400000000000A0734031
S3150800C4400000000000E07340000000000020744077
S3150800C4500000000000607440000000000080744086
S3150800C4600000000000C0744000000000000000004A
S3150800C470000000000000F03F000000000000F03F50
S3150800C480000000000000F03F00000000000000006F
S3150800C490000000000000F03F00000000000000005F
S3150800C4A0000000000000F03F000000000000F03F20
S3150800C4B0000000000000F03F000000000000F03F10
S3150800C4C0000000000000F03F000000000000F03F00
S3150800C4D000000000000000000000000000005940B5
S3150800C4E00000000000005A400000000000805A408A
S3150800C4F00000000000805B400000000000805C40F7
S3150800C5000000000000C06A400000000000406B40C8
S3150800C5100000000000E073400000000000207440A6
S3150800C5200000000000607A400000000000607440CF
S3150800C5300000000000A074400000000000C0744025
S3150800C5400000000000007540000000000000000028
S3150800C550000000000000F03F000000000000F03F6F
S3150800C560000000000000F03F000000000000F03F5F
S3150800C5700000000000000000000000000000F03F7E
S3150800C5800000000000000000000000000000F03F6E
S3150800C5900000000000000000000000000000F03F5E
S3150800C5A0000000000000F03F000000000000F03F1F
S3150800C5B0000000000000F03F000000000000F03F0F
S3150800C5C00000010101000100010100000001000155
S3150800C5D06464640048414E636F6465725F45343035
S3150800C5E0375F5454415F54656D706C6174655F4480
S3150800C5F0535F736F66747761726549445F76315F1E
S3150800C6003330303532335F3230313833330000005F
S3150800C6104170704374726C5461736B0048414E6389
S3150800C6206F6465725F453430375F5454415F5465B3
S3150800C6306D706C6174655F44532E630020000000C2
S3150800C64000140240080009002000000000140240FF
S3150800C65010000E00200000000014024020000F0009
S3150800C66020000000001402404000040020000000E2
S3150800C670001402408000050020000000001402405B
S3150800C6800001060020000000001402400002070016
S3150800C6902000000000140240000408000400000006
S3150800C6A00008024001000A000400000000080240D9
S3150800C6B004000C00414443636F6E76657273696FBC
S3150800C6C06E5461736B0000002E2E2F626C6F636BC5
S3150800C6D07365742F7274772F53544D33322F7372D8
S3150800C6E0632F686561705F342E630000546D724372
S3150800C6F070754C6F6164000049444C4500000000A9
S3150800C7002E2E2F626C6F636B7365742F7274772F7E
S3150800C71053544D33322F7372632F7461736B732EB8
S3150800C720630000002E2E2F626C6F636B7365742F87
S3150800C7307274772F53544D33322F7372632F746983
S3150800C7406D6572732E630000546D72205376630014
S3150800C75043616E4576656E745461736B0000000024
S3150800C76043616E5472616E736D69745461736B00C4
S3150800C7702E2E2F626C6F636B7365742F7274772F0E
S3150800C78053544D33322F7372632F53544D33325FE4
S3150800C790453430372F63616E2E6300000064004015
S3150800C7A00000000208000000000C02400100000022
S3150800C7B008000000000C02400200010009131415CD
S3150800C7C01600000000680040000000040200000097
S3150800C7D00004024020000500020000000004024098
S3150800C7E040000600093F40414200000001010201E5
S3150800C7F00202020202030202040202030303040302
S3150800C80003050303060303050404060404070404D6
S3150800C81008040407050508050508060508070508A8
S3150800C8200706080806080807080808004576436842
S3150800C8306E6C3100457643686E6C32004576436807
S3150800C8406E6C33002E2E2F626C6F636B7365742FBC
S3150800C8507274772F53544D33322F7372632F535498
S3150800C8604D33325F453430372F6D61632E630000D8
S3150800C8702E2E2F626C6F636B7365742F7274772F0D
S3150800C88053544D33322F7372632F53544D33325FE3
S3150800C890453430372F706F72742E630000000140E4
S3150800C8A00100000002010000100000000010024014
S3150800C8B000020900100000000010024000080B00EA
S3150800C8C00004004002000000010200000100000010
S3150800C8D0000002404000060002000000000402407A
S3150800C8E020000500000800400400000001020000C6
S3150800C8F008000000000C024000100C0008000000B0
S3150800C900000C024000200D00000401400200000057
S3150800C9100203000004000000000802404000060070
S3150800C92004000000000802408000070000000140E3
S3150800C930010000000201190000000040010000008B
S3150800C94001021C00000400400200000001021D0054
S3150800C950000800400400000001021E000004014017
S3150800C9600200000002012C00004001400000010006
S3150800C97002011800004401400000020002011900EB
S3150800C980004801400000040002011A00001C004093
S3150800C9908000000001022C00002000400001000079
S3150800C9A001022D00040000000008024001000000FA
S3150800C9B02000000000140240400000002000000093
S3150800C9C0001402408000000020000000001402400D
S3150800C9D000010000200000000014024000020000D0
S3150800C9E020000000001402400004000002000000BD
S3150800C9F0000402408000000002000000000402401B
S3150800CA004000000010000000001002400400000072
S3150800CA101000000000100240100000001000000086
S3150800CA200010024020000000100000000010024024
S3150800CA30400000004000000000180240800000008E
S3150800CA4040000000001802400001000040000000FD
S3150800CA5000180240001000004000000000180240C4
S3150800CA6000800000010000000000024010000000E5
S3150800CA70020000000004024020000000010000003F
S3150800CA8000000240400000000100000000000240D3
S3150800CA902000000008000000000C02400100000011
S3150800CAA008000000000C0240020000000800000018
S3150800CAB0000C02400400000008000000000C0240C0
S3150800CAC00800000008000000000C024010000000EA
S3150800CAD008000000000C02402000000008000000CA
S3150800CAE0000C02404000000008000000000C024054
S3150800CAF08000000008000000000C02400001000051
S3150800CB0008000000000C02400002000008000000B7
S3150800CB10000C02400004000008000000000C02405F
S3150800CB200008000008000000000C02400010000089
S3150800CB3008000000000C0240002000000800000069
S3150800CB40000C02400040000008000000000C0240F3
S3150800CB5000800000100000000010024001000000E4
S3150800CB601000000000100240020000001000000043
S3150800CB7000100240080000001000000000100240EB
S3150800CB8080000000100000000010024000010000B4
S3150800CB901000000000100240000200001000000013
S3150800CBA000100240000400001000000000100240BF
S3150800CBB000080000100000000010024000100000ED
S3150800CBC010000000001002400020000010000000C5
S3150800CBD00010024000400000100000000010024053
S3150800CBE00080000020000000001402400100000040
S3150800CBF0200000000014024002000000200000008F
S3150800CC000014024004000000200000000014024046
S3150800CC100800000020000000001402401000000078
S3150800CC202000000000140240200000002000000040
S3150800CC300014024000080000200000000014024012
S3150800CC400010000020000000001402400020000030
S3150800CC5020000000001402400040000020000000F0
S3150800CC600014024000800000400000000018024046
S3150800CC700100000040000000001802400200000009
S3150800CC8040000000001802400400000040000000B8
S3150800CC90001802400800000040000000001802408A
S3150800CCA010000000400000000018024020000000AC
S3150800CCB0400000000018024040000000400000004C
S3150800CCC00018024000020000400000000018024060
S3150800CCD000040000400000000018024000080000A0
S3150800CCE0400000000018024000200000400000003C
S3150800CCF00018024000400000010000000000024049
S3150800CD0001000000040000000008024001000000C5
S3150800CD10200000000014024040000000200000002F
S3150800CD2000140240800000002000000000140240A9
S3150800CD30000100002000000000140240000200006C
S3150800CD402000000000140240000400000200000059
S3150800CD5000040240800000000200000000040240B7
S3150800CD60400000001000000000100240040000000F
S3150800CD701000000000100240100000001000000023
S3150800CD8000100240200000001000000000100240C1
S3150800CD90400000004000000000180240800000002B
S3150800CDA0400000000018024000010000400000009A
S3150800CDB00018024000100000400000000018024061
S3150800CDC00080000001000000000002401000000082
S3150800CDD002000000000402402000000001000000DC
S3150800CDE00000024040000000010000000000024070
S3150800CDF02000000008000000000C024001000000AE
S3150800CE0008000000000C02400200000008000000B4
S3150800CE10000C02400400000008000000000C02405C
S3150800CE200800000008000000000C02401000000086
S3150800CE3008000000000C0240200000000800000066
S3150800CE40000C02404000000008000000000C0240F0
S3150800CE508000000008000000000C024000010000ED
S3150800CE6008000000000C0240000200000800000054
S3150800CE70000C02400004000008000000000C0240FC
S3150800CE800008000008000000000C02400010000026
S3150800CE9008000000000C0240002000000800000006
S3150800CEA0000C02400040000008000000000C024090
S3150800CEB00080000010000000001002400100000081
S3150800CEC010000000001002400200000010000000E0
S3150800CED00010024008000000100000000010024088
S3150800CEE08000000010000000001002400001000051
S3150800CEF010000000001002400002000010000000B0
S3150800CF00001002400004000010000000001002405B
S3150800CF100008000010000000001002400010000089
S3150800CF201000000000100240002000001000000061
S3150800CF3000100240004000001000000000100240EF
S3150800CF4000800000200000000014024001000000DC
S3150800CF50200000000014024002000000200000002B
S3150800CF6000140240040000002000000000140240E3
S3150800CF700800000020000000001402401000000015
S3150800CF8020000000001402402000000020000000DD
S3150800CF9000140240000800002000000000140240AF
S3150800CFA000100000200000000014024000200000CD
S3150800CFB0200000000014024000400000200000008D
S3150800CFC000140240008000004000000000180240E3
S3150800CFD001000000400000000018024002000000A6
S3150800CFE04000000000180240040000004000000055
S3150800CFF00018024008000000400000000018024027
S3150800D0001000000040000000001802402000000048
S3150800D01040000000001802404000000040000000E8
S3150800D02000180240000200004000000000180240FC
S3150800D030000400004000000000180240000800003C
S3150800D04040000000001802400020000040000000D8
S3150800D05000180240004000000400000000080240DA
S3150800D06000200000000001400100000002011B0032
S3150800D070000000400100000001021C0000040040FE
S3150800D0800200000001021D00000800400400000024
S3150800D09001021E00000401400200000002012E00E9
S3150800D0A00040014000000100020118000044014050
S3150800D0B000000200020119000048014000000400B7
S3150800D0C002011A00001C00408000000001022C002A
S3150800D0D0002000400001000001022D0010000000A1
S3150800D0E000100240000200000200020001000900D0
S3150800D0F01000000000100240000800010400200093
S3150800D10001000B0010000000001002400020000281
S3150800D1100800000201000D00100000000010024087
S3150800D120004000031000002001000E00010000006E
S3150800D1300000024020000100020002000100050074
S3150800D1400100000000000240400002000200020048
S3150800D150020006000200000000040240200002014E
S3150800D160040020000200050008000000000C024030
S3150800D170001003000200020002000C000800000074
S3150800D180000C0240002003010400200002000D00EC
S3150800D19004000000000802404000040002000200EB
S3150800D1A00300060004000000000802408000040195
S3150800D1B004002000030007001000000000100240D1
S3150800D1C02000050002000200030005001000000010
S3150800D1D0001002404000050104002000030006007C
S3150800D1E02000000000140240400006000200020071
S3150800D1F0030006002000000000140240800007001B
S3150800D200020002000300070020000000001402408C
S3150800D21000010800020002000900080020000000C2
S3150800D2200014024000020900020002000900090079
S3150800D2300010014010000000022500000200000056
S3150800D24000040240400006000200000000040240FC
S3150800D25080000700070000000044004000000200AC
S3150800D2600126000008000000000C0240200005000E
S3150800D27008000000000C02404000060007000000FD
S3150800D28000480040000004000127000008000000D4
S3150800D290000C02400001080008000000000C0240D3
S3150800D2A000020900070000000014014020000000E9
S3150800D2B00247000004000000000802404000060083
S3150800D2C00400000000080240800007000800000073
S3150800D2D056435020436F6E666967000056435020D8
S3150800D2E0496E7465726661636500000053544D6942
S3150800D2F063726F656C656374726F6E696373000041
S3150800D30053544D3332205669727475616C20436FDD
S3150800D3106D506F727420696E204853206D6F646576
S3150800D3200000000053544D333220566972747561FB
S3150800D3306C20436F6D506F727420696E20465320BF
S3150800D3404D6F6465000000003030303030303030CA
S3150800D3503035304200000000303030303030303068
S3150800D3603035304300000000000001400100000095
S3150800D37002011B00000000400100000001021C0021
S3150800D380000400400200000001021D0000080040E1
S3150800D3900400000001021E00000401400200000013
S3150800D3A002012E00004001400000010002011800A1
S3150800D3B00044014000000200020119000048014033
S3150800D3C00000040002011A00001C00408000000052
S3150800D3D001022C00002000400001000001022D007F
S3150800D3E010000000001002400002000002000200C7
S3150800D3F001000900100000000010024000080001AA
S3150800D4000400200001000B0010000000001002407C
S3150800D410002000020800000201000D0010000000B4
S3150800D42000100240004000031000002001000E001A
S3150800D4300100000000000240200001000200020076
S3150800D4400100050001000000000002404000020043
S3150800D450020002000200060002000000000402406A
S3150800D4602000020104002000020005000800000058
S3150800D470000C0240001003000200020002000C002B
S3150800D48008000000000C02400020030104002000F0
S3150800D49002000D00040000000008024040000400DD
S3150800D4A00200020003000600040000000008024013
S3150800D4B0800004010400200003000700100000009B
S3150800D4C000100240200005000200020003000500CB
S3150800D4D01000000000100240400005010400200072
S3150800D4E00300060020000000001402404000060069
S3150800D4F0020002000300060020000000001402409B
S3150800D5008000070002000200030007002000000058
S3150800D5100014024000010800020002000900080089
S3150800D5202000000000140240000209000200020068
S3150800D530090009002E2E2F626C6F636B7365742FBA
S3150800D5407274772F53544D33322F7372632F71755C
S3150800D5506575652E63000000040404006CD5000898
S3150800D56074D500087CD50008070707004576436888
S3150800D5706E6C3100457643686E6C320045764368BA
S3150800D5806E6C330050505000000000000000000090
S30D0800D590000000000000008005
S315080100000B78FF2B00D070474B78002BFBD10BF0F8
S31508010010B9BC00BF08B501200AF0F8FEBDE80840E2
S31508010020024A40F2676100200DF002BD0100010895
S315080100300AF0F8BD704700BFF8B504460D469DF8AD
S315080100401800002A35D0264E184613F071FED6E957
S31508010050002313F0E7FE22462B4613F02DFD214B14
S31508010060002213F029FD089B04460D4618881E4FE9
S3150801007013F05EFE02460B462046294613F01AFD8A
S31508010080002632463B4604460D4614F05BF918B184
S31508010090079BC3E90067F8BD144F00263B46204677
S315080100A02946324614F030F9079BA8B1C3E900671F
S315080100B0F8BD0F4E13F03CFED6E9002313F0B2FE4D
S315080100C022462B4613F0F8FC064B002213F0F4FCEB
S315080100D0099B04460D46C9E7C3E90045F8BD00BFBB
S315080100E0080000200000084000002E4000002EC035
S315080100F0100000202DE9F047DDF820A00F461E4626
S3150801010004462D4BDAE900019046002213F0D4FC8F
S31508010110DDE909590123CAE900013B70D9F8001044
S315080101201944264B1960C9F80010366807EE106A9B
S31508010130B8EE477AF7EE007AB4EE677AF1EE10FA7E
S3150801014003D11D4B0022C8E900232778DFF8788000
S31508010150384613F0EDFD1A4BC8E900011E602F71F0
S315080101602E60E2796A7194F8019085F8069094F800
S31508010170028085F8078094F803E085F808E094F88A
S3150801018004C085F809C031466679AE720D4BA0796F
S31508010190E8729871DA711F7083F8019083F802800A
S315080101A083F803E083F804C05E710822BDE8F047CE
S315080101B000200DF0C9B900BF0000F03F4807002034
S315080101C0500700205C0800205807002008B50121C7
S315080101D000200DF0BDFB0B2100200DF0B9FB0C2111
S315080101E000200DF0B5FB0D2100200DF0B1FB162105
S315080101F000200DF0ADFB2C2100200DF0A9FB4221BA
S3150801020000200DF0A5FB172100200DF0A1FB2E21E2
S3150801021000200DF09DFB452100200DF099FB1821CA
S3150801022000200DF095FB302100200DF091FB4821AF
S3150801023000200DF08DFB1F2100200DF089FBBDE884
S315080102400840202100200DF083BB00BF2DE9F04FA7
S315080102502DED108B9FB0CDE914233E9DC84A2B681E
S31508010260DFF824A3399E1390013313602B60389B62
S315080102701F68CAF8007007EE107AF8EE478AF7EE9B
S31508010280007AF4EE678AF1EE10FADDE93C488B460E
S3150801029000F0C284EB79B0EE689A002B40F0DA815F
S315080102A0F2EE067AB4EE679AF1EE10FA00F0DD8105
S315080102B0AB79F0EE499A002B40F09381F2EE087A79
S315080102C0F4EE679AF1EE10FA00F096816B79B0EECA
S315080102D069AA002B40F05A81F2EE0A7AB4EE67AAAF
S315080102E0F1EE10FA00F05D812B79002B40F0448184
S315080102F0384613F01DFD98ED007B02460B46CDE905
S315080103001023B0EE47CAF0EE67CA53EC172B13F069
S31508010310F1FF002840F00F83AB7C002B40F02481CD
S315080103209DED107B8DED027B98ED027BDDE90223C5
S31508010330B0EE47DAF0EE67DA51EC170B13F0DAFF95
S31508010340002840F08B826B7C002B00F04C829DEDDF
S31508010350027B8DED047B002363736B7498ED0C7B34
S31508010360DDE90423B0EE47EAF0EE67EA51EC170B34
S3150801037013F0C0FF002840F06783AB7A002B00F02A
S3150801038017829DED047B8DED067B0023A371AB726D
S3150801039098ED047BDDE90623B0EE47FAF0EE67FA3D
S315080103A051EC170B13F0A6FF002840F06B842B7C49
S315080103B0002B00F0F8819DED067B8DED087B00236F
S315080103C023732B7498ED067BDDE9082351EC170B93
S315080103D08DED167B13F08EFF002840F009826B7BAA
S315080103E0002B00F0FB819DED087B8DED0A7B002338
S315080103F063726B7398ED0E7BDDE90A2351EC170BDB
S315080104008DED187B13F076FF002840F0BF836B7AD9
S31508010410002B00F0DE819DED0A7B8DED0E7B00231E
S3150801042063716B7298ED087BDDE90E2351EC170BAE
S315080104308DED1A7B13F05EFF002840F071832B7B4C
S31508010440002B00F0C1819DED0E7B8DED0C7B002309
S3150801045023722B7398ED0A7BDDE90C2351EC170BFC
S315080104608DED1C7B13F046FF002840F02383EB7AC1
S31508010470002B00F0A2819DED0C7B0023E371EB724A
S31508010480B0EE47BAF0EE67BAD8E9108953EC1B2BE0
S315080104904046494613F02EFF002840F0AD822B7ADC
S315080104A013B1002323712B7207EE907AB8EE678A8F
S315080104B0F3EE0F7AB4EE678AF1EE10FA00F0718264
S315080104C0EB7BF0EE487A13B10023E372EB739FEDF1
S315080104D02D7AF4EE477AF1EE10FA00F00582AB7B3D
S315080104E013B10023A372AB73F7EE007AF4EE678AB1
S315080104F0F1EE10FA40F03D8194F9033094F82700A3
S3150801050094F828E094F829C094F82A7094F82B50A6
S3150801051094F82C1094F82D2094F82E4096F8008023
S3150801052007EE908AF8EEE77AB7EE008AF4EE487A93
S31508010530F1EE10FA40F0CE808BB9022232703A9A67
S3150801054001231370337807EE903AF8EEE77AB0EEA6
S31508010550007AF4EE477AF1EE10FA40F0FB801FB00C
S31508010560BDEC108BBDE8F08F9DED107B0023A373C6
S315080105708DED027BAB74D7E6002323702B71B7E6AA
S31508010580D806002000000042E0060020F2EE0A7AB2
S31508010590B4EE67AA0023F1EE10FA63706B717FF46B
S315080105A0A3AEC94F00220123009210462B710D21DB
S315080105B03B460DF0F9F9002820700FDD7B7823748E
S315080105C0BB786374FB78A3743B79E3747B792375F1
S315080105D0BB796375FB79A3753B78E373DAF8007029
S315080105E086E6F2EE087AF4EE679A0023F1EE10FA3F
S315080105F0A370AB717FF46AAEDFF8DC9200220123A7
S31508010600009210466B710C214B460DF0CDF96070C6
S31508010610DAF8007007EE907A0028B8EE67AA7FF735
S315080106205BAE99F80130237699F80230637699F82A
S315080106300330A37699F80430E37699F805302377E1
S3150801064099F80630637799F80730A37799F8003057
S31508010650E37541E6F2EE067AB4EE679A0023F1EE07
S3150801066010FAE370EB717FF423AEDFF87092002283
S31508010670012300921046AB710B214B460DF094F9FC
S31508010680A070DAF8007007EE907A0028F8EE679AFB
S315080106907FF714AE99F8013084F8203099F80230C2
S315080106A084F8213099F8033084F8223099F8043017
S315080106B084F8233099F8053084F8243099F80630FF
S315080106C084F8253099F8073084F8263099F80030EF
S315080106D0E377F3E5B0EE007AF4EE477AF1EE10FA35
S315080106E038D1002B7FF73BAF8BF806203A9A8BF867
S315080106F001E001238BF807408BF800008BF802C054
S315080107008BF803708BF804508BF805101370159A43
S315080107106E4C137003233370139B6D4A1B88138029
S31508010720149A138013F004FB389BD3ED007AF8EE84
S31508010730677AC4E90001F4EE487AF1EE10FA04D1B9
S31508010740644B3B990022C1E90023337807EE903ABE
S31508010750F8EEE77AF5EE407AF1EE10FA7FF4FFAE9D
S315080107603A9A0123337013701FB0BDEC108BBDE8A4
S31508010770F08FF2EE067AB4EE679AF1EE10FA40F0CF
S31508010780B88294F90230E07F94F820E094F821C009
S3150801079094F8227094F8235094F8241094F825209C
S315080107A094F82640BAE69DED067B8DED087B09E6B1
S315080107B09DED047B8DED067BEAE59DED0C7BB0EEA8
S315080107C047BAF0EE67BA5FE69DED0E7B8DED0C7BC1
S315080107D040E69DED0A7B8DED0E7B23E69DED087BBC
S315080107E08DED0A7B06E69DED027B8DED047BB5E575
S315080107F0DFF8EC9000220123009210466B732E213C
S315080108004B460DF0D1F80028DAF8007060721FDD4A
S3150801081099F8013084F8583099F8023084F859303B
S3150801082099F8033084F85A3099F8043084F85B3023
S3150801083099F8053084F85C3099F8063084F85D300B
S3150801084099F8073084F85E3099F8003084F8573003
S31508010850384613F06DFACDE90A01CBE5DFF8849045
S3150801086000220123009210466B742C214B460DF091
S315080108709BF80028DAF8007060731FDD99F80130DB
S3150801088084F8783099F8023084F8793099F8033089
S3150801089084F87A3099F8043084F87B3099F8053071
S315080108A084F87C3099F8063084F87D3099F8073059
S315080108B084F87E3099F8003084F87730384613F09A
S315080108C037FACDE9040149E57C070020F80600203E
S315080108D0EE0600200000F03F740700206C07002098
S315080108E0BC070020B4070020C34F00220123009251
S315080108F01046AB7320213B460DF056F80028A0722E
S315080109007FF7F2AD7B7884F86030BB7884F8613084
S31508010910FB7884F862303B7984F863307B7984F814
S315080109206430BB7984F86530FB7984F866303B78A6
S3150801093084F85F30D8E5DFF8CC92002201230092D3
S315080109401046AB7416214B460DF02EF80028DAF83E
S315080109500070A0731FDD99F8013084F8803099F88A
S31508010960023084F8813099F8033084F8823099F896
S31508010970043084F8833099F8053084F8843099F87E
S31508010980063084F8853099F8073084F8863099F866
S31508010990003084F87F30384613F0CAF9CDE90201F0
S315080109A0C2E4964F0022012300921046EB731F21E1
S315080109B03B460CF0F9FFDAED007AE0720028F8EE12
S315080109C0677A7FF784AD7B7884F86830BB7884F8DA
S315080109D06930FB7884F86A303B7984F86B307B7927
S315080109E084F86C30BB7984F86D30FB7984F86E3005
S315080109F03B7884F867306AE5814F0022012300922B
S31508010A0010462B7248213B460CF0CEFF0028207178
S31508010A1017DD7B7884F83030BB7884F83130FB7881
S31508010A2084F832303B7984F833307B7984F8343072
S31508010A30BB7984F83530FB7984F836303B7884F80D
S31508010A402F30DAF800702FE5DFF8BC910022012378
S31508010A5000921046AB7242214B460CF0A5FF0028C6
S31508010A60DAF80070A0711FDD99F8013084F840307A
S31508010A7099F8023084F8413099F8033084F8423005
S31508010A8099F8043084F8433099F8053084F84430ED
S31508010A9099F8063084F8453099F8073084F84630D5
S31508010AA099F8003084F83F30384613F041F9CDE91A
S31508010AB006016DE4DFF854910022012300921046E5
S31508010AC0EB7230214B460CF06FFF0028DAF8007004
S31508010AD0E0711FDD99F8013084F8483099F8023041
S31508010AE084F8493099F8033084F84A3099F8043083
S31508010AF084F84B3099F8053084F84C3099F806306B
S31508010B0084F84D3099F8073084F84E3099F800305A
S31508010B1084F84730384613F00BF941EC1B0BB3E464
S31508010B20DFF8EC9000220123009210462B7318215E
S31508010B304B460CF039FF0028DAF8007020721FDDE9
S31508010B4099F8013084F8503099F8023084F8513018
S31508010B5099F8033084F8523099F8043084F8533000
S31508010B6099F8053084F8543099F8063084F85530E8
S31508010B7099F8073084F8563099F8003084F84F30E0
S31508010B80384613F0D5F8CDE90C0163E4DFF8849013
S31508010B9000220123009210466B7245214B460CF048
S31508010BA003FF0028DAF8007060711FDD99F801303B
S31508010BB084F8383099F8023084F8393099F80330D6
S31508010BC084F83A3099F8043084F83B3099F80530BE
S31508010BD084F83C3099F8063084F83D3099F80730A6
S31508010BE084F83E3099F8003084F83730384613F0E7
S31508010BF09FF8CDE90E0115E4AC070020A4070020F3
S31508010C00DC0700208C070020CC070020C407002041
S31508010C109C070020D4070020DFF8709300220121E9
S31508010C2000924B46E97110460CF0BEFEE070DAF808
S31508010C30007007EE907A0028B8EE679A7FF730AB16
S31508010C4099F8013084F8283099F8023084F8293067
S31508010C5099F8033084F82A3099F8043084F82B304F
S31508010C6099F8053084F82C3099F8063084F82D3037
S31508010C7099F8073084F82E3099F8003084F827302F
S31508010C80FFF70EBBDFF808930022012300921046F6
S31508010C902B7417214B460CF087FE0028DAF80070F2
S31508010CA020731FDD99F8013084F8703099F8023005
S31508010CB084F8713099F8033084F8723099F8043061
S31508010CC084F8733099F8053084F8743099F8063049
S31508010CD084F8753099F8073084F8763099F8003039
S31508010CE084F86F30384613F023F8CDE90801FFF789
S31508010CF069BBF2EE087AF4EE679AF1EE10FA14D0AF
S31508010D00F2EE0A7AB4EE67AAF1EE10FA1BD194F95B
S31508010D100030E07B94F810E094F811C0A77CE57CDC
S31508010D20217D627DA47DFFF7F9BB94F90130E07D51
S31508010D3094F818E094F819C0A77EE57E217F627FB2
S31508010D40A47FFFF7EBBBDDE9100153EC1C2B13F075
S31508010D50D1FAD0B9DDE9022351EC1D0B13F0CAFA19
S31508010D6038B394F90D3094F8770094F878E094F84C
S31508010D7079C094F87A7094F87B5094F87C1094F8BA
S31508010D807D2094F87E40FFF7C9BB94F90E3094F89C
S31508010D907F0094F880E094F881C094F8827094F802
S31508010DA0835094F8841094F8852094F88640FFF7C8
S31508010DB0B5BBDDE9042351EC1E0B13F09BFA98B180
S31508010DC094F9063094F83F0094F840E094F841C04D
S31508010DD094F8427094F8435094F8441094F84520D6
S31508010DE094F84640FFF79ABBDDE9062351EC1F0B41
S31508010DF013F080FA98B194F90C3094F86F0094F8CE
S31508010E0070E094F871C094F8727094F8735094F87D
S31508010E10741094F8752094F87640FFF77FBBDDE9E6
S31508010E200823DDE9160113F065FA98B194F909303A
S31508010E3094F8570094F858E094F859C094F85A7001
S31508010E4094F85B5094F85C1094F85D2094F85E4031
S31508010E50FFF764BBDDE90A23DDE9180113F04AFA55
S31508010E6098B194F9053094F8370094F838E094F875
S31508010E7039C094F83A7094F83B5094F83C1094F8B9
S31508010E803D2094F83E40FFF749BBDDE90E23DDE935
S31508010E901A0113F02FFA98B194F9083094F84F0013
S31508010EA094F850E094F851C094F8527094F853505D
S31508010EB094F8541094F8552094F85640FFF72EBB31
S31508010EC0DDE90C23DDE91C0113F014FA98B194F954
S31508010ED0073094F8470094F848E094F849C094F824
S31508010EE04A7094F84B5094F84C1094F84D2094F8A5
S31508010EF04E40FFF713BB53EC1B2B4046494613F0F4
S31508010F00F9F998B194F9043094F82F0094F830E07F
S31508010F1094F831C094F8327094F8335094F8341038
S31508010F2094F8352094F83640FFF7F8BAF3EE0F7ABD
S31508010F30B4EE678AF1EE10FA13D194F90B3094F8EE
S31508010F40670094F868E094F869C094F86A7094F8B0
S31508010F506B5094F86C1094F86D2094F86E40FFF776
S31508010F60DDBA94F90A3094F85F0094F860E094F8D1
S31508010F7061C094F8627094F8635094F8641094F818
S31508010F80652094F86640FFF7C9BA00BF84070020B8
S31508010F9094070020012108B508460CF0D9FC0B215D
S31508010FA001200CF0D5FC0C2101200CF0D1FC0D21FF
S31508010FB001200CF0CDFC162101200CF0C9FC2C21D6
S31508010FC001200CF0C5FC422101200CF0C1FC1721BF
S31508010FD001200CF0BDFC2E2101200CF0B9FC4521A5
S31508010FE001200CF0B5FC182101200CF0B1FC3021D0
S31508010FF001200CF0ADFC482101200CF0A9FC1F21B1
S3150801100001200CF0A5FCBDE80840202101200CF0C8
S315080110109FBC00BF2DE9F04F2DED108B9FB0CDE998
S3150801102014233E9DC84A2B68DFF824A3399E1390E2
S31508011030013313602B60389B1F68CAF8007007EEEE
S31508011040107AF8EE478AF7EE007AF4EE678AF1EE3F
S3150801105010FADDE93C488B4600F0A684EB79B0EE40
S31508011060689A002B40F0D881F2EE067AB4EE679AB8
S31508011070F1EE10FA00F0DB81AB79F0EE499A002B1C
S3150801108040F09281F2EE087AF4EE679AF1EE10FAE0
S3150801109000F095816B79B0EE69AA002B40F05A8170
S315080110A0F2EE0A7AB4EE67AAF1EE10FA00F05D8163
S315080110B02B79002B40F04481384612F039FE98ED21
S315080110C0007B02460B46CDE91023B0EE47CAF0EE87
S315080110D067CA53EC172B13F00DF9002840F00A8361
S315080110E0AB7C002B40F024819DED107B8DED027BBE
S315080110F098ED027BDDE90223B0EE47DAF0EE67DA16
S3150801110051EC170B13F0F6F8002840F087826B7C38
S31508011110002B00F049829DED027B8DED047B0023B7
S3150801112063736B7498ED0C7BDDE90423B0EE47EA33
S31508011130F0EE67EA51EC170B13F0DCF8002840F0E3
S315080111405F83AB7A002B00F014829DED047B8DED55
S31508011150067B0023A371AB7298ED047BDDE90623B8
S31508011160B0EE47FAF0EE67FA51EC170B13F0C2F836
S31508011170002840F061842B7C002B00F0F5819DED61
S31508011180067B8DED087B002323732B7498ED067B74
S31508011190DDE9082351EC170B8DED167B13F0AAF840
S315080111A0002840F006826B7B002B00F0F8819DED4C
S315080111B0087B8DED0A7B002363726B7398ED0E7BBA
S315080111C0DDE90A2351EC170B8DED187B13F092F824
S315080111D0002840F0B4836B7A002B00F0DB819DED8B
S315080111E00A7B8DED0E7B002363716B7298ED087B8C
S315080111F0DDE90E2351EC170B8DED1A7B13F07AF806
S31508011200002840F067832B7B002B00F0BE819DED03
S315080112100E7B8DED0C7B002323722B7398ED0A7BD5
S31508011220DDE90C2351EC170B8DED1C7B13F062F8ED
S31508011230002840F01A83EB7A002B00F09F819DED80
S315080112400C7B0023E371EB72B0EE47BAF0EE67BA96
S31508011250D8E9108953EC1B2B4046494613F04AF846
S31508011260002840F0A6822B7A13B1002323712B7232
S3150801127007EE907AB8EE678AF3EE0F7AB4EE678ACC
S31508011280F1EE10FA00F06B82EB7BF0EE487A13B1BF
S315080112900023E372EB739FED2D7AF4EE477AF1EEB4
S315080112A010FA00F00182AB7B13B10023A372AB7372
S315080112B0F7EE007AF4EE678AF1EE10FA40F03A8119
S315080112C094F9033094F8270094F828E094F829C093
S315080112D094F82A7094F82B5094F82C1094F82D2031
S315080112E094F82E4096F8008007EE908AF8EEE77A91
S315080112F0B7EE008AF4EE487AF1EE10FA40F0CB80A8
S315080113008BB9022232703A9A01231370337807EEA9
S31508011310903AF8EEE77AB0EE007AF4EE477AF1EE13
S3150801132010FA40F0F8801FB0BDEC108BBDE8F08FC5
S315080113309DED107B0023A3738DED027BAB74D7E67D
S31508011340002323702B71B7E6DC060020000000425B
S31508011350E4060020F2EE0A7AB4EE67AA0023F1EE5B
S3150801136010FA63706B717FF4A3AEC74F0120002298
S3150801137028713B4600920D210CF016FB00282070BF
S315080113800FDD7B782374BB786374FB78A3743B7990
S31508011390E3747B792375BB796375FB79A3753B7810
S315080113A0E373DAF8007087E6F2EE087AF4EE679AE4
S315080113B00023F1EE10FAA370AB717FF46BAEDFF880
S315080113C0D8920120002268714B4600920C210CF03C
S315080113D0EBFA6070DAF8007007EE907A0028B8EE3A
S315080113E067AA7FF75DAE99F80130237699F802303E
S315080113F0637699F80330A37699F80430E37699F879
S315080114000530237799F80630637799F80730A3777B
S3150801141099F80030E37543E6F2EE067AB4EE679A78
S315080114200023F1EE10FAE370EB717FF425AEDFF8D5
S315080114306C9201200022A8714B4600920B210CF0F8
S31508011440B3FAA070DAF8007007EE907A0028F8EE81
S31508011450679A7FF717AE99F8013084F8203099F822
S31508011460023084F8213099F8033084F8223099F84B
S31508011470043084F8233099F8053084F8243099F833
S31508011480063084F8253099F8073084F8263099F81B
S315080114900030E377F6E5B0EE007AF4EE477AF1EE3E
S315080114A010FA38D1002B7FF73EAF8BF806203A9A0F
S315080114B08BF801E001238BF807408BF800008BF8C5
S315080114C002C08BF803708BF804508BF80510137063
S315080114D0159A6E4C137003233370139B6C4A1B8841
S315080114E01380149A138012F023FC389BD3ED007AEB
S315080114F0F8EE677AC4E90001F4EE487AF1EE10FADB
S3150801150004D1644B3B990022C1E90023337807EEE5
S31508011510903AF8EEE77AF5EE407AF1EE10FA7FF4B2
S3150801152002AF3A9A0123337013701FB0BDEC108BCA
S31508011530BDE8F08FF2EE067AB4EE679AF1EE10FA8C
S3150801154040F0B08294F90230E07F94F820E094F8F4
S3150801155021C094F8227094F8235094F8241094F832
S31508011560252094F82640BDE69DED067B8DED087B8A
S315080115700CE69DED047B8DED067BEDE59DED0C7B83
S31508011580B0EE47BAF0EE67BA62E69DED0E7B8DEDD9
S315080115900C7B43E69DED0A7B8DED0E7B26E69DEDE4
S315080115A0087B8DED0A7B09E69DED027B8DED047BBB
S315080115B0B8E5DFF8EC900120002268734B460092EB
S315080115C02E210CF0F1F90028DAF8007060721FDD9F
S315080115D099F8013084F8583099F8023084F859306E
S315080115E099F8033084F85A3099F8043084F85B3056
S315080115F099F8053084F85C3099F8063084F85D303E
S3150801160099F8073084F85E3099F8003084F8573035
S31508011610384612F08DFBCDE90A01CFE5DFF8849053
S315080116200120002268744B4600922C210CF0BCF96B
S315080116300028DAF8007060731FDD99F8013084F824
S31508011640783099F8023084F8793099F8033084F8BB
S315080116507A3099F8043084F87B3099F8053084F8A3
S315080116607C3099F8063084F87D3099F8073084F88B
S315080116707E3099F8003084F87730384612F058FBF6
S31508011680CDE904014EE500BFF4070020000700205C
S31508011690F00600200000F03FEC070020E4070020D8
S315080116A0340800202C080020DA4F01200022A873F4
S315080116B03B46009220210CF077F90028A0727FF7AB
S315080116C0F7AD7B7884F86030BB7884F86130FB78B5
S315080116D084F862303B7984F863307B7984F8643026
S315080116E0BB7984F86530FB7984F866303B7884F8F1
S315080116F05F30DDE5DFF8289301200022A8744B4608
S31508011700009216210CF050F90028DAF80070A0733F
S315080117101FDD99F8013084F8803099F8023084F891
S31508011720813099F8033084F8823099F8043084F8C6
S31508011730833099F8053084F8843099F8063084F8AE
S31508011740853099F8073084F8863099F8003084F89E
S315080117507F30384612F0ECFACDE90201C8E4AE4F03
S3150801176001200022E8733B4600921F210CF01CF968
S31508011770DAED007AE0720028F8EE677A7FF78BAD2A
S315080117807B7884F86830BB7884F86930FB7884F80C
S315080117906A303B7984F86B307B7984F86C30BB7995
S315080117A084F86D30FB7984F86E303B7884F86730BD
S315080117B071E59A4F0120002228723B460092482182
S315080117C00CF0F2F80028207117DD7B7884F83030A8
S315080117D0BB7884F83130FB7884F832303B7984F869
S315080117E033307B7984F83430BB7984F83530FB792A
S315080117F084F836303B7884F82F30DAF8007037E50C
S31508011800DFF8209201200022A8724B46009242215D
S315080118100CF0CAF80028DAF80070A0711FDD99F8F3
S31508011820013084F8403099F8023084F8413099F84B
S31508011830033084F8423099F8043084F8433099F833
S31508011840053084F8443099F8063084F8453099F81B
S31508011850073084F8463099F8003084F83F30384626
S3150801186012F066FACDE9060176E4DFF8BC910120AB
S315080118700022E8724B46009230210CF095F80028B8
S31508011880DAF80070E0711FDD99F8013084F8483004
S3150801189099F8023084F8493099F8033084F84A30C7
S315080118A099F8043084F84B3099F8053084F84C30AF
S315080118B099F8063084F84D3099F8073084F84E3097
S315080118C099F8003084F84730384612F031FA41EC7D
S315080118D01B0BBDE4DFF854910120002228734B4607
S315080118E0009218210CF060F80028DAF800702072CE
S315080118F01FDD99F8013084F8503099F8023084F8E0
S31508011900513099F8033084F8523099F8043084F844
S31508011910533099F8053084F8543099F8063084F82C
S31508011920553099F8073084F8563099F8003084F81C
S315080119304F30384612F0FCF9CDE90C016EE4DFF8B8
S31508011940F0900120002268724B46009245210CF066
S315080119502BF80028DAF8007060711FDD99F801305C
S3150801196084F8383099F8023084F8393099F8033018
S3150801197084F83A3099F8043084F83B3099F8053000
S3150801198084F83C3099F8063084F83D3099F80730E8
S3150801199084F83E3099F8003084F83730384612F02A
S315080119A0C7F9CDE90E0121E4DFF88890012100226B
S315080119B0E9714B46009208460BF0F6FFE070DAF83B
S315080119C0007007EE907A0028B8EE679A7FF74CAB5D
S315080119D099F8013084F8283099F8023084F82930CA
S315080119E099F8033084F82A3099F8043084F82B30B2
S315080119F099F8053084F82C3099F8063084F82D309A
S31508011A0099F8073084F82E3099F8003084F8273091
S31508011A10FFF72ABB240800201C08002054080020D0
S31508011A2004080020440800203C080020140800206F
S31508011A304C080020FC070020DFF800930120002253
S31508011A4028744B46009217210BF0AEFF0028DAF8EE
S31508011A50007020731FDD99F8013084F8703099F809
S31508011A60023084F8713099F8033084F8723099F8A5
S31508011A70043084F8733099F8053084F8743099F88D
S31508011A80063084F8753099F8073084F8763099F875
S31508011A90003084F86F30384612F04AF9CDE908016A
S31508011AA0FFF774BBF2EE087AF4EE679AF1EE10FAD4
S31508011AB013D0F2EE0A7AB4EE67AAF1EE10FA1AD149
S31508011AC094F90030E07B94F810E094F811C0A77CF3
S31508011AD0E57C217D627DA47D04E494F90130E07DF5
S31508011AE094F818E094F819C0A77EE57E217F627FF5
S31508011AF0A47FFFF7F7BBDDE9100153EC1C2B12F0AD
S31508011B00F9FBD0B9DDE9022351EC1D0B12F0F2FB0A
S31508011B1038B394F90D3094F8770094F878E094F88E
S31508011B2079C094F87A7094F87B5094F87C1094F8FC
S31508011B307D2094F87E40FFF7D5BB94F90E3094F8D2
S31508011B407F0094F880E094F881C094F8827094F844
S31508011B50835094F8841094F8852094F88640FFF70A
S31508011B60C1BBDDE9042351EC1E0B12F0C3FB98B18E
S31508011B7094F9063094F83F0094F840E094F841C08F
S31508011B8094F8427094F8435094F8441094F8452018
S31508011B9094F84640FFF7A6BBDDE9062351EC1F0B77
S31508011BA012F0A8FB98B194F90C3094F86F0094F8E8
S31508011BB070E094F871C094F8727094F8735094F8C0
S31508011BC0741094F8752094F87640FFF78BBBDDE91D
S31508011BD00823DDE9160112F08DFB98B194F9093055
S31508011BE094F8570094F858E094F859C094F85A7044
S31508011BF094F85B5094F85C1094F85D2094F85E4074
S31508011C00FFF770BBDDE90A23DDE9180112F072FB63
S31508011C1098B194F9053094F8370094F838E094F8B7
S31508011C2039C094F83A7094F83B5094F83C1094F8FB
S31508011C303D2094F83E40FFF755BBDDE90E23DDE96B
S31508011C401A0112F057FB98B194F9083094F84F002D
S31508011C5094F850E094F851C094F8527094F853509F
S31508011C6094F8541094F8552094F85640FFF73ABB67
S31508011C70DDE90C23DDE91C0112F03CFB98B194F96E
S31508011C80073094F8470094F848E094F849C094F866
S31508011C904A7094F84B5094F84C1094F84D2094F8E7
S31508011CA04E40FFF71FBB53EC1B2B4046494612F02B
S31508011CB021FB98B194F9043094F82F0094F830E098
S31508011CC094F831C094F8327094F8335094F834107B
S31508011CD094F8352094F83640FFF704BBF3EE0F7AF3
S31508011CE0B4EE678AF1EE10FA13D194F90B3094F831
S31508011CF0670094F868E094F869C094F86A7094F8F3
S31508011D006B5094F86C1094F86D2094F86E40FFF7B8
S31508011D10E9BA94F90A3094F85F0094F860E094F807
S31508011D2061C094F8627094F8635094F8641094F85A
S31508011D30652094F86640FFF7D5BA00BF0C08002065
S31508011D402DE9F047DDF820A00F461E4604462D4B27
S31508011D50DAE900019046002211F0AEFEDDE90959E3
S31508011D600123CAE900013B70D9F800101944264B32
S31508011D701960C9F80010366807EE106AB8EE477A96
S31508011D80F7EE007AB4EE677AF1EE10FA03D11D4B3D
S31508011D900022C8E900232778DFF87880384611F051
S31508011DA0C7FF1A4BC8E900011E602F712E60E27940
S31508011DB06A7194F8019085F8069094F8028085F87E
S31508011DC0078094F803E085F808E094F804C085F8DC
S31508011DD009C031466679AE720D4BA079E8729871E1
S31508011DE0DA711F7083F8019083F8028083F803E0A3
S31508011DF083F804C05E710822BDE8F04701200BF0A4
S31508011E00A3BB00BF0000F03F4C0700205407002089
S31508011E105C080020600700202DE9F84F14461D468E
S31508011E200022002306460F462046294612F062FA8A
S31508011E300022002350B13046394612F05BFAB0B1A0
S31508011E40A246AB4650465946BDE8F88F3046394654
S31508011E5012F050FA88B10020002122462B4612F0D2
S31508011E600BF982468B4650465946BDE8F88FB2466D
S31508011E70BB4650465946BDE8F88F22462B463046A2
S31508011E80394611F0BDFC0022002382468B4612F02A
S31508011E9031FA002852D12046294611F035FC02466E
S31508011EA00B462046294612F04DFAF0B93046394616
S31508011EB00022002312F028FA0022061E4FF0000322
S31508011EC02046294618BF012612F01EFA0038F6B236
S31508011ED018BF01208642C6D05046594622462B468F
S31508011EE011F0EAFD82468B46BDE722462B4630466F
S31508011EF0394612F0C1F821F00049144B002249462F
S31508011F00804611F0D9FD11F0FFFB02460B4640460B
S31508011F10494611F0CFFD02460B46404649469046D2
S31508011F2023F0004900220A4B11F07CFF02460B46BA
S31508011F304046494612F0F2F90028B7D04FF0000A98
S31508011F404FF0000B50465946BDE8F88F0000E03FB8
S31508011F500000B03C2DE9F04F2DED028B83B0179FA1
S31508011F60199E00283ED01D46012333700F9BB3F8F6
S31508011F7000B05846144611F0EBFE22462B46804621
S31508011F80894612F0B7F910B1189B1B7A3B702246A5
S31508011F902B464046494612F0D5F9002835D0149902
S31508011FA0854BD1E90001002212F0B8F9002833D196
S31508011FB0B378002B00F095800023BB70B3704046C0
S31508011FC0494622462B4612F0BDF9002840F0898081
S31508011FD0737813B100237B70737003B0BDEC028B69
S31508011FE0BDE8F08F3378002BF7D0B3780BB1B87012
S31508011FF0B070737813B100237B707370002333704C
S3150801200003B0BDEC028BBDE8F08FB378002BD6D0B8
S315080120100023BB70B370D2E70122684BB270D3E9D3
S3150801202000232046294611F047FDDFF89CA180468A
S315080120305846894611F07CFE614B002211F03CFDA1
S315080120409AED007B42464B46B0EE478AF0EE678A28
S3150801205011F030FD53EC182BFFF7DEFE00220023AA
S3150801206012F048F938B3169B1878C001C3B27B71D0
S315080120700193149BD3E9000112F0ACF900010E9B00
S315080120805FFA80FB87F806B0D3E9000112F0A2F9DE
S31508012090019B109A1844109B834483F800B03B783F
S315080120A053709370D370137153719371D371189BD5
S315080120B0129A5B6813600F9B188811F039FE424625
S315080120C04B46DAE9008911F0F5FC42464B46FFF723
S315080120D0A3FE0022002312F00DF9003818BF0120D3
S315080120E0B8701599344BD1E90001002212F016F99E
S315080120F000283FF46DAF01237370324BDFF8CCA093
S31508012100D3E900232046294611F0D6FC0F9B044645
S3150801211018880D4611F00CFEDAE90089284B0022D1
S3150801212011F0CAFC22462B4611F0C4FC42464B4626
S31508012130FFF772FE0022002312F0DCF820B3169B8B
S315080121401E78159BF601F6B2FE70D3E9000112F06E
S3150801215041F900010E9B5FFA80F887F80480D3E9FC
S31508012160000112F037F9119B119A404406441E707A
S315080121703B7853709370D370137153719371D37104
S31508012180189B139A1B6813600F9BDAE90089188854
S3150801219011F0CEFD22462B4611F08CFC42464B46E9
S315080121A0FFF73AFE0022002312F0A4F8003818BF00
S315080121B00120787011E700BF00001C4018000020BC
S315080121C00000F03F20000020080000201000002039
S315080121D02DE9F04F2DED048B83B088469DF85410F8
S315080121E000919DF858109DF840B09DF844A09DF8BF
S315080121F048709DF84C609DF85050DDF878C0019103
S3150801220058B99CF800301BB11C9B18708CF800005B
S3150801221003B0BDEC048BBDE8F08F104619460122C8
S31508012220374B8CF80020D3E9002311F045FC024610
S3150801223040468946904611F07BFD324C02460B46D4
S3150801224043EC182B304B002211F036FC49EC198B64
S3150801225042464B46D4E9008911F02CFC42464B46CE
S31508012260FFF7DAFD0022002312F044F868B31B9B3E
S3150801227093F800801C9B4FEAC8185FFA88F983F81F
S3150801228001901A9BD3E9000112F0A4F81C9B0001E6
S315080122905FFA80F883F80280179BD3E9000112F0F0
S315080122A099F8189B009A9A71C844019A83F801B063
S315080122B0804483F8008083F802A0DF70DA711E710A
S315080122C05D711D9B199A1B6813600E4CD4E9004574
S315080122D053EC192B51EC180B11F0ECFB22462B464B
S315080122E0FFF79AFD0022002312F004F81C9B003820
S315080122F018BF0120187003B0BDEC048BBDE8F08F40
S3150801230018000020080000200000F03F2DE9F04FDA
S315080123102DED048B83B088469DF8541000919DF8E5
S3150801232058109DF840B09DF844A09DF848709DF856
S315080123304C609DF85050DDF878C0019158B99CF869
S3150801234000301BB11C9B18708CF8000003B0BDEC63
S31508012350048BBDE8F08F104619460122374B8CF8DD
S315080123600020D3E9002311F0A7FB0246404689461F
S31508012370904611F0DDFC324C02460B4643EC182B15
S31508012380304B002211F098FB49EC198B42464B461B
S31508012390D4E9008911F08EFB42464B46FFF73CFD16
S315080123A00022002311F0A6FF68B31B9B93F8008057
S315080123B01C9B4FEAC8185FFA88F983F801901A9BA3
S315080123C0D3E9000112F006F81C9B00015FFA80F8B8
S315080123D083F80280179BD3E9000111F0FBFF189BD4
S315080123E0009A9A71C844019A83F801B0804483F827
S315080123F0008083F802A0DF70DA711E715D711D9B82
S31508012400199A1B6813600E4CD4E9004553EC192B35
S3150801241051EC180B11F04EFB22462B46FFF7FCFC3C
S315080124200022002311F066FF1C9B003818BF01200B
S31508012430187003B0BDEC048BBDE8F08F20000020B6
S31508012440100000200000F03F2DE9F04F91B0249CC8
S31508012450269D002876D09B464FF001091B9B85F8DF
S315080124600090B3F800804046924611F071FC52463E
S315080124705B4606460F4611F065FF002873D13046C4
S31508012480394652465B4611F035FF002800F08A802E
S315080124901E9B1A78259B22701B7863700027A370F0
S315080124A0E37023716371A371194618469C469E46CB
S315080124B099463E46CDE90139239B0B93219B0A9305
S315080124C01F9B09931C9B08931A9B0793AB1C0E939E
S315080124D0259B009208330D9304F10A03CDE9050102
S315080124E00C934146304652465B46CDE903ECFFF76D
S315080124F06FFE1A9B0793239B0B93259B1B991D988C
S31508012500013504330E950D93229D09880A95209D60
S3150801251008900995A579069565790595257904950E
S31508012520E5780395A578029565780195257800954E
S31508012530073452465B4638460C94FFF7E7FE11B05E
S31508012540BDE8F08F2B78002BF9D0AB780BB1A072D0
S31508012550A8706B7813B10023E3716B7000232B709D
S3150801256011B0BDE8F08F2199154BD1E90001002280
S3150801257011F0D4FE2299124B061E4FF00002D1E942
S31508012580000118BF012611F0C9FE60B14F46227835
S31508012590637894F8029094F803E094F804C060799B
S315080125A0A17987E706462278637894F8029094F829
S315080125B003E094F804C06079A17900277AE700BF9F
S315080125C000001C402DE9F04F85B0CDE90023DDE977
S315080125D0114200284DD00D788E7991F801B091F805
S315080125E002A091F8039091F804804F7903964FF071
S315080125F0010C05FA0CF3DBB2580907EE100AB8EE1E
S31508012600C77AF7EE007AB4EEE77AF1EE10FACE79E8
S3150801261082F800C0A372207309DD109B0022D3E95A
S3150801262000011D4B11F048FA109BC3E900012B016B
S31508012630DBB2E8091D0963726073E57211F088FB64
S3150801264002460B46DDE9000111F054FEC8B9039AAA
S315080126502072002384F800B084F801A084F802905F
S3150801266084F8038027716271A671E37105B0BDE82C
S31508012670F08F1378002BF9D02072107005B0BDE8E1
S31508012680F08F284611F064FBDDE90E2311F032FEC6
S31508012690003818BF0120DAE70000F03F2DE9F04FB6
S315080126A085B0CDE90023DDE9114200284DD00D782A
S315080126B08E7991F801B091F802A091F8039091F8FA
S315080126C004804F7903964FF0010C05FA0CF3DBB23F
S315080126D0580907EE100AB8EEC77AF7EE007AB4EE93
S315080126E0E77AF1EE10FACE7982F800C0A372207368
S315080126F009DD109B0022D3E900011D4B11F0DCF91D
S31508012700109BC3E900012B01DBB2E8091D096372BD
S315080127106073E57211F01CFB02460B46DDE9000108
S3150801272011F0E8FDC8B9039A2072002384F800B0B5
S3150801273084F801A084F8029084F8038027716271F5
S31508012740A671E37105B0BDE8F08F1378002BF9D0B7
S315080127502072107005B0BDE8F08F284611F0F8FA1E
S31508012760DDE90E2311F0C6FD003818BF0120DAE7AE
S315080127700000F03F2DE9F84FDDF828A00E9EDDE9AF
S315080127801248002800F0B2801F4601230D469146E3
S3150801279088F80030002900F0BF8088F8023097F8E1
S315080127A000B00BFA03F3DBB223765B0907EE103AA6
S315080127B0B8EEC77AF7EE007AB4EEE77AF1EE10FAD8
S315080127C0A37609DD109B0022D3E90001684B11F0BD
S315080127D073F9109BC3E900017B782372BB78637296
S315080127E0FB78A3723B79E3727B792373BB796373B5
S315080127F04FEA0B10C0B2FB79E0750009A373607646
S3150801280011F0A6FADDE90C2311F074FD051E18BFB7
S3150801281001254FEADB1B002384F81BB06574E373BB
S31508012820B9F1000F00F08280012388F801309AF887
S31508012830007007FA03F3DBB2E3745B0907EE103A9B
S31508012840B8EEC77AF7EE007AB4EEE77AF1EE10FA47
S31508012850637509DD109B0022D3E90001444B11F091
S315080128602BF9109BC3E900019AF8013023709AF8F5
S31508012870023063709AF80330A3709AF80430E37053
S315080128809AF8053023719AF8063063713801C0B297
S315080128909AF80730A0740009A371207511F058FA47
S315080128A0DDE90C2311F026FD003818BF0120FF09C8
S315080128B000232074A775E371002D41D0E37B3370A3
S315080128C0237A7370637AB370A37AF370E37A3371F8
S315080128D0237B7371637BB371A37BF3710123119915
S315080128E00B700F9B01221A70BDE8F88F98F800301B
S315080128F0002BF9D098F8023013B1607488F80200F9
S3150801290098F801301BB10023237488F8013000239D
S3150801291088F80030BDE8F88F98F802302BB3617457
S3150801292088F80210B9F1000F7FF47EAF98F80130EC
S31508012930002BC1D084F8109088F80190002DBDD1E4
S31508012940E3793370237873706378B370A378F3707F
S31508012950E3783371237973716379B371A379F37169
S31508012960237C003B18BF0123B9E7657C58E700BF04
S315080129700000F03F2DE9F04F2DED048B83B088461A
S315080129809DF85C1000919DF860109DF848B09DF87F
S315080129904CA09DF850709DF854609DF85850DDF88C
S315080129A07CC0019158B99CF800301BB11E9B187068
S315080129B08CF8000003B0BDEC048BBDE8F08F10461F
S315080129C019460122384B8CF80020D3E9002311F06F
S315080129D073F8024640468946904611F0A9F9334CE8
S315080129E002460B4643EC182B314B002211F064F8D2
S315080129F049EC198B42464B46D4E9008911F05AF83D
S31508012A0042464B46FFF708FA0022002311F072FCF2
S31508012A1078B31D9B93F800801E9B4FEAC8185FFA8E
S31508012A2088F983F801901C9BD3E9000111F0D2FCC7
S31508012A301E9B00015FFA80F883F80280199BD3E98F
S31508012A40000111F0C7FC1A9B009A9A71C844019AB1
S31508012A5083F801B0804483F8008083F802A0DF7010
S31508012A601E715D71DA71DDE9100111F0B3FC1B9B72
S31508012A7018600E4CD4E9004553EC192B51EC180B90
S31508012A8011F018F822462B46FFF7C6F90022002353
S31508012A9011F030FC1E9B003818BF0120187003B0D6
S31508012AA0BDEC048BBDE8F08F18000020080000205B
S31508012AB00000F03F2DE9F04F2DED048B83B08846D9
S31508012AC09DF85C1000919DF860109DF848B09DF83E
S31508012AD04CA09DF850709DF854609DF85850DDF84B
S31508012AE07CC0019158B99CF800301BB11E9B187027
S31508012AF08CF8000003B0BDEC048BBDE8F08F1046DE
S31508012B0019460122384B8CF80020D3E9002310F02E
S31508012B10D3FF024640468946904611F009F9334CDF
S31508012B2002460B4643EC182B314B002210F0C4FF2A
S31508012B3049EC198B42464B46D4E9008910F0BAFF95
S31508012B4042464B46FFF768F90022002311F0D2FBF3
S31508012B5078B31D9B93F800801E9B4FEAC8185FFA4D
S31508012B6088F983F801901C9BD3E9000111F032FC26
S31508012B701E9B00015FFA80F883F80280199BD3E94E
S31508012B80000111F027FC1A9B009A9A71C844019A10
S31508012B9083F801B0804483F8008083F802A0DF70CF
S31508012BA01E715D71DA71DDE9100111F013FC1B9BD1
S31508012BB018600E4CD4E9004553EC192B51EC180B4F
S31508012BC010F078FF22462B46FFF726F9002200234C
S31508012BD011F090FB1E9B003818BF0120187003B036
S31508012BE0BDEC048BBDE8F08F20000020100000200A
S31508012BF00000F03F0B791BB10023C37103720B71FF
S31508012C004B7843B1CB7813B100238370CB708B78A3
S31508012C1023B900234B7000230B70704700234370C0
S31508012C208B70F6E72DE9F04F2DED028B93B099469F
S31508012C301E9B02931F9B0193209B0C93219B03933D
S31508012C40229B0493239B0A93249B0B939046DDE9CD
S31508012C5025320D92279A0E92289A0F92299A109246
S31508012C602A9A05922B9A06922C9A07922D9A0892DD
S31508012C702E9A09922F9A329C1192DDE9305A00BB9D
S31508012C80237823B913B0BDEC028BBDE8F08F237905
S31508012C9013B1E8712872207163785BB1E37813B1D7
S31508012CA00023AB70E370A37813B100236B70A37094
S31508012CB0002363700023237013B0BDEC028BBDE8BB
S31508012CC0F08F4FF0010B84F800B0D3E900670022BA
S31508012CD04A4B3946304611F00DFB002808BF83469A
S31508012CE05FFA8BF308EE103A3046444B3946002218
S31508012CF011F000FB8346002849D101232371019B6A
S31508012D00188811F025F806460F46404649463246C8
S31508012D103B4611F0EFFA28B30E9ADAF80C30136035
S31508012D200D9ADAF8103013600B9A9AF81630137068
S31508012D30109A9AF8143013700A9A9AF81730137081
S31508012D400F9A9AF8153013700C9A019BC2F800B0C5
S31508012D50C2F804B0119A82F800B0188810F0F8FF8A
S31508012D6006460F4632463B464046494611F0CCFADE
S31508012D70002833D00A9B1B78002B3CD10123EB7129
S31508012D800B9B1B78002B33D101232B7205E023798A
S31508012D901BB10023EB712B722371099B2693089BA8
S31508012DA02593079B2493069B2393059B2293049BB8
S31508012DB02193039B0299209318EE100A019B1F93F6
S31508012DC0013442464B46CDE9275A29941E9113B040
S31508012DD0BDEC028BBDE8F04FFFF7BCB80021E971E5
S31508012DE032463B464046494611F08EFA0028C7D17D
S31508012DF000232B72D1E70023EB71C1E70000F03FF6
S31508012E002DE9F04F85B0CDE90023DDE90F42002811
S31508012E104DD00D788E7991F801B091F802A091F80C
S31508012E20039091F804804F7903964FF0010C05FA47
S31508012E300CF3DBB2580907EE100AB8EEC77AF7EEBB
S31508012E40007AB4EEE77AF1EE10FACE7982F800C08C
S31508012E50A372207309DD0E9B0022D3E90001184BEA
S31508012E6010F02AFE0E9BC3E90001039B6371E80972
S31508012E7084F800B084F801A084F8029084F80380ED
S31508012E802771A671607310F063FFDDE9002311F065
S31508012E9031FA2D01EDB2003818BF01202A090023A5
S31508012EA020726572E272E37105B0BDE8F08F13789E
S31508012EB0002BF9D02072107005B0BDE8F08F00BF65
S31508012EC00000F03F2DE9F04F85B0CDE90023DDE99B
S31508012ED00F4200284DD00D788E7991F801B091F8FE
S31508012EE002A091F8039091F804804F7903964FF068
S31508012EF0010C05FA0CF3DBB2580907EE100AB8EE15
S31508012F00C77AF7EE007AB4EEE77AF1EE10FACE79DF
S31508012F1082F800C0A372207309DD0E9B0022D3E953
S31508012F200001184B10F0C8FD0E9BC3E90001039B75
S31508012F306371E80984F800B084F801A084F8029066
S31508012F4084F803802771A671607310F001FFDDE92B
S31508012F50002311F0CFF92D01EDB2003818BF012079
S31508012F602A09002320726572E272E37105B0BDE891
S31508012F70F08F1378002BF9D02072107005B0BDE8D8
S31508012F80F08F00BF0000F03F2DE9F0410126884689
S31508012F9082F8396207460021022015460CF0C6F967
S31508012FA098F81C3287F8DF310021072008F0A4F9C8
S31508012FB02B460024C5E90C662C7043F8384F6E6021
S31508012FC0EB622E8198F8AC3187F8213198F868318F
S31508012FD087F89830FDF7FAF8FDF7DCFF2146204619
S31508012FE00CF0A4F9214630460CF0A0F92146102030
S31508012FF00CF09CF9214604200CF098F92146122080
S315080130000CF094F9214613200CF090F921460E2074
S315080130100CF08CF921460F200CF088F92146032083
S31508013020BDE8F0410CF082B92DE9F04F2DED0A8B80
S31508013030ADF5777DCDE91823DDF884A4DDF87CB4F8
S315080130409AF83832002B0CBF01230023CDE916105C
S315080130504FF001018AF838328AF87D124FF00200E2
S315080130608BF8413018BF00210CF092F99AF83932E1
S31508013070002B00F0F182DDF83C3401268AF87962EA
S315080130801B78002B00F03A87179BD3E900450022ED
S315080130904FF080432046294611F02CF9002800F00C
S315080130A035874FF001089AF84D32002B00F07D87DD
S315080130B001238AF87A32002E40F07D87DDF88034C4
S315080130C0169AB3F850311380DDF88034189993F8BD
S315080130D057318AF83232179BD3E90023C1E9002315
S315080130E0984B0022CAE95623DDF83C24954900236A
S315080130F01370DDF84024002013700026CBE9000187
S3150801310000278AF839328AF84D328E4B30463946CD
S31508013110002210F0D1FCCAE97A018B4B0022204625
S31508013120294611F0E7F868B9884B00222046294656
S3150801313011F0E0F830B9864B00222046294611F0F5
S31508013140D9F828B1834BDDF868140022C1E90023B8
S31508013150B8F1000F05D07B4BDDF868140022C1E9F0
S3150801316000237D4B00222046294611F0C3F800288A
S3150801317043F0EE83794B00222046294611F0BAF82E
S31508013180002843F0E583764B20462946002211F0B4
S31508013190B1F8002843F0DC83DDF86834D3E900236D
S315080131A016999FED707A098807EE901AF8EEE77A74
S315080131B06D49F4EE477AF1EE10FAC1E9002316D10A
S315080131C0169A002313809AF83242204610F0C0FD61
S315080131D0DDF88034D3E9522311F096F8002801F07E
S315080131E0F5820134E4B2614B8AF832421C709AF8CE
S315080131F03932002B00F04D829AF84E32002B41F0FD
S31508013200B3859BF82D409BF82B20002C01F070828A
S315080132109AF81C32DF064FF0010401F1738243F07C
S3150801322010038AF81C32002A41F06F82DBB21E07AE
S3150801323001F183829AF81C3243F008038AF81C329A
S31508013240002C41F07D82DBB29AF83922002A41F03E
S315080132509D829BF82E20002A02F08C80580741F1A6
S315080132609882DDF850340193DDF848340093DDF88F
S315080132708034DDF8281403F50C730593DDF8603402
S315080132800393DDF854340293DDF8403416980AF5B1
S31508013290327206920BF5FC720492DDF83024FDF7C2
S315080132A0B9FE9AF81C329D0705D49AF81C3243F0E8
S315080132B002038AF81C329BF82C30002B41F03C851E
S315080132C0DDF854341B78002B01F0D5849AF83F3287
S315080132D0B3FA83F35B098AF83F32DDF854340121E6
S315080132E000208AF87F1218709AF83F328BF843301B
S315080132F0002B42F04A80194618460CF049F89AF80C
S315080133003A32002B01F0C3849AF840320120002B8F
S315080133104FF000010CBF012300238AF83A1208BFB7
S3150801332001468AF87E028AF8403208BF08468BF8B9
S3150801333042300CF02DF89AF83B32002B01F0B38499
S3150801334016E000BF0000F03F0000264000002840BC
S3150801335000002A4000000840000014400000184000
S3150801336000001C400000E2434007002069070020D6
S315080133709AF84232002B0CBF012300234FF00102B9
S315080133804FF000018AF83B128AF842328AF87B220A
S3150801339008BF11468BF83F3010200BF0F9FF9AF859
S315080133A04132002B0CBF012300234FF001018AF89B
S315080133B07C128AF8413218BF00218BF8403004206C
S315080133C00BF0E6FFDDF8583400240025D3E90001A7
S315080133D022462B4610F08EFF002841F0A3849AF866
S315080133E03532002B0CBF012300234FF001018AF867
S315080133F035328AF878128BF83E30DDF8583418BF22
S315080134000146C3E9004512200BF0C2FFDDF85C3422
S3150801341000240025D3E9000122462B4610F06AFF55
S31508013420002841F075849AF83432002B0CBF012329
S3150801343000234FF001018AF834328AF877128BF8A3
S315080134403D30DDF85C3418BF0146C3E90045132059
S315080134500BF09EFFDDF8603400240025D3E9000156
S3150801346022462B4610F046FF002841F047849AF879
S315080134703732002B0CBF012300234FF001018AF8D4
S3150801348037328AF876128BF83C30DDF8603418BF8B
S315080134900146C3E900450E200BF07AFFDDF86434D6
S315080134A000240025D3E9000122462B4610F022FF0D
S315080134B0002841F019849AF83632002B0CBF0123F3
S315080134C000234FF001018AF836328AF875128BF813
S315080134D03B30DDF8643418BF0146C3E900450F20C7
S315080134E00BF056FF9AF84332002B01F0A3839AF8A2
S315080134F0323207EE903AF8EEE77AF5EE407AF1EED7
S3150801350010FA41F00B8714236CAACAE983334A4996
S3150801351017921046A02210F083FF94AB47491893DF
S31508013520A022184610F07CFF169B1B88184608EE49
S31508013530103A10F00DFC179BD3E9006780468946BF
S3150801354002460B463046394610F0DEFE002804F0E6
S31508013550D185CDF884A43A4DDDF85CA00024384B1A
S3150801356000222046294610F0A7FA0D46044610F017
S3150801357009FF0AEBC00050E9026742464B4630464E
S31508013580394610F0C1FE0028E9D12D4BDDF884A497
S3150801359000222046294610F08DFA10F0F3FE013874
S315080135A0189B03EBC003C4000022D3E900010023E2
S315080135B010F0A0FE002841F03D8118EE100A10F027
S315080135C0B7FB8046894642464B463046394610F097
S315080135D071FA1C4B0D46002221F00041044610F0F9
S315080135E093FE98B1184B00222046294610F0A0FEFA
S315080135F00646002804F01985134B20462946002261
S3150801360010F05AFA10F080F804460D460F4B0022C6
S315080136102046294610F078FE002843F0778104A356
S31508013620D3E900234FF6FE7601F0D9BAAFF300804D
S3150801363000000000C0FFEF40C0C2000860C30008D8
S315080136400000F03F000030430000E03F0000F0407A
S315080136500000E2430000DA439AF879225AB19AF84F
S315080136607A222AB100200021CBE900018AF87A32B0
S3150801367000238AF87932169B1FED0B7A1B8807EE11
S31508013680903AF8EEE77AF4EE477AF1EE10FA3FF45B
S3150801369097AD01238AF84E32179BD3E900450022DC
S315080136A04FF080432046294610F024FE002800F0FA
S315080136B0F3849AF8323208EE903AF8EEE88A01274E
S315080136C0F5EE408AF1EE10FA8AF84F7241F06886F3
S315080136D0169B8AF86B72B3F800801FED229A07EEE3
S315080136E0908AB8EEE78A4646B4EEC98AF1EE10FA30
S315080136F0C0F2A380404610F02BFBDDF88034D3E9F5
S315080137003A2310F001FE002800F09780B4EE498AAA
S31508013710F1EE10FA40F091802046294600224FF03A
S31508013720804310F0E7FD002846F03F809AF84632BC
S31508013730002B06F0FA811A901799C04BD1E90001BE
S31508013740002210F0D7FD0027002807F030819AF8EB
S315080137504532002B46F04280DAE96C01B84B00226B
S3150801376010F0AAF9CAE96C014FF001099AF83C620E
S31508013770002E46F08882189BD3E900450022B14BFA
S315080137802046294610F0B6FD002806F00D85179942
S31508013790AC4BD1E90001002210F0ACFD002806F07F
S315080137A07F821C961E961A9B002B46F0498057EA83
S315080137B0090303D11E9B002B06F06E820123DAE969
S315080137C074018AF83A32A04BC3E90001CAE97401C7
S315080137D0002F06F04C83DAE97601994B002210F0A6
S315080137E06BF99A4BCAE97601C3E90001B9F1000FF1
S315080137F006F0A681DAE97801914B002210F05CF90E
S31508013800934BCAE97801C3E9000186B9179B189950
S31508013810D3E90023D1E9000110F06CFD38B9DAE9E2
S315080138206E01874B002210F047F9CAE96E01DDF8EF
S31508013830542401231370169B1E88DFED869A07EE22
S31508013840906AB8EEE79A3446B4EEE99AF1EE10FAC0
S31508013850C0F2EF80304610F07BFADDF88034D3E908
S315080138603C2310F051FD002800F0E380B4EE699A7C
S31508013870F1EE10FA40F0DD80DAE95067DAE95245EF
S315080138803046394622462B4610F052FD002846F0AE
S31508013890D08245EC1A4B9AED547B53EC1A2BB0EEB9
S315080138A0479AF0EE679A51EC170BB0EE47BAF0EE6D
S315080138B067BA10F047FD18B1B0EE49AAF0EE69AA49
S315080138C051EC1A0B0022002310F014FD9AF833323A
S315080138D009EE103AB8EEC99AF0EE007A0038B4EE5D
S315080138E0679A18BF0120F1EE10FA8AF84B02394699
S315080138F030464FF0000206F08B82002310F0DCF808
S31508013900F0EE087AB4EE679AF1EE10FA06460F461B
S31508013910204629464FF0000246F06882484B10F0CF
S31508013920CBF841EC1A0B0022002351EC1B0B10F0CB
S31508013930C3F855EC1A4B41EC190B1AEE102A2B4613
S315080139403046394610F0F4FC08B134463D4653EC8E
S31508013950192B2046294610F0D7FC08B155EC194B0E
S3150801396022462B463046394610F0A4F80022002399
S3150801397010F0C0FC002846F033829DF984700DF1E1
S315080139808409064622462B4651EC1A0B89F8007023
S3150801399010F090F80022002310F0ACFC22462B46CA
S315080139A0002806F05482012409F8064051EC190B47
S315080139B010F080F800220023264410F09BFC18B171
S315080139C0022309F806300136012E99F90000CAF8D2
S315080139D008620BD099F901309842C8BF0120032E1D
S315080139E004D199F902308342B8BF012010F0B0F929
S315080139F0134B002210F060F80B4618990246C1E9EC
S31508013A0000231799D1E9000110F074FC002200285F
S31508013A1046F013824FF08043CAE95623DDF8542451
S31508013A2001231370169B1E8807EE906AB8EEE79A73
S31508013A303446DFED099AB4EEE99A0FE00000084032
S31508013A400000F03F00001040180700202007002062
S31508013A50280700200000DC430000E043F1EE10FADD
S31508013A6059DB304610F074F9DDF88034D3E9402388
S31508013A7010F04AFC00284ED0C74A9AF84B32137008
S31508013A80169A168807EE906AB8EEE79A3446B4EEA7
S31508013A90699AF1EE10FA3ED1002B02F05287DDF851
S31508013AA08034DDF83C2493F8C9318AF84B32137017
S31508013AB0DDF88034DDF8402493F8C9311370DDF858
S31508013AC08034189A93F8CA318AF8393200210020CD
S31508013AD0CAE95601C2E90001DDF88024DDF84C1473
S31508013AE092F8C8210A70DDF88024DDF8501492F89E
S31508013AF0C8210A70DDF8442401231360DDF848243F
S31508013B001360DDF854241370169B1E8807EE906A1D
S31508013B10B8EEE79A3446DFEDA19AB4EEE99AF1EEEA
S31508013B2010FA82F24586DFED9E9AB4EEE99AF1EE35
S31508013B3010FAC0F25186204610F00AF9DDF88034F1
S31508013B40D3E9302310F0E0FB002800F045869AF807
S31508013B503C32002B40F04086199B01268AF86F6299
S31508013B60186859683AAB03C3DDF8283418685968E8
S31508013B7032AB03C3DDF83C349AED567B1D78DDF88C
S31508013B804034B4EE699AF1EE10FA8DED1A7B1C7881
S31508013B9046F0568151EC170B00224FF0804310F086
S31508013BA0A9FB002846F053849AF8703223B39AF891
S31508013BB0B13223B100238BF8AC318AF8B1329AF8C5
S31508013BC0B03223B100238BF89E318AF8B032DFED8B
S31508013BD0747AB4EE679A0023F1EE10FA8AF8703215
S31508013BE040F01586DDE91A0100224FF0804310F0F6
S31508013BF081FB002840F00B86169BDDF878141C889B
S31508013C00684B0022C1E90023DDF8741407EE904AD7
S31508013C10C1E90023B8EEE79ADFED639AB4EEE99AB3
S31508013C20F1EE10FA15DB204610F092F8DDF8803433
S31508013C30D3E9422310F068FB58B19AF83C3243B9EC
S31508013C40B4EE699AF1EE10FA45F06C8601238AF80A
S31508013C503B329FED569AB4EEC98AF1EE10FA72DB41
S31508013C60404610F075F8DDF88034D3E9442310F0A6
S31508013C704BFB002867D0169B1B8807EE903AF8EE97
S31508013C80E77AF4EE497AF1EE10FA5CD1179BD3E99B
S31508013C90004500224FF080432046294610F02AFBB2
S31508013CA0002845F0D086189B93ED007B57EC176BDF
S31508013CB0B0EE479AF0EE679A17EE100A00224FF017
S31508013CC08043394610F016FB9AF83C92002806F014
S31508013CD0E080B9F1000F46F0DC80354B0022204622
S31508013CE0294610F007FB002806F09F8628A7D7E982
S31508013CF00067CDE91A67DAE96C45DDE91A2330462A
S31508013D00394610F015FB002845F06487CDE91C6794
S31508013D1022462B463046394610F000FB002844F06F
S31508013D202787B9F1000F05F0C186189BD3E9000171
S31508013D3010F050FB1F4AC3B21370DDF854248AF8F9
S31508013D403332012313709FED1C9AB4EEC98AF1EE42
S31508013D5010FA73DB40460FF0FBFFDDF88034D3E938
S31508013D604C2310F0D1FA002868D0169B1B8807EE61
S31508013D70903AF8EEE77AF4EE497AF1EE10FA5DD167
S31508013D809AF84C32002B59D018E000BFAFF30080E7
S31508013D900000E0FFFFFFEF41720800200000DE434C
S31508013DA00000C8420000F03F0000D0420000D8429F
S31508013DB000000840680700200000584317990022B0
S31508013DC0D1E900014FF0804310F094FA002835D16B
