S02800002E2E2F48414E636F6465725F453430375F5454415F54656D706C6174655F44532E7372656375
S31508004000E4D100200D0902080000000000000000AD
S315080040100000000000000000000000000000000092
S31508004020000000000000000000000000D5D60108CE
S31508004030000000000000000071D70108C1D7010880
S315080040400000000000000000000000000000000062
S315080040500000000000000000000000000000000052
S3150800406000000000D9E4010800000000000000007C
S315080040700000000000000000000000000000000032
S31508004080000000000000000000000000FDCA010852
S31508004090B5CA0108D9CA010821CB010800000000E9
S315080040A0C5E40108B1E401089DE401088DE40108AE
S315080040B079E4010865E4010851E4010800000000FC
S315080040C000000000000000000000000000000000E2
S315080040D000000000DDEE0108F5EE01080DEF01080D
S315080040E00000000000000000D5EF010800000000F5
S315080040F03DE4010829E4010819E40108000000006C
S31508004100000000003DEF010800000000000000006C
S315080041100000000000000000000000000000000091
S3150800412000000000000000000000000041EF010848
S315080041300000000009E50108000000008DCB010819
S3150800414045CB010869CB0108B1CB010805F0010888
S3150800415000000000000000000000000025EF010834
S315080041600000000000000000000000000000000041
S315080041700000000000000000000000000000000031
S311080041800000000000000000EE11AA5527
S3150800C00000000000000055400000000000207140BC
S3150800C0100000000000005640000000000040654097
S3150800C02000000000000054400000000000C06F40FF
S3150800C0300000000000C065400000000000207040BD
S3150800C04000000000000055400000000000A07540F8
S3150800C0500000000000E07040000000000020714071
S3150800C06000000000000056400000000000C06540C7
S3150800C070000000000000544000000000002070404E
S3150800C08000000000004066400000000000607040AC
S3150800C0900000000000805740000000000060754066
S3150800C0A000000000000055400000000000C070407D
S3150800C0B000000000004076400000000000C0754007
S3150800C0C00000000000007640000000000080764076
S3150800C0D00000000000C07640000000000000774025
S3150800C0E000000000004077400000000000005640B5
S3150800C0F00000000000005740000000000000544007
S3150800C1000000000000806540000000000000664056
S3150800C11000000000008066400000000000407040FB
S3150800C1200000000000807040000000000000004091
S3150800C13000000000000000010100000001000000EE
S3150800C14001000000010000000000000020000000BF
S3150800C1502000000020000000200000000000000071
S3150800C1601F0000001F0000001F0000001F00000045
S3150800C17000000000010000000100000001000000AE
S3150800C18001000000000000000000000000000000A0
S3150800C190000000000D0000000D0000000D0000006A
S3150800C1A00D000000000000000C0000000C0000005C
S3150800C1B00C0000000C000000000000000B0000004E
S3150800C1C00B0000000B0000000B0000000000000040
S3150800C1D0010000000100000001000000010000004D
S3150800C1E000000000000000000000000000003640CB
S3150800C1F00000000000004640000000000000374034
S3150800C2000000000000004740000000000000384021
S3150800C2100000000000004840000000000000364012
S3150800C2200000000000004640000000000000374003
S3150800C23000000000000047400000000000003840F1
S3150800C2400000000000004840000000000000000058
S3150800C25000000000000054400000000000005540A7
S3150800C2600000000000805540000000000000564015
S3150800C2700000000000805640000000000000574003
S3150800C28000000000008065400000000000006640D5
S3150800C290000000000080664000000000004070407A
S3150800C2A00000000000607040000000000080704040
S3150800C2B00000000000C070400000000000C075408B
S3150800C2C000000000000076400000000000407640B4
S3150800C2D000000000008076400000000000C07640A4
S3150800C2E00000000000007740000000000000000089
S3150800C2F0000000000000F03F000000000000F03FD2
S3150800C300000000000000F03F000000000000F03FC1
S3150800C310000000000000F03F0000000000000000E0
S3150800C320000000000000F03F000000000000F03FA1
S3150800C3300000000000000000000000000000F03FC0
S3150800C340000000000000F03F000000000000F03F81
S3150800C3500000000000000000000000000000F03FA0
S3150800C360000000000000F03F000000000000F03F61
S3150800C370000000000000F03F000000000000F03F51
S3150800C380000000000000F03F000000000000000070
S3150800C3900000000000005440000000000000554066
S3150800C3A00000000000805540000000000080564054
S3150800C3B000000000004065400000000000C0654025
S3150800C3C00000000000C06F40000000000020704020
S3150800C3D0000000000020754000000000000000007A
S3150800C3E0000000000000F03F000000000000F03FE1
S3150800C3F0000000000000F03F000000000000000000
S3150800C400000000000000F03F0000000000000000EF
S3150800C410000000000000F03F0000000000000000DF
S3150800C420000000000000F03F0000000000000000CF
S3150800C43000000000000054400000000000005540C5
S3150800C44000000000008055400000000000805640B3
S3150800C45000000000008057400000000000C0654052
S3150800C4600000000000406640000000000020704008
S3150800C4700000000000607040000000000060754089
S3150800C4800000000000A070400000000000E07040BE
S3150800C49000000000000071400000000000000000DD
S3150800C4A0000000000000F03F000000000000F03F20
S3150800C4B0000000000000F03F000000000000F03F10
S3150800C4C00000000000000000000000000000F03F2F
S3150800C4D00000000000000000000000000000F03F1F
S3150800C4E00000000000000000000000000000F03F0F
S3150800C4F0000000000000F03F000000000000F03FD0
S3150800C500000000000000F03F0000010101000100EA
S3150800C51001010000000100016464640048414E63A3
S3150800C5206F6465725F453430375F5454415F5465B4
S3150800C5306D706C6174655F44535F736F6674776181
S3150800C540726549445F76315F3233303532335F3254
S3150800C55030333330320000004170704374726C54CB
S3150800C56061736B0048414E636F6465725F45343092
S3150800C570375F5454415F54656D706C6174655F44F0
S3150800C580532E630020000000001402400800090032
S3150800C590200000000014024010000E0020000000D9
S3150800C5A00014024020000F00200000000014024082
S3150800C5B0400004002000000000140240800005002E
S3150800C5C020000000001402400001060020000000C0
S3150800C5D00014024000020700200000000014024078
S3150800C5E000040800040000000008024001000A00D8
S3150800C5F0040000000008024004000C0041444363A4
S3150800C6006F6E76657273696F6E5461736B000000A6
S3150800C6102E2E2F626C6F636B7365742F7274772F6F
S3150800C62053544D33322F7372632F686561705F34CC
S3150800C6302E630000546D724370754C6F6164000080
S3150800C64049444C45000000002E2E2F626C6F636B28
S3150800C6507365742F7274772F53544D33322F737258
S3150800C660632F7461736B732E630000002E2E2F6286
S3150800C6706C6F636B7365742F7274772F53544D33D5
S3150800C680322F7372632F74696D6572732E6300009F
S3150800C690546D72205376630043616E4576656E74F9
S3150800C6A05461736B0000000043616E5472616E73CF
S3150800C6B06D69745461736B002E2E2F626C6F636BF9
S3150800C6C07365742F7274772F53544D33322F7372E8
S3150800C6D0632F53544D33325F453430372F63616EC1
S3150800C6E02E630000006400400000000208000000FD
S3150800C6F0000C02400100000008000000000C024087
S3150800C7000200010009131415160000000068004015
S3150800C710000000040200000000040240200005009A
S3150800C720020000000004024040000600093F4041A4
S3150800C7304200000001010201020202020203020293
S3150800C74004020203030304030305030306030305A4
S3150800C7500404060404070404080404070505080578
S3150800C760050806050807050807060808060808074D
S3150800C77008080800457643686E6C310045764368BC
S3150800C7806E6C3200457643686E6C33002E2E2F622F
S3150800C7906C6F636B7365742F7274772F53544D33B4
S3150800C7A0322F7372632F53544D33325F453430370B
S3150800C7B02F6D61632E6300002E2E2F626C6F636BE4
S3150800C7C07365742F7274772F53544D33322F7372E7
S3150800C7D0632F53544D33325F453430372F706F72A1
S3150800C7E0742E6300000001400100000002010000F1
S3150800C7F010000000001002400002090010000000AE
S3150800C8000010024000080B0000040040020000006F
S3150800C810010200000100000000000240400006007E
S3150800C8200200000000040240200005000008004045
S3150800C830040000000102000008000000000C02408D
S3150800C84000100C0008000000000C024000200D003B
S3150800C850000401400200000002030000040000007A
S3150800C86000080240400006000400000000080240DC
S3150800C87080000700000001400100000002011900C5
S3150800C880000000400100000001021C0000040040F6
S3150800C8900200000001021D0000080040040000001C
S3150800C8A001021E00000401400200000002012C00E3
S3150800C8B00040014000000100020118000044014048
S3150800C8C000000200020119000048014000000400AF
S3150800C8D002011A00001C00408000000001022C0022
S3150800C8E0002000400001000001022D0004000000A5
S3150800C8F00008024001000000200000000014024069
S3150800C90040000000200000000014024080000000E3
S3150800C9102000000000140240000100002000000072
S3150800C920001402400002000020000000001402402B
S3150800C930000400000200000000040240800000001D
S3150800C9400200000000040240400000001000000041
S3150800C9500010024004000000100000000010024011
S3150800C9601000000010000000001002402000000027
S3150800C97010000000001002404000000040000000C7
S3150800C9800018024080000000400000000018024025
S3150800C99000010000400000000018024000100000DE
S3150800C9A0400000000018024000800000010000005E
S3150800C9B000000240100000000200000000040240CF
S3150800C9C020000000010000000000024040000000B6
S3150800C9D001000000000002402000000008000000DE
S3150800C9E0000C02400100000008000000000C024094
S3150800C9F00200000008000000000C024004000000CD
S3150800CA0008000000000C02400800000008000000B2
S3150800CA10000C02401000000008000000000C024054
S3150800CA202000000008000000000C02404000000042
S3150800CA3008000000000C024080000000080000000A
S3150800CA40000C02400001000008000000000C024033
S3150800CA500002000008000000000C0240000400006C
S3150800CA6008000000000C0240000800000800000052
S3150800CA70000C02400010000008000000000C0240F4
S3150800CA800020000008000000000C024000400000E2
S3150800CA9008000000000C02400080000010000000A2
S3150800CAA000100240010000001000000000100240C3
S3150800CAB002000000100000000010024008000000FC
S3150800CAC01000000000100240800000001000000066
S3150800CAD00010024000010000100000000010024093
S3150800CAE000020000100000000010024000040000D0
S3150800CAF010000000001002400008000010000000AE
S3150800CB000010024000100000100000000010024053
S3150800CB100020000010000000001002400040000045
S3150800CB2010000000001002400080000020000000F5
S3150800CB30001402400100000020000000001402401A
S3150800CB40020000002000000000140240040000005B
S3150800CB502000000000140240080000002000000029
S3150800CB6000140240100000002000000000140240DB
S3150800CB702000000020000000001402400008000009
S3150800CB8020000000001402400010000020000000F1
S3150800CB90001402400020000020000000001402409B
S3150800CBA00040000020000000001402400080000041
S3150800CBB0400000000018024001000000400000008C
S3150800CBC00018024002000000400000000018024061
S3150800CBD004000000400000000018024008000000A1
S3150800CBE0400000000018024010000000400000004D
S3150800CBF00018024020000000400000000018024013
S3150800CC00400000004000000000180240000200003A
S3150800CC104000000000180240000400004000000028
S3150800CC2000180240000800004000000000180240FA
S3150800CC3000200000400000000018024000400000EC
S3150800CC40010000000000024001000000040000008E
S3150800CC500008024001000000200000000014024005
S3150800CC604000000020000000001402408000000080
S3150800CC70200000000014024000010000200000000F
S3150800CC8000140240000200002000000000140240C8
S3150800CC9000040000020000000004024080000000BA
S3150800CCA002000000000402404000000010000000DE
S3150800CCB000100240040000001000000000100240AE
S3150800CCC010000000100000000010024020000000C4
S3150800CCD01000000000100240400000004000000064
S3150800CCE000180240800000004000000000180240C2
S3150800CCF0000100004000000000180240001000007B
S3150800CD0040000000001802400080000001000000FA
S3150800CD10000002401000000002000000000402406B
S3150800CD202000000001000000000002404000000052
S3150800CD30010000000000024020000000080000007A
S3150800CD40000C02400100000008000000000C024030
S3150800CD500200000008000000000C02400400000069
S3150800CD6008000000000C024008000000080000004F
S3150800CD70000C02401000000008000000000C0240F1
S3150800CD802000000008000000000C024040000000DF
S3150800CD9008000000000C02408000000008000000A7
S3150800CDA0000C02400001000008000000000C0240D0
S3150800CDB00002000008000000000C02400004000009
S3150800CDC008000000000C02400008000008000000EF
S3150800CDD0000C02400010000008000000000C024091
S3150800CDE00020000008000000000C0240004000007F
S3150800CDF008000000000C024000800000100000003F
S3150800CE00001002400100000010000000001002405F
S3150800CE100200000010000000001002400800000098
S3150800CE201000000000100240800000001000000002
S3150800CE30001002400001000010000000001002402F
S3150800CE40000200001000000000100240000400006C
S3150800CE50100000000010024000080000100000004A
S3150800CE6000100240001000001000000000100240F0
S3150800CE7000200000100000000010024000400000E2
S3150800CE801000000000100240008000002000000092
S3150800CE9000140240010000002000000000140240B7
S3150800CEA002000000200000000014024004000000F8
S3150800CEB020000000001402400800000020000000C6
S3150800CEC00014024010000000200000000014024078
S3150800CED020000000200000000014024000080000A6
S3150800CEE0200000000014024000100000200000008E
S3150800CEF00014024000200000200000000014024038
S3150800CF0000400000200000000014024000800000DD
S3150800CF104000000000180240010000004000000028
S3150800CF2000180240020000004000000000180240FD
S3150800CF30040000004000000000180240080000003D
S3150800CF4040000000001802401000000040000000E9
S3150800CF5000180240200000004000000000180240AF
S3150800CF6040000000400000000018024000020000D7
S3150800CF7040000000001802400004000040000000C5
S3150800CF800018024000080000400000000018024097
S3150800CF900020000040000000001802400040000089
S3150800CFA004000000000802400020000000000140C4
S3150800CFB00100000002011B00000000400100000003
S3150800CFC001021C00000400400200000001021D00CE
S3150800CFD0000800400400000001021E000004014091
S3150800CFE00200000002012E0000400140000001007E
S3150800CFF00201180000440140000002000201190065
S3150800D000004801400000040002011A00001C00400C
S3150800D0108000000001022C000020004000010000F2
S3150800D02001022D001000000000100240000200005E
S3150800D0300200020001000900100000000010024072
S3150800D040000800010400200001000B001000000089
S3150800D05000100240002000020800000201000D0036
S3150800D06010000000001002400040000310000020DD
S3150800D07001000E000100000000000240200001002F
S3150800D0800200020001000500010000000000024045
S3150800D0904000020002000200020006000200000032
S3150800D0A000040240200002010400200002000500DE
S3150800D0B008000000000C02400010030002000200F5
S3150800D0C002000C0008000000000C024000200301CA
S3150800D0D00400200002000D000400000000080240C1
S3150800D0E040000400020002000300060004000000DD
S3150800D0F00008024080000401040020000300070025
S3150800D1001000000000100240200005000200020086
S3150800D1100300050010000000001002404000050151
S3150800D120040020000300060020000000001402404E
S3150800D130400006000200020003000600200000006E
S3150800D14000140240800007000200020003000700E6
S3150800D150200000000014024000010800020002003E
S3150800D160090008002000000000140240000209001F
S3150800D170020002000900090000100140100000002A
S3150800D18002250000020000000004024040000600DC
S3150800D19002000000000402408000070007000000AB
S3150800D1A000440040000002000126000008000000BC
S3150800D1B0000C02402000050008000000000C024098
S3150800D1C04000060007000000004800400000040078
S3150800D1D00127000008000000000C024000010800BA
S3150800D1E008000000000C02400002090007000000C9
S3150800D1F0001401402000000002470000040000005F
S3150800D2000008024040000600040000000008024032
S3150800D210800007000800000056435020436F6E66E2
S3150800D2206967000056435020496E746572666163EB
S3150800D2306500000053544D6963726F656C656374CD
S3150800D240726F6E696373000053544D33322056690A
S3150800D250727475616C20436F6D506F727420696EBD
S3150800D260204853206D6F64650000000053544D3309
S3150800D27032205669727475616C20436F6D506F72F7
S3150800D2807420696E204653204D6F646500000000C7
S3150800D2903030303030303030303530420000000029
S3150800D2A03030303030303030303530430000000018
S3150800D2B0000001400100000002011B0000000040C0
S3150800D2C00100000001021C000004004002000000EA
S3150800D2D001021D00000800400400000001021E00B3
S3150800D2E0000401400200000002012E000040014037
S3150800D2F0000001000201180000440140000002007D
S3150800D30002011900004801400000040002011A0049
S3150800D310001C00408000000001022C000020004094
S3150800D3200001000001022D0010000000001002405C
S3150800D33000020000020002000100090010000000BF
S3150800D34000100240000800010400200001000B0044
S3150800D3501000000000100240002000020800000231
S3150800D36001000D00100000000010024000400003FC
S3150800D3701000002001000E0001000000000002401D
S3150800D3802000010002000200010005000100000063
S3150800D39000000240400002000200020002000600EF
S3150800D3A002000000000402402000020104002000E0
S3150800D3B00200050008000000000C024000100300EF
S3150800D3C00200020002000C0008000000000C0240E7
S3150800D3D0002003010400200002000D0004000000E4
S3150800D3E00008024040000400020002000300060094
S3150800D3F00400000000080240800004010400200028
S3150800D400030007001000000000100240200005007D
S3150800D4100200020003000500100000000010024090
S3150800D420400005010400200003000600200000005B
S3150800D4300014024040000600020002000300060035
S3150800D44020000000001402408000070002000200CD
S3150800D4500300070020000000001402400001080035
S3150800D4600200020009000800200000000014024023
S3150800D4700002090002000200090009002E2E2F6290
S3150800D4806C6F636B7365742F7274772F53544D33B7
S3150800D490322F7372632F71756575652E63000000F0
S3150800D4A004040400B4D40008BCD40008C4D400089A
S3150800D4B007070700457643686E6C31004576436872
S3150800D4C06E6C3200457643686E6C330050505000DF
S3150800D4D000000000000000000000000000000080BE
S315080100000B78FF2B00D070474B78002BFBD10AF0F9
S31508010010E1BE00BF08B501200AF00CF9BDE80840A9
S31508010020024A40F2676100200CF02ABF010001086C
S315080100300AF00CB8704700BFF8B504460D469DF89E
S315080100401800002A35D0264E184613F099F8D6E935
S31508010050002313F00FF922462B4612F055FF214BC8
S31508010060002212F051FF089B04460D4618881E4FC0
S3150801007013F086F802460B462046294612F042FF3F
S31508010080002632463B4604460D4613F083FB18B15B
S31508010090079BC3E90067F8BD144F00263B46204677
S315080100A02946324613F058FB079BA8B1C3E90067F6
S315080100B0F8BD0F4E13F064F8D6E9002313F0DAF809
S315080100C022462B4612F020FF064B002212F01CFF97
S315080100D0099B04460D46C9E7C3E90045F8BD00BFBB
S315080100E0080000200000084000002E4000002EC035
S315080100F0100000202DE9F047DDF820A00F461E4626
S3150801010004462D4BDAE900019046002212F0FCFE66
S31508010110DDE909590123CAE900013B70D9F8001044
S315080101201944264B1960C9F80010366807EE106A9B
S31508010130B8EE477AF7EE007AB4EE677AF1EE10FA7E
S3150801014003D11D4B0022C8E900232778DFF8788000
S31508010150384613F015F81A4BC8E900011E602F71CD
S315080101602E60E2796A7194F8019085F8069094F800
S31508010170028085F8078094F803E085F808E094F88A
S3150801018004C085F809C031466679AE720D4BA0796F
S31508010190E8729871DA711F7083F8019083F802800A
S315080101A083F803E083F804C05E710822BDE8F047CE
S315080101B000200CF0F1BB00BF0000F03F2007002033
S315080101C028070020040800203007002008B501216F
S315080101D000200CF0E5FD0B2100200CF0E1FD0C21BF
S315080101E000200CF0DDFD0D2100200CF0D9FD1621B3
S315080101F000200CF0D5FD2C2100200CF0D1FD172193
S3150801020000200CF0CDFD2E2100200CF0C9FD18218F
S3150801021000200CF0C5FD302100200CF0C1FD1F2186
S3150801022000200CF0BDFDBDE80840202100200CF09F
S31508010230B7BD00BF2DE9F04F2DED108B93B0CDE979
S315080102400E23329DD64A2B68DFF85CA32D9E0D90AE
S31508010250013313602B602C9B1F68CAF8007007EEE8
S31508010260107AF8EE478AF7EE007AF4EE678AF1EE2D
S3150801027010FADDE930488B4600F09884EB79B0EE48
S31508010280689A002B40F02E82F2EE067AB4EE679A4F
S31508010290F1EE10FA00F04182AB79F0EE499A002BA3
S315080102A040F0DB81F2EE087AF4EE679AF1EE10FA85
S315080102B000F0EA816B79B0EE69AA002B40F09A81C9
S315080102C0F2EE0A7AB4EE67AAF1EE10FA00F0A58109
S315080102D02B79002B40F08281384612F051FF98EDB8
S315080102E0007B02460B46CDE90A23B0EE47CAF0EE7B
S315080102F067CA53EC172B13F025FA002840F09783A9
S31508010300EB7B002B40F052819DED0A7B8DED027B44
S3150801031098ED027BDDE90223B0EE47DAF0EE67DA03
S3150801032051EC170B13F00EFA002840F02383AB7B30
S31508010330002B00F098829DED027B8DED047B002356
S31508010340A37284F85C3084F85D3084F85E3084F8F2
S315080103505F3084F8603084F8613084F8623084F85C
S315080103606330AB7398ED047BDDE90423B0EE47EA0D
S31508010370F0EE67EA51EC170B13F0E4F9002840F0A8
S315080103807C826B7B002B00F073829DED047B8DEDE7
S31508010390067B0023637284F8543084F8553084F858
S315080103A0563084F8573084F8583084F8593084F830
S315080103B05A3084F85B306B7398ED067BDDE90623CA
S315080103C0B0EE47FAF0EE67FA51EC170B13F0BAF9EB
S315080103D0002840F0B583AB7A002B00F038829DEDFA
S315080103E0067B8DED087B0023A37184F83C3084F8E5
S315080103F03D3084F83E3084F83F3084F8403084F844
S31508010400413084F8423084F84330AB7298ED087B6A
S31508010410DDE9082351EC170B8DED107B13F092F9EA
S31508010420002840F060826B7A002B00F015829DED62
S31508010430087B0023637184F8343084F8353084F8F6
S31508010440363084F8373084F8383084F8393084F80F
S315080104503A3084F83B306B72B0EE47BAF0EE67BAC1
S31508010460D8E90A8953EC1B2B4046494613F06AF929
S31508010470002840F03D832B7A93B10023237184F839
S315080104802C3084F82D3084F82E3084F82F3084F8F7
S31508010490303084F8313084F8323084F833302B72B6
S315080104A007EE907AB8EE678AF3EE0F7AB4EE678AAA
S315080104B0F1EE10FA00F0F1822B7BF0EE487A93B157
S315080104C00023237284F84C3084F84D3084F84E307A
S315080104D084F84F3084F8503084F8513084F852301B
S315080104E084F853302B739FED2F7AF4EE477AF1EEA9
S315080104F010FA00F07582EB7A93B10023E37184F860
S31508010500443084F8453084F8463084F8473084F816
S31508010510483084F8493084F84A3084F84B30EB7215
S31508010520F7EE007AF4EE678AF1EE10FA40F076817A
S3150801053094F9033094F8240094F825E094F826C039
S3150801054094F8277094F8285094F8291094F82A20DA
S3150801055094F82B4096F8008007EE908AF8EEE77A31
S31508010560B7EE008AF4EE487AF1EE10FA40F0078108
S315080105708BB9022232702E9A01231370337807EE53
S31508010580903AF8EEE77AB0EE007AF4EE477AF1EEB1
S3150801059010FA40F0348113B0BDEC108BBDE8F08F32
S315080105A0B806002000000042C00600209DED0A7B27
S315080105B00023E37284F8643084F8653084F8663081
S315080105C084F8673084F8683084F8693084F86A30CA
S315080105D084F86B308DED027BEB7399E6002323706B
S315080105E023736373A373E37323746374A374E37448
S315080105F02B7171E6F2EE0A7AB4EE67AA0023F1EEE0
S3150801060010FA637023756375A375E37523766376AC
S31508010610A376E3766B717FF45BAECE4F002201239E
S31508010620009210462B710D213B460CF0E5FB002884
S3150801063020700FDD7B786373BB78A373FB78E37354
S315080106403B7923747B796374BB79A374FB79E3746F
S315080106503B782373DAF800703EE6F2EE087AF4EE98
S31508010660679A0023F1EE10FAA37023776377A377CD
S31508010670E37784F8203084F8213084F8223084F82E
S315080106802330AB717FF416AEDFF8D892002201232E
S31508010690009210466B710C214B460CF0ADFB607055
S315080106A0DAF8007007EE907A0028B8EE67AA7FF7A5
S315080106B007AE99F80130637599F80230A37599F870
S315080106C00330E37599F80430237699F80530637693
S315080106D099F80630A37699F80730E37699F8003049
S315080106E02375EDE5F2EE067AB4EE679A0023F1EE8C
S315080106F010FAE37084F8243084F8253084F826301B
S3150801070084F8273084F8283084F8293084F82A3088
S3150801071084F82B30EB717FF4BFADDFF84C920022E1
S31508010720012300921046AB710B214B460CF064FB7A
S31508010730A070DAF8007007EE907A0028F8EE679A4A
S315080107407FF7B0AD99F80130637799F80230A3774E
S3150801075099F80330E37799F8043084F8203099F84A
S31508010760053084F8213099F8063084F8223099F852
S31508010770073084F8233099F80030237792E5B0EEF4
S31508010780007AF4EE477AF1EE10FA38D1002B7FF7AA
S3150801079002AF8BF806202E9A8BF801E001238BF81D
S315080107A007408BF800008BF802C08BF803708BF8B2
S315080107B004508BF8051013700F9A674C13700323B6
S315080107C033700D9B654A1B8813800E9A138012F0AD
S315080107D0D7FC2C9BD3ED007AF8EE677AC4E90001C1
S315080107E0F4EE487AF1EE10FA04D15D4B2F99002206
S315080107F0C1E90023337807EE903AF8EEE77AF5EE89
S31508010800407AF1EE10FA7FF4C6AE2E9A01233370C0
S31508010810137013B0BDEC108BBDE8F08FF2EE067ABB
S31508010820B4EE679AF1EE10FA40F0F68194F90230C7
S31508010830207F94F81DE094F81EC0E77F94F82050B5
S3150801084094F8211094F8222094F8234082E69DED2D
S31508010850067B8DED087BD9E59DED087BB0EE47BAA1
S31508010860F0EE67BAFCE59DED027B8DED047B79E53B
S315080108709DED047B8DED067B9EE5DFF8F090002269
S315080108800123009210466B7317214B460CF0B4FAFC
S315080108900028DAF8007060721FDD99F8013084F8D3
S315080108A0553099F8023084F8563099F8033084F8AF
S315080108B0573099F8043084F8583099F8053084F897
S315080108C0593099F8063084F85A3099F8073084F87F
S315080108D05B3099F8003084F85430384612F050FCF1
S315080108E0CDE9060168E5DFF8889000220123009228
S315080108F010466B7218214B460CF07EFA0028DAF87E
S31508010900007060711FDD99F8013084F8353099F867
S31508010910023084F8363099F8033084F8373099F87C
S31508010920043084F8383099F8053084F8393099F864
S31508010930063084F83A3099F8073084F83B3099F84C
S31508010940003084F83430384612F01AFC41EC1B0B9F
S3150801095086E500BF54070020D8060020CE060020F1
S315080109600000F03F4C070020440700206C070020D8
S3150801097074070020DFF8989300220123009210469D
S31508010980AB732C214B460CF037FA0028DAF80070C5
S31508010990A0721FDD99F8013084F85D3099F80230AC
S315080109A084F85E3099F8033084F85F3099F804309A
S315080109B084F8603099F8053084F8613099F8063082
S315080109C084F8623099F8073084F8633099F8003072
S315080109D084F85C30384612F0D3FBCDE90401C1E452
S315080109E0C84F0022012300921046EB7220213B4694
S315080109F00CF002FA0028E0717FF792AD7B7884F853
S31508010A004530BB7884F84630FB7884F847303B7923
S31508010A1084F848307B7984F84930BB7984F84A30C0
S31508010A20FB7984F84B303B7884F8443078E5DFF875
S31508010A30E4920022012300921046EB7316214B46DD
S31508010A400CF0DAF90028DAF80070E0721FDD99F87F
S31508010A50013084F8653099F8023084F8663099F8DF
S31508010A60033084F8673099F8043084F8683099F8C7
S31508010A70053084F8693099F8063084F86A3099F8AF
S31508010A80073084F86B3099F8003084F864303846BA
S31508010A9012F076FBCDE902013AE49B4F00220123CD
S31508010AA0009210462B731F213B460CF0A5F9DAED8F
S31508010AB0007A20720028F8EE677A7FF714AD7B7802
S31508010AC084F84D30BB7884F84E30FB7884F84F3083
S31508010AD03B7984F850307B7984F85130BB7984F8B6
S31508010AE05230FB7984F853303B7884F84C30FAE479
S31508010AF0864F00220123009210462B7230213B4675
S31508010B000CF07AF90028207117DD7B7884F82D30EE
S31508010B10BB7884F82E30FB7884F82F303B7984F83B
S31508010B2030307B7984F83130BB7984F83230FB79FF
S31508010B3084F833303B7884F82C30DAF80070AFE467
S31508010B40DFF8D4910022012300921046AB722E21C0
S31508010B504B460CF051F90028DAF80070A0711FDD38
S31508010B6099F8013084F83D3099F8023084F83E301E
S31508010B7099F8033084F83F3099F8043084F8403006
S31508010B8099F8053084F8413099F8063084F84230EE
S31508010B9099F8073084F8433099F8003084F83C30E6
S31508010BA0384612F0EDFACDE908012FE4DFF86C9129
S31508010BB00022012100924B46E97110460CF01CF9FE
S31508010BC0E070DAF8007007EE907A0028B8EE679AB6
S31508010BD07FF75AAB99F8013084F8253099F8023035
S31508010BE084F8263099F8033084F8273099F80430C8
S31508010BF084F8283099F8053084F8293099F80630B0
S31508010C0084F82A3099F8073084F82B3099F800309F
S31508010C1084F82430FFF738BBF2EE087AF4EE679AC7
S31508010C20F1EE10FA13D0F2EE0A7AB4EE67AAF1EEF3
S31508010C3010FA19D194F90030207B94F80DE094F854
S31508010C400EC0E77B257C617CA27CE47C82E494F976
S31508010C500130207D94F815E094F816C0E77D257ECD
S31508010C60617EA27EE47E75E4DDE90A0153EC1C2B64
S31508010C7012F068FDC8B9DDE9022351EC1D0B12F02B
S31508010C8061FD28B394F90A3094F85C0094F85DE0A4
S31508010C9094F85EC094F85F7094F8605094F8611007
S31508010CA094F8622094F8634054E494F90B3094F86C
S31508010CB0640094F865E094F866C094F8677094F84F
S31508010CC0685094F8691094F86A2094F86B4041E4E6
S31508010CD0DDE9042351EC1E0B12F034FD00B394F93F
S31508010CE0093094F8540094F855E094F856C094F8ED
S31508010CF0577094F8585094F8591094F85A2094F863
S31508010D005B4027E4840700207C0700209C0700201D
S31508010D108C07002064070020940700205C07002048
S31508010D20DDE9062351EC1F0B12F00CFD98B194F97D
S31508010D30063094F83C0094F83DE094F83EC094F8E7
S31508010D403F7094F8405094F8411094F8422094F872
S31508010D504340FFF7FFBBDDE90823DDE9100112F087
S31508010D60F1FC98B194F9053094F8340094F835E01B
S31508010D7094F836C094F8377094F8385094F83910C6
S31508010D8094F83A2094F83B40FFF7E4BB53EC1B2B4D
S31508010D904046494612F0D6FC98B194F9043094F8C5
S31508010DA02C0094F82DE094F82EC094F82F7094F83E
S31508010DB0305094F8311094F8322094F83340FFF704
S31508010DC0C9BBF3EE0F7AB4EE678AF1EE10FA13D1C6
S31508010DD094F9083094F84C0094F84DE094F84EC014
S31508010DE094F84F7094F8505094F8511094F8522092
S31508010DF094F85340FFF7AEBB94F9073094F84400D2
S31508010E0094F845E094F846C094F8477094F8485029
S31508010E1094F8491094F84A2094F84B40FFF79ABB86
S31508010E20012108B508460BF0BBFF0B2101200BF089
S31508010E30B7FF0C2101200BF0B3FF0D2101200BF0A8
S31508010E40AFFF162101200BF0ABFF2C2101200BF07F
S31508010E50A7FF172101200BF0A3FF2E2101200BF07C
S31508010E609FFF182101200BF09BFF302101200BF079
S31508010E7097FF1F2101200BF093FFBDE808402021B1
S31508010E8001200BF08DBF00BF2DE9F04F2DED108B22
S31508010E9093B0CDE90E23329DD64A2B68DFF85CA3C1
S31508010EA02D9E0D90013313602B602C9B1F68CAF889
S31508010EB0007007EE107AF8EE478AF7EE007AF4EE3C
S31508010EC0678AF1EE10FADDE930488B4600F08C842A
S31508010ED0EB79B0EE689A002B40F02C82F2EE067A96
S31508010EE0B4EE679AF1EE10FA00F03F82AB79F0EEB4
S31508010EF0499A002B40F0DA81F2EE087AF4EE679A05
S31508010F00F1EE10FA00F0E9816B79B0EE69AA002BCF
S31508010F1040F09A81F2EE0A7AB4EE67AAF1EE10FA77
S31508010F2000F0A5812B79002B40F08281384612F01A
S31508010F3027F998ED007B02460B46CDE90A23B0EE68
S31508010F4047CAF0EE67CA53EC172B12F0FBFB0028D1
S31508010F5040F08F83EB7B002B40F052819DED0A7B9D
S31508010F608DED027B98ED027BDDE90223B0EE47DACF
S31508010F70F0EE67DA51EC170B12F0E4FB002840F0AB
S31508010F801D83AB7B002B00F095829DED027B8DEDD9
S31508010F90047B0023A37284F85C3084F85D3084F8FE
S31508010FA05E3084F85F3084F8603084F8613084F804
S31508010FB0623084F86330AB7398ED047BDDE9042372
S31508010FC0B0EE47EAF0EE67EA51EC170B12F0BAFBFE
S31508010FD0002840F079826B7B002B00F070829DED32
S31508010FE0047B8DED067B0023637284F8543084F804
S31508010FF0553084F8563084F8573084F8583084F8D8
S31508011000593084F85A3084F85B306B7398ED067B57
S31508011010DDE90623B0EE47FAF0EE67FA51EC170B55
S3150801102012F090FB002840F0AA83AB7A002B00F05F
S3150801103035829DED067B8DED087B0023A37184F82F
S315080110403C3084F83D3084F83E3084F83F3084F8EB
S31508011050403084F8413084F8423084F84330AB722A
S3150801106098ED087BDDE9082351EC170B8DED107B14
S3150801107012F068FB002840F05C826B7A002B00F0C6
S3150801108012829DED087B0023637184F8343084F85D
S31508011090353084F8363084F8373084F8383084F8B7
S315080110A0393084F83A3084F83B306B72B0EE47BA7F
S315080110B0F0EE67BAD8E90A8953EC1B2B4046494634
S315080110C012F040FB002840F033832B7A93B10023BA
S315080110D0237184F82C3084F82D3084F82E3084F866
S315080110E02F3084F8303084F8313084F8323084F87F
S315080110F033302B7207EE907AB8EE678AF3EE0F7AE1
S31508011100B4EE678AF1EE10FA00F0E8822B7BF0EE76
S31508011110487A93B10023237284F84C3084F84D3011
S3150801112084F84E3084F84F3084F8503084F85130C2
S3150801113084F8523084F853302B739FED2F7AF4EEEE
S31508011140477AF1EE10FA00F06E82EB7A93B100233A
S31508011150E37184F8443084F8453084F8463084F8DD
S31508011160473084F8483084F8493084F84A3084F89E
S315080111704B30EB72F7EE007AF4EE678AF1EE10FA6D
S3150801118040F0738194F9033094F8240094F825E02B
S3150801119094F826C094F8277094F8285094F82910E2
S315080111A094F82A2094F82B4096F8008007EE908A46
S315080111B0F8EEE77AB7EE008AF4EE487AF1EE10FA1D
S315080111C040F004818BB9022232702E9A01231370E2
S315080111D0337807EE903AF8EEE77AB0EE007AF4EE55
S315080111E0477AF1EE10FA40F0318113B0BDEC108B5D
S315080111F0BDE8F08FBC06002000000042C4060020AE
S315080112009DED0A7B0023E37284F8643084F8653027
S3150801121084F8663084F8673084F8683084F8693071
S3150801122084F86A3084F86B308DED027BEB7399E6AE
S315080112300023237023736373A373E37323746374A3
S31508011240A374E3742B7171E6F2EE0A7AB4EE67AA17
S315080112500023F1EE10FA637023756375A375E375C0
S3150801126023766376A376E3766B717FF45BAECB4F19
S315080112700120002228713B4600920D210BF0BCFD8E
S31508011280002820700FDD7B786373BB78A373FB7826
S31508011290E3733B7923747B796374BB79A374FB7914
S315080112A0E3743B782373DAF800703FE6F2EE087AC6
S315080112B0F4EE679A0023F1EE10FAA37023776377A9
S315080112C0A377E37784F8203084F8213084F8223034
S315080112D084F82330AB717FF417AEDFF8D092012082
S315080112E0002268714B4600920C210BF085FD607057
S315080112F0DAF8007007EE907A0028B8EE67AA7FF749
S3150801130009AE99F80130637599F80230A37599F811
S315080113100330E37599F80430237699F80530637636
S3150801132099F80630A37699F80730E37699F80030EC
S315080113302375EFE5F2EE067AB4EE679A0023F1EE2D
S3150801134010FAE37084F8243084F8253084F82630BE
S3150801135084F8273084F8283084F8293084F82A302C
S3150801136084F82B30EB717FF4C1ADDFF8449201208C
S315080113700022A8714B4600920B210BF03DFDA0708F
S31508011380DAF8007007EE907A0028F8EE679A7FF788
S31508011390B3AD99F80130637799F80230A37799F8D4
S315080113A00330E37799F8043084F8203099F805304A
S315080113B084F8213099F8063084F8223099F80730F4
S315080113C084F8233099F80030237795E5B0EE007A52
S315080113D0F4EE477AF1EE10FA38D1002B7FF705AF14
S315080113E08BF806202E9A8BF801E001238BF807402B
S315080113F08BF800008BF802C08BF803708BF8045049
S315080114008BF8051013700F9A654C1370032333700C
S315080114100D9B644A1B8813800E9A138011F0B0FE47
S315080114202C9BD3ED007AF8EE677AC4E90001F4EE55
S31508011430487AF1EE10FA04D15B4B2F990022C1E9E3
S315080114400023337807EE903AF8EEE77AF5EE407A1C
S31508011450F1EE10FA7FF4C9AE2E9A01233370137098
S3150801146013B0BDEC108BBDE8F08FF2EE067AB4EE40
S31508011470679AF1EE10FA40F0ED8194F90230207F77
S3150801148094F81DE094F81EC0E77F94F8205094F86C
S31508011490211094F8222094F8234085E69DED067BD9
S315080114A08DED087BDCE59DED087BB0EE47BAF0EEE5
S315080114B067BAFFE59DED027B8DED047B7CE59DED2D
S315080114C0047B8DED067BA1E5DFF8E890012000227B
S315080114D068734B46009217210BF08EFC0028DAF848
S315080114E0007060721FDD99F8013084F8553099F85B
S315080114F0023084F8563099F8033084F8573099F851
S31508011500043084F8583099F8053084F8593099F838
S31508011510063084F85A3099F8073084F85B3099F820
S31508011520003084F85430384611F02AFECDE9060118
S315080115306CE5DFF884900120002268724B46009220
S3150801154018210BF059FC0028DAF8007060711FDDCC
S3150801155099F8013084F8353099F8023084F8363034
S3150801156099F8033084F8373099F8043084F838301C
S3150801157099F8053084F8393099F8063084F83A3004
S3150801158099F8073084F83B3099F8003084F83430FC
S31508011590384611F0F5FD41EC1B0B8BE5B40700202D
S315080115A0E0060020D00600200000F03FAC0700202E
S315080115B0A4070020CC070020D4070020DFF88C936D
S315080115C001200022A8734B4600922C210BF014FC33
S315080115D00028DAF80070A0721FDD99F8013084F846
S315080115E05D3099F8023084F85E3099F8033084F852
S315080115F05F3099F8043084F8603099F8053084F83A
S31508011600613099F8063084F8623099F8073084F821
S31508011610633099F8003084F85C30384611F0B0FD33
S31508011620CDE90401C8E4C64F01200022E8723B4611
S31508011630009220210BF0E0FB0028E0717FF79AADBC
S315080116407B7884F84530BB7884F84630FB7884F893
S3150801165047303B7984F848307B7984F84930BB793F
S3150801166084F84A30FB7984F84B303B7884F8443067
S3150801167080E5DFF8DC9201200022E8734B460092F0
S3150801168016210BF0B9FB0028DAF80070E0721FDDAD
S3150801169099F8013084F8653099F8023084F8663093
S315080116A099F8033084F8673099F8043084F868307B
S315080116B099F8053084F8693099F8063084F86A3063
S315080116C099F8073084F86B3099F8003084F864305B
S315080116D0384611F055FDCDE9020143E4994F012041
S315080116E0002228733B4600921F210BF085FBDAED99
S315080116F0007A20720028F8EE677A7FF71EAD7B78AC
S3150801170084F84D30BB7884F84E30FB7884F84F3036
S315080117103B7984F850307B7984F85130BB7984F869
S315080117205230FB7984F853303B7884F84C3004E521
S31508011730854F0120002228723B46009230210BF08A
S315080117405BFB0028207117DD7B7884F82D30BB7888
S3150801175084F82E30FB7884F82F303B7984F83030C2
S315080117607B7984F83130BB7984F83230FB7984F897
S3150801177033303B7884F82C30DAF80070BAE4DFF8B5
S31508011780D49101200022A8724B4600922E210BF01B
S3150801179033FB0028DAF80070A0711FDD99F80130D3
S315080117A084F83D3099F8023084F83E3099F80330D0
S315080117B084F83F3099F8043084F8403099F80530B8
S315080117C084F8413099F8063084F8423099F80730A0
S315080117D084F8433099F8003084F83C30384611F0E3
S315080117E0CFFCCDE908013BE4DFF86C910121002229
S315080117F0E9714B46009208460BF0FEFAE070DAF8FA
S31508011800007007EE907A0028B8EE679A7FF766AB04
S3150801181099F8013084F8253099F8023084F8263091
S3150801182099F8033084F8273099F8043084F8283079
S3150801183099F8053084F8293099F8063084F82A3061
S3150801184099F8073084F82B3099F8003084F8243059
S31508011850FFF744BBF2EE087AF4EE679AF1EE10FA56
S3150801186013D0F2EE0A7AB4EE67AAF1EE10FA19D19C
S3150801187094F90030207B94F80DE094F80EC0E77BCC
S31508011880257C617CA27CE47C8EE494F90130207D80
S3150801189094F815E094F816C0E77D257E617EA27E50
S315080118A0E47E81E4DDE90A0153EC1C2B11F04AFFC1
S315080118B0C8B9DDE9022351EC1D0B11F043FF28B32A
S315080118C094F90A3094F85C0094F85DE094F85EC0E7
S315080118D094F85F7094F8605094F8611094F8622057
S315080118E094F8634060E494F90B3094F8640094F832
S315080118F065E094F866C094F8677094F8685094F8AF
S31508011900691094F86A2094F86B404DE4DDE90423E4
S3150801191051EC1E0B11F016FF00B394F9093094F837
S31508011920540094F855E094F856C094F8577094F812
S31508011930585094F8591094F85A2094F85B4033E4B7
S31508011940E4070020DC070020FC070020EC07002044
S31508011950C4070020F4070020BC070020DDE90623A0
S3150801196051EC1F0B11F0EEFE90B194F9063094F884
S315080119703C0094F83DE094F83EC094F83F7094F822
S31508011980405094F8411094F8422094F843400BE4EF
S31508011990DDE90823DDE9100111F0D4FE98B194F9C7
S315080119A0053094F8340094F835E094F836C094F884
S315080119B0377094F8385094F8391094F83A2094F816
S315080119C03B40FFF7F1BB53EC1B2B4046494611F050
S315080119D0B9FE98B194F9043094F82C0094F82DE0E6
S315080119E094F82EC094F82F7094F8305094F831106A
S315080119F094F8322094F83340FFF7D6BBF3EE0F7A0A
S31508011A00B4EE678AF1EE10FA13D194F9083094F816
S31508011A104C0094F84DE094F84EC094F84F7094F841
S31508011A20505094F8511094F8522094F85340FFF707
S31508011A30BBBB94F9073094F8440094F845E094F850
S31508011A4046C094F8477094F8485094F8491094F8A9
S31508011A504A2094F84B40FFF7A7BB00BF2DE9F04792
S31508011A60DDF820A00F461E4604462D4BDAE9000193
S31508011A709046002211F048FADDE909590123CAE91D
S31508011A8000013B70D9F800101944264B1960C9F8B2
S31508011A900010366807EE106AB8EE477AF7EE007A54
S31508011AA0B4EE677AF1EE10FA03D11D4B0022C8E9AC
S31508011AB000232778DFF87880384611F061FB1A4B46
S31508011AC0C8E900011E602F712E60E2796A7194F8E7
S31508011AD0019085F8069094F8028085F8078094F8B5
S31508011AE003E085F808E094F804C085F809C0314692
S31508011AF06679AE720D4BA079E8729871DA711F702A
S31508011B0083F8019083F8028083F803E083F804C020
S31508011B105E710822BDE8F04701200AF03DBF00BF0B
S31508011B200000F03F240700202C07002004080020AD
S31508011B30380700202DE9F84F14461D4600220023D8
S31508011B4006460F462046294611F0FCFD00220023D1
S31508011B5050B13046394611F0F5FDB0B1A246AB4653
S31508011B6050465946BDE8F88F3046394611F0EAFD28
S31508011B7088B10020002122462B4611F0A5FC824699
S31508011B808B4650465946BDE8F88FB246BB46504685
S31508011B905946BDE8F88F22462B463046394611F09C
S31508011BA057F80022002382468B4611F0CBFD002808
S31508011BB052D12046294610F0CFFF02460B46204651
S31508011BC0294611F0E7FDF0B93046394600220023CF
S31508011BD011F0C2FD0022061E4FF0000320462946D9
S31508011BE018BF012611F0B8FD0038F6B218BF01205A
S31508011BF08642C6D05046594622462B4611F084F9EC
S31508011C0082468B46BDE722462B463046394611F0B9
S31508011C105BFC21F00049144B00224946804611F02D
S31508011C2073F910F099FF02460B464046494611F0F2
S31508011C3069F902460B4640464946904623F0004953
S31508011C4000220A4B11F016FB02460B46404649464E
S31508011C5011F08CFD0028B7D04FF0000A4FF0000BA9
S31508011C6050465946BDE8F88F0000E03F0000B03CF9
S31508011C702DE9F04F2DED028B83B0179F199E002891
S31508011C803DD01D46012333700F9BB3F800B058466B
S31508011C90144611F085FA22462B468046894611F0EC
S31508011CA051FD08B100233B7022462B464046494662
S31508011CB011F070FD002835D01499854BD1E9000142
S31508011CC0002211F053FD002833D1B378002B00F020
S31508011CD095800023BB70B3704046494622462B4681
S31508011CE011F058FD002840F08980737813B100235C
S31508011CF07B70737003B0BDEC028BBDE8F08F33784F
S31508011D00002BF7D0B37803B1B07073780BB1002309
S31508011D1073700023BB707B70337003B0BDEC028B0C
S31508011D20BDE8F08FB378002BD6D00023BB70B37013
S31508011D30D2E70122674BB270D3E900232046294630
S31508011D4011F0E2F8DFF898A180465846894611F065
S31508011D5017FA614B002211F0D7F89AED007B42463B
S31508011D604B46B0EE478AF0EE678A11F0CBF853EC92
S31508011D70182BFFF7DFFE0022002311F0E3FC38B32E
S31508011D80169B1878C001C3B27B710193149BD3E9E2
S31508011D90000111F047FD00010E9B5FFA80FB87F8F1
S31508011DA006B0D3E9000111F03DFD019B109A1844D4
S31508011DB0109B834483F800B03B7853709370D370BB
S31508011DC0137153719371D371189B129A5B681360DF
S31508011DD00F9B188811F0D4F942464B46DAE9008977
S31508011DE011F090F842464B46FFF7A4FE0022002365
S31508011DF011F0A8FC003818BF0120B8701599344BAA
S31508011E00D1E90001002211F0B1FC00283FF46DAFC1
S31508011E1001237370314BDFF8CCA0D3E900232046A8
S31508011E20294611F071F80F9B044618880D4611F0E2
S31508011E30A7F9DAE90089284B002211F065F822464C
S31508011E402B4611F05FF842464B46FFF773FE002218
S31508011E50002311F077FC20B3169B1E78159BF6011B
S31508011E60F6B2FE70D3E9000111F0DCFC00010E9B0D
S31508011E705FFA80F887F80480D3E9000111F0D2FCF3
S31508011E80119B119A404406441E703B785370937017
S31508011E90D370137153719371D371189B139A1B687D
S31508011EA013600F9BDAE90089188811F069F922464F
S31508011EB02B4611F027F842464B46FFF73BFE002218
S31508011EC0002311F03FFC003818BF0120787011E794
S31508011ED000001C40180000200000F03F20000020F0
S31508011EE008000020100000202DE9F04F2DED028B8F
S31508011EF083B0189F1A9E002840D01D4601233370CF
S31508011F000F9BB3F800B05846144611F049F922461A
S31508011F102B468046894611F015FC20B100233B70FB
S31508011F20129B1B787B7022462B464046494611F088
S31508011F3031FC002835D01599864BD1E900010022DC
S31508011F4011F014FC002833D1B378002B00F09680E9
S31508011F500023FB70B3704046494622462B4611F0D2
S31508011F6019FC002840F08A80737813B10023BB70EE
S31508011F70737003B0BDEC028BBDE8F08F3378002B8C
S31508011F80F7D0B37803B1B07073780BB100237370CF
S31508011F900023FB70BB70337003B0BDEC028BBDE848
S31508011FA0F08FB378002BD6D00023FB70B370D2E73D
S31508011FB00122694BB270D3E900232046294610F065
S31508011FC0A3FFDFF8A0A180465846894611F0D8F844
S31508011FD0624B002210F098FF9AED007B42464B4671
S31508011FE0B0EE478AF0EE678A10F08CFF53EC182B97
S31508011FF0FFF7A0FD0022002311F0A4FB40B3179BB5
S315080120001878C001C3B2BB710193159BD3E90001CE
S3150801201011F008FC00010E9B5FFA80FB87F807B0F8
S31508012020D3E9000111F0FEFB019B109A1844109B9D
S31508012030834483F800B07B7853703B789370D370F0
S31508012040137153719371D371199B139A5B6813605A
S315080120500F9B188811F094F842464B46DAE9008935
S3150801206010F050FF42464B46FFF764FD002200235D
S3150801207011F068FB003818BF0120F8701699354B26
S31508012080D1E90001002211F071FB00283FF46CAF81
S3150801209001237370324BDFF8D0A0D3E90023204621
S315080120A0294610F031FF0F9B044618880D4611F09A
S315080120B067F8DAE90089294B002210F025FF224644
S315080120C02B4610F01FFF42464B46FFF733FD002211
S315080120D0002311F037FB28B3179B1E78169BF601D0
S315080120E0F6B23E71D3E9000111F09CFB00010E9B8B
S315080120F05FFA80F887F80580D3E9000111F092FBB1
S31508012100119B119A404406441E707B7853703B78A4
S315080121109370D370137153719371D371199B149A78
S315080121201B6813600F9BDAE90089188811F028F8F3
S3150801213022462B4610F0E6FE42464B46FFF7FAFCCE
S315080121400022002311F0FEFA003818BF0120B870EA
S315080121500FE700BF00001C40180000200000F03FF8
S315080121602000002008000020100000202DE9F04F73
S3150801217085B0CDE90023DDE9114200284DD00D785F
S315080121808E7991F801B091F802A091F8039091F82F
S3150801219004804F7903964FF0010C05FA0CF3DBB274
S315080121A0580907EE100AB8EEC77AF7EE007AB4EEC8
S315080121B0E77AF1EE10FACE7982F800C0A37220739D
S315080121C009DD109B0022D3E900011D4B10F09CFE8E
S315080121D0109BC3E900012B01DBB2E8091D096372F3
S315080121E06073E57210F0DCFF02460B46DDE900017B
S315080121F011F0A8FAC8B9039A2072002384F800B02E
S3150801220084F801A084F8029084F80380277162712A
S31508012210A671E37105B0BDE8F08F1378002BF9D0EC
S315080122202072107005B0BDE8F08F284610F0B8FF8F
S31508012230DDE90E2311F086FA003818BF0120DAE726
S315080122400000F03F2DE9F04F85B0CDE90023DDE927
S31508012250114200284DD00D788E7991F801B091F888
S3150801226002A091F8039091F804804F7903964FF0F4
S31508012270010C05FA0CF3DBB2580907EE100AB8EEA1
S31508012280C77AF7EE007AB4EEE77AF1EE10FACE796C
S3150801229082F800C0A372207309DD109B0022D3E9DE
S315080122A000011D4B10F030FE109BC3E900012B0104
S315080122B0DBB2E8091D0963726073E57210F070FFFD
S315080122C002460B46DDE9000111F03CFAC8B9039A4A
S315080122D02072002384F800B084F801A084F80290E3
S315080122E084F8038027716271A671E37105B0BDE8B0
S315080122F0F08F1378002BF9D02072107005B0BDE865
S31508012300F08F284610F04CFFDDE90E2311F01AFA7A
S31508012310003818BF0120DAE70000F03F2DE9F84F31
S31508012320DDF828A00E9EDDE91248002800F0B280EB
S315080123301F4601230D46914688F80030002900F012
S31508012340BF8088F8023097F800B00BFA03F3DBB2C6
S3150801235023765B0907EE103AB8EEC77AF7EE007AEC
S31508012360B4EEE77AF1EE10FAA37609DD109B0022A6
S31508012370D3E90001684B10F0C7FD109BC3E90001C2
S315080123807B782372BB786372FB78A3723B79E3721D
S315080123907B792373BB7963734FEA0B10FB79A373BC
S315080123A0C0B20023E0750009E373607610F0F8FE09
S315080123B0DDE90C2311F0C6F9051E18BF01254FEA00
S315080123C0DB1B84F81BB06574B9F1000F00F082803D
S315080123D0012388F801309AF8007007FA03F3DBB293
S315080123E0E3745B0907EE103AB8EEC77AF7EE007A9E
S315080123F0B4EEE77AF1EE10FA637509DD109B002257
S31508012400D3E90001444B10F07FFD109BC3E900019D
S315080124109AF8013023709AF8023063709AF80330FB
S31508012420A3709AF80430E3709AF8053023719AF884
S315080124300630637138019AF80730A371C0B20023D8
S31508012440A0740009E371207510F0AAFEDDE90C23DA
S3150801245011F078F9003818BF0120FF092074A77513
S31508012460002D41D0E37B3370237A7370637AB3709E
S31508012470A37AF370E37A3371237B7371637BB37148
S31508012480A37BF371012311990B700F9B01221A701B
S31508012490BDE8F88F98F80030002BF9D098F802308B
S315080124A013B1607488F8020098F801301BB1002353
S315080124B0237488F80130002388F80030BDE8F88FC6
S315080124C098F802302BB3617488F80210B9F1000F3D
S315080124D07FF47EAF98F80130002BC1D084F81090B4
S315080124E088F80190002DBDD1E37933702378737094
S315080124F06378B370A378F370E378337123797371D2
S315080125006379B371A379F371237C003B18BF012367
S31508012510B9E7657C58E700BF0000F03F2DE9F84FA1
S315080125202DED028B179E9DF838A09DF83C509DF81D
S31508012530404040B9337813B1169B18703070BDEC22
S31508012540028BBDE8F88F0F46104619460122354B16
S315080125503270D3E9002310F0D7FC024638461646F6
S315080125600F4610F00DFEDFF8C4B002460B4643ECE9
S31508012570182B2D4B002210F0C7FCDBE900893246E7
S315080125803B4610F0BFFC42464B46FFF7D3FA002202
S31508012590002311F0D7F860B3159B93F80080169BBA
S315080125A04FEAC8185FFA88F983F80190149BD3E9B2
S315080125B0000111F037F9169B00015FFA80F883F8DC
S315080125C00280119BD3E9000111F02CF9C844129B32
S315080125D0804483F8008083F801A09D70DC701C712B
S315080125E05C719C71DC71DDE90C0111F01BF9139B1F
S315080125F01860DBE9004551EC180B32463B4610F0F2
S3150801260081FC22462B46FFF795FA0023002211F09A
S3150801261099F8169B003818BF01201870BDEC028B7B
S31508012620BDE8F88F180000200000F03F08000020E0
S315080126302DE9F84F2DED028B179E9DF838A09DF8D0
S315080126403C509DF8404040B9337813B1169B187039
S315080126503070BDEC028BBDE8F88F0F46104619465F
S315080126600122354B3270D3E9002310F04DFC0246A6
S31508012670384616460F4610F083FDDFF8C4B0024609
S315080126800B4643EC182B2D4B002210F03DFCDBE9E1
S31508012690008932463B4610F035FC42464B46FFF769
S315080126A049FA0022002311F04DF860B3159B93F8FF
S315080126B00080169B4FEAC8185FFA88F983F80190DB
S315080126C0149BD3E9000111F0ADF8169B00015FFADE
S315080126D080F883F80280119BD3E9000111F0A2F872
S315080126E0C844129B804483F8008083F801A09D703A
S315080126F0DC701C715C719C71DC71DDE90C0111F0F7
S3150801270091F8139B1860DBE9004551EC180B32462A
S315080127103B4610F0F7FB22462B46FFF70BFA002340
S31508012720002211F00FF8169B003818BF0120187007
S31508012730BDEC028BBDE8F88F200000200000F03FB9
S31508012740100000200B791BB10023C37103720B71B2
S315080127504B783BB1CB780BB10023CB708B7843B95F
S3150801276000234B7000238370C371437003720B708F
S31508012770704700238B70F3E72DE9F04F2DED028B9F
S3150801278093B099461E9B02931F9B0193209B0C9322
S31508012790219B0393229B0493239B0A93249B0B93CC
S315080127A09046DDE925320D92279A0E92289A0F92C4
S315080127B0299A10922A9A05922B9A06922C9A07928E
S315080127C02D9A08922E9A09922F9A329C1192DDE936
S315080127D0305A10BB237823B913B0BDEC028BBDE880
S315080127E0F08F237913B1E8712872207163784BB1A0
S315080127F0E3780BB10023E370A3780BB10023A37030
S31508012800002363700023AB70EB716B702B7223701E
S3150801281013B0BDEC028BBDE8F08F4FF0010B84F8C5
S3150801282000B0D3E9006700224A4B3946304610F01A
S3150801283089FF002808BF83465FFA8BF308EE103A32
S315080128403046444B3946002210F07CFF8346002867
S3150801285049D101232371019B188810F0A1FC064672
S315080128600F464046494632463B4610F06BFF28B3B1
S315080128700E9ADAF8083013600D9ADAF80C301360FC
S315080128800B9A9AF812301370109A9AF8103013703E
S315080128900A9A9AF8133013700F9A9AF8113013702E
S315080128A00C9A019BC2F800B0C2F804B0119A82F8DA
S315080128B000B0188810F074FC06460F4632463B46AF
S315080128C04046494610F048FF002833D00A9B1B783A
S315080128D0002B3CD10123EB710B9B1B78002B33D1C9
S315080128E001232B7205E023791BB10023EB712B72AF
S315080128F02371099B2693089B2593079B2493069B83
S315080129002393059B2293049B2193039B029920936E
S3150801291018EE100A019B1F93013442464B46CDE936
S31508012920275A29941E9113B0BDEC028BBDE8F04FCE
S31508012930FFF79EB90021E97132463B4640464946B2
S3150801294010F00AFF0028C7D100232B72D1E7002314
S31508012950EB71C1E70000F03F2DE9F04F85B0CDE9F5
S315080129600023DDE90F4200284DD00D788E7991F8C4
S3150801297001B091F802A091F8039091F804804F797B
S3150801298003964FF0010C05FA0CF3DBB2580907EE72
S31508012990100AB8EEC77AF7EE007AB4EEE77AF1EEE6
S315080129A010FACE7982F800C0A372207309DD0E9B56
S315080129B00022D3E90001184B10F0A6FA0E9BC3E9D1
S315080129C00001039B6371E8090023E37184F800B0F1
S315080129D084F801A084F8029084F803802771A6710F
S315080129E0607310F0DDFBDDE9002310F0ABFE2D016D
S315080129F0EDB2003818BF01202B0920726572E37207
S31508012A0005B0BDE8F08F1378002BF9D0207210704D
S31508012A1005B0BDE8F08F00BF0000F03F2DE9F04F8B
S31508012A2085B0CDE90023DDE90F4200284DD00D78A8
S31508012A308E7991F801B091F802A091F8039091F876
S31508012A4004804F7903964FF0010C05FA0CF3DBB2BB
S31508012A50580907EE100AB8EEC77AF7EE007AB4EE0F
S31508012A60E77AF1EE10FACE7982F800C0A3722073E4
S31508012A7009DD0E9B0022D3E90001184B10F044FA38
S31508012A800E9BC3E90001039B6371E8090023E37107
S31508012A9084F800B084F801A084F8029084F80380D1
S31508012AA02771A671607310F07BFBDDE9002310F036
S31508012AB049FE2D01EDB2003818BF01202B092072FD
S31508012AC06572E37205B0BDE8F08F1378002BF9D073
S31508012AD02072107005B0BDE8F08F00BF0000F03F0E
S31508012AE02DE9F84F2DED028B169E9DF830A09DF825
S31508012AF034509DF8384040B9337813B1149B187097
S31508012B003070BDEC028BBDE8F88F0F4610461946AA
S31508012B100122344B3270D3E9002310F0F5F902464D
S31508012B20384616460F4610F02BFBDFF8C0B00246B2
S31508012B300B4643EC182B2C4B002210F0E5F9DBE988
S31508012B40008932463B4610F0DDF942464B46FEF710
S31508012B50F1FF0022002310F0F5FD50B3139B93F803
S31508012B600080149B4FEAC8185FFA88F883F8018039
S31508012B70129BD3E9000110F055FE149B00015FFA80
S31508012B8080F983F802900F9BD3E9000110F04AFE01
S31508012B90C844109B119A83F801A0804483F80080E9
S31508012BA09D70DC701C715C719C71DC71159B1B68D6
S31508012BB01360DBE9004551EC180B32463B4610F031
S31508012BC0A1F922462B46FEF7B5FF0023002210F095
S31508012BD0B9FD149B003818BF01201870BDEC028B93
S31508012BE0BDE8F88F180000200000F03F080000201B
S31508012BF02DE9F84F2DED028B169E9DF830A09DF814
S31508012C0034509DF8384040B9337813B1149B187085
S31508012C103070BDEC028BBDE8F88F0F461046194699
S31508012C200122344B3270D3E9002310F06DF90246C4
S31508012C30384616460F4610F0A3FADFF8C0B002462A
S31508012C400B4643EC182B2C4B002210F05DF9DBE9FF
S31508012C50008932463B4610F055F942464B46FEF787
S31508012C6069FF0022002310F06DFD50B3139B93F802
S31508012C700080149B4FEAC8185FFA88F883F8018028
S31508012C80129BD3E9000110F0CDFD149B00015FFAF8
S31508012C9080F983F802900F9BD3E9000110F0C2FD79
S31508012CA0C844109B119A83F801A0804483F80080D8
S31508012CB09D70DC701C715C719C71DC71159B1B68C5
S31508012CC01360DBE9004551EC180B32463B4610F020
S31508012CD019F922462B46FEF72DFF0023002210F094
S31508012CE031FD149B003818BF01201870BDEC028B0A
S31508012CF0BDE8F88F200000200000F03F10000020FA
S31508012D0070B505460126002102200BF037FD00218A
S31508012D10072085F8096207F017FD2B4600242C7059
S31508012D202E6343F8384F6E60EB622E81FDF74EFA3B
S31508012D30FEF776F8214620460BF020FD214630465F
S31508012D400BF01CFD214610200BF018FD214604202E
S31508012D500BF014FD214612200BF010FD214613201D
S31508012D600BF00CFD21460E200BF008FD21460F2025
S31508012D700BF004FD21460320BDE870400BF0FEBCB4
S31508012D802DE9F04F2DED0C8BADF5797DCDE91823A5
S31508012D90DDF894A4DDF88CB49AF80832DDF890943D
S31508012DA0002B0CBF01230023CDE916104FF00101BA
S31508012DB08AF808328AF84B124FF002008BF82D3048
S31508012DC018BF00210BF00CFD9AF80932002B00F010
S31508012DD00386DDF84C3401268AF847621B78002BF6
S31508012DE001F0AA82179BD3E9004500224FF08043E0
S31508012DF02046294610F0A6FC002801F018829AF808
S31508012E001A32002B01F0408201238AF84832002E3B
S31508012E1041F04082189AB549B9F830310020C2E923
S31508012E200001169A138099F833318AF80232AF4BAA
S31508012E300022CAE95623DDF84C24AC490023137055
S31508012E40DDF85024002013700026CBE90001002785
S31508012E508AF809328AF81A32A44B304639460022D2
S31508012E6010F052F8CAE9700100224FF0804320465B
S31508012E70294610F067FC68B99D4B00222046294671
S31508012E8010F060FC30B99B4B00222046294610F011
S31508012E9059FC28B1954BDDF878140022C1E90023C5
S31508012EA0954B00222046294610F04CFC002843F099
S31508012EB04D81924B00222046294610F043FC0028FA
S31508012EC043F044818E4B20462946002210F03AFCF5
S31508012ED0002843F03B81DDF87834D3E900231699BD
S31508012EE09FED887A098807EE901AF8EEE77A8649FF
S31508012EF0F4EE477AF1EE10FAC1E9002314D1169AD5
S31508012F00002313809AF80242204610F049F9D9E9BC
S31508012F104A2310F021FC002841F0168299F8344121
S31508012F207A4B8AF802421C709AF80942002C00F082
S31508012F3070859AF81B32002B01F02D869AF81C32FF
S31508012F40002B00F0F2829AF83932002B00F0288122
S31508012F509AF83D32C3B19AF83E3293B19AF87F3264
S31508012F6023B100238BF898318AF87F329AF87E329A
S31508012F7023B100238BF88A318AF87E3200238AF836
S31508012F803E3200238AF83D329AF83C32C3B19AF8A8
S31508012F907B3293B19AF87D3223B100238BF87731CE
S31508012FA08AF87D329AF87C3223B100238BF8763180
S31508012FB08AF87C3200238AF87B3200238AF83C326D
S31508012FC09AF83B32C3B19AF8783293B19AF87A32C1
S31508012FD023B100238BF85B318AF87A329AF8793271
S31508012FE023B100238BF85A318AF8793200238AF8FB
S31508012FF0783200238AF83B329AF83A32C3B19AF802
S31508013000753293B19AF8773223B100238BF83F31A1
S315080130108AF877329AF8763223B100238BF83E3153
S315080130208AF8763200238AF8753200238AF83A320A
S315080130309AF8423233B39AF88F3233B100238BF8B8
S31508013040C3318BF8C4318AF88F329AF88C3273B14E
S315080130509AF88E3213B100238AF88E329AF88D3295
S3150801306013B100238AF88D3200238AF88C320023A3
S315080130708BF8BE318BF8C3318BF8BD318BF8C4316F
S315080130808AF842329AF8413213B39AF88B3233B13D
S3150801309000238BF8BA318BF8BB318AF88B329AF850
S315080130A0883273B19AF88A3213B100238AF88A32C0
S315080130B09AF8893213B100238AF8893200238AF8EB
S315080130C088320023ABF8B431ABF8BA318AF8413209
S315080130D09AF84032ABB39AF88732CBB100238BF812
S315080130E0B0318BF8B1318AF8873211E00000F03F30
S315080130F0000008400000104000001440000018407D
S3150801310000001C400000BA431807002041070020B0
S315080131109AF8843273B19AF8863213B100238AF881
S3150801312086329AF8853213B100238AF8853200234C
S315080131308AF884320023ABF8AA31ABF8B0318AF8A1
S3150801314040329AF83F3213B39AF8833233B10023E7
S315080131508BF8A6318BF8A7318AF883329AF8803230
S3150801316073B19AF8823213B100238AF882329AF837
S31508013170813213B100238AF8813200238AF880321A
S315080131800023ABF8A031ABF8A6318AF83F32002309
S315080131908BF82330ABF824308BF826308AF839328D
S315080131A09AF82832002B00F002819AF83132C3B11D
S315080131B09AF8323293B19AF8663223B100238BF822
S315080131C007318AF866329AF8653223B100238BF8FB
S315080131D0F9308AF8653200238AF8323200238AF8F0
S315080131E031329AF82F3243B19AF8303213B10023AB
S315080131F08AF8303200238AF82F329AF82D32C3B171
S315080132009AF82E3293B19AF8643223B100238BF8D7
S31508013210EB308AF864329AF8633223B100238BF8CB
S31508013220DD308AF8633200238AF82E3200238AF8C1
S315080132302D329AF82B32C3B19AF82C3293B19AF8F7
S31508013240623223B100238BF8CF308AF862329AF8BA
S31508013250613223B100238BF8C1308AF86132002329
S315080132608AF82C3200238AF82B329AF82932C3B10C
S315080132709AF82A3293B19AF8603223B100238BF86F
S31508013280B3308AF860329AF85F3223B100238BF89B
S31508013290A5308AF85F3200238AF82A3200238AF891
S315080132A029329AF8373223B39AF8743233B10023A4
S315080132B08BF82C318BF82D318AF874329AF838321A
S315080132C073B19AF8733213B100238AF873329AF8F4
S315080132D0723213B100238AF8723200238AF838321F
S315080132E000238BF829318BF82631ABF82C318AF873
S315080132F037329AF8353223B39AF8713233B100234B
S315080133008BF824318BF825318AF871329AF83632DE
S3150801331073B19AF8703213B100238AF870329AF8A9
S315080133206F3213B100238AF86F3200238AF83632D6
S3150801333000238BF821318BF81E31ABF824318AF83A
S3150801334035329AF8333223B39AF86E3233B1002301
S315080133508BF81C318BF81D318AF86E329AF83432A3
S3150801336073B19AF86D3213B100238AF86D329AF85F
S315080133706C3213B100238AF86C3200238AF834328E
S3150801338000238BF819318BF81631ABF81C318AF802
S3150801339033329AF86732002B45F0708000238BF898
S315080133A01F30ABF820308BF822308AF828329AF889
S315080133B01D32002B00F0B6809AF82232C3B19AF872
S315080133C0233293B19AF8533223B100238BF87E3016
S315080133D08AF853329AF8523223B100238BF87030A7
S315080133E08AF8523200238AF8233200238AF82232D5
S315080133F09AF82032C3B19AF8213293B19AF8513228
S3150801340023B100238BF862308AF851329AF8503288
S3150801341023B100238BF854308AF8503200238AF8F6
S31508013420213200238AF820329AF81E32C3B19AF85B
S315080134301F3293B19AF84F3223B100238BF84630E5
S315080134408AF84F329AF84E3223B100238BF8383076
S315080134508AF84E3200238AF81F3200238AF81E3270
S315080134609AF8263233B39AF85E3233B100238BF8D1
S315080134709B308BF89C308AF85E329AF8273273B102
S315080134809AF85D3213B100238AF85D329AF85C32F4
S3150801349013B100238AF85C3200238AF82732002305
S315080134A08BF898308BF89B308BF895308BF89C30DD
S315080134B08AF826329AF8243233B39AF85B3233B152
S315080134C000238BF893308BF894308AF85B329AF89C
S315080134D0253273B19AF85A3213B100238AF85A324F
S315080134E09AF8593213B100238AF8593200238AF817
S315080134F0253200238BF890308BF893308BF88D307A
S315080135008BF894308AF824329AF85432002B44F016
S31508013510DE8700238BF81B30ABF81C308BF81E3086
S315080135208AF81D3200238AF81C3200238BF81730DB
S31508013530ABF818308BF81A308AF81B329AF8F4313E
S31508013540003C18BF0124DA0642F15D821F0701F12A
S315080135506C829AF8F43143F008038AF8F431002CA6
S3150801356041F06682DBB29AF80922002A41F0848288
S315080135709BF81A20002A01F03A835C0741F17F8201
S31508013580DDF860340193DDF85834009309F5F473D6
S315080135900593DDF870340393DDF864340293DDF89E
S315080135A03814DDF8503416980AF5267206920BF58A
S315080135B0EA720492DDF84024FDF766FC9AF8F431C4
S315080135C09E0705D49AF8F43143F002038AF8F431D8
S315080135D09BF81830002B41F0C982DDF864341B785A
S315080135E0002B01F0BA829AF80E32B3FA83F35B091B
S315080135F08AF80E32DDF86434012100208AF84D126A
S3150801360018709AF80E328BF82F30002B41F0FA8297
S31508013610194618460BF0E4F89AF80A32002B01F01D
S3150801362093829AF80F320120002B4FF000010CBF4C
S31508013630012300238AF80A1208BF01468AF84C02B8
S315080136408AF80F3208BF08468BF82E300BF0C8F8F7
S315080136509AF80B32002B01F06E829AF81132002B80
S315080136600CBF012300234FF001024FF000018AF835
S315080136700B128AF811328AF8492208BF11468BF8CB
S315080136802B3010200BF0ACF89AF81032002B0CBF37
S31508013690012300234FF001018AF84A128AF81032F1
S315080136A018BF00218BF82C3004200BF099F8DDF8AF
S315080136B0683400240025D3E9000122462B4610F080
S315080136C041F8002841F02D829AF80532002B0CBFEB
S315080136D0012300234FF001018AF805328AF84612C0
S315080136E08BF82A30DDF8683418BF0146C3E900456E
S315080136F012200BF075F8DDF86C3400240025D3E9A7
S31508013700000122462B4610F01DF8002841F0FF81E2
S315080137109AF80432002B0CBF012300234FF0010154
S315080137208AF804328AF845128BF82930DDF86C34A8
S3150801373018BF0146C3E9004513200BF051F8DDF81F
S31508013740703400240025D3E9000122462B460FF0E8
S31508013750F9FF002841F0D1819AF80732002B0CBFF6
S31508013760012300234FF001018AF807328AF844122F
S315080137708BF82830DDF8703418BF0146C3E90045D7
S315080137800E200BF02DF8DDF8743400240025D3E95A
S31508013790000122462B460FF0D5FF002841F0A381F0
S315080137A09AF80632002B0CBF012300234FF00101C2
S315080137B08AF806328AF843128BF82730DDF8743412
S315080137C018BF0146C3E900450F200BF009F89AF81E
S315080137D01232002B00F0C8809AF8023207EE903AAE
S315080137E0F8EEE77AF5EE407AF1EE10FA41F0FA834F
S315080137F014236EAACAE979336F4917921046A02293
S3150801380010F036F896AB6D491893A022184610F0B9
S315080138102FF8169B1B88184608EE103A0FF0C0FCC5
S31508013820179BD3E900678046894602460B46304610
S3150801383039460FF091FF002804F06280CDF894A470
S315080138405F4DDDF85CA000245D4B00222046294629
S315080138500FF05AFB0D4604460FF0BCFF0AEBC000F9
S3150801386050E9026742464B46304639460FF074FF27
S315080138700028E9D1524BDDF894A4002220462946B6
S315080138800FF040FB0FF0A6FF0138189B03EBC003AE
S31508013890C4000022D3E9000100230FF053FF0028DA
S315080138A041F0B68118EE100A0FF06AFC8046894687
S315080138B042464B46304639460FF024FB414B0D46EE
S315080138C0002221F0004104460FF046FF98B13E4B15
S315080138D00022204629460FF053FF0646002803F02A
S315080138E0EA87394B2046294600220FF00DFB0FF0D7
S315080138F033F904460D46354B0022204629460FF07A
S315080139002BFF002842F0F18329A3D3E900234FF6C0
S31508013910FE76DAE95845204629460FF031FF002898
S3150801392002F01D8430460FF02BFC06460F46224650
S315080139302B46304639460FF0E5FA002200230D469C
S3150801394004460FF027FF003818BF01204B468AF8B6
S3150801395012024246304639460FF0D6FA0FF062FF98
S31508013960169B1880CAE958459AF8F431DD0701F122
S31508013970A1809AF89022002A0CBF0122002243F066
S3150801398001034FF001018AF8F4318AF891128AF895
S3150801399090228BF8C72101F09C80002103200AF0B0
S315080139A01FFF0DF5797DBDEC0C8BBDE8F08F00BFCF
S315080139B000000000C0FFEF4048C20008E8C2000846
S315080139C00000F03F000030430000E03F0000F040F7
S315080139D00000BA430000B2439AF847225AB19AF84E
S315080139E048222AB100200021CBE900018AF8483291
S315080139F000238AF84732169B1FED0B7A1B8807EEC0
S31508013A00903AF8EEE77AF4EE477AF1EE10FA3FF4D7
S31508013A1076AA01238AF81B32179BD3E900450022AF
S31508013A204FF08043204629460FF08CFE002800F00F
S31508013A30AB849AF8023208EE903AF8EEE88A012643
S31508013A40F5EE408AF1EE10FA8AF81C6241F0068317
S31508013A50169B8AF83962B3F800801FED229A07EEA1
S31508013A60908AB8EEE78A4746B4EEC98AF1EE10FAAB
S31508013A70C0F2A18040460FF093FBD9E932230FF03B
S31508013A806BFE002800F09780B4EE498AF1EE10FA31
S31508013A9040F091802046294600224FF080430FF0DE
S31508013AA051FE002845F06C819AF81532002B05F075
S31508013AB0EA821A901799BC4BD1E9000100220FF04E
S31508013AC041FE0027002806F0D7819AF81432002B08
S31508013AD045F06F810123DAE966011C930022B34B95
S31508013AE00FF012FACAE966019AF80C62002E45F03F
S31508013AF0D582189BD3E900450022AD4B20462946BD
S31508013B000FF020FE002805F00B861799A84BD1E97E
S31508013B10000100220FF016FE002805F090821E967D
S31508013B2020961A9B002B45F076811C9B3B4303D1BB
S31508013B30209B002B05F0BB820123DAE96A018AF88A
S31508013B400A329C4BC3E90001CAE96A01002F05F054
S31508013B50B282DAE96C01954B00220FF0D5F9964B42
S31508013B60C3E900011C9BCAE96C01002B05F0FF8221
S31508013B70DAE96E018D4B00220FF0C6F98F4BCAE9BF
S31508013B806E01C3E9000186B9179B1899D3E9002389
S31508013B90D1E900010FF0D6FD38B9DAE96801834B9E
S31508013BA000220FF0B1F9CAE96801DDF8642401239E
S31508013BB01370169B1F88DFED829A07EE907AB8EE8E
S31508013BC0E79A3C46B4EEE99AF1EE10FAC0F2FC80A7
S31508013BD038460FF0E5FAD9E934230FF0BDFD002880
S31508013BE000F0F280B4EE699AF1EE10FA40F0EC803A
S31508013BF0DAE95067DAE952453046394622462B4614
S31508013C000FF0BEFD002845F06B8245EC1A4B9AED84
S31508013C10547B53EC1A2BB0EE479AF0EE679A51ECA7
S31508013C20170BB0EE47BAF0EE67BA0FF0B3FD18B14D
S31508013C30B0EE49AAF0EE69AA51EC1A0B002200234C
S31508013C400FF080FD9AF8033209EE103AB8EEC99AD8
S31508013C50F0EE007A0038B4EE679A18BF0120F1EE4B
S31508013C6010FA8AF81802394630464FF0000205F074
S31508013C70268200230FF048F9F0EE087AB4EE679A27
S31508013C80F1EE10FA06460F46204629464FF0000285
S31508013C9045F04483454B0FF037F941EC1A0B0022E6
S31508013CA0002351EC1B0B0FF02FF955EC1A4B41EC85
S31508013CB0190B1AEE102A2B46304639460FF060FDCD
S31508013CC008B134463D4653EC192B204629460FF0D8
S31508013CD043FD08B155EC194B22462B463046394669
S31508013CE00FF010F9002200230FF02CFD002845F0F3
S31508013CF038829DF994301A9325AF06461A9B3B7074
S31508013D0022462B4651EC1A0B0FF0FCF80022002331
S31508013D100FF018FD22462B46002805F0498201249A
S31508013D20BC5551EC190B0FF0EDF80022002326447F
S31508013D300FF008FD10B10223BB550136012E97F984
S31508013D400000CAF8E0610BD097F901309842C8BF64
S31508013D500120032E04D197F902308342B8BF01200E
S31508013D600FF01EFA114B00220FF0CEF80B461899E8
S31508013D700246C1E900231799D1E900010FF0E2FCD7
S31508013D800022002845F049814FF08043CAE95623AD
S31508013D90DDF8642401231370169B1F8807EE907AB9
S31508013DA0B8EEE79A3C460FE0000008400000F03FF5
S31508013DB000001040F8060020000700200807002030
S31508013DC00000B4430000B8435FED029AB4EEE99AE5
S31508013DD0F1EE10FA4CDB38460FF0E2F9D9E938234F
S31508013DE00FF0BAFC002843D0BF4A9AF81832169D3C
S31508013DF013702F8807EE907AB8EEE79A3C46B4EE30
S31508013E00699AF1EE10FA33D1002B02F09881DDF8A8
S31508013E104C2499F836318AF818321370DDF8502493
S31508013E2099F836311370189A99F837318AF80932A0
S31508013E3000210020CAE95601C2E90001DDF85C1437
S31508013E4099F832210A70DDF8601499F832210A705E
S31508013E50DDF8542401231360DDF858241360DDF8D6
S31508013E60642413702F8807EE907AB8EEE79A3C46D9
S31508013E70DFED9E9AB4EEE99AF1EE10FA82F2078125
S31508013E80DFED9B9AB4EEE99AF1EE10FAC0F2A2853B
