S01800002E2E2F48414E636F6465725F453430372E737265635E
S315080040000CC5002021500108000000000000000037
S315080040100000000000000000000000000000000092
S31508004020000000000000000000000000D520010884
S31508004030000000000000000071210108C1210108EC
S315080040400000000000000000000000000000000062
S315080040500000000000000000000000000000000052
S3150800406000000000DD280108000000000000000034
S315080040700000000000000000000000000000000032
S31508004080000000000000000000000000494F010881
S31508004090014F0108254F01086D4F01080000000077
S315080040A0C9280108B5280108A1280108912801088E
S315080040B07D28010869280108552801080000000024
S315080040C000000000000000000000000000000000E2
S315080040D000000000E1320108F93201081133010835
S315080040E00000000000000000D933010800000000AD
S315080040F0412801082D2801081D2801080000000094
S315080041000000000041330108000000000000000024
S315080041100000000000000000000000000000000091
S315080041200000000000000000000000004533010800
S31508004130000000000D29010800000000D94F010801
S31508004140914F0108B54F0108FD4F010809340108D0
S3150800415000000000000000000000000029330108EC
S315080041600000000000000000000000000000000041
S315080041700000000000000000000000000000000031
S311080041800000000000000000EE11AA5527
S3150800C0006464640048414E636F6465725F4534300A
S3150800C010375F736F66747761726549445F76315F1F
S3150800C0203037303232335F31393233343000000042
S3150800C0304170704374726C5461736B002000000089
S3150800C0400014024008000900200000000014024005
S3150800C05010000E00200000000014024020000F000F
S3150800C06020000000001402404000040020000000E8
S3150800C0700014024080000500200000000014024061
S3150800C080000106002000000000140240000207001C
S3150800C090200000000014024000040800040000000C
S3150800C0A00008024001000A000400000000080240DF
S3150800C0B004000C00414443636F6E76657273696FC2
S3150800C0C06E5461736B0000002E2E2F626C6F636BCB
S3150800C0D07365742F7274772F53544D33322F7372DE
S3150800C0E0632F686561705F342E630000546D724378
S3150800C0F070754C6F6164000049444C4500000000AF
S3150800C1002E2E2F626C6F636B7365742F7274772F84
S3150800C11053544D33322F7372632F7461736B732EBE
S3150800C120630000002E2E2F626C6F636B7365742F8D
S3150800C1307274772F53544D33322F7372632F746989
S3150800C1406D6572732E630000546D7220537663001A
S3150800C150457643686E6C3100457643686E6C3200EE
S3150800C160457643686E6C33002E2E2F626C6F636BB8
S3150800C1707365742F7274772F53544D33322F73723D
S3150800C180632F53544D33325F453430372F6D616317
S3150800C1902E6300002E2E2F626C6F636B7365742FEF
S3150800C1A07274772F53544D33322F7372632F53544F
S3150800C1B04D33325F453430372F706F72742E6300FB
S3150800C1C0000001400100000002010000100000000C
S3150800C1D00010024000020900100000000010024092
S3150800C1E000080B00000400400200000001020000E5
S3150800C1F001000000000002404000060002000000A6
S3150800C2000004024020000500000800400400000069
S3150800C2100102000008000000000C024000100C009B
S3150800C22008000000000C024000200D000004014038
S3150800C230020000000203000004000000000802409B
S3150800C24040000600040000000008024080000700C5
S3150800C2500000014001000000020119000000004032
S3150800C2600100000001021C0000040040020000005A
S3150800C27001021D00000800400400000001021E0023
S3150800C280000401400200000002012C0000400140A9
S3150800C29000000100020118000044014000000200ED
S3150800C2A002011900004801400000040002011A00BA
S3150800C2B0001C00408000000001022C000020004005
S3150800C2C00001000001022D000400000000080240E1
S3150800C2D00100000020000000001402404000000099
S3150800C2E0200000000014024080000000200000002A
S3150800C2F00014024000010000200000000014024063
S3150800C30000020000200000000014024000040000A3
S3150800C3100200000000040240800000000200000045
S3150800C3200004024040000000100000000010024017
S3150800C3300400000010000000001002401000000079
S3150800C340100000000010024020000000100000004D
S3150800C35000100240400000004000000000180240A3
S3150800C36080000000400000000018024000010000A4
S3150800C37040000000001802400010000040000000C5
S3150800C3800018024000800000010000000000024082
S3150800C3901000000002000000000402402000000017
S3150800C3A001000000000002404000000001000000FB
S3150800C3B0000002402000000008000000000C0240B7
S3150800C3C00100000008000000000C02400200000006
S3150800C3D008000000000C02400400000008000000ED
S3150800C3E0000C02400800000008000000000C024093
S3150800C3F01000000008000000000C024020000000A9
S3150800C40008000000000C0240400000000800000080
S3150800C410000C02408000000008000000000C0240EA
S3150800C4200001000008000000000C024000020000A5
S3150800C43008000000000C024000040000080000008C
S3150800C440000C02400008000008000000000C024032
S3150800C4500010000008000000000C02400020000048
S3150800C46008000000000C0240004000000800000020
S3150800C470000C02400080000010000000001002407E
S3150800C4800100000010000000001002400200000039
S3150800C4901000000000100240080000001000000014
S3150800C4A0001002408000000010000000001002404A
S3150800C4B00001000010000000001002400002000009
S3150800C4C010000000001002400004000010000000E8
S3150800C4D00010024000080000100000000010024092
S3150800C4E000100000100000000010024000200000AC
S3150800C4F0100000000010024000400000100000007C
S3150800C50000100240008000002000000000140240D5
S3150800C5100100000020000000001402400200000094
S3150800C5202000000000140240040000002000000063
S3150800C5300014024008000000200000000014024019
S3150800C5401000000020000000001402402000000037
S3150800C550200000000014024000080000200000002F
S3150800C56000140240001000002000000000140240E1
S3150800C57000200000200000000014024000400000D7
S3150800C5802000000000140240008000004000000067
S3150800C5900018024001000000400000000018024098
S3150800C5A002000000400000000018024004000000DD
S3150800C5B0400000000018024008000000400000008B
S3150800C5C00018024010000000400000000018024059
S3150800C5D02000000040000000001802404000000053
S3150800C5E04000000000180240000200004000000061
S3150800C5F00018024000040000400000000018024035
S3150800C600000800004000000000180240002000005A
S3150800C6104000000000180240004000000100000031
S3150800C620000002400100000004000000000802406B
S3150800C6300100000020000000001402404000000035
S3150800C64020000000001402408000000020000000C6
S3150800C65000140240000100002000000000140240FF
S3150800C6600002000020000000001402400004000040
S3150800C67002000000000402408000000002000000E2
S3150800C68000040240400000001000000000100240B4
S3150800C6900400000010000000001002401000000016
S3150800C6A010000000001002402000000010000000EA
S3150800C6B00010024040000000400000000018024040
S3150800C6C08000000040000000001802400001000041
S3150800C6D04000000000180240001000004000000062
S3150800C6E0001802400080000001000000000002401F
S3150800C6F010000000020000000004024020000000B4
S3150800C7000100000000000240400000000100000097
S3150800C710000002402000000008000000000C024053
S3150800C7200100000008000000000C024002000000A2
S3150800C73008000000000C0240040000000800000089
S3150800C740000C02400800000008000000000C02402F
S3150800C7501000000008000000000C02402000000045
S3150800C76008000000000C024040000000080000001D
S3150800C770000C02408000000008000000000C024087
S3150800C7800001000008000000000C02400002000042
S3150800C79008000000000C0240000400000800000029
S3150800C7A0000C02400008000008000000000C0240CF
S3150800C7B00010000008000000000C024000200000E5
S3150800C7C008000000000C02400040000008000000BD
S3150800C7D0000C02400080000010000000001002401B
S3150800C7E001000000100000000010024002000000D6
S3150800C7F010000000001002400800000010000000B1
S3150800C80000100240800000001000000000100240E6
S3150800C81000010000100000000010024000020000A5
S3150800C8201000000000100240000400001000000084
S3150800C830001002400008000010000000001002402E
S3150800C8400010000010000000001002400020000048
S3150800C8501000000000100240004000001000000018
S3150800C8600010024000800000200000000014024072
S3150800C8700100000020000000001402400200000031
S3150800C8802000000000140240040000002000000000
S3150800C89000140240080000002000000000140240B6
S3150800C8A010000000200000000014024020000000D4
S3150800C8B020000000001402400008000020000000CC
S3150800C8C0001402400010000020000000001402407E
S3150800C8D00020000020000000001402400040000074
S3150800C8E02000000000140240008000004000000004
S3150800C8F00018024001000000400000000018024035
S3150800C9000200000040000000001802400400000079
S3150800C9104000000000180240080000004000000027
S3150800C92000180240100000004000000000180240F5
S3150800C93020000000400000000018024040000000EF
S3150800C94040000000001802400002000040000000FD
S3150800C95000180240000400004000000000180240D1
S3150800C96000080000400000000018024000200000F7
S3150800C97040000000001802400040000004000000CB
S3150800C98000080240002000000000014001000000ED
S3150800C99002011B00000000400100000001021C000B
S3150800C9A0000400400200000001021D0000080040CB
S3150800C9B00400000001021E000004014002000000FD
S3150800C9C002012E000040014000000100020118008B
S3150800C9D0004401400000020002011900004801401D
S3150800C9E00000040002011A00001C0040800000003C
S3150800C9F001022C00002000400001000001022D0069
S3150800CA0010000000001002400002000002000200B0
S3150800CA100100090010000000001002400008000193
S3150800CA200400200001000B00100000000010024066
S3150800CA30002000020800000201000D00100000009E
S3150800CA4000100240004000031000002001000E0004
S3150800CA500100000000000240200001000200020060
S3150800CA60010005000100000000000240400002002D
S3150800CA700200020002000600020000000004024054
S3150800CA802000020104002000020005000800000042
S3150800CA90000C0240001003000200020002000C0015
S3150800CAA008000000000C02400020030104002000DA
S3150800CAB002000D00040000000008024040000400C7
S3150800CAC002000200030006000400000000080240FD
S3150800CAD08000040104002000030007001000000085
S3150800CAE000100240200005000200020003000500B5
S3150800CAF0100000000010024040000501040020005C
S3150800CB000300060020000000001402404000060052
S3150800CB100200020003000600200000000014024084
S3150800CB208000070002000200030007002000000042
S3150800CB300014024000010800020002000900080073
S3150800CB402000000000140240000209000200020052
S3150800CB50090009000010014010000000022500002D
S3150800CB600200000000040240400006000200000027
S3150800CB70000402408000070007000000004400404F
S3150800CB80000002000126000008000000000C024018
S3150800CB902000050008000000000C024040000600C6
S3150800CBA007000000004800400000040001270000BC
S3150800CBB008000000000C0240000108000800000000
S3150800CBC0000C0240000209000700000000140140A2
S3150800CBD02000000002470000040000000008024090
S3150800CBE0400006000400000000080240800007001C
S3150800CBF00800000056435020436F6E6669670000C0
S3150800CC0056435020496E746572666163650000007C
S3150800CC1053544D6963726F656C656374726F6E69A0
S3150800CC206373000053544D3332205669727475612C
S3150800CC306C20436F6D506F727420696E20485320C4
S3150800CC406D6F64650000000053544D3332205669F9
S3150800CC50727475616C20436F6D506F727420696EC3
S3150800CC60204653204D6F6465000000003030303098
S3150800CC70303030303035304200000000303030304F
S3150800CC8030303030303530430000000000000140BD
S3150800CC900100000002011B00000000400100000026
S3150800CCA001021C00000400400200000001021D00F1
S3150800CCB0000800400400000001021E0000040140B4
S3150800CCC00200000002012E000040014000000100A1
S3150800CCD00201180000440140000002000201190088
S3150800CCE0004801400000040002011A00001C004030
S3150800CCF08000000001022C00002000400001000016
S3150800CD0001022D0010000000001002400002000081
S3150800CD100200020001000900100000000010024095
S3150800CD20000800010400200001000B0010000000AC
S3150800CD3000100240002000020800000201000D0059
S3150800CD401000000000100240004000031000002000
S3150800CD5001000E0001000000000002402000010052
S3150800CD600200020001000500010000000000024068
S3150800CD704000020002000200020006000200000055
S3150800CD800004024020000201040020000200050001
S3150800CD9008000000000C0240001003000200020018
S3150800CDA002000C0008000000000C024000200301ED
S3150800CDB00400200002000D000400000000080240E4
S3150800CDC04000040002000200030006000400000000
S3150800CDD00008024080000401040020000300070048
S3150800CDE010000000001002402000050002000200AA
S3150800CDF00300050010000000001002404000050175
S3150800CE000400200003000600200000000014024071
S3150800CE104000060002000200030006002000000091
S3150800CE200014024080000700020002000300070009
S3150800CE302000000000140240000108000200020061
S3150800CE400900080020000000001402400002090042
S3150800CE5002000200090009002E2E2F626C6F636B18
S3150800CE607365742F7274772F53544D33322F737240
S3150800CE70632F71756575652E630000000404040050
S3150800CE8090CE000898CE0008A0CE00080707070035
S3150800CE90457643686E6C3100457643686E6C3200A1
S3150800CEA0457643686E6C3300505050002E2E2F6224
S3150800CEB06C6F636B7365742F7274772F53544D338D
S3150800CEC0322F7372632F53544D33325F45343037E4
S3150800CED02F63616E2E6300000064004000000002AC
S3150800CEE008000000000C02400100000008000000D5
S3150800CEF0000C024002000100091314151600000078
S3150800CF00006800400000000402000000000402401F
S3150800CF102000050002000000000402404000060050
S30D0800CF20093F404142000000F0
S315080100000B78FF2B00D070474B78002BFBD100F003
S3150801001017BD00BF08B5012000F094F8BDE80840F7
S31508010020024A40F26761002001F062BC0100010842
S31508010030002000F001B800BFF8B5384C63780026F7
S315080100403546002B49D1364BA2781F787E1CF6B26D
S31508010050022E28BF2E463AB95D78324B1D700135FE
S31508010060EDB2022D28BF0025472002F06DFD2E4B6B
S315080100702E4A1B781070034347D0003F2C4B18BFFC
S3150801008001271F7000F0DEFC2A4B187000F0E0FC17
S31508010090294B1860294800F0DDFC294B1860637864
S315080100A043B9234B197841BB472002F09BFD1C4AF3
S315080100B063781670A27812BB0133DBB218496370F4
S315080100C0092B4D7016D9002363700132D2B2132A57
S315080100D08ABF0023A270A370F8BDA378002BD1D1E3
S315080100E00F4A104B55781D700135EDB2022D28BF08
S315080100F00025C7E70123A370F8BD0121D4E7013321
S31508010100DBB2092B6370DED8DFE7064B084A1B789A
S31508010110003B18BF01231370B4E700BFF8010020A4
S31508010120F4010020F001002003000020EC0100206A
S31508010130E0010020E1010020E401002030C00008B0
S31508010140E801002008B50121472002F019FD022126
S31508010150472002F0C3FC4FF4197000F07FFA42F20F
S31508010160107000F06FFA4FF47A7000F0F7F901F0A9
S3150801017073FCBDE8084001F079BC00BF454B1B780C
S31508010180012B00D070472DE9F041434A1378012B22
S3150801019096B005D0414802F051F916B0BDE8F08194
S315080101A03F4E0024334614705A78E5B203331AB128
S315080101B001340A2CF8D125463A4802F059F94FF08C
S315080101C080603949394A07904FF480634FF40060DB
S315080101D008914FF4005100270B94099201244FF41A
S315080101E080720D930E904FF480330F912D48109223
S315080101F007A911930A970C971297CDE914771394C7
S3150801020002F0CCF92146274802F0F4F902F092F8F7
S3150801021001A9224801978DF808408DF80970CDE9A2
S31508010220037705978DF8185002F092F8BDB1013D94
S31508010230EDB2DFF88080194F023504EB44023244EF
S31508010240032312F8032C02EB420208EB820138461B
S31508010250E2B2897A013402F0ABF8AC42EDD1002062
S3150801026002F0D2F9012002F0DDF9012002F0E8F9E5
S315080102700F4A0A48136843F400531360012102F038
S31508010280EDF80121054802F0DFF80121034802F0E3
S3150801029085F87FE7090000200800002000220140B8
S315080102A0FC010020106402404C2201401C0200207F
S315080102B0007000403CC000082DE9F04FA34B1B68B5
S315080102C097B0002B00F0F180A14B019303F11E09B1
S315080102D09F4DCDF8009004E0009B03359D4200F048
S315080102E0B880AB78002BF7D06B78002BF4D0994BFC
S315080102F01B78002BF0D0954A95F800801768013BCA
S31508010300DBB207F14C064C2212FB0369AA4604E04C
S31508010310B145374600F097804C3639784145F7D1D3
S31508010320019B002404E001340A2C03F1030305D0E0
S315080103305A78012AF7D11A788A42F4D14C223946D9
S3150801034003A806F007FFB86C049A7D6CC30602F091
S3150801035078418B4200F08E804FF0000C9B4600E0FE
S315080103608C460CF10101C9B216AB03EB810353F8B4
S31508010370483C03F0784EF345F2D10CF1020C0B29F7
S315080103809E465FFA8CFC5B4669D90E2910D80FFA8E
S315080103908CF103AA02EB810100E094464A6841F810
S315080103A0042BBCF10E0F0CF10102D2B2F5D9049A55
S315080103B0694931F814C022F07842CCF30B0C6FF07E
S315080103C078419445139160D900240134E4B216AA00
S315080103D002EB8402A64652F8482C22F0784294454C
S315080103E0F3D80B2C38D8032C0F9A98BF079922F00B
S315080103F07842A5EB020296BF21F078410CEB020583
S315080104008D18C4F10E0412AAE4B2A2EB840413AA4D
S3150801041052F8041D51609442FAD1441C16AA102CB4
S3150801042002EB8E0E28BF002443EA0C03384603A9C3
S315080104304C224EF8483CCDE9145406F08BFEB145E2
S3150801044037467FF469AF5546009B03359D427FF4D5
S3150801045048AF17B0BDE8F08F0E2CD2D9DDE7109A58
S31508010460032922F0784215441AD92EF0784EA5EBC5
S315080104700E058CE7109A089922F07842154421F066
S3150801048078416D1A4FF0010C81E70F9A079922F00E
S315080104907842AD1A21F0784100240D44A646B0E70A
S315080104A0089921F078416D1A71E72A4E337803EBE2
S315080104B0C30203EB4203980000F078F9234B804608
S315080104C01860234B002837D01A4601931546034670
S315080104D002F11E0914AC212703E003354D453FF40B
S315080104E0F7AEAA78002AF8D095F800C004A9002228
S315080104F041F8042BA14202F10062F9D14C2203A969
S3150801050018468DF80CC0149706F024FE327802EBD3
S31508010510C201034602EB41024C3308EB82029342C5
S31508010520DBD90122142142F2030001F091FC074BA9
S31508010530186800F0A7F9CBE60122142142F202005D
S31508010540019303F11E0901F083FCC1E63002002084
S31508010550FC010020020000201C020020034A044B73
S31508010560A2FB002040091860704700BF1F85EB51A8
S315080105700400002000B583B000F0E4FC02AC084E8C
S3150801058044F8040D074D03E02968204600F012FEE1
S31508010590FFF7F4FD3378002BF6D0FFF78DFEF3E76E
S315080105A0020000200400002008B5FFF7E7FD044B10
S315080105B01B781BB1BDE80840FFF77EBE08BD00BF2A
S315080105C00200002000B583B000F0BCFC02AC054D6A
S315080105D044F8040DFFF72CFD2968204600F0EAFDD2
S315080105E0F8E700BF0C00002010B584B0002400F025
S315080105F03FF801F00BFCFFF70DFDFFF7D5FF0522CC
S3150801060023460092CDE9024401948022084909480B
S3150801061000F054FB084B039406211A8807480091F9
S31508010620029401942346064900F048FB04B010BD24
S31508010630B4C000087505010810000020C5050108A9
S3150801064030C00008034A044BA2FB00204009186089
S31508010650704700BF1F85EB510C00002080087F28DA
S31508010660024B96BF802218801A807047100000201E
S3150801067000F000B8074BC3F1006101F5004103F52D
S3150801068000605A5C03F8012B8342FAD1024B00221F
S315080106901A7070473802002034020020C1F5006341
S315080106A00133984218DA0144884215DADFF834C072
S315080106B0F0B40B4C9CF800600025FF27225CFF2A4A
S315080106C000F1010302D0012527542E4698B288422B
S315080106D0F4DB15B9F0BC704770478CF80060F9E790
S315080106E0380200203402002040F2FC73984210B50B
S315080106F002D90024204610BD044600F09DF9034B9B
S315080107001C5900F09BF9204610BD00BF3802002095
S31508010710F8B540F2FC73984200D9F8BD0446094E73
S315080107200D4600F089F9375900F088F9BD42F4D031
S3150801073000F082F9355100F081F9034B01221A7054
S31508010740F8BD00BF380200203402002010B4154A53
S3150801075000E01A4613688342FBD351685418A04235
S315080107600AD041684418A3420DD0904203605DF84F
S31508010770044B18BF1060704740680144104644187E
S31508010780A3425160F1D1084C2468A342EDD0D3E9C4
S31508010790003490422144036041605DF8044B18BF60
S315080107A010607047388A0020140000202DE9F041B6
S315080107B0044600F0BFFB2E480268002A39D02D4BAB
S315080107C01F683C422FD174B304F108014B071CBFC3
S315080107D021F00701083131B3DFF8A080D8F80060AD
S315080107E08E4220D3244D2C6803E0226822B1254687
S315080107F0144663688B42F8D30268A24213D0226872
S3150801080028682A605A1A102A00F1080528D8F61A03
S3150801081000223B43C4E90023C8F8006000F056FCF7
S315080108202846BDE8F081002500F050FC2846BDE8C1
S31508010830F081124F124B396823F0070347F6F0751A
S315080108405E190839726039605A510A490660C3E966
S315080108500065094D4FF000472B606A600F60B0E7ED
S31508010860631818465A606160FFF770FF6368CEE740
S315080108701400002018000020388A00201C000020DF
S31508010880400A002000283AD038B51D4D50F8043CDE
S315080108902A681342044610D050F8081CD9B14FF4FF
S315080108A08671184800F04EF92A6854F8043C134238
S315080108B002D054F8081C71B138BD40F20B11114829
S315080108C000F040F954F8083C002BE8D12A6854F89E
S315080108D0043C1342F0D023EA020344F8043C00F036
S315080108E029FB094A54F8043C1168A4F108000B4491
S315080108F01360FFF72BFFBDE8384000F0E7BB7047F0
S3150801090018000020C8C000081C000020014B186808
S31508010910704700BF1C0000200C490D484B6830B4D5
S31508010920C3F5C332A032642303FB02F3094D0A4C13
S315080109305B09A5FB03230278C3F3C7139A42237005
S3150801094038BF037000234B6030BC7047488A0020CB
S31508010950418A0020C55A7C0A408A002070B50D4696
S31508010960064606F0EDFC0446284606F0E9FC8442F4
S3150801097001D0002070BD6CB132782B789A42F8D13B
S31508010980002303E0F15CEA5C9142F2D10133DBB268
S315080109909C42F7D8012070BD00B51D4D1D481E4B60
S315080109A083B000240093012204602C706C602C72C1
S315080109B0234642F210711948194D00F041FE28608C
S315080109C0F0B10446174A184B002515701D7000F042
S315080109D0B9FA009502462B462046294600F056FEEE
S315080109E0012805D0012214214FF4805001F030FA74
S315080109F00E4B00221A60FFF7F7FD00F063FAFEE7D7
S31508010A00012214214FF4805001F022FA2C68D9E70B
S31508010A10488A0020548A002019090108ECC00008F8
S31508010A20448A0020408A0020418A002020000020B4
S31508010A30704700BF704700BF01F066BB01F08ABB73
S31508010A4001F08ABF014B1878704700BF408A002021
S31508010A50FFF75CBF70B5054601F056FB114B1C68E4
S31508010A608CB106462946A068FFF778FF012805D10B
S31508010A700DE0A068FFF772FF012808D0246929460E
S31508010A80002CF6D1304601F065FB204670BD64683E
S31508010A90304601F05FFB2046002CF7D000F0D6FC6B
S31508010AA0800070BD548A00202DE9F041804614204B
S31508010AB00F461446FFF77AFE054628B30023C5E913
S31508010AC00343C5E9018701F01FFB134E074601F0F1
S31508010AD01BFB346802460CB90DE01C462369002B42
S31508010AE0FBD1104601F036FB256138462C60BDE87E
S31508010AF0F04101F02FBB01F02DFB2C603560384623
S31508010B00BDE8F04101F026BB012214214FF48050C3
S31508010B1001F09EF9D2E700BF548A0020074A1388DC
S31508010B2001339BB2092B138005D905490B680020AF
S31508010B3001330B60108001F031BE00BF2400002094
S31508010B4020000020012214214FF4805001F080B9C1
S31508010B50054B1A78012A00D070471A7A002AFBD168
S31508010B605A6801325A607047488A002008B501F070
S31508010B70CBFA044B0121002219701A72BDE808400C
S31508010B8001F0E8BA488A0020014B00221A70704722
S31508010B90488A002008B5034C2368012BFDD901F0CA
S31508010BA0A7FAF9E7608A00200D4B0E4A1968126800
S31508010BB0486082420DD80C4A10B504461068196877
S31508010BC0043102F083FF094B1A68A24288BF1C60F0
S31508010BD010BD074A10681968043102F077BF00BFD3
S31508010BE02800002050000020588A002044000020D8
S31508010BF05C8A00202B4B2DE9F0410022DFF8B880F2
S31508010C00294E1A60D8F8002033689A4247D0D8F896
S31508010C100020D8F8003012681B6B9A4233D9234C4E
S31508010C20234D236803EB830355F823309BB9214FE2
S31508010C3008E02368013B2360236803EB830355F827
S31508010C40233043B92368002BF3D140F25271384659
S31508010C50FFF778FFEDE7236803EB83039B00E918A9
S31508010C6008334A6852684A601D44AA4204BF52685A
S31508010C704A60D368C8F80030D8F8002033689A4229
S31508010C8009D0BDE8F081D8F80000D8F80010343151
S31508010C9002F088FEC3E7BDE8F041FFF767BFFFF73B
S31508010CA073FFB4E754000020400000203C000020F8
S31508010CB0608A002000C10008280000202DE9F84FAD
S31508010CC0DDF830B08A4691469846DDE90A57064668
S31508010CD0002800F0A7800D2D00F287804820FFF735
S31508010CE065FD0446002800F08C804FEA8909BBF1AE
S31508010CF0000F00F09D80C0F830B04A46A52158463D
S31508010D0006F0C2FA236BA9F10409994429F00709E7
S31508010D100AF1FF330AF10F0104F1330201E08B42B4
S31508010D2007D013F9010F02F8010F93F90000002803
S31508010D30F5D10D2D4FF00003AB4604F1040A28BF87
S31508010D404FF00D0B84F843305046C4F82CB0C4F864
S31508010D5044B002F0A7FE04F1180002F0A3FECBF19D
S31508010D600E03A3612461646242463146484601F096
S31508010D709BF9206007B13C6001F0DEF9444A454E13
S31508010D801368013313603368002B3ED0424F3B682A
S31508010D901BB3DFF824814148E26A03680133036023
S31508010DA004F134012046FFF77FFE3D4BE06A1A68DD
S31508010DB0904288BF186000EB800008EB800051461E
S31508010DC002F074FE01F0CAF93B681BB13368DB6AAD
S31508010DD0AB4222D30120BDE8F88F3368DFF8D8800B
S31508010DE0DB6AAB4298BF3460D5E740F2ED112D4876
S31508010DF0FFF7A8FE4820FFF7D9FC044600287FF430
S31508010E0074AF4FF0FF30BDE8F88F34601368DFF830
S31508010E10A880012B1AD0204FBDE701F069F90120FE
S31508010E20BDE8F88F4FF4F6711E48FFF78BFE52E7BF
S31508010E304846FFF7BBFC8346206300287FF45DAF75
S31508010E402046FFF71FFD4FF0FF30C4E7474608F578
S31508010E508C793846143702F019FE4F45F9D1DFF877
S31508010E605CB0DFF85C900C4F584602F00FFE48461E
S31508010E7002F00CFE0C4802F009FE0C4802F006FED0
S31508010E800B4A0C4BC2F800B0C3F8009083E700BFC9
S31508010E902C000020280000204C00002038000020EB
S31508010EA03C00002000C10008A08B0020B48B002064
S31508010EB0588A00205C8A0020608A0020788B0020EE
S31508010EC08C8B002030B585B00024144A0192CDE9F7
S31508010ED0024400942346802211491248FFF7EEFE88
S31508010EE001280BD005460DB105B030BD0E4840F2BC
S31508010EF01F5105B0BDE83040FFF724BE00F07CFB6A
S31508010F0001280546EFD101F0FFF8084A084B15609C
S31508010F101C6005B0BDE8304001F088B940000020EA
S31508010F20F8C00008950B010800C100084C00002014
S31508010F3050000020024A136801331360704700BF4E
S31508010F403400002010B501F0F7F8034B1C6801F0D6
S31508010F5005F9204610BD00BF500000202DE9F04FCD
S31508010F604E4B1B6883B0002B7BD14D4B1A6801325F
S31508010F701A601F680FB34B4B0193019B1B68BB4259
S31508010F8037D9DFF83C81DFF83C910025D9F80030E4
S31508010F90454ADB6A126803EB830358F82330022BB0
S31508010FA028BF0125002A64D0404B1B68002B0CBFC3
S31508010FB02846012003B0BDE8F08F3D4E33681B6813
S31508010FC0002B64D13B4B31683B4A18683060196085
S31508010FD013680133136033681B68002B4CD1314BFE
S31508010FE001931A464FF0FF331360019B1B68BB42FE
S31508010FF0C7D82F4EDFF8C880DFF8C890DFF8C8A039
S31508011000002525E03368DB68DC68636804F1040BB6
S315080110109F42584638D302F073FDA36A04F11800BB
S315080110200BB102F06DFDE36ADAF8002003EB8300E9
S315080110309342594608EB800088BFCAF8003002F08F
S3150801104035FDD9F80030E26ADB6A9A4228BF0125E4
S3150801105033681B68002BD5D1019A4FF0FF33136013
S3150801106094E7114A1368013313600025FFF756FD0B
S315080110709AE7FFF753FD97E733680A4ADB68019257
S31508011080DB685B68136078E7019A13607EE740F2D4
S315080110905B610A48FFF756FD94E700BF340000205C
S315080110A05000002044000020300000205400002099
S315080110B0588A00205C8A00204800002000C10008E8
S315080110C0608A0020280000203C0000202DE9F04716
S315080110D02F4C2368002B51D001F02EF82368013BD1
S315080110E023602368002B43D12A4B1B68002B3FD072
S315080110F0DFF8B4A0284E294FDFF8B090DFF8B080AA
S315080111001EE0F368DC68251D04F1180002F0F8FCFE
S31508011110284602F0F5FCE36A3A6803EB830093423A
S31508011120294609EB800088BF3B6002F0BFFCD8F86E
S315080111300030E26ADB6A9A4224BF0123CAF800300A
S315080111403368002BDDD1164C23686BB123685BB17C
S315080111500125FFF703FF08B1CAF800502368013BD0
S3150801116023602368002BF4D1DAF80040012C0BD058
S31508011170002400F0F3FF2046BDE8F08740F25A51FB
S315080111800848FFF7DFFCA7E700F0B2FFF1E700BF69
S31508011190340000202C000020A08B00203C000020F9
S315080111A03000002000C1000854000020608A002099
S315080111B02800002038B50C460546002836D03CB331
S315080111C01F4920480A682B6801320A6001681C1900
S315080111D02CBF012000208B4222460DD860B32C601B
S315080111E0194B1868043002F08BFC2046FFF7DCFC2B
S315080111F0FFF76CFF40B138BDB0B1A1422C60EFD307
S31508011200FFF764FF0028F6D1BDE8384000F070BF4B
S3150801121040F2BF210D48FFF795FC094909480B68BB
S315080112202A6801330B6003682A60E1E740F2BE21B0
S315080112300648FFF787FCC2E7A142D0D3F4E700BF0F
S3150801124034000020500000202800002000C10008BA
S31508011250044B1B680BB9FFF7CDBC034B01221A607F
S31508011260704700BF340000205400002070B50E46B8
S315080112700546C8B10F4C21682846183102F026FCEC
S315080112802068043002F03CFC731C06D00A4B18682F
S315080112903044BDE87040FFF787BC21680748043130
S315080112A0BDE8704002F002BC40F265710448FFF7E0
S315080112B049FCDFE72800002050000020B48B0020FD
S315080112C000C1000870B50E46054680B10B4C216871
S315080112D02846183102F0EAFB2068043002F010FCB7
S315080112E0074B18683044BDE87040FFF75DBC40F213
S315080112F09B710448FFF726FCE8E700BF2800002099
S315080113005000002000C1000838B5C368DC684CB33A
S3150801131004F11805284602F0F3FB154B1B68E3B9DF
S31508011320251D284602F0ECFB124AE36A11681248A9
S315080113308B4288BF136003EB8303294600EB8300C6
S3150801134002F0B4FB0D4BE26A1B68DB6A9A4223BFC3
S315080113500B4B01201860002038BD2946094802F0C8
S31508011360A5FBEFE740F2D1710748FFF7EBFBCFE7A3
S31508011370340000203C000020608A0020280000205C
S3150801138054000020A08B002000C1000810B50446B7
S3150801139030B1064A064B12681B68C4E9002310BD22
S315080113A040F2F7710348FFF7CDFBF2E7480000204A
S315080113B05000002000C10008F8B50D46044658B390
S315080113C08DB300F0B9FE2B681A4A581C11681ED055
S315080113D0DFF868C0D4E90060DCF80070BE4201D0CD
S315080113E081420FD20F1ABB420CD95B1ADCF80010E6
S315080113F0126803442B600025C4E9001200F0AEFE12
S315080114002846F8BD012500F0A9FE2846F8BD0025A5
S3150801141000F0A4FE2846F8BD40F601010648FFF78C
S3150801142091FB002DCDD140F602010348FFF78AFB57
S31508011430C7E700BF5000002000C10008480000208F
S31508011440014B01221A6070475400002068B1036BF2
S315080114501A78A52A4FF000000FD113F8012F013091
S31508011460A52A80B2F9D080087047044B1868036B27
S315080114701A78A52A4FF00000EFD0704728000020FF
S31508011480014B1868704700BF28000020044B1868F4
S3150801149028B1044B1B68002B0CBF012002207047A2
S315080114A04C00002034000020B8B1F8B5164DC36AC7
S315080114B02A68D26A93420FD22A68144ED26A4169BF
S315080114C003EB830306EB8303C2F10E0299428261A1
S315080114D004D02B68DB6AC362F8BD7047071D044652
S315080114E0384602F00DFB2A68094BD06A1A68E06291
S315080114F0904200D9186000EB800006EB800039465F
S31508011500BDE8F84002F0D2BA28000020608A00201F
S315080115103C000020F0B138B5C26A436C9A4218D033
S31508011520051D0446284602F0EBFA0B4A636C11685E
S31508011530E362C3F10E008B42A061084888BF1360BD
S3150801154003EB8303294600EB8300BDE8384002F02C
S31508011550ADBA38BD704700BF3C000020608A002044
S31508011560F8B50F4C00F0E8FD25681DB1BDE8F84057
S3150801157000F0F4BD0B4F0C4E384602F087FA3046A0
S3150801158002F084FA094A0A4B17600C212A460620FA
S315080115901E6002F091FB2060BDE8F84000F0DEBD58
S315080115A05C000020D08B0020E48B0020C88B002033
S315080115B0CC8B0020914208B50061416005D881694C
S315080115C0D21A8A420CD3012008BD9A4201D2994205
S315080115D0F9D2074B011D186802F078FA002008BDF8
S315080115E0044B011D186802F071FA002008BD00BFFE
S315080115F0C88B0020CC8B002000B585B0FFF7B0FF63
S315080116000B4B1B685BB100230222CDE90023CDE910
S315080116100233802207490848FFF750FB20B90748DB
S31508011620E021FFF78FFA002005B05DF804FB00BF43
S315080116305C00002048C100086917010824C1000898
S315080116402DE9F0410D46B1B18046282017461E46C0
S31508011650FFF7ACF8044658B1FFF782FF069BC4F8BA
S315080116600080C4E9065726626362201D02F01AFA51
S315080116702046BDE8F0814FF4847103482C46FFF7F4
S3150801168061FA2046BDE8F08124C1000870B5134E01
S31508011690346884B064B11D46CDE90112039053B193
S315080116A01A462046002301A902F0C6FB04B070BD04
S315080116B0204604B070BDFFF7E9FE012807D030685F
S315080116C02B462A4601A902F01DFB04B070BD2B4624
S315080116D03068089A01A902F015FBE7E75C000020CB
S315080116E02DE9F0471D4DDFF87C8082B04FF0000AE6
S315080116F00DE0DB68DC681F6804F10409484602F05E
S31508011700FFF9636A20469847E369012B0AD02B68DB
S315080117101A68002AEDD1124A11682960136002B0CD
S31508011720BDE8F087A6693E440023B74219463A4602
S31508011730204606D2666024612868494602F0C6F941
S31508011740E5E7CDF800A0FFF7A1FF0028DFD140F2B9
S3150801175082214046FFF7F6F9D9E700BFC88B00207A
S31508011760CC8B002024C100082DE9F04FDFF874A1C5
S315080117705B4FDFF87481DFF8749187B04FF0000B87
S31508011780DAF800301D68002D6DD0DB681D68FFF79B
S31508011790D1FBFFF7D7FB3B68834204466BD88542EA
S315080117A0386073D9291BD8F8000002F0B5FCFFF799
S315080117B08DFC002867D000231A4603A9D8F8000033
S315080117C002F0A4FB0028DBD0059C636913B1201D38
S315080117D002F096F9FFF7B6FB3B689842054627D310
S315080117E0039E3D60022E29D0032E31D0002EE2D170
S315080117F0049BA1692A4619442046FFF7DBFE012806
S31508011800D9D1636A20469847E369012BD3D1A369E5
S31508011810049A00961A44204633463146FFF736FFA6
S315080118200028C8D140F22F214846FFF78BF9C2E7B5
S31508011830FFF756FF039E3D60022ED5D10499A1619B
S3150801184051B1294420462B462A46FFF7B3FEB2E793
S315080118502046FFF717F8AEE74FF40F714846FFF732
S3150801186071F9A169EDE7FFF765FBFFF76BFB3B68CC
S315080118709842044605D2FFF733FF3C60FFF726FC82
S3150801188099E73C608EE700F033FC94E7FFF71EFC0E
S31508011890DAF80030DB68DE68301D02F031F9F369E9
S315080118A0012B03D0736A3046984784E7B16922460B
S315080118B029442B463046FFF77DFE0128F2D1002345
S315080118C0CDF800B02A4619463046FFF7DFFE002854
S315080118D0E8D14FF4AD714846FFF734F9E2E700BFA6
S315080118E058000020C88B00205C00002024C1000895
S315080118F00128F8B505460F46164605D901221421D1
S3150801190042F20C1000F0A4FA0C20FEF74FFF044631
S3150801191088B10C4B276053F8252066600021A16029
S315080119200AB905E01A469368002BFBD19460F8BD05
S3150801193043F82540F8BD0122142142F2022000F0A5
S3150801194087FAE6E7F88B002000294FD02DE9F843FE
S315080119504D1E274E274FDFF8B480DFF8B4900544B3
S31508011960441E0CE01F294FF0010106D8037031709F
S3150801197089F800203A7088F80020AC4222D014F881
S31508011980013F32781C48591E002AEBD098F80020EE
S315080119903978012A18D099F8002000EB020C013297
S315080119A08CF80130007894F800C0D3B2984289F8CF
S315080119B0003008BF0123614408BF88F80030AC42F3
S315080119C03970DCD1BDE8F88300229942327088F873
S315080119D00020D2D109480A490A4A202303700B700C
S315080119E009480223137002F0C7FCC6E7704700BF17
S315080119F062000020008C0020589C0020680000200E
S31508011A006900002061000020599C00207E9C00206E
S31508011A107A9C002070B50D4E0546002456F82430F0
S31508011A20AB42E0B204F1010405D0032CF6D13368C8
S31508011A30AB4203D070BD02F013FCF6E7044A054B2E
S31508011A4011881B780B44138070BD00BF048C0020DD
S31508011A507C9C002000C0000808B501F075FC02480E
S31508011A60BDE8084001F0AABC491901084C4B1A788F
S31508011A70012A7FD0F0B54B4E4B4D4C4C83B0012714
S31508011A801F7002F07FFF3378494A009503EB830301
S31508011A9003EB83018900A2FB013149093A46002378
S31508011AA04448FFF7CDFD206000286BD07378404A83
S31508011AB0009503EB830303EB83018900A2FB013144
S31508011AC04909002301223C48FFF7BAFD6060002856
S31508011AD05FD0B378364A009503EB830303EB8301A2
S31508011AE08900A2FB01314909002301223348FFF786
S31508011AF0A7FDA06000283ED02568FFF723FA00233A
S31508011B000246009328461946FFF7C0FD01282AD147
S31508011B106568FFF717FA0023024600932846194617
S31508011B20FFF7B4FD012817D1A468FFF70BFA0023C4
S31508011B300246009320461946FFF7A8FD012804D15D
S31508011B401F4B00221A8003B0F0BD012214214FF465
S31508011B50185000F07DF9F3E7012214214FF41850CB
S31508011B6000F076F9E0E7012214214FF4185000F04D
S31508011B706FF9CDE77047012214214FF4185000F090
S31508011B8067F9B9E73A4614214FF4185000F060F99D
S31508011B908CE7012214214FF4185000F059F998E7FF
S31508011BA06000002000C00008151A0108048C0020F6
S31508011BB01F85EB5150C1000858C1000860C10008D3
S31508011BC07C9C0020014B1878704700BF68000020F4
S31508011BD0014B1878704700BF69000020F0B53F4BEC
S31508011BE01C7883B002460D462CB1012C2FD0022C4D
S31508011BF00AD003B0F0BD3A4B3A49187809682B4622
S31508011C0003F028F903B0F0BD411EC9B21F298DF8AA
S31508011C100600EED829446A1E002312F8010F034470
S31508011C208A42DBB2F9D10DF1060001218DF80730A0
S31508011C3001F0A4FB28469DF8061001F09FFB01213F
S31508011C400DF1070001F09AFB02F09AFED1E784B282
S31508011C5000F072FA244941F24403CF5A102F34D0C6
S31508011C6001F5825E41F24603BEF8006031F803C011
S31508011C7006EB861080000B180C52A3F802C05CB163
S31508011C800330621E084415FA82F26B1E13F8014FDF
S31508011C9000F8014F9A42F9D10136B6B20F2E84BF28
S31508011CA00023AEF8003041F2440241F246030CF13A
S31508011CB0010C07F1010798BFAEF800608F5221F8B1
S31508011CC003C000F04BFA03B0F0BD00F047FA40F24A
S31508011CD035310648FEF736FF8BE700BF6100002065
S31508011CE0018C002064000020108C002068C10008C7
S31508011CF008467047014B1888704700BF7C9C002036
S31508011D0010B54478012C82B01BD00CD3022C02D01A
S31508011D10032002B010BD01F0ADFE002814BF01205A
S31508011D20032002B010BD01A802F03AFE01F05AFEE6
S31508011D30019B0522C3F80100012083F8002102B0A6
S31508011D4010BD807801F052FE204602B010BD00BFDA
S31508011D50F0B5503085B004010F4604F110066D4602
S31508011D60A0B2FEF7C1FC0434B44245F8040BF7D11E
S31508011D700C4A029B934202D0002005B0F0BDDDE972
S31508011D800010039C0A1813449C42F5D147B10A0C6A
S31508011D900B0A78600120F9703A80BB7005B0F0BD76
S31508011DA00120EAE7AA55EE11F0B587B00F46694654
S31508011DB015460446FFF7CCFF012808BF9DF8031016
S31508011DC04FEA052506BF0131C9B2012145EA074592
S31508011DD00D430295FFF7B6F80B4B039018442844B8
S31508011DE05034CDE90430240104F1100703AEA0B242
S31508011DF029460434FEF78CFCA74202D056F8045B48
S31508011E00F5E707B0F0BD00BFAA55EE1110B50D4BA9
S31508011E10002203F5C0711A809A70DA705A60083385
S31508011E208B42F8D1084B094C1A702270002003E046
S31508011E3020780130C0B220700021FFF789FF012800
S31508011E40F6D010BD809C0020009E0020019E002037
S31508011E50F0B5002385B02B4D06460F4601E0302B21
S31508011E6013D035F83300B0424FEAC30103F1010339
S31508011E70F5D16C18A178B942F1D1E3780133E37051
S31508011E80FFF760F8606005B0F0BD1F490B782F2B8E
S31508011E90F9D805EBC304012025F83360A77001338F
S31508011EA0E07001920B70FFF74DF8019A6060002A05
S31508011EB0E9D0164D2878E8B1002403E02878DCB289
S31508011EC0844215D202A92046FFF742FF012804F1F0
S31508011ED00103F3D1BDF80820B242EFD19DF80A20DB
S31508011EE0BA42EBD13A4631462046FFF75DFFCAE7CB
S31508011EF02F28C8D83A463146FFF756FF2B780133C3
S31508011F002B70C0E7809C0020009E0020019E0020C7
S31508011F1008B54FF440714FF4A060FEF7BFFB024BC2
S31508011F2000221A7008BD00BF019E0020064B002240
S31508011F3003F5C0711A809A70DA705A6008338B42B9
S31508011F40F8D1024B1A707047809C0020009E002031
S31508011F50024B1878302828BF30207047019E002090
S31508011F60024B1878302828BF30207047009E002081
S31508011F702DE9F0432F2983B00D46044691462ED804
S31508011F8068B3A9444D4531DA05F101085FFA88F8C5
S31508011F9008F1FF38002612E02F2DDDB21BD8BDF857
S31508011FA000302380019B9DF802709DF80300A770FD
S31508011FB04945E0706360D7B204F108040BDA694653
S31508011FC02846FFF7C5FEF7B201367A1C6B1C08EBEB
S31508011FD006010028E0D1384603B0BDE8F0830122A6
S31508011FE014214FF41450FFF733FFCAE70027F2E72D
S31508011FF02F292DE9F0410F460446904634D898B367
S31508012000B844B8453B4636DD1C4A02EBC701CD78D4
S315080120108DB32F2F2FD8C7F12F0E5FFA8EFE791C9D
S315080120200EF1010EC9B204EBCE0E02EBC10604E0B5
S31508012030F5780836B5B1744514D032F833002080E6
S3150801204002EBC303C81B93F802C084F802C0E5700B
S315080120505B68636041450B46C0B204F1080401F1AF
S315080120600101E5DBBDE8F081012214214FF414508A
S31508012070FFF7EEFEC4E70020BDE8F081809C002052
S3150801208003480068006880F3088862B600DF00BF6D
S3150801209008ED00E0DFF80C00016841F47001016009
S315080120A07047000088ED00E030B46FF002034FF08E
S315080120B08075074C40F8045C40F80C4C40F8081C45
S315080120C040F8202C40F8243C30BC4438704700BF07
S315080120D019210108054B19680868B0E8F04F80F323
S315080120E009884FF0000080F3118870472800002006
S315080120F0044B4FF080521A60BFF34F8FBFF36F8FB7
S31508012100704700BF04ED00E0EFF311804FF0BF0107
S3150801211081F311887047002008B5054B1B68013308
S3150801212003D0F7210348FEF70DFDFFF7EDFFFEE7A4
S315080121307400002094C1000808B5FFF7E5FF044ABA
S31508012140136801331360BFF34F8FBFF36F8F08BD59
S315080121507400002080F31188704700BF034B18688C
S315080121600138186000B17047FFF7F4BF740000200A
S31508012170EFF30980114B1A681EF0100F08BF20ED06
S31508012180108A20E9F04F10604DF8043D4FF0BF006A
S3150801219080F31188FFF75CF84FF0000080F311888F
S315080121A008BC19680868B0E8F04F1EF0100F08BFA0
S315080121B0B0EC108A80F30988704700BF2800002018
S315080121C008B5FFF7A1FFFEF7C3FCFEF731FC0F4A7E
S315080121D0138801339BB2092B07D81380FEF72AFC13
S315080121E00020BDE80840FFF7B5BF00231380FEF7BE
S315080121F0B5FE0028F2D0064B4FF080521A60FEF762
S3150801220019FC0020BDE80840FFF7A4BF6A000020BA
S3150801221004ED00E00349044B40F28F600722086091
S315080122201A60704714E000E010E000E010B5254B95
S31508012230254C1A78254882B0D2B2FF21019219702D
S315080122401B78DBB28DF803309DF803309DF8032027
S3150801225003F0BF03072112062370016012D5062277
S3150801226000E00A469DF803305B00DBB28DF80330C7
S315080122709DF803301B0602F1FF31F2D4130203F471
S31508012280E06301E04FF4E06301990E4C0360104AE4
S31508012290CBB22370136843F47F031360136843F0CA
S315080122A07F431360FFF7B6FF0A4B00221A60FFF758
S315080122B0F1FE094A136843F040431360FFF7E0FE55
S315080122C0FFF72AFF00E400E06C0000207000002000
S315080122D020ED00E07400002034EF00E008B5EFF3CC
S315080122E005830F2B05D90E490E4A5B5C12789A4273
S315080122F00FD80D4B0D4A1B68126803F4E06393422D
S3150801230000D808BD40F209310948BDE80840FEF782
S3150801231019BC40F2F9210648FEF714FCE9E700BFAB
S31508012320F0E300E06C0000200CED00E070000020F6
S3150801233094C1000808B501214FF4807000F022FA13
S3150801234000214FF48070BDE8084000F01BBA00BFB9
S3150801235042680B6970B422F040720E790D688C6878
S3150801236022F4807242EA06222A434260CE688568D0
S31508012370094A33432A4023434C79134343EA440326
S3150801238083600A7DC36A013AD2B223F4700343EA31
S315080123900253C36270BC7047FDF7FFC0836819B961
S315080123A023F001038360704743F00103836070479C
S315080123B0092970B41CD9A1F10A0404EB4404C568BF
S315080123C00726A640A34025EA06042343062AC36036
S315080123D01AD90C2A25D90D3A02EB8202C36A1F249F
S315080123E09440914023EA04021143C16270BC7047CC
S315080123F001EB410604690725B540B34024EA050403
S315080124002343062A0361E4D8013A02EB8202436BAD
S315080124101F249440914023EA04021143416370BC8E
S315080124207047073A02EB8202036B1F2494409140DE
S3150801243023EA04021143016370BC7047836843F0C1
S3150801244080438360704700BF836819B923F480739A
S315080124508360704743F4807383607047836819B952
S3150801246023F400738360704743F4007383607047F5
S3150801247002683649002310B422F001022124884259
S315080124800260036043608360C3600361446131D0C5
S315080124902F4B984234D02F4B984238D02E4B984226
S315080124A040D02E4B984244D02D4B984236D02D4BD6
S315080124B0984242D02C4B984217D02C4B984240D088
S315080124C02B4B98421CD02B4B984220D02A4B984232
S315080124D028D02A4B98422CD0294B98421ED0294BFA
S315080124E098422AD0284B984207D14FF03D5243F8DB
S315080124F0AC2C02E0254B3D229A605DF8044B7047EF
S315080125004FF4746243F8202C5DF8044B70474FF47E
S31508012510741243F8382C5DF8044B70471C4A43F88B
S315080125207C2CEAE74FF0746243F8502C5DF8044BB3
S315080125307047184A43F8642CDFE7174A43F8942C86
S31508012540DBE73D2243F8082CD7E700BF10600240BD
S3150801255028600240406002405860024070600240B4
S3150801256088600240A0600240B860024010640240E0
S315080125702864024040640240586402407064024084
S3150801258088640240A0640240B864024000600240C8
S31508012590400F00203D00002000003D200B6870B46C
S315080125A0D1E90524CD682B431343D1E907252343F4
S315080125B01343D1E909422B43D1E90D65234313435B
S315080125C004680B4A334322402B4313430360D1E982
S315080125D00B3442690D6922F0070223431343D1E9FB
S315080125E00142436145608460C26070BC704700BFA8
S315080125F03F801CF0036819B923F001030360704793
S3150801260043F0010303607047054A136818B923F4B8
S3150801261080731360704743F480731360704700BF7B
S31508012620003C0240054A136818B923F40073136085
S31508012630704743F400731360704700BF003C0240C3
S31508012640054A136818B923F480631360704743F485
S3150801265080631360704700BF003C02402DE9F047D4
S31508012660D1F800C0002301274FF0030E02E0013321
S31508012670102B3FD007FA03F232EA0C04F7D15C00BB
S31508012680D0F800800E790EFA04F5ED4308EA05083C
S31508012690C0F80080D0F800A006FA04F9013E49EA1C
S315080126A00A09012E0EFA04F8C0F8009016D8D0F8D7
S315080126B008904E7905EA09058560D0F808908D7964
S315080126C0A64046EA09068660466826EA020242608C
S315080126D0466805FA03F292B232434260C568CA797E
S315080126E025EA0805C560C568A24001332A43102BAF
S315080126F0C260BFD1BDE8F0870369194214BF012042
S31508012700002070470AB9418370470183704700BFAB
S31508012710CB0800EB830001F0070110B4036A8900B6
S315080127200F248C4023EA04030362036A5DF8044B11
S3150801273002FA01F119430162704700BF044A136B9B
S3150801274019B923EA000010637047184310637047EC
S3150801275000380240044A536B19B923EA0000506352
S31508012760704718435063704700380240044A536C57
S3150801277019B923EA0000506470471843506470473A
S3150801278000380240044A536A19B923EA0000506224
S315080127907047184350627047003802402DE9F047E8
S315080127A01B4DDFF870A0DFF87090002447F6FF781C
S315080127B015F8013B012B04D00134042CF8D1BDE8EE
S315080127C0F08704EBC4035AF82360304602F0F8FD9B
S315080127D047F6FF710746304602F0F0FD3B04BEB2EC
S315080127E047F6FE720AD4A8EB060396429BB2E3D8D3
S315080127F059F82420D31A49F82430DDE759F824304A
S31508012800A6F5FF467F3E13FA86F649F82460D3E714
S3150801281078000020C0C10008049E002008B500F019
S3150801282097FCBDE8084001F021B800BF08B500F0E3
S31508012830E9FC00F043F9BDE8084001F08BB800BF98
S3150801284008B500F05DFC00F0FDF8BDE8084000F0B1
S31508012850CDBF00BF08B500F02DFC00F0E3F8BDE8D8
S31508012860084000F091BF00BF08B500F0FDFB00F07D
S31508012870C9F8BDE8084000F055BF00BF08B500F02B
S31508012880D9FB00F0B1F8BDE8084000F023BF00BF4E
S3150801289008B500F0A3FBBDE8084000F0EFBE00BF95
S315080128A008B500F095FC00F0F9F8BDE8084001F01C
S315080128B029B800BF08B500F069FB00F079F8BDE852
S315080128C0084000F09BBE00BF08B500F05BFC00F0B5
S315080128D0D5F8BDE8084000F0E3BF00BF10B5094CC4
S315080128E0082002F065FD20881D2102F059FEC30665
S315080128F003D52088012102F053FE0348BDE81040A4
S3150801290000F024B8800000207C00002008B5402093
S3150801291002F032FE01280CD04FF4803002F02CFE72
S31508012920012800D008BD4FF48030BDE8084002F008
S315080129302FBE4FF4803002F02BFE402002F028FE15
S31508012940014800F003F8E7E7FC00002000230068CF
S315080129501A46194601F0D6B9BFF34F8F0449054BFC
S31508012960CA6802F4E0621343CB60BFF34F8FFEE7F8
S3150801297000ED00E00400FA050A4B1B5C03B9704739
S31508012980094B00EB400210B50121044653F8220019
S3150801299000F0A2F9054B53F8243013B1BDE81040F5
S315080129A0184710BD8400002050C20008149E00205C
S315080129B008B501210A4802F00DFD012806D00121BA
S315080129C0084802F007FD012805D008BD0020BDE82A
S315080129D00840FFF7D1BF0620BDE80840FFF7CCBF86
S315080129E0000001400044014008B501214FF0804034
S315080129F002F0F0FC012800D008BDBDE80840FFF749
S31508012A00BBBF00BF08B50121054802F0E3FC012858
S31508012A1000D008BD0220BDE80840FFF7ADBF00BFE2
S31508012A200004004008B50121054802F0D3FC01283D
S31508012A3000D008BD0320BDE80840FFF79DBF00BFD1
S31508012A400008004008B501210A4802F0C3FC012824
S31508012A5006D00121084802F0BDFC012805D008BDB1
S31508012A600420BDE80840FFF787BF0820BDE80840F5
S31508012A70FFF782BF00040140001C004008B5012190
S31508012A80054802F0A7FC012800D008BD0520BDE8CD
S31508012A900840FFF771BF00BF0040014008B501219A
S31508012AA0054802F097FC012800D008BD0720BDE8BB
S31508012AB00840FFF761BF00BF0048014008B5012182
S31508012AC0054802F087FC012800D008BD0920BDE8A9
S31508012AD00840FFF751BF00BF002000402DE9F04133
S31508012AE0472882B006460F4625D87500154CAB19FE
S31508012AF09B0004EB0308E0580121FFF71FFEB8F815
S31508012B0008300093032200238DF805208DF8043040
S31508012B102FB1012F03D002238DF8073001E08DF87C
S31508012B200770354404EB850469466068FFF796FD2E
S31508012B3002B0BDE8F081012214214FF40C50FFF7D1
S31508012B4087F9D2E7C8C20008472810B504460ED847
S31508012B500A4B04EB440403EB840421896068FFF7FC
S31508012B60CBFDA0F10100B0FA80F0400910BD0122A9
S31508012B7014214FF40C50FFF76BF9E9E7C8C20008B6
S31508012B8070B5472882B004460E4621D8144B04EB8B
S31508012B904404A4001D1918590121FFF7CFFD2989FD
S31508012BA068680091002E4FF001024FF0000314BF30
S31508012BB01D461546032469468DF804208DF80650EE
S31508012BC08DF807308DF80540FFF748FD02B070BD56
S31508012BD0012214214FF41050FFF73AF9D6E700BF46
S31508012BE028C60008472838B504460D460FD80B4BAA
S31508012BF004EB440403EB8404A5F10102B2FA82F260
S31508012C00218960685209BDE83840FFF77BBD01227A
S31508012C1014214FF41050FFF71BF9E8E728C60008FE
S31508012C20244B1B5C002B35D000EB4002224B234979
S31508012C3053F8223003F1047310335A012DE9F04F8A
S31508012C4000231F4F136037F810201E4D1E4C1F4ED0
S31508012C50DFF87C90DFF87C80013292B227F81020E9
S31508012C6080009E46054401EB000CC118EF1834F8A4
S31508012C701120013292B224F8112036F8112092B2AD
S31508012C801AB1EA5CD2B2012A05D00133042BECD180
S31508012C90BDE8F08F704734F811A036F811B0D34566
S31508012CA0F3D80CF8032087F800E049F821E028F862
S31508012CB011E0EAE79000002088C90008D8A20020A0
S31508012CC094A000203C9E002010A2002000A3002012
S31508012CD0A8A00020A49F002000F104701030CA07A4
S31508012CE04FEA40101FD48B0720D44A0722D40B077A
S31508012CF024D4CA0624D48B0624D44A0624D40B0623
S31508012D0024D4CA0524D48B0524D44A0524D40B0516
S31508012D1024D4CA0424D48B0426D44A0422D40B040A
S31508012D204CBF3C30803000230360704704300023D9
S31508012D300360704708300023036070470C30F2E7E0
S31508012D401030F0E71430EEE71830ECE71C30EAE70C
S31508012D502030E8E72430E6E72830E4E72C30E2E7DC
S31508012D603030E0E73830DEE73430DCE72DE9F04F84
S31508012D708700744E744A3B1806EB830381B093F8B7
S31508012D800A90DC7A4FEA89052A44125D12B901B024
S31508012D90BDE8F08F6D4A998909EB4903824652F8D5
S31508012DA023B05846FFF798FF694A291952F8213086
S31508012DB0013342F82130002C5ED0012C00F08F80BF
S31508012DC0022C00F0B380032C00F0B680614B6249F7
S31508012DD0DFF8A8C12B4400221A5531F819302919F0
S31508012DE007EB0A0008EB034306EB80064CF8213093
S31508012DF0F389BBF82000034220D15848584A284491
S31508012E0001260655BBF820002A440343ABF82030B7
S31508012E10135D002B36D116555248534A2B190021FA
S31508012E2022F8138020F813102C44504B53F8243001
S31508012E30002BACD001B0BDE8F04F1847474E4848C3
S31508012E402E4428443255BBF8202022EA0303ABF866
S31508012E502030035D012BE7D1434B424A33F8113049
S31508012E60434549D232F81100414AA8EB030303EB63
S31508012E70004342F82130D7E7584602F0A3FA1FFA71
S31508012E8080F8A3E7384A374832F8113043452CD33E
S31508012E90C3F57F4330F81110FF334344013903EB7F
S31508012EA001432E193249DFF8D8C051F82670DFF8E8
S31508012EB0D4E03049B1FBF3F167454EF8261029D91C
S31508012EC02D49DFF8C4C0A1FB03316423490903FB7B
S31508012ED007F3B3FBF1F39BB22CF816309EE758467D
S31508012EE002F072FA1FFA80F870E730F81110A8EBB1
S31508012EF0030303EB0143D4E732F81120C3F57F43FB
S31508012F00FF33434402F1FF38194A03EB084342F8F9
S31508012F10213089E742F21071DFF86CC001FB07F135
S31508012F20B1FBF3F39BB22CF8163077E7584602F05B
S31508012F304DFA1FFA80F849E7584602F049FA1FFA8E
S31508012F4080F843E700CA000860A2002088C9000883
S31508012F50F49F0020D8A2002094A00020E8A1002018
S31508012F603C9E002010A2002088A20020649E00201A
S31508012F70049F0020406F40011F85EB5148A10020A6
S31508012F80B78D0600A8A00020A49F002008B501213E
S31508012F90104802F01FFA012811D001210E4802F04B
S31508012FA019FA012806D002210B4802F013FA012862
S31508012FB00AD008BD0620BDE80840FFF731BE00204B
S31508012FC0BDE80840FFF72CBE0D20BDE80840FFF715
S31508012FD0CDBE00BF000001400044014008B50221F2
S31508012FE0134802F0F7F9012817D00421104802F016
S31508012FF0F1F901280DD008210D4802F0EBF9012855
S3150801300010D010210A4802F0E5F9012800D008BDC0
S315080130100320BDE80840FFF7A9BE0020BDE8084027
S31508013020FFF7A4BE0220BDE80840FFF79FBE00BF18
S315080130300000014008B501214FF0804002F0CAF9AD
S31508013040012807D002214FF0804002F0C3F9012878
S3150801305004D008BDBDE80840FFF7E2BD0420BDE87D
S315080130600840FFF783BE00BF08B50121104802F0EA
S31508013070B1F9012811D002210D4802F0ABF9012856
S3150801308006D004210A4802F0A5F901280AD008BD8C
S315080130900520BDE80840FFF769BE0220BDE80840E3
S315080130A0FFF7BEBD0620BDE80840FFF75FBE00BFBB
S315080130B00004004008B50121104802F08BF90128E7
S315080130C011D002210D4802F085F9012806D0042104
S315080130D00A4802F07FF901280AD008BD0720BDE891
S315080130E00840FFF743BE0320BDE80840FFF798BD37
S315080130F00820BDE80840FFF739BE00BF00080040B8
S3150801310008B50121104802F065F9012811D00121FD
S315080131100E4802F05FF9012806D002210B4802F099
S3150801312059F901280AD008BD0820BDE80840FFF76B
S3150801313077BD0420BDE80840FFF772BD0F20BDE842
S315080131400840FFF713BE00BF00040140001C004001
S3150801315008B502210A4802F03DF9012806D00421E2
S31508013160074802F037F9012805D008BD0920BDE84E
S315080131700840FFF7FBBD0A20BDE80840FFF7F6BD8A
S315080131800004014008B50121104802F023F901287D
S3150801319011D002210D4802F01DF9012806D004219B
S315080131A00A4802F017F901280AD008BD0B20BDE824
S315080131B00840FFF7DBBD0520BDE80840FFF730BD35
S315080131C00C20BDE80840FFF7D1BD00BF0040014013
S315080131D008B501210A4802F0FDF8012806D00221A6
S315080131E0074802F0F7F8012805D008BD0720BDE811
S315080131F00840FFF715BD0E20BDE80840FFF7B6BD2C
S315080132000048014008B501210A4802F0E3F80128FF
S3150801321006D00221074802F0DDF8012805D008BDCD
S315080132200920BDE80840FFF7FBBC1020BDE80840AF
S31508013230FFF79CBD00200040F0B500EB8002254B4E
S3150801324053F8325083B004460026284640F22771C7
S31508013250019602F0F1F801280AD040F225512846D4
S3150801326002F0EAF80128074615D0019803B0F0BD27
S31508013270194B01AA53F824000DF1030100F0F8FED9
S3150801328001281FD02846324640F2277102F0B6F8C7
S31508013290019803B0F0BD284602F0ACF80F4A8DF844
S315080132A00300334652F824000DF1030101AA00F088
S315080132B0C3FD0028D9D13A46142142F60210FEF779
S315080132C0C7FDD2E728469DF8031002F08FF801984A
S315080132D003B0F0BD54CB000860A3002050A3002022
S315080132E008B50020FFF7A8FF18B1024B4FF080522E
S315080132F01A6008BD04ED00E008B50120FFF79CFF40
S3150801330018B1024B4FF080521A6008BD04ED00E077
S3150801331008B50220FFF790FF18B1024B4FF0805213
S315080133201A6008BD04ED00E008B50320FFF784FF25
S3150801333018B1024B4FF080521A6008BD04ED00E047
S31508013340704700BF704700BF10B50749074B084AC9
S31508013350084882B0002400930C60074B012102F053
S31508013360CBFB02B010BD00BF9C000020D40000209A
S31508013370B800002070A3002010010020F8B50E4601
S315080133800446FDF759FB8EB126440A4D0A4F621EC3
S31508013390013E00242B6812F8011FF9540133B3F5D5
S315080133A0006F08BF2346B2422B60F3D1BDE8F8404F
S315080133B0FDF744BB0401002028B60020014B186024
S315080133C0704700BF9C000020024B1B6803B11847D9
S315080133D0704700BF9C00002010B5094CA37A4BB179
S315080133E0084A136823F00603136002F049F82046D9
S315080133F003F074FA4FF48020BDE8104001F0D8BFFD
S3150801340070A3002010ED00E0014803F097BB00BF50
S3150801341070A3002012230B8000487047A0000020EB
S3150801342004230B8000487047B400002010B5044CF3
S3150801343004480A46214602F0F9FD204610BD00BFA0
S315080134402CBE002010CC00080A4608B5054920B153
S31508013450054802F0EBFD034808BD044802F0E6FD05
S31508013460004808BD2CBE002048CC000824CC000822
S315080134700A4608B5054920B1054802F0D7FD0348B3
S3150801348008BD044802F0D2FD004808BD2CBE002044
S315080134907CCC00086CCC000810B5044C04480A46DC
S315080134A0214602F0C3FD204610BD00BF2CBE0020F8
S315080134B0F4CB000810B5044C04480A46214602F02C
S315080134C0B5FD204610BD00BF2CBE002000CC00086B
S315080134D0704700BF704700BF704700BF704700BF05
S315080134E0704700BF704700BF704700BFF0B44FEA8E
S315080134F0800C3D4F3D4C0CEB000307EB8303997A97
S31508013500DD7A8A00A3185B5D002B48D001EB4101E7
S31508013510374B53F82130002D38D15E6BB6B284444F
S3150801352007EB8C0703F10473B9891033CF074FEA08
S3150801353043131FD48C0734D4480737D40F073AD41A
S31508013540CC063AD488063AD44F063AD40C063AD46D
S31508013550C8053AD48F053AD44C053AD408053AD465
S31508013560CF043CD48C0438D448043AD409044CBF5B
S315080135703C3380332A441F491F4851F8221000243E
S315080135801C6020F8126051B1F0BC0847012D0AD021
S31508013590022D0DD0032D04BF1E6CB6B2BFE7F0BCD9
S315080135A070470433E6E79E6BB6B2B8E70833E1E73E
S315080135B0DE6BB6B2B3E70C33DCE71033DAE7143364
S315080135C0D8E71833D6E71C33D4E72033D2E72433B8
S315080135D0D0E72833CEE72C33CCE73433CAE7303388
S315080135E0C8E73833C6E700BF04CD00087CAA002027
S315080135F08CCC000864A900202CAA002010B5012152
S31508013600184801F0E7FE012812D1174B1B7873B150
S31508013610164B174A1B680021116043B1BDE81040DB
S3150801362018470221134801F0D5FE012814D010BD10
S315080136300121104801F0CEFE0128F2D10A4B9B79EF
S31508013640002BF4D0094B0C4A9B6900211160002B11
S31508013650EDD0BDE8104018470D20BDE81040FFF732
S3150801366045BF00BF00000140F000002004AA002069
S3150801367000022042004401400082284208B5022186
S31508013680134801F0A7FE012817D00421104801F0BC
S31508013690A1FE01280DD008210D4801F09BFE012845
S315080136A010D010210A4801F095FE012800D008BD66
S315080136B00320BDE80840FFF719BF0020BDE8084010
S315080136C0FFF714BF0220BDE80840FFF70FBF00BF90
S315080136D00000014010B501214FF0804001F07AFE4B
S315080136E001280BD10C4B5B787BB10C4B0C4A5B6800
S315080136F0002111604BB1BDE81040184702214FF077
S31508013700804001F067FE012800D010BD0420BDE805
S315080137101040FFF7EBBE00BFF000002004AA00200E
S315080137200002004210B50121134801F053FE012899
S315080137300BD1124B9B78A3B1114B124A9B680021FE
S31508013740116073B1BDE81040184702210A4801F01B
S3150801375041FE01280BD00421074801F03BFE012850
S3150801376000D010BD0620BDE81040FFF7BFBE0520FA
S31508013770BDE81040FFF7BABE00040040F000002083
S3150801378004AA00200082004210B50121134801F065
S3150801379021FE01280BD1124BDB78A3B1114B124A3A
S315080137A0DB680021116073B1BDE81040184702219A
S315080137B00A4801F00FFE01280BD00421074801F041
S315080137C009FE012800D010BD0820BDE81040FFF70A
S315080137D08DBE0720BDE81040FFF788BE00080040EF
S315080137E0F000002004AA00200002014210B50121C0
S315080137F0184801F0EFFD012812D1174B1B7973B157
S31508013800164B174A1B690021116043B1BDE81040E8
S3150801381018470221134801F0DDFD012814D010BD17
S315080138200121104801F0D6FD0128F2D10A4B1B7A75
S31508013830002BF4D0094B0C4A1B6A00211160002B9E
S31508013840EDD0BDE8104018470F20BDE81040FFF73E
S315080138504DBE00BF00040140F000002004AA00206C
S3150801386000822042001C00400082034208B5022162
S315080138700A4801F0AFFD012806D00421074801F0E6
S31508013880A9FD012805D008BD0920BDE80840FFF7B4
S315080138902DBE0A20BDE80840FFF728BE00040140F6
S315080138A010B50121134801F095FD01280BD1124BE2
S315080138B05B79A3B1114B124A5B690021116073B19F
S315080138C0BDE81040184702210A4801F083FD012886
S315080138D00BD00421074801F07DFD012800D010BD59
S315080138E00C20BDE81040FFF701BE0B20BDE81040D3
S315080138F0FFF7FCBD00400140F000002004AA0020AB
S315080139000002284210B501210E4801F063FD012885
S315080139100BD10D4BDB7973B10C4B0D4ADB690021D9
S31508013920116043B1BDE8104018470221054801F06E
S3150801393051FD012800D010BD0E20BDE81040FFF74B
S31508013940D5BD00BF00480140F000002004AA0020B0
S315080139500002294210B501210E4801F03BFD01285C
S315080139600BD10D4B5B7A73B10C4B0D4A5B6A002187
S31508013970116043B1BDE8104018470221054801F01E
S3150801398029FD012800D010BD1020BDE81040FFF721
S31508013990ADBD00BF00200040F000002004AA0020B1
S315080139A00002044200B5012183B04020FEF7DEFE85
S315080139B04FF48064032200230125694608488DF8DF
S315080139C0052000948DF804508DF807308DF80630DF
S315080139D0FEF744FE2A4621460148FEF793FEFEE716
S315080139E00018024000487047A4AA002010B51F4CD1
S315080139F001236380032816D8DFE800F002201B168E
S31508013A00FEF7AEFA132823D9132200211848FEF728
S31508013A10EFFA4FF6FE73A4F8A030FDF793FA1423D4
S31508013A20C4F8A400636010BDFEF772FA0023636050
S31508013A3010BDFEF77BFA0023636010BDFEF788FA16
S31508013A4013280CD9132200210948FEF791FAE0E759
S31508013A50142200210648FEF7CBFA606010BD142235
S31508013A6000210348FEF784FA606010BDA4AA00206D
S31508013A70ACAA0020044B987801229042DA7006BF5E
S31508013A8000229A7000207047A4AA002000F10803BA
S31508013A904FF0FF3100228160C0E90023C0E90333FA
S31508013AA0704700BF00230361704700BFD0E90023B8
S31508013AB010B49C688C609C684B60013261609960A7
S31508013AC05DF8044B08610260704700BF30B40D68A9
S31508013AD06B1C11D000F1080200E01A4653681C68F5
S31508013AE0AC42FAD904684B60013499608A60516026
S31508013AF00861046030BC704702695368F2E700BF89
S31508013B00D0E90131026910B49960816854684B6043
S31508013B101368844208BF5160013B002101615DF8C9
S31508013B20044B13601846704738B51546026C0446AF
S31508013B3032B90568002D2BD0A36B0133A36338BDB9
S31508013B407DB9806803F006FBA368216C62680B44A3
S31508013B509342A360F0D32368A360A36B0133A363E5
S31508013B6038BDC06803F0F6FA226CE3682168524250
S31508013B7013448B42E36002D263681A44E260022D61
S31508013B80DAD1A36B002BD7D0A36B013BA363D3E791
S31508013B904068FDF7BFFC6560CEE700BF036873B1F7
S31508013BA030B4026C45680C46C1681144A942C1602B
S31508013BB024BFC3601946204630BC03F0CBBA704710
S31508013BC038B50446FEF7B8FAA36C002B14DD636A10
S31508013BD093B104F1240507E0A36C013BA364A36C2C
S31508013BE0002B09DD636A3BB12846FDF78DFB0028EA
S31508013BF0F2D0FDF725FCEFE74FF0FF33A364FEF79C
S31508013C00ADFAFEF799FA636C002B14DD236993B1BB
S31508013C1004F1100507E0636C013B6364636C002BD8
S31508013C2009DD23693BB12846FDF76EFB0028F2D072
S31508013C30FDF706FCEFE74FF0FF336364BDE8384054
S31508013C40FEF78CBA38B50D46044670B3FEF774FA1A
S31508013C50D4E90F132268A26001FB03F1CB1A1344BE
S31508013C6000200A444FF0FF31A063E360616462609B
S31508013C70A16475B923691BB9FEF770FA012038BD2D
S31508013C8004F11000FDF740FB0128F5D1FEF730FAE3
S31508013C90F2E704F11000FFF7F9FE04F12400FFF73B
S31508013CA0F5FEFEF75BFA012038BDFA210148FCF75B
S31508013CB049FFCBE758CE000870B5C0B105464C2080
S31508013CC00E46FCF773FD044688B106FB05F0013084
S31508013CD0FCF76CFD206038B1C4E90F560121204676
S31508013CE0FFF7B0FF204670BD2046FCF7CBFD40F23A
S31508013CF0571103480024FCF725FF204670BD00BF75
S31508013D0058CE00082DE9F04385B0894601921F4631
S31508013D100446002800F08780B9F1000F62D0022F0F
S31508013D2057D00026B04625E0FEF718FAFDF702F946
S31508013D30FEF702FA636C013308BFC4F84480A36C2A
S31508013D40013308BFC4F84880FEF708FA01A902A89A
S31508013D50FDF732FB002854D1FEF7EEF9A26BE36BAF
S31508013D609A4218D0FEF7FAF92046FFF729FFFDF720
S31508013D70ADF90126FEF7E0F9A26BE36B9A421BD374
S31508013D80022F19D0019D002D35D0002ECCD102A8C5
S31508013D90FDF7FCFAC8E7FEF7E1F9019904F110000D
S31508013DA0FDF764FA2046FFF70BFFFDF78FF90028A8
S31508013DB0DFD1FEF79DF9DCE73A4649462046FFF78B
S31508013DC0B3FE636A33BBFEF7C9F9012005B0BDE846
S31508013DD0F083E36B012BA4D04FF40F711548FCF760
S31508013DE0B1FE9EE7236C002B99D040F23B21114886
S31508013DF0FCF7A8FE93E7FEF7B1F9284605B0BDE83A
S31508013E00F0832046FFF7DCFEFDF760F9002005B0D8
S31508013E10BDE8F08304F12400FDF776FA0128D2D132
S31508013E20FEF766F9CFE740F23A210248FCF78AFE27
S31508013E3072E700BF58CE00082DE9F0410D469046BD
S31508013E401E46044600283FD065B3022E0FD0FEF762
S31508013E5045FAFEF759F9A26BE36B9A4207460FD367
S31508013E6000243846FEF776F92046BDE8F081E36B73
S31508013E70012B2FD1FEF732FAFEF746F9A36B074657
S31508013E80324629462046FFF74FFEA36C013312D06E
S31508013E90A36C0133A36438460124FEF75BF9204677
S31508013EA0BDE8F081236C002BCFD040F2AD31164826
S31508013EB0FCF748FEC9E7636AC3B938460124FEF729
S31508013EC049F92046BDE8F0814FF46B710E48FCF7BD
S31508013ED039FEB9E740F2AE310B48FCF733FEFEF77F
S31508013EE0FDF9FEF711F9A36B0746C9E704F12400AA
S31508013EF0FDF70AFA0028E0D00124B8F1000FB0D086
S31508013F00C8F80040ADE700BF58CE00082DE9F041DA
S31508013F1084B00F46019298460446002800F0948022
S31508013F20002F7ED0FEF708F9A56B002D46D1019B1F
S31508013F30002B67D002A8FDF729FA04F1240616E03A
S31508013F40FEF70CF92368002B54D001993046FDF78A
S31508013F508DF92046FFF734FEFDF7B8F8002846D05C
S31508013F60FEF7EAF8A36B4BBB019B002B4AD0FEF781
S31508013F70F5F8FCF7DFFFFEF7DFF8636C013308BFDE
S31508013F806564A36C013308BFA564FEF7E7F801A9C8
S31508013F9002A8FDF711FA00283AD1FEF7CDF8A36B6E
S31508013FA0002BCDD0FEF7DAF82046FFF709FEFDF71C
S31508013FB08DF8FEF7C1F8A36B002BD5D039462046FC
S31508013FC0E568FFF7EBFDB8F1000F34D1A36B226862
S31508013FD0013BA363002A44D023697BB304F1100093
S31508013FE0FDF792F9012829D1FEF782F826E0FEF7B6
S31508013FF07FF8B5E7FEF7A0F86068FDF755FAFEF712
S31508014000ADF8A2E7FEF7AAF8002004B0BDE8F081F2
S315080140102046FFF7D5FDFDF759F8002004B0BDE8A5
S31508014020F081236C002B3FF47DAF40F21E410F480F
S31508014030FCF788FD76E7636AE5605BB9FEF78EF8FB
S31508014040012004B0BDE8F08140F21D410748FCF7A4
S3150801405079FD65E704F12400FDF756F90028EDD04E
S31508014060C2E7FDF70DFA6060B6E700BF58CE000853
S31508014070F8B50D461746044648B3FDB1FEF72EF9C5
S31508014080FEF742F80646A06B28B904463046FEF705
S3150801409061F82046F8BD29462046FFF77FFDA36B48
S315080140A0013BA363636C013317D0636C013363640B
S315080140B030460124FEF74EF82046F8BD236C002B46
S315080140C0DCD04FF497610C48FCF73CFDD6E740F28B
S315080140D0B7410948FCF736FDCFE72369002BE7D03E
S315080140E004F11000FDF710F90028E1D0002FDFD008
S315080140F001243C60CAE700BF58CE000810B5044643
S3150801410008B1A06B10BD40F253510248FCF71AFDE5
S31508014110A06B10BD58CE000838B504460D46FEF70B
S315080141200BF8636C013304BF00236364A36C01338A
S3150801413004BF0023A364FEF711F8A36B23B929462C
S3150801414004F12400FDF7BEF82046BDE83840FFF724
S3150801415037BD00BF164890F80131002223F040030D
S3150801416080F8013180F8062980F8072980F808299E
S3150801417080F8092980F80A29A0F80E29A0F810293B
S31508014180A0F81229A0F81429A0F81629A0F81829C8
S3150801419000F5837300F6061103F8012B8B42FBD158
S315080141A0FF2380F80B3980F80C3980F80D397047F0
S315080141B04CAC002030B41448B0F80749B0F80919D6
S315080141C090F80629A40001EB810323440333C2EBCB
S315080141D0C2052B449BB2B3F5006F12D2072303FB2A
S315080141E0020202F2091222F00302144404EB8101CD
S315080141F0C0F81249C0F81619C0F80E2930BC0020BB
S315080142007047302030BC70474CAC002010B4134CBA
S31508014210C0EBC000204494F80639002280F80A2130
S3150801422093B194F80A21500614D45A1ED2B2C2EB9D
S31508014230C2022244234605E093F81111490603F107
S31508014240070307D49342F7D194F8013123F04003C9
S3150801425084F801315DF8044B704700BF4CAC00206F
S315080142602DE9F04F424C94F801315D0683B072D5C1
S31508014270022870D8204494F8063990F80B59AB42B5
S3150801428069D9C5EBC503234493F80A21510662D5BA
S3150801429093F80C21013AD2B283F80C21002A5AD19B
S315080142A0B3F80881B3F8062193F80B1183F80C11BA
S315080142B0424550D32F4E0195994609E0FDF74EFF29
S315080142C008F10108B9F806311FFA88F8434546D3BB
S315080142D0FDF732FFB9F8083199F80A219DF804105B
S315080142E07170D206A8EB0301317001D5434538D068
S315080142F00225D4F80E39D4F816C903EB88031888B1
S315080143001CF80070002FD9D0B3F802E07045354487
S3150801431018D8D4F812A95AF82020791EC9B2013141
S315080143202944013A2B4612F801BF03F801BB8B4217
S31508014330F9D1013080B286453D4403D31CF800709B
S31508014340002FE8D1AD1BEDB228460A4986F8FF5081
S31508014350FDF744FCB2E7002003B0BDE8F08F012069
S31508014360FAE7FDF7C7FCFDF7C5FC04257080C0E731
S315080143704CAC00204CAB002070B50378BB4CFF2B2E
S3150801438094F801613BD0B50638D50122FF21217089
S3150801439084F800210278D33A05462B2A00F27B825B
S315080143A0DFE812F05B007A009A00DB00A4007902CC
S315080143B0C700E0007902EF00F8000B012C01430168
S315080143C070019601790279027902790279027902F4
S315080143D079027902790279027902BB017902D4015B
S315080143E0F20179027902FC0122024202790279027A
S315080143F079024B0262026B0271024F0070BD012203
S315080144003606237084F8002118D542F2080240F2D4
S315080144100113A4F80021E380FDF7D4FBE070FDF752
S31508014420D7FB80230422A37094F80031A080627020
S3150801443018468E49BDE87040FDF7D0BBFFF78AFEE6
S31508014440E3E794F8063913B1002284F80A2126F025
